:020000040800F2
:1000000080290020C9010008559900088590000842
:10001000D5010008D7010008D90100080000000040
:100020000000000000000000000000004DD70008A4
:10003000DD01000800000000EDAC000801D9000857
:10004000E3010008E3010008E3010008E301000800
:10005000E3010008E3010008E3010008E3010008F0
:10006000E3010008E3010008E3010008BD05000802
:10007000E3010008E3010008E3010008E3010008D0
:10008000E3010008E3010008E3010008E3010008C0
:10009000E3010008E3010008E3010008E3010008B0
:1000A000E3010008E3010008E3010008E3010008A0
:1000B000E301000861D90008E3010008E30100083A
:1000C000E3010008E3010008E3010008E301000880
:1000D000E301000809DE0008E3010008E30100086D
:1000E000E3010008E3010008E301000800F002F862
:1000F00000F05AF80AA090E8000C82448344AAF168
:100100000107DA4501D100F04FF8AFF2090EBAE865
:100110000F0013F0010F18BFFB1A43F0010318473B
:10012000A01A0100C01A01000A444FF0000C10F898
:10013000013B13F0070408BF10F8014B1D1108BF65
:1001400010F8015B641E05D010F8016B641E01F805
:10015000016BF9D113F0080F1EBF10F8014BAD1C55
:100160000C1B09D16D1E58BF01F801CBFAD505E073
:1001700014F8016B01F8016B6D1EF9D59142D6D3CD
:10018000704700000023002400250026103A28BFF5
:1001900078C1FBD8520728BF30C148BF0B607047F9
:1001A0001FB51FBD10B510BD00F0A8F91146FFF72F
:1001B000F7FF0EF0F5FE00F0C6F903B4FFF7F2FF0B
:1001C00003BC00F0C9F9000009488047094800470E
:1001D000FEE7FEE7FEE7FEE7FEE7FEE7FEE7FEE7F7
:1001E000FEE7FEE704480549054A064B7047000054
:1001F00011D90008ED00000880210020802900208E
:10020000802500208025002010B54C1084EA53047E
:1002100004D54042C1F1000138BF491E1B4204D53C
:100220005242C3F1000338BF5B1E00F0DCF814F04B
:10023000804F04D04042C1F1000138BF491E14F084
:10024000004F04D05242C3F1000338BF5B1E10BD03
:10025000032A40F2308010F0030C00F0158011F8F2
:10026000013BBCF1020F624498BF11F801CB00F8CA
:10027000013B38BF11F8013BA2F1040298BF00F81E
:1002800001CB38BF00F8013B11F0030300F02580DB
:10029000083AC0F0088051F8043B083A51F804CB02
:1002A000A0E80810F5E7121D5CBF51F8043B40F8C8
:1002B000043BAFF30080D20724BF11F8013B11F8D3
:1002C00001CB48BF11F8012B24BF00F8013B00F817
:1002D00001CB48BF00F8012B704710B5203AC0F0A1
:1002E0000B80B1E81850203AA0E81850B1E8185037
:1002F000A0E81850BFF4F5AF5FEA027C24BFB1E874
:100300001850A0E8185044BF18C918C0BDE81040E4
:100310005FEA827C24BF51F8043B40F8043B08BFED
:100320007047D20728BF31F8023B48BF11F8012BB4
:1003300028BF20F8023B48BF00F8012B704702F0AD
:10034000FF0343EA032242EA024200F002B84FF000
:1003500000020429C0F0128010F0030C00F01B8092
:10036000CCF1040CBCF1020F18BF00F8012BA8BFA0
:1003700020F8022BA1EB0C0100F00DB85FEAC17C64
:1003800024BF00F8012B00F8012B48BF00F8012B17
:1003900070474FF0000200B5134694469646203948
:1003A00022BFA0E80C50A0E80C50B1F12001BFF42E
:1003B000F7AF090728BFA0E80C5048BF0CC05DF894
:1003C00004EB890028BF40F8042B08BF704748BFE2
:1003D00020F8022B11F0804F18BF00F8012B704756
:1003E00070477047704753EA020C00F069802DE9AE
:1003F000F04B4FF00006002B1FBFB3FA83F503FA52
:1004000005F424FA05F65E4012BF1643B2FA82F5EF
:1004100002FA05F4C5F120051EBF22FA05FC44EAE4
:100420000C04203556EA044C4FEA144418BF641CEF
:100430004FF000084FF00009904271EB030C39D3E4
:10044000002919BFB1FA81F701FA07F6B0FA80F76F
:1004500000FA07F6C7F120071EBF20FA07FC46EA9C
:100460000C062037B6FBF4FCA7EB0507103F07F09E
:100470001F0BCBF120060CFA0BFB2CFA06F644BF3F
:10048000B3460026202FA4BF5E464FF0000B5BEA68
:10049000060C08BF4FF0010B19EB0B09ABFB027CFC
:1004A00048EB0608C01B06FB02CC0BFB03CC71EB30
:1004B0000C01C1E70B46024641464846BDE8F08BB9
:1004C00013B54FF000004FF00001AFF30080BDE81E
:1004D0001C40704710B500F009F8006810BD10B559
:1004E000044600F003F8046010BD000000487047A7
:1004F0002021002000487047202100207546FFF78A
:10050000F9FFAE4605006946534620F007008546D0
:1005100018B020B5FFF766FEBDE820404FF000069A
:100520004FF000074FF000084FF0000B21F00701DB
:10053000AC46ACE8C009ACE8C009ACE8C009ACE81E
:10054000C0098D46704710B50446AFF300802046C1
:10055000BDE81040FFF731BE01491820ABBEFEE7F1
:1005600026000200704710B50DF0D2F90AF092FF94
:1005700007F0E6FA07F09CF909F0EDF9BDE8104044
:100580000DF098B930B500200021094B094C5A5C98
:100590002D2A06D02B2A04D034F8115002FB050076
:1005A00080B2491CC9B20429F1D30349088730BD80
:1005B00096090020D81901082800002010B5022053
:1005C00000F09EF8002804D0BDE81040022000F0A2
:1005D00001B810BDC10002D5024908607047024948
:1005E000486070470404024000000240002904D023
:1005F000016841F001010160704701684FF6FE7229
:10060000114001607047000001684FF6FE72114012
:1006100001600021016041608160C1603649364A55
:100620000839904204D1486840F00F004860704794
:10063000314A1432904204D1486840F0F0004860DA
:1006400070472D4A2832904204D1486840F47060C7
:1006500048607047284A3C32904204D1486840F4D0
:10066000704048607047244A5032904204D1486834
:1006700040F47020486070471F4A6432904204D1B1
:10068000486840F47000486070471B4A78329042D6
:1006900004D1486840F0706048607047174A111FE5
:1006A000904204D1086840F00F0008607047134A78
:1006B0001432904204D1086840F0F000086070479E
:1006C0000E4A2832904204D1086840F470600860F5
:1006D00070470A4A3C32904204D1086840F47040A6
:1006E00008607047054A50329042FAD1086840F4D9
:1006F00070200860704700000800024008040240B3
:1007000002460020D10002D50449096801E00449ED
:100710000968114200D00120704700000004024027
:100720000000024030B5026847F6F0739A430C6A45
:100730008B682343D1E904452C4323438C6923432D
:10074000CC6923434C6A23438C6A234313430360DD
:10075000CA6842600A6882604968C16030BD0000B2
:1007600070B50E46DDE90415134C002804EBC304F4
:1007700005D0904208D320460EF0A3FC19E0204695
:100780000EF098FC002070BD304490420BD2A0784F
:10079000012803D020460EF08DFC0AE020462946B1
:1007A0000EF0ABFC05E0A078012802D120460EF047
:1007B00088FCA07870BD00007805002070B50E465A
:1007C000DDE90415134C002804EBC30405D0904266
:1007D00008D820460EF075FC19E020460EF06AFCA1
:1007E000002070BD801B90420BD3A078012803D05D
:1007F00020460EF05FFC0AE0204629460EF07DFC04
:1008000005E0A078012802D120460EF05AFCA0781D
:1008100070BD00007805002070B5124D4FF4805176
:10082000284607F0FFFA104C20706914284607F09C
:10083000F9FA60700020A31ED91E225C62B11D5C13
:100840000A78AA430A70401CC0B20228F5D308787F
:100850000649A1F8780170BD1A5C0D782A430A7028
:10086000F1E70000000C014019000020641C00208A
:1008700070B5049D0E4C062808D2DFE800F003088E
:100880000D12141621706270A370E57070BD217195
:100890006271A371E57170BD21726272A372E5721B
:1008A00070BDE27370BDA27370BD627370BD000055
:1008B000A3090020F0B587B0534A491E0025012640
:1008C000524F02EB8104012837D03946D4F87C0618
:1008D00010F0B8FA10F094FB04903946D4F84807A9
:1008E00010F0B0FA10F08CFB05903946D4F81408DB
:1008F00010F0A8FA10F084FB06900095CDE901569F
:100900000395042302220020049906F057F800956D
:10091000CDE901560395042302220120059906F032
:100920004DF80095CDE901560222039504231046A7
:10093000069906F043F807B0F0BD3548007860B37B
:100940003946D4F8180410F07DFA10F059FB0490E1
:100950003946D4F8B00510F075FA10F051FB069046
:100960000095CDE901560395042302220020049945
:1009700006F024F80095CDE90156039504230222E0
:100980000120069906F01AF8402003460246014667
:1009900000900220FFF76CFFCDE73946D4F8180429
:1009A00010F050FA10F02CFB04903946D4F8E4040F
:1009B00010F048FA10F024FB05903946D4F8B00541
:1009C00010F040FA10F01CFB06900095CDE901569E
:1009D0000395042302220020049905F0EFFF0095FF
:1009E000CDE901560395042302220120059905F063
:1009F000E5FF0095CDE90156022203950423104638
:100A0000069905F0DBFF96E7640E00200000C8425F
:100A1000C01F00202DE9F04F97B0F84C0025A586A7
:100A2000F7480178002903D1417809B9807808B1E5
:100A300002202071F148F44BDFF8D0832279C07B8B
:100A40001E781696D8F89C90EE4989F000461596C7
:100A5000D8F8A0A081278AF000461496DFF8B0C32A
:100A60000126D8F8A4E042F2107BCDF84CE0472AEA
:100A700077D2DFE812F047004201A702A403F8058D
:100A80002708470AE20A450B970BE90B3B0C980C29
:100A9000FA0C350D4E0D670D800D990DB10DCA0D77
:100AA000E30DFC0D150E2D0E460E5F0E780E930E07
:100AB000AB0EC30EDB0EF30E0B0F220F3A0F520FCD
:100AC0006A0F820F990FB10FC90FE10FF90F1010C4
:100AD000C300C300C3002D105E10C300C300C300D9
:100AE000C300C300C300C300C300C300C300C300EE
:100AF000C300C300C300D00017022B03140527074F
:100B00004C09B70A0027DFF80CB3DFF80C9307EBAA
:100B1000870000EBC70008EB8000D0F800A050462B
:100B200010F06EFA01460EA840F82710B949494264
:100B30008A4503DAA18E41F00101A1860AEB0B017F
:100B4000494504D2A18E41F00201A1861DE0B349BE
:100B5000B34A5144914205D2A18E41F00401A186CD
:100B600013E04BE0AF49B04A5144914204D2A18E08
:100B700041F00801A18608E0AC49AD4A51449142D8
:100B800003D2A18E41F01001A1867F1CFFB2032F7A
:100B9000BDD30027DFF89C82DFF89CA2814659F87C
:100BA00027000FF07CFD424653460FF0D1FD0FF0B9
:100BB000B1FC014694F834000095CDE9015603904C
:100BC00004230022384606F011FD7F1CFFB2032FDC
:100BD000E5D3A08E012806D100231022FF21032097
:100BE0000095FFF745FEA08E811E0E2909D2122224
:100BF0000023FF2103200095FFF73AFE17B0BDE860
:100C0000F08FC006FAD518220023FF21032000959B
:100C1000FFF72EFEF2E7D8F8AC0010F0F1F90E90D5
:100C200086490E98884200D2A68684480E99404292
:100C300008448349884204D2A08E40F00200A08676
:100C40001FE080480E9908447F49884204D2A08E54
:100C500040F00400A08614E07C480E9901447C48D2
:100C6000814204D2A08E40F00800A08609E07948B5
:100C70000E9901447848814203D2A08E40F01000C2
:100C8000A08600231A46B32118460095FFF7F0FD11
:100C90000E980FF004FD674A674B0FF059FD0FF0F7
:100CA00039FC014694F834000095CDE901560390D3
:100CB00004230022012006F099FCA08E012806D111
:100CC00000235022FF2103200095FFF7D1FDA08EC5
:100CD000811E0E2907D252220023194603200095B7
:100CE000FFF7C6FD8AE7C00688D5582200231946BB
:100CF00003200095FFF7BCFD80E70027DFF814B163
:100D00000DF13809CBF1000B07EB870000EBC700B2
:100D100008EB800ADAF8080010F072F949F82700A9
:100D2000DAF80000584503DAA18E41F00101A186EE
:100D30003849421838498A4204D2A08E40F0020055
:100D4000A0861CE03549364A0144914204D2A08E67
:100D500040F00400A08612E03249334A0144914237
:100D600004D2A08E40F00800A08608E02F49084475
:100D70002F49884203D2A08E40F01000A0867F1C2D
:100D8000FFB2032FC0D30027DFF8A880DFF8A8A0A8
:100D900059F827000FF083FC424653460FF0D8FC69
:100DA0000FF0B8FB014694F834000095CDE90156E8
:100DB000039004230022384606F018FC7F1CFFB283
:100DC000032FE5D3A08E012808D1A07BA0B100237A
:100DD0001A46194603200095FFF74AFDA08E811E92
:100DE0000E294BD2A07B40B10222002319460320DA
:100DF0000095FFF73DFD01E730E037E028000020D7
:100E00001D000020F0237449C01F0020C80A0020E4
:100E1000B01F002000B03CB800D4B00100DC8BB69D
:100E20008072A4018069E7B4A025A601E04341B324
:100E300008AFAF019A9999999999B93FA086010095
:100E4000A0BB0D00C0BDF0FF40548900806967FF62
:100E5000804A5D05001F0AFA00E9A435002310222C
:100E6000194603200095FFF703FDB7E71222002380
:100E7000194603200095FFF7FBFCBFE6C006BAD574
:100E8000A07B38B108220023194603200095FFF704
:100E9000EFFCB3E618220023194603200095FFF764
:100EA000E7FCABE6D8F8B00010F0AAF80E90FE49C7
:100EB0000E98884200D2A686FB480E994042014413
:100EC000FA48814204D2A08E40F00200A0861FE0C2
:100ED000F7480E990144F748814204D2A08E40F0B1
:100EE0000400A08614E0F4480E990144F3488142BE
:100EF00004D2A08E40F00800A08609E0F0480E99C8
:100F00000144F048814203D2A08E40F01000A08638
:100F10000023B322322118460095FFF7A9FC0E9852
:100F20000FF0BDFBE84AE94B0FF012FC0FF0F2FAAC
:100F3000014694F834000095CDE90156039004234E
:100F40000022012006F052FBA08E012808D1A07BD0
:100F5000A0B100234022194603200095FFF788FC2A
:100F6000A08E811E0E2919D2A07B78B142220023C7
:100F7000194603200095FFF77BFC3FE60023502233
:100F8000194603200095FFF773FCE9E7522200237E
:100F9000194603200095FFF76BFC2FE6C006ECD541
:100FA000A07B38B148220023194603200095FFF7A3
:100FB0005FFC23E658220023194603200095FFF723
:100FC00057FC1BE60027DFF808B30DF1380907EBE3
:100FD000870000EBC70008EB8000D0F80CA050465B
:100FE00010F00EF849F82700DA4503DAA08E40F039
:100FF0000100A086B64840420AEB0001B548814294
:1010000004D2A08E40F00200A0861CE0B248B34992
:101010005044884204D2A08E40F00400A08612E022
:10102000AF48B0495044884204D2A08E40F0080036
:10103000A08608E0AC48AD495044884203D2A08E57
:1010400040F01000A0867F1CFFB2032FBFD3002703
:10105000DFF87482DFF874A259F827000FF01FFB45
:10106000424653460FF074FB0FF054FA014694F8D1
:1010700034000095CDE90156039004230022384640
:1010800005F0E6FD7F1CFFB2032FE5D3A08E00F034
:10109000200100F01002114301D100070ED50023FA
:1010A0000222194603200095FFF7E2FB00231022DD
:1010B000194604200095FFF7DBFB9FE50023102273
:1010C000194604200095FFF7D3FB97E5D8F8B40044
:1010D0000FF096FF0E9074490E98884200D2A686B3
:1010E00071490E98494208447049884204D2A08E42
:1010F00040F00200A0861FE06D480E9908446D493B
:10110000884204D2A08E40F00400A08614E06A4811
:101110000E9901446948814204D2A08E40F0080033
:10112000A08609E066480E9901446648814203D2D0
:10113000A08E40F01000A08600231A468121184698
:101140000095FFF795FB0E980FF0A9FA5E4A5F4BEA
:101150000FF0FEFA0FF0DEF9014694F83400009526
:10116000CDE90156039004230022012005F070FD13
:10117000A08E00F0200100F01002114301D1000701
:101180000ED500234222194603200095FFF770FB7D
:1011900000231022194604200095FFF769FB2DE576
:1011A00000234022194603200095FFF761FB00232E
:1011B0001022194604200095FFF75AFB1EE54FF058
:1011C000000B0027169828B1BFB1012F20D0022FA5
:1011D00029D02DE007EB870000EBC70008EB80006B
:1011E000406910F1FF4F01D380F0004010F098F9F2
:1011F00006AA02EBC70203C21AE019F1FF4F01D39E
:10120000159800E0484610F08BF9CDE906010FE093
:101210001AF1FF4F01D3149800E0504610F080F906
:10122000CDE9080104E0139810F07AF9CDE90A013C
:1012300006AA02EBC7011C4B03C9C31A71F10003D4
:1012400003DAA38E43F00103A3860ADB184B5B424B
:10125000C31A71F1000304DAA08E40F00200A086E8
:10126000A5E0134B5B42C31A71F100030ADB124B7A
:101270005B42C31A71F1000304DAA08E40F004004F
:10128000A08694E00C4B5B42C31A71F100032FDB84
:101290000B4B5B42C31A71F1000329DAA08E40F0B8
:1012A0000800A08683E00000A0860100A0BB0D001E
:1012B000C0BDF0FF40548900806967FF804A5D052A
:1012C000001F0AFA00E9A4359A9999999999B93FAA
:1012D0000050C34700D4B00100DC8BB68072A4017B
:1012E0008069E7B4A025A601E04341B308AFAF0190
:1012F000FB4BC31A71F1000309DBFA4BC31A71F1FE
:10130000000304DAA08E40F01000A0864FE0F54BF9
:10131000C31A71F1000309DBF34BC31A71F1020325
:1013200004DAA08E40F02000A08640E0EE4BC31A05
:1013300071F1020309DBED4BC31A71F1170304DAF3
:10134000A08E40F04000A08631E0E84BC31A71F156
:10135000170309DBE64BC31A71F1E80304DAA08E28
:1013600040F08000A08622E0E14BC31A71F1E8034F
:101370000BDBE04B40F6181CC31A71EB0C0304DACC
:10138000A08E40F48070A08611E0DA4B40F6181C65
:10139000C31A71EB0C030ADBD74B45F6F32CC01ACA
:1013A00071EB0C0103DAA08E40F40070A0867F1C64
:1013B000FFB2032FFFF406AF0027DFF840A34FF082
:1013C0000409904608EBC70103C90FF017F952460C
:1013D000CB4B0FF0BDF910F041F8A28E0295CDE98C
:1013E0000356CDE90059059202460B46384605F0F2
:1013F00089FD7F1CFFB2032FE4D3A08E01280BD000
:10140000102813D24FF0060B00235A46FF21032069
:101410000095FFF72DFA24E04FF0040B00235A4605
:10142000FF2103200095FFF723FA1AE0FF2809D8CF
:101430004FF00C0B00235A46194603200095FFF786
:1014400017FA0EE000F4807100F40070014308D038
:101450004FF00E0B00235A46194603200095FFF764
:1014600007FAA848007801287FF43CAC0BF1010B87
:1014700000230BF0FF02194603200095FFF7F8F94F
:1014800000230422194610460095FFF7F1F90023C6
:101490000422194605200095FFF7EAF922E419F124
:1014A000FF4F01D3159800E0484610F039F8024686
:1014B0000B46CDE90601944FC01B71F1000000DA24
:1014C000A68609DB9148101A73F1000004DAA08E99
:1014D00040F00200A0867BE08C48101A73F10000F7
:1014E00009DB8B48101A73F1000004DAA08E40F07B
:1014F0000400A0866CE08648101A73F1000009DB36
:101500007748101A73F1000004DAA08E40F008004A
:10151000A0865DE07248101A73F1000009DB714883
:10152000101A73F1000004DAA08E40F01000A086BB
:101530004EE06C48101A73F1000009DB6A48101A7B
:1015400073F1020004DAA08E40F02000A0863FE094
:101550006548101A73F1020009DB6448101A73F130
:10156000170004DAA08E40F04000A08630E05F480B
:10157000101A73F1170009DB5D48101A73F1E800C7
:1015800004DAA08E40F08000A08621E05848101AAE
:1015900073F1E8000BDB574840F61811101A73EB93
:1015A000010004DAA08E40F48070A08610E051485B
:1015B00040F61811101A73EB010009DB4E4845F68E
:1015C000F321101A8B4103DAA08E40F40070A0863C
:1015D00000231A46EA2118460095FFF749F9DDE98C
:1015E00006010FF00BF8454A454B0FF0B1F80FF02C
:1015F00035FFA28E0295CDE9035605920422CDE96E
:10160000005202460B46012005F07CFCA08E01280A
:1016100009D010280FD207220023FF2103200095B4
:10162000FFF726F929E400230522FF210320009576
:10163000FFF71EF921E4FF2807D80D2200231946E1
:1016400003200095FFF714F917E400F4807100F40B
:1016500000700143E6D00F220023194603200095B5
:10166000FFF706F909E40027DFF8A8A00DF1180933
:1016700007EB870000EBC70008EB8000806950454E
:1016800001D380F000400FF04BFF09EBC7020B467F
:1016900003C20246DFF870C0B0EB0C0071F100002D
:1016A00003DAA08E40F00100A08609DB1748101A6B
:1016B00073F1000004DAA08E40F00200A08698E0EA
:1016C0001248101A73F1000026DB1148101A73F14A
:1016D000000021DAA08E40F00400A08689E000001E
:1016E00000E1F50500CA9A3B00E40B5400E8764897
:1016F0000010A5D400A0724E00407A109A999999D2
:101700009999B93FC01F0020A086010040420F00F8
:101710008096980000008080FE48101A73F1000047
:1017200009DBFD48101A73F1000004DAA08E40F0C6
:101730000800A0865DE0F848101A73F1000009DB8C
:10174000F648101A73F1000004DAA08E40F0100081
:10175000A0864EE0F148101A73F1000009DBF04852
:10176000101A73F1020004DAA08E40F02000A08667
:101770003FE0EB48101A73F1020009DBE948101A48
:1017800073F1170004DAA08E40F04000A08630E02C
:10179000E448101A73F1170009DBE348101A73F1DB
:1017A000E80004DAA08E40F08000A08621E0DE4848
:1017B000101A73F1E8000BDBDC4840F61811101A20
:1017C00073EB010004DAA08E40F48070A08610E074
:1017D000D64840F61811101A73EB010009DBD44803
:1017E00045F6F321101A8B4103DAA08E40F4007005
:1017F000A0867F1CFFB2032FFFF43AAF0027DFF86B
:1018000034A3DFF834B34FF0040809EBC70103C970
:101810000EF0F4FE52465B460EF09AFF0FF01EFEED
:10182000A28E0295CDE90356CDE9005805920246F5
:101830000B46384605F066FB7F1CFFB2032FE4D34E
:10184000A08E012810D0102816D200230222FF21DA
:1018500003200095FFF70CF804220023FF21104617
:101860000095FFF705F828E404220023FF21104625
:101870000095FEF7FDFF20E4FF280ED80023082284
:10188000FF2103200095FEF7F3FF04220023FF2130
:1018900010460095FEF7ECFF0FE400F4807100F4B1
:1018A00000700143DFD000230A22FF2103200095AE
:1018B000FEF7DEFF04220023FF2110460095FEF70D
:1018C000D7FF6CE41AF1FF4F01D3149800E05046A3
:1018D0000FF026FE02460B46CDE90601974FC01BCE
:1018E00071F1000000DAA68609DB9548101A73F141
:1018F000000004DAA08E40F00200A0867BE0904851
:10190000101A73F1000009DB8248101A73F100000D
:1019100004DAA08E40F00400A0866CE07D48101A26
:1019200073F1000009DB7C48101A73F1000004DA3F
:10193000A08E40F00800A0865DE07748101A73F191
:10194000000009DB7548101A73F1000004DAA08E5C
:1019500040F01000A0864EE07048101A73F10000AD
:1019600009DB6F48101A73F1020004DAA08E40F010
:101970002000A0863FE06A48101A73F1020009DBDC
:101980006848101A73F1170004DAA08E40F0400086
:10199000A08630E06348101A73F1170009DB624833
:1019A000101A73F1E80004DAA08E40F08000A086DF
:1019B00021E05D48101A73F1E8000BDB5B4840F64C
:1019C0001811101A73EB010004DAA08E40F4807035
:1019D000A08610E0554840F61811101A73EB01006C
:1019E00009DB534845F6F321101A8B4103DAA08E28
:1019F00040F40070A08600231A46CB2118460095BB
:101A0000FEF736FFDDE906010EF0F8FD494A4A4BC4
:101A10000EF09EFE0FF022FDA28E0295CDE9035638
:101A200005920422CDE9005202460B46012005F042
:101A300069FAA08E012810D010281DD2032200239D
:101A4000FF2110460095FEF713FF04220023FF211B
:101A500010460095FEF70CFF20E500230122FF2130
:101A600003200095FEF704FF04220023FF21104607
:101A70000095FEF7FDFE11E5FF280ED80023092290
:101A8000FF2103200095FEF7F3FE04220023FF212F
:101A900010460095FEF7ECFE00E500F4807100F4BE
:101AA00000700143D8D000230B22FF2103200095B2
:101AB000FEF7DEFE04220023FF2110460095FEF70C
:101AC000D7FEEBE400270DF1180907EB870000EBC8
:101AD000C70008EB8000C0690FF022FD09EBC702C8
:101AE0000B4603C20246DFF854C0B0EB0C0071F1A4
:101AF000000003DAA08E40F00100A08622DB10482F
:101B0000101A73F100001DDAA08E40F00200A086CA
:101B100094E000008096980000E1F50500CA9A3B29
:101B200000E40B5400E876480010A5D400A0724EE3
:101B300000407A109A9999999999B93FA086010025
:101B400040420F00FE48101A73F1000009DBFD4807
:101B5000101A73F1000004DAA08E40F00400A08691
:101B60006CE0F848101A73F1000009DBF648101A0F
:101B700073F1000004DAA08E40F00800A0865DE05A
:101B8000F148101A73F1000009DBF048101A73F1E4
:101B9000000004DAA08E40F01000A0864EE0EB4872
:101BA000101A73F1000009DBE948101A73F1020002
:101BB00004DAA08E40F02000A0863FE0E448101A2E
:101BC00073F1020009DBE348101A73F1170004DA1D
:101BD000A08E40F04000A08630E0DE48101A73F17D
:101BE000170009DBDC48101A73F1E80004DAA08E54
:101BF00040F08000A08621E0D748101A73F1E80079
:101C00000BDBD64840F61811101A73EB010004DA0A
:101C1000A08E40F48070A08610E0D04840F61811E5
:101C2000101A73EB010009DBCD4845F6F321101AB9
:101C30008B4103DAA08E40F40070A0867F1CFFB2B7
:101C4000032FFFF442AF0027DFF818A3DFF818B323
:101C50004FF0040809EBC70103C90EF0CFFC524650
:101C60005B460EF075FD0FF0F9FBA28E0295CDE9F3
:101C70000356CDE90058059202460B46384605F05A
:101C800041F97F1CFFB2032FE4D3A08E012810D0AE
:101C9000102816D200230222FF2103200095FEF710
:101CA000E7FD00230422FF2105200095FEF7E0FD5B
:101CB000B8E400230422FF2105200095FEF7D8FD9B
:101CC000B0E4FF280ED800230822FF21032000954E
:101CD000FEF7CEFD00230422FF2105200095FEF72C
:101CE000C7FD9FE400F4807100F400700143DFD071
:101CF00000230A22FF2103200095FEF7B9FD0023EF
:101D00000422FF2105200095FEF7B2FD8AE4139816
:101D10000FF006FC02460B46CDE90601934FC01BAF
:101D200071F1000000DAA68609DB8548101A73F10C
:101D3000000004DAA08E40F00200A0867BE080481C
:101D4000101A73F1000009DB7E48101A73F10000CD
:101D500004DAA08E40F00400A0866CE07948101AE6
:101D600073F1000009DB7848101A73F1000004DAFF
:101D7000A08E40F00800A0865DE07348101A73F151
:101D8000000009DB7148101A73F1000004DAA08E1C
:101D900040F01000A0864EE06C48101A73F100006D
:101DA00009DB6B48101A73F1020004DAA08E40F0D0
:101DB0002000A0863FE06648101A73F1020009DB9C
:101DC0006448101A73F1170004DAA08E40F0400046
:101DD000A08630E05F48101A73F1170009DB5E48F7
:101DE000101A73F1E80004DAA08E40F08000A0869B
:101DF00021E05948101A73F1E8000BDB574940F60F
:101E00001810511A73EB000004DAA08E40F48070B1
:101E1000A08610E0514840F61811101A73EB01002B
:101E200009DB4F4945F6F320511A834103DAA08EAE
:101E300040F40070A08600231A465B2118460095E6
:101E4000FEF716FDDDE906010EF0D8FB454A464BCC
:101E50000EF07EFC0FF002FBA28E0295CDE9035638
:101E600005920422CDE9005202460B46012005F0FE
:101E700049F8A08E012810D010281DD2032200237B
:101E8000FF2110460095FEF7F3FC00230422FF21FA
:101E900005200095FEF7ECFCE5E400230122FF217C
:101EA00003200095FEF7E4FC00230422FF21052017
:101EB0000095FEF7DDFCD6E4FF280ED800230922AA
:101EC000FF2103200095FEF7D3FC00230422FF210D
:101ED00005200095FEF7CCFCC5E400F4807100F409
:101EE00000700143D8D000230B22FF21032000956E
:101EF000FEF7BEFC00230422FF2105200095FEF71B
:101F0000B7FCB0E4169898B3D8F8A80010F1FF4FCA
:101F100001D380F000400FF003FBCDE90601002360
:101F20006A22EA2118460095FEF7A2FCDDE90601C7
:101F3000084347D00095019502950395042318E0C6
:101F400040420F008096980000E1F50500CA9A3BD8
:101F500000E40B5400E876480010A5D400A0724EAF
:101F600000407A109A9999999999B93FA0860100F1
:101F700005E003220120069904F020FD2AE0002458
:101F8000FE4F06AE04EB840000EBC40008EB8000BB
:101F9000006AB84201D380F000400FF0C1FA06EBAE
:101FA000C40203C2009501950295039556F83410BA
:101FB00004230322204604F001FD641CE4B2032C38
:101FC000E0D307E04020034602460146009001208E
:101FD000FEF74EFC00230122194604200095FEF76F
:101FE00047FC40E400236A22EA2118460095FEF7E8
:101FF0003FFCD8F8A80010F1FF4F01D380F000405B
:102000000FF08EFACDE90601019500950295039532
:10201000042303220120069904F0D0FC00230122AE
:10202000194603200095FEF723FC002301221946E0
:1020300004200095FEF71CFC15E400260020D04B80
:10204000BB2212A9402413F800C0BCF1000F01D03C
:102050000A5400E00F54C0F1030C01F80C40401C7E
:10206000C0B20228EFD30020C64B11A913F800C05C
:10207000BCF1000F01D00F5400E00A54C0F1030C72
:1020800001F80C40401CC0B20228EFD39DF8480074
:1020900000909DF849309DF84A209DF84B10002093
:1020A000FEF7E6FB9DF8440000909DF845309DF852
:1020B00046209DF847100120FEF7DAFBD8F8C8004B
:1020C00010F0FF4F14D00EF07FFF01460222009562
:1020D0000195029504231046039504F06FFC46F029
:1020E00010020023FF2105200095FEF7C1FBB3E499
:1020F00040231A46194602200094FEF7B9FBEEE78A
:10210000DCF8000088421ADD9F490FF029F80EF034
:102110005BFFC117CDE906015A460023FEF774F8AC
:10212000CDE90801CDE90A230095CDE901560395D3
:102130000423012202200A9904F040FC19E093498B
:102140000FF00EF80EF040FFC117CDE906015A4618
:102150000023FEF759F8CDE90801CDE90A230095DF
:10216000CDE9015602220395042310460A9904F092
:1021700025FC0023EA227A2118460095FEF778FB19
:102180000095CDE90156039504230022012008990A
:1021900004F014FC40220023FF2104200095FEF7E8
:1021A00067FB59E4DCF8040088421ADD76490EF03A
:1021B000D7FF0EF009FFC117CDE906015A460023EB
:1021C000FEF722F8CDE90801CDE90A230095CDE913
:1021D000015603950423012202200A9904F0EEFB24
:1021E00019E06A490EF0BCFF0EF0EEFEC117CDE912
:1021F00006015A460023FEF707F8CDE90801CDE9AC
:102200000A230095CDE901560222039504231046C6
:102210000A9904F0D3FB4023EA227A21002000959A
:10222000FEF726FB0095CDE9015603950423002215
:102230000120089904F0C2FB40220023FF21042062
:102240000095FEF715FB07E4DCF8080088421ADD6C
:102250004D490EF085FF0EF0B7FEC117CDE906011E
:102260005A460023FDF7D0FFCDE90801CDE90A2346
:102270000095CDE9015603950423012202200A9915
:1022800004F09CFB19E041490EF06AFF0EF09CFE41
:10229000C117CDE906015A460023FDF7B5FFCDE988
:1022A0000801CDE90A230095CDE9015602220395E4
:1022B000042310460A9904F081FB0023CB227A21E3
:1022C00018460095FEF7D4FA0095CDE9015603951E
:1022D000042300220120089904F070FB402200230F
:1022E000FF2105200095FEF7C3FAE1E4DCF80C00BD
:1022F00088421ADD24490EF033FF0EF065FEC11747
:10230000CDE906015A460023FDF77EFFCDE908011D
:10231000CDE90A230095CDE9015603950423012256
:1023200002200A9904F04AFB19E018490EF018FF40
:102330000EF04AFEC117CDE906015A460023FDF70B
:1023400063FFCDE90801CDE90A230095CDE90156E7
:1023500002220395042310460A9904F02FFB402320
:10236000CB227A2100200095FEF782FA0095CDE974
:102370000156042300220395012009E0000080801B
:10238000190000201B000020000020410000C8426E
:10239000089904F013FB40220023FF21052000953B
:1023A000FEF766FA84E430B3FB481699C06A91B32D
:1023B0000EF00AFE0095CDE90156014604230222E3
:1023C0000020039504F0FAFAD8F894000EF0FCFD12
:1023D0000095CDE901560146042302220120039510
:1023E00004F0ECFA40200346024601460090022029
:1023F000FEF73EFA5CE4F12363227221002000958F
:10240000FEF736FAB3200022009040231146012047
:10241000FEF72EFA4CE4FFE70EF0D6FD0095CDE96D
:1024200001560146042302220020039504F0C6FA57
:10243000D8F860000EF0C8FD0095CDE901560146C0
:10244000042302220120039504F0B8FAD8F894007E
:102450000EF0BAFD0095CDE9015601460222042393
:102460001046039504F0AAFA22E450B3D8F83000DD
:102470000EF0AAFD0095CDE9015601460423022283
:102480000020039504F09AFAD8F864000EF09CFD41
:102490000095CDE90156014604230222012003954F
:1024A00004F08CFAD8F898000EF08EFD0095CDE976
:1024B00001560146022204231046039504F07EFAD9
:1024C0000FE4F1236322722100200095FEF7D0F97A
:1024D00000224023114601200097FEF7C9F915E4B8
:1024E00030B117B00321BDE8F04F0120FEF7E2B98B
:1024F000B3200090F123632272210020FEF7B8F987
:10250000D920002300901A4619460120FEF7B0F9A1
:10251000C2E430B117B00521BDE8F04F0120FEF74D
:10252000C9B9B3200090F123632272210020FEF785
:102530009FF95B20002300901A4619460120FEF700
:1025400097F9A9E430B117B00721BDE8F04F012099
:10255000FEF7B0B9B3200090F1236322722100206E
:10256000FEF786F98920002300901A4619460120BB
:10257000FEF77EF990E430B117B00921BDE8F04FC5
:102580000120FEF797B9B3200090F1236322722156
:102590000020FEF76DF9DB20002300901A46194653
:1025A0000120FEF765F977E430B117B00B21BDE8E3
:1025B000F04F0120FEF77EB9B3200090F123632293
:1025C00072210020FEF754F90022812311460120D8
:1025D0000097FEF74DF95FE430B117B00D21BDE86B
:1025E000F04F0120FEF766B9B3200090F12363227B
:1025F00072210020FEF73CF9D920002200908123AF
:1026000011460120FEF734F946E430B117B00F212E
:10261000BDE8F04F0120FEF74DB9B3200090F12343
:10262000632272210020FEF723F95B200022009034
:10263000812311460120FEF71BF92DE430B117B0BC
:102640001121BDE8F04F0120FEF734B9B32000900E
:10265000F123632272210020FEF70AF9892000226B
:102660000090812311460120FEF702F914E430B1F5
:1026700017B01321BDE8F04F0120FEF71BB9B320BE
:102680000090F123632272210020FEF7F1F8DB2095
:1026900000220090812311460120FEF7E9F80AE4A8
:1026A00030B117B01521BDE8F04F0120FEF702B997
:1026B000B3200090F123632272210020FEF7D8F8A6
:1026C0000022F823114601200097FEF7D1F803E419
:1026D00030B117B01721BDE8F04F0120FEF7EAB87E
:1026E000B3200090F123632272210020FEF7C0F88E
:1026F000D92000220090F82311460120FEF7B8F8F7
:102700006FE430B117B00521BDE8F04F0120FEF7AE
:10271000D1B8B3200090F123632272210020FEF78C
:10272000A7F85B2000220090F82311460120FEF755
:102730009FF856E430B117B01B21BDE8F04F0120DF
:10274000FEF7B8B8B3200090F12363227221002075
:10275000FEF78EF8892000220090F8231146012010
:10276000FEF786F83DE430B117B01D21BDE8F04F0B
:102770000120FEF79FB8B3200090F123632272215D
:102780000020FEF775F8DB2000220090F8231146A8
:102790000120FEF76DF824E4C80A002030B117B01C
:1027A0001F21BDE8F04F0120FEF784B8B320009050
:1027B000F123632272210020FEF75AF80022D92368
:1027C000114601200097FEF753F80AE430B117B024
:1027D0000321BDE8F04F0020FEF76CB8F12363221F
:1027E000722100200097FEF743F8D92000230090C3
:1027F0001A4619460120FEF73BF81DE430B117B028
:102800000521BDE8F04F0020FEF754B8F123632204
:10281000722100200097FEF72BF85B200023009028
:102820001A4619460120FEF723F805E430B117B027
:102830000721BDE8F04F0020FEF73CB8F1236322EA
:10284000722100200097FEF713F8892000230090E2
:102850001A4619460120FEF70BF848E430B117B0CC
:102860000921BDE8F04F0020FEF724B8F1236322D0
:10287000722100200097FDF7FBFFDB200023009072
:102880001A4619460120FDF7F3FF30E430B117B0C6
:102890000B21BDE8F04F0020FEF70CB8F1236322B6
:1028A000722100200097FDF7E3FF002281231146EB
:1028B00001200097FDF7DCFF19E430B117B00D21BE
:1028C000BDE8F04F0020FDF7F5BFF1236322722130
:1028D00000200097FDF7CCFFD92000220090812333
:1028E00011460120FDF7C4FF5BE430B117B00F21A2
:1028F000BDE8F04F0020FDF7DDBFF1236322722118
:1029000000200097FDF7B4FF5B2000220090812398
:1029100011460120FDF7ACFF43E430B117B011219F
:10292000BDE8F04F0020FDF7C5BFF12363227221FF
:1029300000200097FDF79CFF892000220090812352
:1029400011460120FDF794FF2BE430B117B013219D
:10295000BDE8F04F0020FDF7ADBFF12363227221E7
:1029600000200097FDF784FFDB20002200908123E8
:1029700011460120FDF77CFF13E430B117B015219B
:10298000BDE8F04F0020FDF795BFF12363227221CF
:1029900000200097FDF76CFF0022F823114601206C
:1029A0000097FDF765FF4EE430B117B01721BDE881
:1029B000F04F0020FDF77EBFF1236322722100203B
:1029C0000097FDF755FFD92000220090F82311460B
:1029D0000120FDF74DFF36E430B117B01921BDE8F5
:1029E000F04F0020FDF766BFF12363227221002023
:1029F0000097FDF73DFF5B2000220090F823114671
:102A00000120FDF735FF1EE430B117B01B21BDE8F2
:102A1000F04F0020FDF74EBFF1236322722100200A
:102A20000097FDF725FF892000220090F82311462A
:102A30000120FDF71DFF06E430B117B01D21BDE8F0
:102A4000F04F0020FDF736BFF123632272210020F2
:102A50000097FDF70DFFDB2000220090F8231146C0
:102A60000120FDF705FF40E430B117B01F21BDE89C
:102A7000F04F0020FDF71EBFF123632272210020DA
:102A80000097FDF7F5FE0022D9231146012000979B
:102A9000FDF7EEFE29E473236922812100200095D1
:102AA000FDF7E6FE0095CDE901563A4C0395042367
:102AB00021680222012003F081FF0095CDE9015633
:102AC0000395022261680423104603F077FF0CE4AB
:102AD000F8B1314C0095019502950395042301222C
:102AE0000020216803F06AFF009501950295039587
:102AF000012204231046616803F060FF00950195F0
:102B000002950395042301220220A16803F056FFD9
:102B100048E47B237A22F12100200095FDF7A8FEEE
:102B2000B320002300901A4619460120FDF7A0FEAD
:102B300038E4F8B1194C00950195029503950423EA
:102B400001220020216803F039FF009501950295CC
:102B50000395012204231046616803F02FFF0095BE
:102B6000019502950395042301220220A16803F038
:102B700025FF17E47B237A22F12100200095FDF741
:102B800077FE00231A46194601200097FDF770FED4
:102B900008E400005C0C0020BC0C0020C80C0020E5
:102BA00008B50C48407900280AD0012807D17B20BD
:102BB000009071236022EA210020FDF759FE08BD34
:102BC000F1200090EB237A2260210020FDF750FED7
:102BD00008BD00002800002018B52B48F824817992
:102BE000812008290DD2DFE801F0040D161F272FE0
:102BF000373F72200090EA23612281210020FDF7F7
:102C000037FE18BD69200021009071233A22084642
:102C1000FDF72EFE18BD5B20024600210090D32355
:102C20000846FDF725FE18BD009040237122F121D2
:102C30000020FDF71DFE18BD40237122F121002068
:102C40000094FDF715FE18BD009040237122EB2182
:102C50000020FDF70DFE18BD40237122EB2100205E
:102C60000094FDF705FE18BD6020002100907A2336
:102C7000B3220846FDF7FCFD812389221946022074
:102C80000094FDF7F5FD18BD280000202DE9FF5F39
:102C9000DFF87C87E327404698F8011032268079D8
:102CA00072224FF05B0B022916D0012932D1002588
:102CB000414600248C734FF0040A4FF0010901F1E2
:102CC0003608072826D2DFE810F0AB0121020803FE
:102CD0003B0421080B0CC90D07281BD2DFE800F0CC
:102CE000042C61A7F0EEED0016460092EA23612263
:102CF00081210020FDF7BCFD98F8070060B1012894
:102D000012D0022806D100223A2311460120009653
:102D1000FDF7AEFDBDE8FF9F7A236122002101206F
:102D20000096FDF7A5FDF5E70022EA2311460120F4
:102D30000096FDF79DFDEDE76920002100907123CD
:102D40003A220846FDF794FD98F8080070B1012872
:102D500015D002281CD00328DCD1692371223A2126
:102D60000120CDF800B0FDF783FDD3E7F120034645
:102D70000090EB2200210120FDF77AFDCAE7F12047
:102D80000090B323EB2273210120FDF771FDC1E711
:102D9000EB20024600907223F1210120FDF768FD2F
:102DA000B8E70021D3235B220846CDF800B0FDF739
:102DB0005FFD98F809000628ACD2DFE800F0030CAC
:102DC000141D262F3A2002460090D3230021012013
:102DD000FDF74EFD9EE77B238122322101200097E3
:102DE000FDF746FD96E7EA2000905B238122F12162
:102DF0000120FDF73DFD8DE7602000903223EB229E
:102E000000210120FDF734FD84E77A20009064233F
:102E100032223A210120FDF72BFD7BE77A2000903A
:102E2000F12371223A210120FDF722FD72E7812072
:102E3000009040237122F1210020FDF719FD98F840
:102E40000A00062891D2DFE800F0030C151E262F99
:102E50007A200090F123712269210120FDF708FDFD
:102E600058E77A2000906923812272210120FDF722
:102E7000FFFC4FE7692000907A2372228121012014
:102E8000FDF7F6FC46E7EB23B32200210120009674
:102E9000FDF7EEFC3EE7D323E32200210120CDF82D
:102EA00000B0FDF7E5FC35E7D320009032237A220D
:102EB000F1210120FDF7DCFC2CE77CE046E0FFE798
:102EC000F820009040237122F1210020FDF7D0FC72
:102ED00098F80B00062885D2DFE800F0030C151ED9
:102EE000262F7A200090F123712269210120FDF71D
:102EF000BFFC0FE77A200090692381227221012014
:102F0000FDF7B6FC06E7692000907A237222812142
:102F10000120FDF7ADFCFDE6EB23B32200210120EB
:102F20000096FDF7A5FCF5E6D323E322002101205E
:102F3000CDF800B0FDF79CFCECE6D32000903223E6
:102F40007A22F1210120FDF793FCE3E68120009035
:102F500040237122EB210020FDF78AFC98F80C0039
:102F600070B1012815D002281CD003288AD1002274
:102F70006A2311460120CDF800B0FDF779FCC9E6BF
:102F80007A200090F123712269210120FDF770FC65
:102F9000C0E6692000907A23722281210120FDF78A
:102FA00067FCB7E60022F12311460120CDF800B0FE
:102FB000FDF75EFCAEE6F820009040237122EB2185
:102FC0000020FDF755FC98F80D0070B1012815D0D0
:102FD00002281CD003288CD100226A23114601202C
:102FE000CDF800B0FDF744FC94E67A200090F12380
:102FF000712269210120FDF73BFC8BE669200090DE
:103000007A23722281210120FDF732FC82E6002220
:10301000F12311460120CDF800B0FDF729FC79E637
:1030200016460092EA23612281210020FDF720FC50
:10303000F74FF879F0B101284DD0022885D1002250
:103040003A23114601200096FDF712FC534688F8FA
:1030500001A098F80000B97BCDE90109CDF80C90EA
:1030600000912A460220F96B03F0A8FCBDE8FF5F3F
:10307000FDF788BA7A236122002101200096FDF72E
:10308000F7FBF86B58B101288BD1B87BD0B1002386
:103090001A46194602200094FDF7EAFB3AE6B87B8F
:1030A00038B100231A46194602200094FDF7E0FBD0
:1030B00030E6C3200090D923612200210220FDF7D1
:1030C000D7FB27E6D9200346009061220021022089
:1030D000FDF7CEFB1EE60022EA23114601200096F2
:1030E000FDF7C6FB534688F801A098F80000B97BAD
:1030F000CDE90109CDF80C9000912A460220F96B28
:1031000003F05CFCBDE8FF5FFDF73CBA69200021DD
:10311000009071233A220846FDF7AAFBBC4D287A9D
:10312000E8B1012836D002287ED00328B6D1692321
:1031300071223A210120CDF800B0FDF799FBE86B30
:1031400001286FD00228A9D1A87B00286BD00023CA
:103150001A46194602200094FDF78AFBDAE5F120B1
:1031600003460090EB2200210120FDF781FB53462E
:1031700088F801A098F80000A97BCDE90010CDE9FE
:10318000024922460220E96B03F018FCBDE8FF5F0C
:10319000FDF7F8B9F1200090B323EB227321012051
:1031A000FDF766FBA87B38B100231A4619460220BA
:1031B0000094FDF75DFBADE5E86B05288AD2DFE8FA
:1031C00000F0030C151E2800BB2003460090F822D7
:1031D00081210220FDF74CFB9CE5BB2003460090BB
:1031E000C322F8210220FDF743FB93E5BB200346F1
:1031F0000090FB22C3210220FDF73AFB8AE5BB20A9
:10320000034600907B22DB210220FDF731FB81E5A4
:103210000AE0BB200090F823DF2281210220FDF785
:1032200027FB77E53EE050E0EB200246009072235A
:10323000F1210120FDF71CFBA87B38B100231A46C1
:10324000194602200094FDF713FB63E5E86B70B1AB
:1032500001281ED0022813D00328ACD1F8200090FA
:10326000FB23612200210220FDF702FB52E58120B1
:103270000090FB23612200210220FDF7F9FA49E5C5
:1032800081200090FB23712200210220FDF7F0FA3B
:1032900040E581200090FB237A2200210220FDF7E7
:1032A000E7FA37E5A87B38B100231A461946022011
:1032B0000094FDF7DDFA2DE5B32000907223602223
:1032C00000210220FDF7D4FA24E5EB233A22002165
:1032D00002200096FDF7CCFA1CE50021D3235B22E7
:1032E0000846CDF800B0FDF7C3FA494E707A0628BB
:1032F00084D2DFE800F0033669BAD6F73A200246F6
:103300000090D32300210120FDF7B2FAF06B0128D1
:103310000BD0022885D1B07BD0B100231A461946C4
:1033200002200094FDF7A4FAF4E4B07B38B1002346
:103330001A46194602200094FDF79AFAEAE47A2325
:10334000D32200210220CDF800B0FDF791FAE1E48C
:10335000712000220090612311460220FDF788FAB7
:10336000D8E47B238122322101200097FDF780FAE7
:10337000B07B38B100231A46194602200094FDF7AD
:1033800077FAC7E4F06B01280CD0022813D0032889
:1033900087D1D92000220090322311460220FDF768
:1033A00067FAB7E481200022009032231146022000
:1033B000FDF75EFAAEE4F8200022009032231146B9
:1033C0000220FDF755FAA5E4EA255B238122F121CD
:1033D00001200095FDF74CFAB07B38B100231A4666
:1033E000194602200094FDF743FA93E4F06B062897
:1033F0009AD2DFE800F0030F18202931B320002310
:1034000000901A4619460220FDF732FA82E40000C5
:10341000280000208120002300901A46194602202F
:10342000FDF726FA76E400231A4619460220009595
:10343000FDF71EFA6EE46A20002300901A46194632
:103440000220FDF715FA65E400227A2311460220D6
:103450000095FDF70DFA5DE4F1200090E323722260
:1034600000210220FDF704FA54E46020009032238A
:10347000EB2200210120FDF7FBF9534688F801A05B
:1034800098F80000B17BCDE90109CDF80C900091CE
:103490002A460220F16B03F091FABDE8FF5FFDF7C9
:1034A00071B87A200090642332223A210120FDF77E
:1034B000DFF9F06B01280BD0022884D1B07BD8B1A2
:1034C00000231A46194602200094FDF7D1F921E4A1
:1034D000B07B40B100231A46194602200094FDF744
:1034E000C7F917E411E07A23D32200210220CDF896
:1034F00000B0FDF7BDF90DE47120002200906123BA
:1035000011460220FDF7B4F904E47A200090F1237B
:1035100071223A210120FDF7ABF9534688F801A04A
:1035200098F80000B17BCDE90010CDE902492246B0
:103530000220F16B03F042FABDE8FF5FFDF722B80D
:103540008120009040237122F1210020FDF790F9A5
:10355000F948807A062887D2DFE800F0033754EF75
:10356000EEED7A200090F123712269210120FDF710
:103570007FF9F148817B39B100231A4619460220B0
:103580000094FDF775F90BE4C06B60B1012813D00E
:103590000228F8D1692000907A23602200210220BD
:1035A000FDF766F916E46A200346009071220021B7
:1035B0000220FDF75DF90DE4602000903223EB223C
:1035C00000210220FDF754F904E47A2000906923D9
:1035D000812272210120FDF74BF90222534688F81F
:1035E00001A0D54898F80010847BCDE90119CDF8E9
:1035F0000C900094C16B022003F0E0F9BDE8FF5F7E
:10360000FCF7C0BF692000907A237222812101203B
:10361000FDF72EF9C848817B39B100231A461946B7
:1036200002200094FDF724F91AE4C06B5028FBD265
:10363000DFE800F0293139414951596169717984D4
:103640008C949CA4ACB4F2FAEFEEEDECEBEAE9E872
:10365000E7E6E5E4E3E2E1E0DFDEDDDCDBDAD9D872
:10366000D7D6D5D4D3D2D1D0CFCECDCCCBCAC9C862
:10367000C7C62828282828282828C5C4C3C2C1C0EE
:10368000BFBEBDBCD0E70023EF22B32102200097CC
:10369000FDF7EEF807E40023EF22B32102200096A5
:1036A000FDF7E6F808E400237722B3210220009713
:1036B000FDF7DEF81DE400237722B32102200096F7
:1036C000FDF7D6F815E400233E22B321022000972F
:1036D000FDF7CEF80DE400233E22B3210220009630
:1036E000FDF7C6F805E400231A46B721022000972B
:1036F000FDF7BEF806E400231A46B7210220009623
:10370000FDF7B6F807E47723EB22B32102200097F8
:10371000FDF7AEF807E47723EB22B32102200096F1
:10372000FDF7A6F808E43E237322B3210220009798
:10373000FDF79EF809E4CCE279E227E23E2373220A
:10374000B32102200096FDF793F818E4EF233A2204
:10375000B32102200097FDF78BF810E4EF233A2203
:10376000B32102200096FDF783F808E400233622F7
:10377000B32102200097FDF77BF809E400233622ED
:10378000B32102200096FDF773F80AE40023EF222C
:10379000812102200097FDF76BF80BE40023EF2254
:1037A000812102200096FDF763F803E4C5E1BBE147
:1037B000B2E1A8E19EE194E18BE181E177E16DE185
:1037C000DCE1CBE1D2E1C1E160E157E14EE145E16D
:1037D0003CE133E12AE121E118E10FE106E1FDE0FE
:1037E000F4E0EBE0E2E0D9E0D0E0C7E0BEE0B5E035
:1037F000ACE0A3E098E08FE086E07DE074E06BE071
:1038000062E059E050E047E03EE035E02CE023E0A4
:103810001AE011E008E0FFE700237722812102206F
:103820000097FDF725F839E4002377228121022053
:103830000096FDF71DF831E400233E22812102208D
:103840000097FDF715F829E400233E22812102208C
:103850000096FDF70DF821E400231A468521022089
:103860000097FDF705F819E400231A468521022088
:103870000096FCF7FDFF11E40023EF22EA2102206D
:103880000097FCF7F5FF09E40023EF22EA2102206C
:103890000096FCF7EDFF0BE400237722EA210220DB
:1038A0000097FCF7E5FF03E400237722EA210220DA
:1038B0000096FCF7DDFF04E400233E22EA2102200B
:1038C0000097FCF7D5FF05E400233E22EA21022001
:1038D0000096FCF7CDFF41E400231A46EE210220BA
:1038E0000097FCF7C5FF39E400231A46EE210220B9
:1038F0000096FCF7BDFF31E40023EF22CB2102202C
:103900000097FCF7B5FF29E40023EF22CB2102202A
:103910000096FCF7ADFF21E400237722CB210220A3
:103920000097FCF7A5FF19E400237722CB210220A2
:103930000096FCF79DFF11E42800002000233E22A2
:10394000CB2102200097FCF793FF07E400233E22DF
:10395000CB2102200096FCF78BFF2CE400231A46B3
:10396000CF2102200097FCF783FF24E400231A46AE
:10397000CF2102200096FCF77BFF1CE40023EF22FE
:103980005B2102200097FCF773FF14E40023EF2271
:103990005B2102200096FCF76BFF0CE400237722EA
:1039A0005B2102200097FCF763FF04E400237722E9
:1039B0005B2102200096FCF75BFF0DE400233E2212
:1039C0005B2102200097FCF753FF05E400233E2211
:1039D0005B2102200096FCF74BFF06E400231A4609
:1039E0005F2102200097FCF743FF07E400231A46FB
:1039F0005F2102200096FCF73BFF08E4EF236A22D8
:103A0000EA2102200097FCF733FF0AE4EF236A2241
:103A1000EA2102200096FCF72BFF16E477236A22A6
:103A2000EA2102200097FCF723FF0EE477236A22A5
:103A3000EA2102200096FCF71BFF06E43E236A22DF
:103A4000EA2102200097FCF713FF0FE43E236A22CD
:103A5000EA2102200096FCF70BFF07E400236E2208
:103A6000EA2102200097FCF703FF08E400236E22FE
:103A7000EA2102200096FCF7FBFE09E400231A4627
:103A80006E2102200097FCF7F3FE0AE400231A4699
:103A90006E2102200096FCF7EBFE0CE4EB20009078
:103AA000E7237222B3210220FCF7E2FE03E4732035
:103AB0000090E7237222B3210220FCF7D9FE03E431
:103AC0003A200090E7237222B3210220FCF7D0FEB7
:103AD0002AE4E3237222B32102200094FCF7C8FEFB
:103AE00022E4EB200090E723722281210220FCF7E0
:103AF000BFFE19E473200090E72372228121022087
:103B0000FCF7B6FE10E43A200090E72372228121F0
:103B10000220FCF7ADFE07E4E3237222812102209C
:103B20000094FCF7A5FE09E4B320009073236922FA
:103B300081210220FCF79CFE09E4812001460090CF
:103B4000732369220220FCF793FE09E440238122BB
:103B5000F12102200097FCF78BFE12E44023812222
:103B6000F12102200096FCF783FE0AE44023F822AC
:103B7000F12102200097FCF77BFE12E44023F8229B
:103B8000F12102200096FCF773FE0AE4EB23B32236
:103B9000002101200096FCF76BFEF448C07C502801
:103BA00030D2DFE800F028282828282828282828CC
:103BB0002828282828282A2A2A2A2A2A2A2A2F2F67
:103BC0002F2F2F2F2F2F2F2F2F2F2F2F2F2F2F2F05
:103BD0002F2F2F2F2F2F2C2C2C2C2C2C2C2C2E2E0F
:103BE0002F2F2F2F2F2F2F2F2F2F2F2F2E2E2E2EE9
:103BF0002E2E2E2E2E2E012504E0032502E0032575
:103C000000E00225534688F801A0D94898F8001032
:103C1000827BCDE901190092CDF80C90C16B2A4648
:103C2000022002F0CBFEBDE8FF5FFCF7ABBCD32364
:103C3000E32200210120CDF800B0FCF719FECB48AB
:103C4000C07C502830D2DFE800F028282828282817
:103C5000282828282828282828282A2A2A2A2A2AD8
:103C60002A2A2F2F2F2F2F2F2F2F2F2F2F2F2F2F6E
:103C70002F2F2F2F2F2F2F2F2F2F2C2C2C2C2C2C66
:103C80002C2C2E2E2F2F2F2F2F2F2F2F2F2F2F2F4C
:103C90002E2E2E2E2E2E2E2E2E2E012504E0032526
:103CA00002E0032500E00225534688F801A0B04851
:103CB00098F80010827BCDE901190092CDF80C90A4
:103CC000C16B2A46022002F079FEBDE8FF5FFCF7D7
:103CD00059BCD320009032237A22F1210120FCF735
:103CE000C7FD0222534688F801A0A14898F80010A9
:103CF000847BCDE90119CDF80C900094C16B0220B2
:103D000002F05CFEBDE8FF5FFCF73CBCF8200090D1
:103D100040237122F1210020FCF7AAFD9448C07ACB
:103D20000628BFF42AAFDFE800F0033754EFEEEDCA
:103D30007A200090F123712269210120FCF798FD7F
:103D40008B48817B39B100231A4619460220009422
:103D5000FCF78EFD17E4C06B60B1012813D0022878
:103D6000F8D1692000907A23602200210220FCF71C
:103D70007FFD08E46A2003460090712200210220A2
:103D8000FCF776FD0EE4602000903223EB22002148
:103D90000220FCF76DFD05E47A2000906923812262
:103DA00072210120FCF764FD0222534688F801A02D
:103DB0006F4898F80010847BCDE90119CDF80C907C
:103DC0000094C16B022002F0F9FDBDE8FF5FFCF733
:103DD000D9BB692000907A23722281210120FCF74F
:103DE00047FD6348817B39B100231A4619460220FA
:103DF0000094FCF73DFD17E4C06B5028FBD2DFE8D0
:103E000000F02931394149515961697179848C94A3
:103E10009CA4ACEFF7FFEBEAE9E8E7E6E5E4E3E2D0
:103E2000E1E0DFDEDDDCDBDAD9D8D7D6D5D4D3D2FA
:103E3000D1D0CFCECDCCCBCAC9C8C7C6C5C4C3C2EA
:103E40002828282828282828C1C0BFBEBDBCBBBA46
:103E5000B9B4D0E70023EF22B32102200097FCF78A
:103E600007FD17E40023EF22B32102200096FCF7A0
:103E7000FFFC0FE400237722B32102200097FCF718
:103E8000F7FC07E400237722B32102200096FCF719
:103E9000EFFC07E400233E22B32102200097FCF749
:103EA000E7FC07E400233E22B32102200096FCF742
:103EB000DFFC07E400231A46B72102200097FCF735
:103EC000D7FC07E400231A46B72102200096FCF72E
:103ED000CFFC07E47723EB22B32102200097FCF705
:103EE000C7FC07E47723EB22B32102200096FCF7FE
:103EF000BFFC07E43E237322B32102200097FCF7A6
:103F0000B7FC07E4CFE27CE22AE23E237322B3212E
:103F100002200096FCF7ACFC04E4EF233A22B32124
:103F200002200097FCF7A4FC04E4EF233A22B3211B
:103F300002200096FCF79CFC07E400233622B32104
:103F400002200097FCF794FC07E400233622B321FB
:103F500002200096FCF78CFC07E40023EF2281216D
:103F600002200097FCF784FC07E4D0E15A200020EF
:103F700028000020C2E1B9E1AFE1A5E19BE192E1B7
:103F800088E17EE174E1E3E1D2E1D9E1C8E167E1F2
:103F90005EE155E14CE143E13AE131E128E11FE125
:103FA00016E10DE104E1FBE0F2E0E9E0E0E0D7E05A
:103FB000CEE0C5E0BCE0B3E0AAE0A1E098E08FE08D
:103FC00086E07DE074E06BE062E059E050E047E0BD
:103FD0003EE035E02CE023E01AE011E008E0FFE7E6
:103FE0000023EF22812102200096FCF741FC1AE415
:103FF00000237722812102200097FCF739FC12E48C
:1040000000237722812102200096FCF731FC0AE48C
:1040100000233E22812102200097FCF729FC0AE4BC
:1040200000233E22812102200096FCF721FC0AE4B5
:1040300000231A46852102200097FCF719FC0AE4A8
:1040400000231A46852102200096FCF711FC0AE4A1
:104050000023EF22EA2102200097FCF709FC0AE482
:104060000023EF22EA2102200096FCF701FC0AE47B
:1040700000237722EA2102200097FCF7F9FB0AE4EB
:1040800000237722EA2102200096FCF7F1FB0AE4E4
:1040900000233E22EA2102200097FCF7E9FB0AE414
:1040A00000233E22EA2102200096FCF7E1FB0AE40D
:1040B00000231A46EE2102200097FCF7D9FB0AE400
:1040C00000231A46EE2102200096FCF7D1FB0AE4F9
:1040D0000023EF22CB2102200097FCF7C9FB0AE462
:1040E0000023EF22CB2102200096FCF7C1FB0AE45B
:1040F00000237722CB2102200097FCF7B9FB0AE4CA
:1041000000237722CB2102200096FCF7B1FB0AE4C2
:1041100000233E22CB2102200097FCF7A9FB0AE4F2
:1041200000233E22CB2102200096FCF7A1FB0CE4E9
:1041300000231A46CF2102200097FCF799FB04E4E4
:1041400000231A46CF2102200096FCF791FB04E4DD
:104150000023EF225B2102200097FCF789FB04E497
:104160000023EF225B2102200096FCF781FB04E490
:10417000002377225B2102200097FCF779FB04E4FF
:10418000002377225B2102200096FCF771FB04E4F8
:1041900000233E225B2102200097FCF769FB04E428
:1041A00000233E225B2102200096FCF761FB04E421
:1041B00000231A465F2102200097FCF759FB04E414
:1041C00000231A465F2102200096FCF751FB04E40D
:1041D000EF236A22EA2102200097FCF749FB04E45E
:1041E000EF236A22EA2102200096FCF741FB04E457
:1041F00077236A22EA2102200097FCF739FB04E4C6
:1042000077236A22EA2102200096FCF731FB04E4BE
:104210003E236A22EA2102200097FCF729FB04E4EE
:104220003E236A22EA2102200096FCF721FB04E4E7
:1042300000236E22EA2102200097FCF719FB04E418
:1042400000236E22EA2102200096FCF711FB04E411
:1042500000231A466E2102200097FCF709FB04E4B4
:1042600000231A466E2102200096FCF701FB04E4AD
:10427000EB200090E7237222B3210220FCF7F8FA2A
:1042800003E473200090E7237222B3210220FCF79D
:10429000EFFA0BE43A200090E7237222B3210220C8
:1042A000FCF7E6FA0BE4E3237222B3210220009428
:1042B000FCF7DEFA03E4EB200090E7237222812171
:1042C0000220FCF7D5FA03E473200090E723722262
:1042D00081210220FCF7CCFA0BE43A200090E7237E
:1042E000722281210220FCF7C3FA0BE4E32372223D
:1042F000812102200094FCF7BBFA03E4B320009074
:104300007323692281210220FCF7B2FA03E48120A1
:1043100001460090732369220220FCF7A9FA0BE4FE
:1043200040238122F12102200097FCF7A1FA03E447
:1043300040238122F12102200096FCF799FA04E43F
:104340004023F822F12102200097FCF791FA04E4BF
:104350004023F822F12102200096FCF789FA04E4B8
:10436000EB23B322002101200096FCF781FAF848E4
:10437000407F502830D2DFE800F02828282828285D
:10438000282828282828282828282A2A2A2A2A2AA1
:104390002A2A2F2F2F2F2F2F2F2F2F2F2F2F2F2F37
:1043A0002F2F2F2F2F2F2F2F2F2F2C2C2C2C2C2C2F
:1043B0002C2C2E2E2F2F2F2F2F2F2F2F2F2F2F2F15
:1043C0002E2E2E2E2E2E2E2E2E2E012504E00325EF
:1043D00002E0032500E00225534688F801A0DD48ED
:1043E00098F80010827BCDE901190092CDF80C906D
:1043F000C16B2A46022002F0E1FABDE8FF5FFCF73C
:10440000C1B8D323E32200210120CDF800B0FCF78E
:104410002FFACF48407F502830D2DFE800F028281C
:1044200028282828282828282828282828282A2A08
:104430002A2A2A2A2A2A2F2F2F2F2F2F2F2F2F2FAA
:104440002F2F2F2F2F2F2F2F2F2F2F2F2F2F2C2C82
:104450002C2C2C2C2C2C2E2E2F2F2F2F2F2F2F2F80
:104460002F2F2F2F2E2E2E2E2E2E2E2E2E2E01259E
:1044700004E0032502E0032500E00225534688F806
:1044800001A0B44898F80010827BCDE90119009290
:10449000CDF80C90C16B2A46022002F08FFABDE8DD
:1044A000FF5FFCF76FB8D320009032237A22F1210E
:1044B0000120FCF7DDF90222534688F801A0A54847
:1044C00098F80010847BCDE90119CDF80C90009488
:1044D000C16B022002F072FABDE8FF5FFCF752B830
:1044E0008120009040237122EB210020FCF7C0F9CD
:1044F000984E307B10B301285ED0022872D003287A
:104500007FF42DAF00226A2311460120CDF800B0C0
:10451000FCF7AEF98E4890F827001A2863D2DFE83E
:1045200000F0F5F5F5F5F5F5F4F4F4626262626217
:1045300062626262626262F3F3F3F3F27A200090E5
:10454000F123712269210120FCF792F9B07B38B187
:1045500000231A46194602200094FCF789F908E462
:10456000F06B70B1012815D002281CD00328F6D1B9
:10457000BB20F82300901A4681210220FCF778F92D
:1045800009E46A2003460090712200210220FCF712
:104590006FF930E4BB200090F823C32200210220F1
:1045A000FCF766F927E4BB2002460090F8230021BF
:1045B0000220FCF75DF91EE4692000907A23722244
:1045C00081210120FCF754F9B07B38B100231A4651
:1045D000194602200094FCF74BF90CE4F06B1A2802
:1045E000D7D201E0E8E025E1DFE800F00D151D2558
:1045F0002D353D454D555D656D757D859199A1A91B
:10460000B6BEC6CED6DE0023EB22B3210220009434
:10461000FCF72EF925E400237322B3210220009435
:10462000FCF726F91DE400233A22B321022000946E
:10463000FCF71EF915E47323EB22B321022000944A
:10464000FCF716F90DE43A237322B32102200094FB
:10465000FCF70EF905E4EB233A22B3210220009483
:10466000FCF706F905E40023EB22812102200094E7
:10467000FCF7FEF805E40023732281210220009458
:10468000FCF7F6F805E400233A2281210220009489
:10469000FCF7EEF805E40023EB22EA210220009467
:1046A000FCF7E6F805E400237322EA2102200094D7
:1046B000FCF7DEF805E400233A22EA210220009408
:1046C000FCF7D6F805E400231A46EA2102200094FC
:1046D000FCF7CEF805E40023EB22CB210220009466
:1046E000FCF7C6F805E400237322CB2102200094D6
:1046F000FCF7BEF805E400233A22CB210220009407
:10470000FCF7B6F808E494E091E08EE08BE000233B
:104710001A46CB2102200094FCF7AAF804E40023F7
:10472000EB225B2102200094FCF7A2F804E40023B2
:1047300073225B2102200094FCF79AF804E4002322
:104740003A225B2102200094FCF792F804E4000076
:104750005A2000202800002000231A465B21022056
:104760000094FCF785F842E4EB236A22EA21022058
:104770000094FCF77DF83AE473236A22EA210220D0
:104780000094FCF775F832E43A236A22EA21022009
:104790000094FCF76DF82AE400236A22EA21022043
:1047A0000094FCF765F822E400231A466A210220EF
:1047B0000094FCF75DF81AE40022F1231146012071
:1047C000CDF800B0FCF754F8FE4890F827001A28FE
:1047D00015D2DFE800F00D0D0D0D0D0D0F0F0F14AC
:1047E0001414141414141414141414111111111396
:1047F000012504E0032502E0032500E002255346DD
:1048000088F801A098F80000B17BCDE90109CDF846
:104810000C9000912A460220F16B02F0CFF8BDE81F
:10482000FF5FFBF7AFBE012504E0032502E003258F
:1048300000E00225534688F801A098F80000B17BFB
:10484000CDE90109CDF80C9000912A460220F16BC8
:1048500002F0B4F8BDE8FF5FFBF794BEF8200090CB
:1048600040237122EB210020FCF702F8D64E707B2A
:1048700008B301285DD0022871D003288BD1002213
:104880006A2311460120CDF800B0FBF7F1FFCD48B7
:1048900090F82D001A2863D2DFE800F0F5F5F5F561
:1048A000F5F5F4F4F462626262626262626262620C
:1048B00062F3F3F3F3F27A200090F123712269217D
:1048C0000120FBF7D5FFB07B38B100231A4619460B
:1048D00002200094FBF7CCFF09E4F06B70B10128D3
:1048E00015D002281CD00328F6D1BB20F823009055
:1048F0001A4681210220FBF7BBFF08E46A20034629
:104900000090712200210220FBF7B2FF07E4BB20D8
:104910000090F823C32200210220FBF7A9FF06E440
:10492000BB2002460090F82300210220FBF7A0FFE5
:1049300005E4692000907A23722281210120FBF78F
:1049400097FFB07B38B100231A4619460220009425
:10495000FBF78EFF03E4F06B1A28FBD201E0E3E0E3
:1049600020E1DFE800F00D151D252D353D454D55A5
:104970005D656D757D859199A1A9B1B9C1C9D1D97F
:104980000023EB22B32102200094FBF771FF06E421
:1049900000237322B32102200094FBF769FF06E491
:1049A00000233A22B32102200094FBF761FF06E4C2
:1049B0007323EB22B32102200094FBF759FF06E496
:1049C0003A237322B32102200094FBF751FF06E43F
:1049D000EB233A22B32102200094FBF749FF06E4BF
:1049E0000023EB22812102200094FBF741FF06E423
:1049F00000237322812102200094FBF739FF06E493
:104A000000233A22812102200094FBF731FF06E4C3
:104A10000023EB22EA2102200094FBF729FF06E4A1
:104A200000237322EA2102200094FBF721FF06E411
:104A300000233A22EA2102200094FBF719FF06E442
:104A400000231A46EA2102200094FBF711FF06E436
:104A50000023EB22CB2102200094FBF709FF06E4A0
:104A600000237322CB2102200094FBF701FF07E40F
:104A700000233A22CB2102200094FBF7F9FE08E440
:104A80008FE08CE089E086E000231A46CB210220EB
:104A90000094FBF7EDFE05E40023EB225B210220EE
:104AA0000094FBF7E5FE05E4002373225B2102205E
:104AB0000094FBF7DDFE06E400233A225B2102208E
:104AC0000094FBF7D5FE07E400231A465B21022081
:104AD0000094FBF7CDFE08E4EB236A22EA210220D2
:104AE0000094FBF7C5FE08E473236A22EA21022042
:104AF0000094FBF7BDFE09E43A236A22EA21022072
:104B00000094FBF7B5FE0AE400236A22EA210220A2
:104B10000094FBF7ADFE0AE400231A466A21022046
:104B20000094FBF7A5FE0AE40022F12311460120C0
:104B3000CDF800B0FBF79CFE224890F82D001A2813
:104B400015D2DFE800F00D0D0D0D0D0D0F0F0F1438
:104B50001414141414141414141414111111111322
:104B6000012504E0032502E0032500E00225534669
:104B700088F801A098F80000B17BCDE90109CDF8D3
:104B80000C9000912A460220F16B01F017FFBDE85E
:104B9000FF5FFBF7F7BC012504E0032502E00325D6
:104BA00000E00225534688F801A098F80000B17B88
:104BB000CDE90109CDF80C9000912A460220F16B55
:104BC00004E000005A2000202800002001F0F6FE3A
:104BD000BDE8FF5FFBF7D6BC7FB500247B200090CB
:104BE00071236022EA210020FBF742FE7A20009028
:104BF000F12371223A210120FBF73AFE094A0121F3
:104C0000A2F136001378857BCDE90131009503913F
:104C10005378C16B2246022001F0D0FEBDE87F40F0
:104C2000FBF7B0BC5E00002008B57B20009071232C
:104C30006022EA210020FBF71BFE7A200090F1237E
:104C400071223A210120FBF713FE0A48807B40B114
:104C50006020034600907A2200210220FBF708FE24
:104C600008BD002003460246014600900220FBF7E3
:104C7000FFFD08BD2800002018B57A200090B3235E
:104C8000EB225B210020FBF7F3FD002423462246A4
:104C9000214601200094FBF7EBFD1649C86B012863
:104CA0000CD0022809D1887BD8B171200022009055
:104CB000612311460220FBF7DBFD18BD887B40B164
:104CC0005B2000907A23D32200210220FBF7D0FD45
:104CD00018BD00231A46194602200094FBF7C8FDB0
:104CE00018BD00231A46194602200094FBF7C0FDA8
:104CF00018BD0000280000202DE9FF5F0025DFF827
:104D000000B400249BF80100012801D18BF80E406B
:104D1000FB4F9BF80600363732264FF001084FF064
:104D200004094FF0BB0A072849D2DFE810F007005A
:104D300083007301B302BB06C60A870C7226EA23FE
:104D40006122812100200096FBF792FD9BF807006D
:104D5000F8B1012852D0022831D100223A2311465D
:104D600001200096FBF784FD4B4687F801903878C8
:104D70009BF80E10CDE90108CDF80C8000912A4671
:104D80000220DBF83C1001F019FEBDE8FF5FFBF7E5
:104D9000F9BB7A236122002101200096FBF768FD10
:104DA000DBF83C0068B1012809D19BF80E00E0B1A6
:104DB00000231A46194602200094FBF759FDBDE86E
:104DC000FF9F9BF80E0038B100231A4619460220B7
:104DD0000094FBF74DFDF2E7C3200090D923612238
:104DE00000210220FBF744FDE9E7D92003460090AB
:104DF000612200210220FBF73BFDE0E70022EA23CD
:104E0000114601200096FBF733FD4B4687F80190D1
:104E100038789BF80E10CDE90108CDF80C80009190
:104E20002A460220DBF83C1001F0C8FDBDE8FF5F18
:104E3000FBF7A8BB69200021009071233A220846A5
:104E4000FBF716FD9BF80800F8B1012839D00228BD
:104E500077D00328B3D15B200090692371223A21D7
:104E60000120FBF705FDDBF83C0001286AD0022891
:104E7000A5D19BF80E0000287ED000231A461946C3
:104E800002200094FBF7F4FC99E7F1200346009020
:104E9000EB2200210120FBF7EBFC4B4687F8019049
:104EA00038789BF80E10CDE90010CDE90248224673
:104EB0000220DBF83C1001F081FDBDE8FF5FFBF74D
:104EC00061BBF1200090B323EB2273210120FBF79B
:104ED000CFFC9BF80E0038B100231A461946022079
:104EE0000094FBF7C5FC6AE7DBF83C00052884D298
:104EF000DFE800F0030C151E2900BB23F8228121F6
:104F00000220CDF800A0FBF7B3FC58E7BB23C32277
:104F1000F8210220CDF800A0FBF7AAFC4FE7BB2345
:104F2000FB22C3210220CDF800A0FBF7A1FC46E73D
:104F3000BB237B22DB210220CDF800A0FBF798FCED
:104F40003DE709E04AE0F823DF2281210220CDF885
:104F500000A0FBF78DFC32E7EB20024600907223A5
:104F6000F1210120FBF784FC9BF80E0048B10023DF
:104F70001A461946022000E044E00094FBF778FC52
:104F80001DE7DBF83C0070B101281ED0022813D0C9
:104F90000328A8D1F8200090FB23612200210220E1
:104FA000FBF766FC0BE781200090FB2361220021C8
:104FB0000220FBF75DFC02E781200090FB237122B9
:104FC00000210220FBF754FCF9E681200090FB232E
:104FD0007A2200210220FBF74BFCF0E69BF80E0042
:104FE00038B100231A46194602200094FBF740FC12
:104FF000E5E6B32000907223602200210220FBF737
:1050000037FCDCE6EB233A22002102200096FBF776
:105010002FFCD4E65B260021D323324608460096B7
:10502000FBF726FC9BF809004FF0710A062887D28F
:10503000DFE800F0033871C1DEF73A200246009045
:10504000D32300210120FBF713FCDBF83C000128EF
:105050000CD0022894D19BF80E00D0B100231A4640
:10506000194602200094FBF703FCA8E69BF80E000B
:1050700038B100231A46194602200094FBF7F8FBCA
:105080009DE67A23D322002102200096FBF7F0FB55
:1050900095E60022612311460220CDF800A0FBF71F
:1050A000E7FB8CE6E32000907B2381223221012064
:1050B000FBF7DEFB9BF80E0038B100231A461946B9
:1050C00002200094FBF7D4FB79E6DBF83C000128D2
:1050D0000CD0022816D003288AD1D92000220090B3
:1050E000322311460220FBF7C3FB68E68120002231
:1050F0000090322311460220FBF7BAFB5FE6000066
:1051000028000020F82000220090322311460220BF
:10511000FBF7AEFB53E6EA255B238122F121012058
:105120000095FBF7A5FB9BF80E0038B100231A464B
:10513000194602200094FBF79BFB40E6DBF83C009D
:10514000062892D2DFE800F0030C151D262EB320AE
:10515000002300901A4619460220FBF789FB2EE631
:105160008120002300901A4619460220FBF780FB9D
:1051700025E600231A46194602200095FBF778FB26
:105180001DE66A20002300901A4619460220FBF70C
:105190006FFB14E600227A23114602200095FBF7EC
:1051A00067FB0CE6F1200090E3237222002102202D
:1051B000FBF75EFB03E6602000903223EB22002128
:1051C0000120FBF755FB4B4687F8019038789BF898
:1051D0000E10CDE90108CDF80C8000912A4602207E
:1051E000DBF83C1001F0EAFBBDE8FF5FFBF7CAB952
:1051F0007A200090642332223A210120FBF738FB09
:10520000DBF83C0001280DD0022896D19BF80E0057
:10521000D8B100231A46194602200094FBF728FB58
:10522000CDE51BE09BF80E0038B100231A46194665
:1052300002200094FBF71CFBC1E57A23D322002156
:1052400002200096FBF714FBB9E50022612311460A
:105250000220CDF800A0FBF70BFBB0E57A20009010
:10526000F12371223A210120FBF702FB4B4687F81C
:10527000019038789BF80E10CDE90010CDE9024876
:1052800022460220DBF83C1001F098FBBDE8FF5FEE
:10529000FBF778B98120009040237122F121002092
:1052A000FBF7E6FA9BF80A000628B9D2DFE800F01F
:1052B000033855F7F6F57A200090F1237122692121
:1052C0000120FBF7D5FA9BF80E0038B100231A46EF
:1052D000194602200094FBF7CBFA70E5DBF83C009E
:1052E00060B1012813D002289AD1692000907A2356
:1052F000602200210220FBF7BBFA60E56A2003462A
:105300000090712200210220FBF7B2FA57E56020DD
:1053100000903223EB2200210220FBF7A9FA4EE590
:105320007A2000906923812272210120FBF7A0FAE4
:1053300002224B4687F8019038789BF80E10CDE991
:105340000108CDF80C8000910220DBF83C1001F040
:1053500035FBBDE8FF5FFBF715B9692000907A23A4
:10536000722281210120FBF783FA9BF80E0038B1ED
:1053700000231A46194602200094FBF779FA1EE52D
:10538000DBF83C005028A8D2DFE800F029323A438D
:105390004B545C656D767E8A929BA3ACB4F4FCF1B1
:1053A000F0EFEEEDECEBEAE9E8E7E6E5E4E3E2E175
:1053B000E0DFDEDDDCDBDAD9D8D7D6D5D4D3D2D165
:1053C000D0CFCECDCCCBCAC9C8C7282828282828FA
:1053D0002828C6C5C4C3C2C1C0BFBEBDEFE4E32018
:1053E00000900023EF22B3210220FBF741FAE6E40C
:1053F0000023EF22B32102200096FBF739FADEE406
:10540000E320009000237722B3210220FBF730FA3B
:10541000D5E400237722B32102200096FBF728FA77
:10542000CDE4E320009000233E22B3210220FBF7CD
:105430001FFAC4E400233E22B32102200096FBF7AA
:1054400017FABCE4E320002300901A46B72102209B
:10545000FBF70EFAB3E400231A46B72102200096A8
:10546000FBF706FAABE4E32000907723EB22B321AD
:105470000220FBF7FDF9A2E47723EB22B3210220FF
:105480000096FBF7F5F99AE4E32000903E2373229F
:10549000B3210220FBF7ECF991E4E6E293E241E26A
:1054A0003E237322B32102200096FBF7E1F986E444
:1054B000E3200090EF233A22B3210220FBF7D8F932
:1054C0007DE4EF233A22B32102200096FBF7D0F9C6
:1054D00075E4E320009000233622B3210220FBF77D
:1054E000C7F96CE400233622B32102200096FBF7B3
:1054F000BFF964E4E32000900023EF228121022021
:10550000FBF7B6F95BE4E0E1D6E1CDE1C3E1B9E157
:10551000AFE1A6E19CE192E188E1FAE1E7E1EFE1A8
:10552000DCE17BE171E168E15EE155E14BE142E103
:1055300038E12FE125E11CE112E109E1FFE0F6E0AD
:10554000ECE0E3E0D9E0D0E0C6E0BDE0B3E0AAE003
:10555000A0E097E08DE084E07AE071E067E05EE053
:1055600054E04BE041E038E02EE025E01BE012E0A3
:1055700008E0FFE70023EF22812102200096FBF7DD
:1055800077F91CE4E3200090002377228121022098
:10559000FBF76EF913E400237722812102200096A5
:1055A000FBF766F90BE4E320009000233E22812103
:1055B0000220FBF75DF90EE400233E228121022048
:1055C0000096FBF755F906E4E320002300901A4605
:1055D00085210220FBF74CF906E400231A468521B9
:1055E00002200096FBF744F907E4E3200090002333
:1055F000EF22EA210220FBF73BF945E40023EF22EA
:10560000EA2102200096FBF733F93DE4E320009005
:1056100000237722EA210220FBF72AF934E4002351
:105620007722EA2102200096FBF722F92CE4E320FE
:10563000009000233E22EA210220FBF719F923E41F
:1056400000233E22EA2102200096FBF711F91BE419
:10565000E320002300901A46EE210220FBF708F910
:1056600012E400231A46EE2102200096FBF700F90F
:105670000AE4E32000900023EF22CB210220FBF775
:10568000F7F830E40023EF22CB2102200096FBF74D
:10569000EFF828E4E320009000237722CB210220BA
:1056A000FBF7E6F81FE400237722CB2102200096C7
:1056B000FBF7DEF817E4E320009000233E22CB2125
:1056C0000220FBF7D5F80EE400233E22CB21022076
:1056D0000096FBF7CDF806E4E320002300901A467D
:1056E000CF210220FBF7C4F80FE400231A46CF2194
:1056F00002200096FBF7BCF807E4E32000900023AB
:10570000EF225B210220FBF7B3F807E40023EF222E
:105710005B2102200096FBF7ABF808E4E320009041
:10572000002377225B210220FBF7A2F808E4002384
:1057300077225B2102200096FBF79AF80BE4E32026
:10574000009000233E225B210220FBF791F817E432
:1057500000233E225B2102200096FBF789F80FE42C
:10576000E320002300901A465F210220FBF780F817
:1057700006E400231A465F2102200096FBF778F822
:1057800010E4E3200090EF236A22EA210220FBF7D5
:105790006FF807E4EF236A22EA2102200096FBF764
:1057A00067F808E4E320009077236A22EA210220C8
:1057B000FBF75EF808E477236A22EA2102200096CC
:1057C000FBF756F809E4E32000903E236A22EA2121
:1057D0000220FBF74DF80BE43E236A22EA21022067
:1057E0000096FBF745F803E4E320009000236E22C7
:1057F000EA210220FBF73CF803E400236E22EA21B1
:1058000002200096FBF734F803E4E3200023009025
:105810001A466E210220FBF72BF826E400231A46D5
:105820006E2102200096FBF723F81EE4EB20009087
:10583000E7237222B3210220FBF71AF815E4732044
:105840000090E7237222B3210220FBF711F80CE449
:105850003A200090E7237222B3210220FBF708F8D8
:1058600003E4E3237222B32102200094FBF700F843
:1058700006E4EB200090E723722281210220FAF750
:10588000F7FF05E473200090E723722281210220B4
:10589000FAF7EEFF05E43A200090E7237222812117
:1058A0000220FAF7E5FF0FE4E323722281210220B0
:1058B0000094FAF7DDFF07E4B32000907323692218
:1058C00081210220FAF7D4FF0FE4812001460090E5
:1058D000732369220220FAF7CBFF06E481200246F7
:1058E00000904023F1210220FAF7C2FF06E4402392
:1058F0008122F1210220CDF800A0FAF7B9FF09E4D6
:10590000812000904023F822F1210220FAF7B0FF15
:1059100013E44023F822F1210220CDF800A0FAF789
:10592000A7FF0AE4EB23B322002101200096FAF737
:105930009FFFF948C07C502830D2DFE800F02828CB
:1059400028282828282828282828282828282A2AD3
:105950002A2A2A2A2A2A2F2F2F2F2F2F2F2F2F2F75
:105960002F2F2F2F2F2F2F2F2F2F2F2F2F2F2C2C4D
:105970002C2C2C2C2C2C2E2E2F2F2F2F2F2F2F2F4B
:105980002F2F2F2F2E2E2E2E2E2E2E2E2E2E012569
:1059900004E0032502E0032500E002254B4687F8DA
:1059A000019038789BF80E10CDE90108CDF80C80F5
:1059B00000912A460220DBF83C1000F0FFFFBDE812
:1059C000FF5FFAF7DFBD5B200090D323E3220021C5
:1059D0000120FAF74DFFD048C07C502830D2DFE8D4
:1059E00000F0282828282828282828282828282897
:1059F00028282A2A2A2A2A2A2A2A2F2F2F2F2F2FED
:105A00002F2F2F2F2F2F2F2F2F2F2F2F2F2F2F2FA6
:105A10002F2F2C2C2C2C2C2C2C2C2E2E2F2F2F2FB0
:105A20002F2F2F2F2F2F2F2F2E2E2E2E2E2E2E2E8E
:105A30002E2E012504E0032502E0032500E00225C7
:105A40004B4687F8019038789BF80E10CDE9010895
:105A5000CDF80C8000912A460220DBF83C1000F0C3
:105A6000ADFFBDE8FF5FFAF78DBDD3200090322374
:105A70007A22F1210120FAF7FBFE02224B4687F839
:105A8000019038789BF80E10CDE90108CDF80C8014
:105A900000910220DBF83C1000F090FFBDE8FF5FB2
:105AA000FAF770BDF820009040237122F121002008
:105AB000FAF7DEFE9BF80B000628BFF429AFDFE8FB
:105AC00000F0033855EEEDEC7A200090F1237122BE
:105AD00069210120FAF7CCFE9BF80E0038B10023B3
