:020000040800F2
:10000000E0270020C9010008715900084D4100088F
:100010006D59000833090008C98D00080000000070
:10002000000000000000000000000000D561000892
:10003000BD0C000800000000615C0008F9750008B4
:10004000E3010008E3010008E3010008E301000800
:10005000E3010008E3010008E3010008E3010008F0
:10006000E3010008E3010008E3010008B10A000809
:10007000E3010008E3010008E3010008E3010008D0
:10008000E3010008E3010008E3010008E3010008C0
:10009000E3010008E3010008E3010008E3010008B0
:1000A000E3010008E3010008E3010008E3010008A0
:1000B000657600087D7600089D760008E30100085B
:1000C000E3010008E3010008E3010008E301000880
:1000D000E30100083986000841860008E3010008B2
:1000E000E3010008E3010008E301000800F002F862
:1000F00000F05AF80AA090E8000C82448344AAF168
:100100000107DA4501D100F04FF8AFF2090EBAE865
:100110000F0013F0010F18BFFB1A43F0010318473B
:1001200070F8000090F800000A444FF0000C10F83E
:10013000013B13F0070408BF10F8014B1D1108BF65
:1001400010F8015B641E05D010F8016B641E01F805
:10015000016BF9D113F0080F1EBF10F8014BAD1C55
:100160000C1B09D16D1E58BF01F801CBFAD505E073
:1001700014F8016B01F8016B6D1EF9D59142D6D3CD
:10018000704700000023002400250026103A28BFF5
:1001900078C1FBD8520728BF30C148BF0B607047F9
:1001A0001FB51FBD10B510BD00F0A8F91146FFF72F
:1001B000F7FF09F03FFE00F0C6F903B4FFF7F2FFC6
:1001C00003BC00F0C7F90000094880470948004710
:1001D000FEE7FEE7FEE7FEE7FEE7FEE7FEE7FEE7F7
:1001E000FEE7FEE704480549054A064B7047000054
:1001F00005760008ED000008E01F0020E027002041
:10020000E0230020E023002010B54C1084EA5304C2
:1002100004D54042C1F1000138BF491E1B4204D53C
:100220005242C3F1000338BF5B1E00F0B5F814F072
:10023000804F04D04042C1F1000138BF491E14F084
:10024000004F04D05242C3F1000338BF5B1E10BD03
:10025000032A40F2308010F0030C00F0158011F8F2
:10026000013BBCF1020F624498BF11F801CB00F8CA
:10027000013B38BF11F8013BA2F1040298BF00F81E
:1002800001CB38BF00F8013B11F0030300F02580DB
:10029000083AC0F0088051F8043B083A51F804CB02
:1002A000A0E80810F5E7121D5CBF51F8043B40F8C8
:1002B000043BAFF30080D20724BF11F8013B11F8D3
:1002C00001CB48BF11F8012B24BF00F8013B00F817
:1002D00001CB48BF00F8012B704710B5203AC0F0A1
:1002E0000B80B1E81850203AA0E81850B1E8185037
:1002F000A0E81850BFF4F5AF5FEA027C24BFB1E874
:100300001850A0E8185044BF18C918C0BDE81040E4
:100310005FEA827C24BF51F8043B40F8043B08BFED
:100320007047D20728BF31F8023B48BF11F8012BB4
:1003300028BF20F8023B48BF00F8012B704702F0AD
:10034000FF0343EA032242EA024200F002B84FF000
:1003500000020429C0F0128010F0030C00F0A0800D
:10036000CCF1040CBCF1020F18BF00F8012BA8BFA0
:1003700020F8022BA1EB0C0100F092B85FEAC17CDF
:1003800024BF00F8012B00F8012B48BF00F8012B17
:10039000704770477047704753EA020C00F069805D
:1003A0002DE9F04B4FF00006002B1FBFB3FA83F589
:1003B00003FA05F424FA05F65E4012BF1643B2FABA
:1003C00082F502FA05F4C5F120051EBF22FA05FCEC
:1003D00044EA0C04203556EA044C4FEA144418BF92
:1003E000641C4FF000084FF00009904271EB030CC1
:1003F00039D3002919BFB1FA81F701FA07F6B0FA2B
:1004000080F700FA07F6C7F120071EBF20FA07FCA5
:1004100046EA0C062037B6FBF4FCA7EB0507103FB5
:1004200007F01F0BCBF120060CFA0BFB2CFA06F69B
:1004300044BFB3460026202FA4BF5E464FF0000BFA
:100440005BEA060C08BF4FF0010B19EB0B09ABFB85
:10045000027C48EB0608C01B06FB02CC0BFB03CC5E
:1004600071EB0C01C1E70B46024641464846BDE828
:10047000F08B13B54FF000004FF00001AFF3008098
:10048000BDE81C40704710B500F030F8006810BDA2
:1004900010B5044600F02AF8046010BD4FF00002C9
:1004A00000B5134694469646203922BFA0E80C506A
:1004B000A0E80C50B1F12001BFF4F7AF090728BF45
:1004C000A0E80C5048BF0CC05DF804EB890028BFC1
:1004D00040F8042B08BF704748BF20F8022B11F0EA
:1004E000804F18BF00F8012B70470000004870478C
:1004F0007C1F0020004870477C1F00207546FFF7D6
:10050000F9FFAE4605006946534620F007008546D0
:1005100018B020B5FFF766FEBDE820404FF000069A
:100520004FF000074FF000084FF0000B21F00701DB
:10053000AC46ACE8C009ACE8C009ACE8C009ACE81E
:10054000C0098D4670470446AFF300802046FFF790
:1005500034FE000001491820ABBEFEE72600020071
:10056000704721B1826842F00102826003E0826834
:1005700022F001028260704700B593B0002005F0C0
:100580009FFC0121084605F0A7FC01214FF4C06043
:1005900005F0C2FC0121022005F0AEFC00217448E8
:1005A00007F090F80021734800F09CFA002172488F
:1005B000FFF7D7FF00217148FFF7D3FF6D4800F028
:1005C0009DFA6D484C3003906D48049000200590D2
:1005D0000420069000200790802008908000099059
:1005E00080000A9020200B9000020C9000200D90BB
:1005F00003A9604800F042FB01215E4800F072FA56
:100600004FF4C0200E9001208DF83C0000208DF8A2
:100610003D004FF4002010900020119004208DF830
:1006200048000EA9544800F0D7F805230122042100
:10063000514800F0F9F80523022219464E4800F00F
:10064000F3F80523032206214B4800F0EDF80523BB
:1006500004220821484800F0E7F80121464800F04C
:1006600091F80121444800F098F84FF4C0200E9012
:1006700001208DF83C0000208DF83D004FF46020F3
:1006800010900020119004208DF848000EA93B48DE
:1006900000F0A2F8052301220721384800F0C4F831
:1006A000052302220E21354800F0BEF8052303225F
:1006B0000F21324800F0B8F80523042209212F4801
:1006C00000F0B2F801212D4800F067F801212A4816
:1006D000FFF747FF284800F003F900BF264800F065
:1006E00071F80028FAD1244800F0FFF800BF224832
:1006F00000F05EF80028FAD101212048FFF731FF11
:100700001E4800F0EDF800BF1C4800F05BF8002820
:10071000FAD11A4800F0E9F800BF184800F048F88C
:100720000028FAD10420ADF800000020ADF8020046
:1007300040F2F310ADF804000020ADF806008DF88B
:10074000080069460A4806F0EDFF2021084806F037
:10075000DFFF0121064806F0AFFF012211460448E1
:1007600006F0CDFF0121024806F0ACFF13B000BD3A
:10077000000400400800024000240140002801401D
:10078000341B002021B1826842F48072826003E051
:10079000826822F480728260704721B1826842F4DC
:1007A0008012826003E0826822F4801282607047C7
:1007B000014600208A6802F004020AB1012000E02C
:1007C00000207047014600208A6802F008020AB142
:1007D000012000E00020704730B5024600200023D1
:1007E00050680F4C20400D790C6844EA05242043E2
:1007F000506090680B4C2040D1E902542C434D7955
:1008000044EA450420439060D06A20F470000C7CD8
:10081000641EE4B2234340EA0350D06230BD0000BE
:10082000FFFEF0FFFDF7F1FFF0B504460D46002096
:100830000021092D11DDE068A5F10A0606EB460747
:10084000072606FA07F18843A5F10A0606EB4606D5
:1008500003FA06F10843E0600CE0206905EB450768
:10086000072606FA07F1884305EB450603FA06F169
:1008700008432061072A0FDA606B561E06EB8607D5
:100880001F2606FA07F18843561E06EB860605FA70
:1008900006F10843606322E00D2A0FDA206BD61FB1
:1008A00006EB86071F2606FA07F18843D61F06EBDC
:1008B000860605FA06F10843206310E0E06AA2F11B
:1008C0000D0606EB86071F2606FA07F18843A2F1FC
:1008D0000D0606EB860605FA06F10843E062F0BD58
:1008E000816841F0080181607047816841F004012E
:1008F0008160704710B504F0AFFE07F061F906F0B3
:1009000063FF07F009FC06F09DFF06F091FF6420ED
:1009100005F06AF910BD10B505F00EFB01F03AFACA
:1009200007F0B8FE01F0BCF805F023F806F02CFE45
:1009300010BD00BFFEE7FCB50146002040247F2526
:1009400000221CE0824212DA01EBC007C0CFCDE9E1
:10095000006701EBC00601EBC20CDCE9007CC6E9D4
:10096000007C01EBC206DDE9007CC6E9007C234681
:1009700001E0C01A5B108342FBDD1844521CAA42FE
:10098000E0DBFCBD30B500200023002200BF3BE0CF
:100990000020002130E01E4C04EB8204645C2D2C0E
:1009A00028D01B4C04EB8204645C2B2C22D0184C06
:1009B00004EB8204635C39B903EB4304C4EBC31456
:1009C00000EBC404A0B215E0012907D103EBC30476
:1009D00004EB031400EB8404A0B20BE0022905D160
:1009E00003EB830400EB4404A0B203E0032901D12C
:1009F0001C18A0B24C1CE1B20429CCDB04B2054D9A
:100A000025F81240541CE2B2032AC1DB30BD0000BD
:100A1000741600202C010020002000BF06E0FF21FA
:100A2000044A11540021044A1154401C5628F6DB94
:100A300070470000881A0020DE1A002030B50346F7
:100A40000C46002100BF07E0585C655CA84201D05D
:100A5000002030BD481CC1B29142F5DB0120F8E70F
:100A6000014609B905487047012901D10448FAE750
:100A7000022901D10348F6E70020F4E700380140DD
:100A80000044004000480040024611464910202919
:100A900005DAC1F12000054B33F810007047A1F1D1
:100AA0002000024B33F810004042F7E7D6F400086C
:100AB00010B5022000F0CCF820B105F0D3F80220E8
:100AC00000F002F810BD000000F0805111B10349A0
:100AD000086001E0024948607047000004040240D9
:100AE0000000024021B1026842F00102026004E00D
:100AF00002684FF6FE731A400260704701684FF6B5
:100B0000FE72114001600021016041608160C1609E
:100B10004B49884208D14A490839496841F00F01D8
:100B2000474A083A51608AE045491431884208D161
:100B300043490839496841F0F001414A083A516097
:100B40007DE03F492831884208D13D49083949684C
:100B500041F470613A4A083A516070E038493C31DA
:100B6000884208D136490839496841F47041344A0D
:100B7000083A516063E032495031884208D1304927
:100B80000839496841F470212D4A083A516056E00D
:100B90002B496431884208D129490839496841F410
:100BA0007001274A083A516049E025497831884266
:100BB00008D123490839496841F07061204A083A50
:100BC00051603CE01F49884206D1011F096841F08D
:100BD0000F01021F116032E01A491431884208D116
:100BE0001849091F096841F0F001164A121F1160E7
:100BF00025E014492831884208D11249091F0968A3
:100C000041F470610F4A121F116018E00D493C3128
:100C1000884208D10B49091F096841F47041094A0B
:100C2000121F11600BE007495031884207D1054976
:100C3000091F096841F47021024A121F11607047B0
:100C400008000240080402400146486880B270472C
:100C500001460020002201F0805313B1054B1A68B1
:100C600001E0054B1A6802EA01030BB1012000E024
:100C700000207047000402400000024010B500222E
:100C8000026847F6F0739A430C6A8B6823430C6939
:100C900023434C6923438C692343CC6923434C6A27
:100CA00023438C6A23431A430260CB6843600B687A
:100CB00083604B68C36010BD41607047704700009F
:100CC00010B501241A480078F0B91A480078642158
:100CD00048431949086001201549087017484079B0
:100CE000012806D11448006800F5FA60124908602E
:100CF0000AE012484079022806D10F4800680C210A
:100D000001FB04000C4908600D4800680A490968A5
:100D1000884207D900200A490860002108460AF0E5
:100D200079FC04E006480068401C0549086010BDD5
:100D3000DD000020D4000020E0000020B11E0020D3
:100D4000B000002030B50B46002100225C7AE40997
:100D5000002C5FD100BF5AE000F1150414F82240C6
:100D600004F0010444B312B99C7AE10908E0012AB5
:100D700003D19C7AC4F3801102E09C7AC4F3401141
:100D80006D4C14F8115000F1150414F8224065F36D
:100D9000C30400F1150505F82240674C04EB41043B
:100DA000657800F1150414F8224065F3041400F18D
:100DB000150505F8224028E01AB99C7AC4F3001101
:100DC00008E0012A03D19C7AC4F3C00102E09C7AB6
:100DD000C4F38001594C14F8115000F1150414F8B3
:100DE000224065F3C30400F1150505F82240534C79
:100DF00004EB4104657800F1150414F8224065F312
:100E0000041400F1150505F82240541CE2B2032A2F
:100E1000A2DB90E0447D04F001040CB39C7AE1096C
:100E2000474C14F82150447D65F3C3044475444C89
:100E300004EB81046578447D65F345144475404CAA
:100E400004EB8104A578447D65F3041444753C4C9F
:100E500004EB8104E578447D65F38614447521E054
:100E60009C7AC4F34011374C14F82150447D65F34B
:100E7000C3044475334C04EB81046578447D65F309
:100E8000451444752F4C04EB8104A578447D65F32B
:100E9000041444752B4C04EB8104E578447D65F320
:100EA00086144475447E04F0010414B39C7AC4F3A0
:100EB0008011234C14F82150447E65F3C30444761A
:100EC0001F4C04EB81046578447E65F34514447639
:100ED0001B4C04EB8104A578447E65F3041444762E
:100EE000174C04EB8104E578447E65F38614447660
:100EF00021E09C7AC4F30011124C14F82150447E76
:100F000065F3C30444760F4C04EB81046578447E9A
:100F100065F3451444760B4C04EB8104A578447EBC
:100F200065F304144476074C04EB8104E578447EB1
:100F300065F38614447630BDE0F50008E4F500085A
:100F4000D0F50008D8F5000801460020CA7C02F060
:100F50001F02012A09D0CA7C02F01F02032A04D012
:100F6000CA7C02F01F02052A30D100202BE001F1DB
:100F7000150212F8202002F001028AB101F11502D7
:100F800012F82020D30801F1150202EB80025278FA
:100F900063F3820201F1150303EB80035A7010E042
:100FA00001F1150212F82020130901F1150202EBDC
:100FB0008002527863F3C30201F1150303EB80034F
:100FC0005A70421CD0B20328D1DB47E0002043E036
:100FD00001F1150212F8202002F00102EAB101F13C
:100FE000150212F82020C2F3C00232B901F1150235
:100FF00012F82020C2F340120AB1012200E00022C0
:1010000001F1150303EB80035B7862F3820301F1C6
:10101000150202EB800253701CE001F1150212F878
:101020002020C2F3001232B901F1150212F820207B
:10103000C2F380120AB1012200E0002201F115037F
:1010400003EB80035B7862F3C30301F1150202EB4B
:1010500080025370421CD0B20228B9DB70470000F6
:101060000349087010B10349034A1160704700003A
:10107000C902002040190100B40100202DE9F84305
:1010800007460D461646984600BFC5EBC50000EB67
:10109000451039490844407D00F001008DF80000FA
:1010A000C5EBC50000EB45100844407E00F0010090
:1010B0008DF80100C5EBC50000EB45100844407FEA
:1010C00000F001008DF8020000244CE0C5EBC500E3
:1010D00000EB451028490844153000EB84004078A7
:1010E000C0F38000B8B9C5EBC50000EB451008445B
:1010F000153000EB84004078C0F3C00058B9C5EB50
:10110000C50000EB45100844213000EB4400407856
:10111000C0F3800040B101200DF8040017480078AA
:1011200010B102200DF804001548007890B9C5EB05
:10113000C50000EB451010490844213000EB440085
:101140004078C0F3801028B10C48007810B102201C
:101150000DF804001DF8043022463146384602F0EE
:1011600063F8601CC4B2032CB0DB3146012002F0EE
:101170006FFBBDE8F8830000A51B00204E01002096
:10118000C902002010B500200249087000F040F9A3
:1011900010BD00001D0100201FB50020012100909E
:1011A000CDE901010423024603901448008801B2EE
:1011B000002003F05DFD002001210090CDE9010138
:1011C0000423024603900E48008801B2012003F078
:1011D0004FFD0F220021022002F07AFE0B22012196
:1011E000022002F075FE0B220221084602F070FE7A
:1011F0000B220321022002F06BFE1FBDB80200206B
:10120000BA02002010B5002000F00AF810BD00005E
:1012100010B50248007800F003F810BD4E01002020
:1012200030B587B0044600200690002505900320C5
:101230007349487003217248C17041717148007848
:101240000F284AD2DFE800F008090A1819212223E2
:10125000252627373840410000BF00BF04206849D9
:10126000487004216648C170417102208DF8150054
:101270008DF81600032530E000BF03206049487058
:1012800003215F48C170022527E000BF00BF03258E
:1012900023E000BF00BF032059494870022158488D
:1012A000C170417100208DF814008DF815008DF883
:1012B0001600032511E000BF0320514948700221A8
:1012C0004F48C170022508E000BF02204C49487019
:1012D00002214B48C170022500BF00BF0DB907B005
:1012E00030BD49480078032803DA06A84649097842
:1012F000445400220123424800789DF81810CDE99B
:101300000232CDE900103E4843789DF814203F4852
:10131000008801B2002003F0ABFC0020CDE90040C2
:1013200002900423024601460390012003F0A0FC32
:101330000020CDE9004002900423024601460390BC
:10134000022003F095FC022D14D1002201232C4829
:1013500080789DF81910CDE90232CDE900102848B7
:10136000C3789DF815202948808801B2012003F038
:101370007FFC41E0032D3FD10022012320488078EB
:101380009DF81910CDE90232CDE900101C48C37850
:101390009DF815201D48808801B2012003F068FCEB
:1013A00018480078022813D10122154800799DF8C9
:1013B0001A10CDE9010212480392009143799DF879
:1013C00016201248008901B2022003F051FC13E0FC
:1013D000002201230A4800799DF81A10CDE9023253
:1013E000CDE90010064843799DF81620074800898A
:1013F00001B2022003F03CFCFFF7C4FA00BF6EE725
:10140000260100201E01002034010020801600204B
:101410002DE9FF470024A146FE480078082875D230
:10142000DFE800F004398EE1F2F1F0EF00242FE064
:10143000F94810F81400C0F3401028B9F64810F825
:101440001400C0F3801060B1002001210090CDE9AC
:1014500001010423022264210390204603F008FCCA
:1014600014E0EE4850F82400B0F910000A2190FB77
:10147000F1F005B2002001210090CDE90101042323
:10148000022229460390204603F0F2FB601CC4B2FE
:10149000032CCDDBE9E100244FE0E1480078B8B14E
:1014A000DE4850F8240000880A2190FBF1F005B2D4
:1014B000002001210F22DB4B1B78CDE90032CDE962
:1014C000021004230A462946204603F0D1FB32E0ED
:1014D000D14810F8140000F01C00002817DDCF4898
:1014E00050F8240000880A2190FBF1F005B200209A
:1014F00001220F21CB4B1B78CDE90031CDE9022031
:1015000004232946204603F0B3FB14E0ACE1C348B2
:1015100050F8240000880A2190FBF1F005B2002069
:1015200001210090CDE9010104230A4629460390D8
:10153000204603F09DFB601CC4B2032CADDB94E19C
:1015400000244DE0B54951F824104988B64AB2F854
:10155000052001FB02F00CF096FF0746B34AB44B9E
:101560000CF0BCFF05460CF031FF8146B148005D30
:1015700080B1002001210F22AA4B1B78CDE9003257
:10158000CDE90210042302460FFA89F1204603F048
:101590006FFB23E0A04810F81400C0F3401080B1A6
:1015A000002001210F229F4B1B78CDE90032CDE9AD
:1015B0000210042302460FFA89F1204603F058FB7B
:1015C0000CE0002001210090CDE901010423024636
:1015D0000FFA89F10390204603F04AFB601CC4B265
:1015E000032CAFDB41E1002432E08C4951F8241098
:1015F0004968002909DA894951F8241049684942A3
:1016000007E0B7E083E05AE025E0844951F8241070
:101610004968854AB2F8052001FB02F00CF033FF5F
:101620000746854A854B0CF059FF05460CF0CEFE67
:101630008146002001210090CDE9010104230246EA
:101640000FFA89F10390204603F012FB601CC4B22C
:10165000032CCADB09E100242EE0704951F8241064
:101660008968002905DA6D4951F8241089684942D2
:1016700003E06A4951F8241089686B4AB2F80520E2
:1016800001FB02F00CF0FFFE07466B4A6B4B0CF0BF
:1016900025FF05460CF09AFE8146002001210090AE
:1016A000CDE90101042302460FFA89F10390204697
:1016B00003F0DEFA601CC4B2032CCEDBD5E00024BC
:1016C00022E0564951F82410C968574AB2F805205B
:1016D00001FB02F00CF0EEFE0546574A574B0CF0AA
:1016E000FDFE07460CF072FE8146002001210090AD
:1016F000CDE90101042302460FFA89F10390204647
:1017000003F0B6FA601CC4B2032CDADBADE00024AF
:101710002DE0414800EB4400008800F48070002870
:1017200013DD002001210F223E4B1B78CDE9003252
:10173000CDE90210424800EBC400408801B2032307
:101740000122204603F094FA0FE0002001210090CE
:10175000CDE9010103903A4800EBC400408801B292
:1017600003230122204603F083FA601CC4B2032C39
:10177000CFDB7AE02848213800795F2804DC26484E
:1017800021380079022814DA0B220021084602F0E1
:101790009FFB0B220121002002F09AFB0B22022169
:1017A000002002F095FB0B220321002002F090FBA9
:1017B00027E01948213890F82200C0F38000002863
:1017C00011DD002001220F21164B1B78CDE90031DD
:1017D000CDE9022010482138017902230022104669
:1017E00003F046FA0DE0002001210090CDE901014F
:1017F000039009482138017902230022104603F0A2
:1018000037FA002001210090CDE9010104230A46A6
:10181000039017E01D010020D21E002008030020C5
:10182000D40200204E010020701B0020FCA9F1D240
:101830004D62503FD50200202D431CEBE2361A3F8B
:10184000141F00200A48008801B2012003F010FA9A
:10185000002000900190029004230246014603906C
:10186000022003F005FA00E000BF00BFBDE8FF87DB
:10187000E002002000B5002000F001F800BD704734
:1018800000B502480078FFF7FAFF00BD4E010020C6
:1018900010B5FFF7C1F810BD10B547480278002118
:1018A000084602F015FB444842780121002002F06E
:1018B0000FFB414882780221002002F009FB3E48DC
:1018C000C2780321002002F003FB3C480279032187
:1018D000012002F0FDFA3948027A0321022002F0C9
:1018E000F7FA3748007888BB3648007878B10B2281
:1018F0000021012002F0ECFA0B220121084602F03F
:10190000E7FA0B220221012002F0E2FA0EE0FF22A8
:101910000021012002F0DCFAFF220121084602F03A
:10192000D7FAFF220221012002F0D2FA0B22002175
:10193000022002F0CDFA0B220121022002F0C8FAA7
:101940000B220221084602F0C3FA34E0FFE71C48EC
:10195000007801282FD10B22002102F0B9FA0B22C6
:101960000121084602F0B4FA0B220221012002F004
:10197000AFFA1448007878B10B220021022002F05F
:10198000A7FA0B220121022002F0A2FA0B22022167
:10199000084602F09DFA0EE0FF220021022002F02C
:1019A00097FAFF220121022002F092FAFF2202217F
:1019B000084602F08DFA10BD1801002080160020A4
:1019C000200100204E01002010B53148027800218E
:1019D000084602F07DFA2E4842780121002002F0EC
:1019E00077FA2B4882780221002002F071FA284809
:1019F000C2780321002002F06BFA0B2200210120A3
:101A000002F066FA0B220121084602F061FA0B226D
:101A10000221012002F05CFA0B220021022002F0D8
:101A200057FA0B220121022002F052FA0B22022166
:101A3000084602F04DFA1748027A0321022002F00C
:101A400047FA1548007878B91448007830B1114841
:101A500002790321012002F03BFA18E0FF22032162
:101A6000012002F035FA12E00B48007801280ED16F
:101A70000A48007830B10748027A0321022002F0B8
:101A800027FA04E0FF220321022002F021FA10BD10
:101A90001801002080160020200100204E010020A7
:101AA000704700002DE9F04F8DB000200C900B9096
:101AB000834681460A9009906248FEF73CFF012068
:101AC0000C90B7E001210C9881400A910A984010CF
:101AD0000B904FF0000BA6E04FEACB110B9891FB57
:101AE000F0F00890089805F02DFDC0F1000A089864
:101AF000FEF7CAFF0446D9468FE00B984844099088
:101B00005049099851F83050EE17099801EBC00080
:101B100047684FEAE778E117A5FB040206FB0422B9
:101B200005FB01214FEAEA72A7FB0A3C08FB0ACC3D
:101B300007FB02C284460846BCEB030160EB0200CF
:101B4000CDE902104FEAEA71A5FB0A0206FB0A2260
:101B500005FB0121E217A7FB043C08FB04CC07FBB3
:101B600002C2844608461CEB03015041CDE9001037
:101B7000344850F83900C117CDE90601314800EB6F
:101B8000C9004068C117CDE90401DDE90621C80399
:101B900040EA5240D103CDE90610DDE90421C80333
:101BA00040EA5240D103CDE90410DDE90632DDE917
:101BB0000210591A62EB0002C80B40EA4240214A67
:101BC000099942F83100DDE90432DDE90010591AC3
:101BD00062EB0002C80B40EA42401A4A099902EB44
:101BE000C1014860DDE90632DDE9021059184241C1
:101BF000C80B40EA4240134941F83900DDE904329C
:101C0000DDE9001059184241C80B40EA42400D4935
:101C100001EBC90148600A988144B9F1800FFFF6D1
:101C20006CAF0BF1010B0B988345FFF655AF0C9889
:101C3000401C0C900C9807287FF744AF0DB0BDE80E
:101C4000F08F0000E01000200149C86070470000DC
:101C50000020024030B5044604254FF4302000F047
:101C600085F80546042D17D10C48006940F00200A4
:101C70000A49086108464461006940F04000086173
:101C80004FF4302000F072F805460448006941F630
:101C9000FD71084001490861284630BD002002401E
:101CA00004200B49C96801F0010109B101200EE0CF
:101CB0000749C96801F0040109B1022007E004499D
:101CC000C96801F0100109B1032000E00420704749
:101CD000002002400348006940F08000014908618B
:101CE000704700000020024078B506460C460425E7
:101CF00000200090E80200F039F80546042D24D1B8
:101D00001348006940F00100114908613480E8027D
:101D100000F02CF80546042D10D1B01C0090200CCA
:101D200000990880E80200F021F80546084800699B
:101D300041F6FE7108400649086106E00448006962
:101D400041F6FE71084002490861284678BD00004E
:101D50000020024002480349486003484860704739
:101D60002301674500200240AB89EFCD00B5024654
:101D70000423FFF795FF034603E0FFF791FF0346B7
:101D8000521E012B01D1002AF7D102B905231846B2
:101D900000BD000008B503208DF802004FF48060FC
:101DA000ADF8000004208DF8030069465E4800F09D
:101DB000C3F84FF40070ADF8000018208DF8030050
:101DC0006946594800F0B8F803208DF80200082051
:101DD000ADF8000004208DF803006946524800F079
:101DE000ABF80420ADF8000018208DF80300694618
:101DF0004D4800F0A1F803208DF8020010208DF866
:101E000003000002ADF800006946484800F094F86D
:101E10000120ADF800006946454800F08DF8022029
:101E2000ADF800006946424800F086F80420ADF89D
:101E3000000069463E4800F07FF84FF40060ADF8BE
:101E400000006946394800F077F801208DF802005B
:101E500004208DF803002020ADF8000069463448C6
:101E600000F06AF81020ADF800006946304800F034
:101E700063F84020ADF8000069462D4800F05CF89A
:101E80008020ADF800006946294800F055F801208F
:101E90008DF8020010208DF803008001ADF80000DD
:101EA0006946224800F048F801208DF80200002021
:101EB0008DF803001020ADF8000069461A4800F0C4
:101EC0003BF82020ADF800006946174800F034F8D0
:101ED0004020ADF800006946134800F02DF880203E
:101EE000ADF800006946104800F026F81020ADF863
:101EF000000069460D4800F01FF82020ADF80000F2
:101F000069460A4800F018F80120ADF8000069465B
:101F1000084800F011F80220ADF8000069460548B5
:101F200000F00AF808BD0000000801400010014060
:101F300000140140000C01402DE9F041024600254B
:101F40000026002000230024002791F803C00CF095
:101F50000F0591F803C00CF0100CBCF1000F03D07A
:101F600091F802C04CEA050591F800C0BCF1000FE1
:101F700031D0146800202BE04FF0010C0CFA00F374
:101F8000B1F800C00CEA03069E4220D183004FF056
:101F90000F0C0CFA03F7BC4305FA03FC4CEA0404EB
:101FA00091F803C0BCF1280F06D14FF0010C0CFAD8
:101FB00000FCC2F814C00AE091F803C0BCF1480F5D
:101FC00005D14FF0010C0CFA00FCC2F810C0401C07
:101FD0000828D1D31460B1F800C0BCF1FF0F34DD84
:101FE000546800202EE000F1080C4FF0010808FAB8
:101FF0000CF3B1F800C00CEA03069E4221D1830025
:102000004FF00F0C0CFA03F7BC4305FA03FC4CEA43
:10201000040491F803C0BCF1280F05D100F1080CAD
:1020200008FA0CF8C2F8148091F803C0BCF1480F0C
:1020300007D100F1080C4FF0010808FA0CF8C2F8BB
:102040001080401C0828CED35460BDE8F0810246C1
:10205000002093680B400BB1012000E00020704786
:10206000416170470161704710B5044624B94FF4CF
:1020700080610248FFF7F4FF10BD0000001001402E
:1020800010B5002400BF29E0FF220021204601F006
:102090001FFFFF220121204601F01AFFFF2202212B
:1020A000204601F015FFFF220321204601F010FF1A
:1020B000FF220021204601F04FFBFF220121204694
:1020C00001F04AFBFF220221204601F045FBFF22DE
:1020D0000321204601F040FB601CC4B2032CD3DB7B
:1020E0000C4802780021012001F0F2FE09484278F4
:1020F0000121084601F0ECFE064882780221012009
:1021000001F0E6FE0348C2780321012001F0E0FE61
:1021100010BD00001801002010B504463A480078B0
:1021200068B93A48007838B139480068002867D063
:1021300037480068804763E0FFF7A2FF60E034485B
:10214000006810B132480068804714B931480078FF
:1021500010B93148007888B100202E4908702F4905
:1021600008700846007800EB40002D4901EB800024
:1021700080682749086000202A49087027480078AD
:10218000012806D025480078032802D000202649DF
:10219000087022480078022806D0204800780428D9
:1021A00002D00020214908701C480078012803D083
:1021B0001A480078032801D102F0BEF917480078C8
:1021C000022803D015480078042801D102F05EFBF4
:1021D0001248007808B902F0F1FA02F06BFB02F045
:1021E000C1F8012001F04AFA0021012001F050FB62
:1021F0000121084601F04CFB0221012001F048FBBF
:1022000006F090FD10BD0000740100207C0100204C
:10221000140100204F010020500100201C0100206B
:1022200050F500081D0100201E0100201F010020A4
:1022300010B54548007809286FD2DFE800F0051195
:102240001F2D31326E434F0040480078401C3F49FB
:10225000087008460078072801DD002008705CE05F
:102260003B480078401C3A490870084600780E2820
:1022700001DD0020087000F0EDFD4EE035480078EB
:10228000401C34490870084600780B2801DD002006
:10229000087000F0BAFE40E0012006F029FC3CE0A6
:1022A0003BE02D480078012803D02B480078022815
:1022B00007D12A48007820B906F0EEFB002002F092
:1022C00079FE2AE026480078401C25490870084617
:1022D0000078012801DD002008701EE02048007809
:1022E00058B920484068401E1E494860084640686A
:1022F000012811D9012048600EE019480078012812
:102300000AD118488068401E1649886008468068CF
:10231000012801D90120886000BF00BF0A48007869
:1023200000EB4000104901EB80000079064908707D
:102330000846007800EB40000B4901EB8000806804
:102340000A49086010BD00001C0100201D0100208A
:102350001E0100201F0100207F010020D20200206A
:10236000200100208016002050F5000814010020F4
:102370000E48007838B90E48007807280AD109209D
:102380000A49087006E009480078092802D10020AF
:10239000064908700548007800EB4000054901EB4C
:1023A0008000806804490860704700001C0100201C
:1023B0001D01002050F50008140100200A48007893
:1023C00000EB4000094901EB8000407806490870A5
:1023D0000846007800EB4000044901EB800080686B
:1023E00003490860704700001C01002050F50008F8
:1023F0001401002010B51B48007840B901201A498B
:10240000087005201749087002F05CFE1EE01548B0
:102410000078012803D013480078032806D1002152
:10242000124803F001FA00F015FD0FE00D480078A6
:1024300005280BD100200B4908700D4908700A4986
:10244000087002F03FFE00200A4908700548007835
:1024500000EB4000084901EB8000806807490860F4
:1024600010BD00001C0100207F010020701B002017
:102470001D0100202501002050F500081401002056
:1024800010B53A48007809285AD2DFE800F005066E
:1024900013143B3C594D530052E03548007818B1B5
:1024A00000203349087004E003203049087000F030
:1024B000D1FC45E044E02F482F49097810F811007D
:1024C000082819DA2B482C49097810F8110030B97E
:1024D00002202849284A127801F8120011E0254804
:1024E0002549097810F811004006000E2149224ABA
:1024F000127801F8120004E000F002FB01201B49F1
:1025000008701DE01CE000201C49087002F0DAFD94
:102510001B480078401C1A490870084600780328B8
:1025200001DD012008700BE008201049087000F060
:10253000A5FD05E007200D49087000F067FD00BF0C
:1025400000BF0A48007800EB40000E4901EB800014
:102550008078064908700846007800EB4000094979
:1025600001EB800080680849086010BD1C01002054
:102570007D010020260100203401002025010020DB
:102580007F01002050F500081401002010B52048FC
:10259000007840B901201E49087000F05BFC012062
:1025A0001C49087029E01A480078012803D018480F
:1025B0000078032809D100F0A3FA0020144908701C
:1025C0001549087001F0BEFE17E011480078072891
:1025D00003D00F48007808280FD101200F49087058
:1025E00000200F4908700F4908600F49087008491A
:1025F00008700949087000F009FD0548007800EBF3
:1026000040000A4901EB800080680949086010BD5C
:102610001C0100207D0100201D010020740100200C
:102620007C010020700100204F01002050F50008BF
:102630001401002010B54C480078092811D2DFE8B9
:1026400000F005111F2D314B875C6800474800786A
:10265000401E4649087008460078072801DD07201B
:10266000087075E042480078401E414908700846ED
:1026700000780E2801DD0E20087000F0EBFB67E00B
:102680003C480078401E3B490870084600780B28FB
:1026900001DD0020087000F0B8FC59E0002006F0D1
:1026A00027FA55E034483549097810F81100082810
:1026B0000CDA31483149097810F811004006000E53
:1026C0002D492E4A127801F8120004E000F09CFC1B
:1026D0000220254908703BE029480078012803D0F2
:1026E00027480078022807D12648007820B906F04C
:1026F000EDFA012002F05EFC2AE023480078401E3B
:102700002149087008460078012801DD0120087081
:102710001EE01D48007858B91C484068401C1B4901
:10272000486008464068012811D9002048600EE042
:102730001548007801280AD114488068401C1349C4
:10274000886008468068012801D90020886000BFA1
:1027500000BF0548007800EB40000D4901EB800008
:1027600080680C49086010BD1C0100201D0100207C
:102770001E0100201F01002026010020340100203E
:102780007F010020D20200202001002080160020BE
:1027900050F500081401002010B51A480078A0B9BF
:1027A00007201949087001201849087041F2883043
:1027B000174908600020FFF757FC03F039FC0020A0
:1027C0001449087000F05AFC11E00F48007838B93D
:1027D0001148007807280AD106200B49087006E046
:1027E00000F064FC0020084908700B490870064896
:1027F000007800EB4000094901EB8000806808493F
:10280000086010BD740100201C0100207C01002024
:1028100070010020200100201D01002050F500085B
:102820001401002010B501F0A9FC0446092C1ED2A9
:10283000DFE804F01D0B0E05081114171A00FFF74E
:10284000F9FE15E0FFF7F4FC12E0FFF7B7FD0FE02B
:10285000FFF716FE0CE0FFF7CDFD09E0FFF796FE4F
:1028600006E0FFF799FF03E0FFF782FD00E000BFFD
:1028700000BF2046FFF750FC10BD000001200349B7
:102880000870002002490880704700006A0100209B
:10289000680100203EB5002500247F48007870B311
:1028A0000020FFF7E1FB7D480068401C7B49086081
:1028B0004EF66021884237D9002077490870774961
:1028C000086077490870774908600120FFF7CCFB62
:1028D0000020754908607549087001207449087026
:1028E000002074490870012073490870002000F02E
:1028F00033FC002000F086FC01F024FD14E0FFE72B
:102900006748007880B967480068401C65490860DE
:1029100041F65831884207D90120614908700020EA
:1029200060490860FFF7A0FB64480078F0B1644894
:1029300001680068401C624A10606248814218D3F6
:102940000020114608605D49087000900190034620
:1029500002460146029001F045F90021084600F0C8
:102960009FFE0221002000F0C9FF02E00020544930
:1029700008604E48007828B353480078052801D1F4
:10298000524C00E04F4C484801680068401C464AE1
:102990001060A14219D9002011460860434908700F
:1029A0000120434908700020424908700120424933
:1029B0000870002000F0D0FB002000F023FC01F0A4
:1029C000C1FC02E00020384908604148007890B11D
:1029D000404801680068401C3E4A106041F658308B
:1029E000814208D300201146086001203A4908704E
:1029F0000020374908703948007870B138480168BC
:102A00000068401C364A1060642906D30020114635
:102A1000086032490870FFF727FB32480088401CE5
:102A20003049088008460088B0F5FA7F09DB0020AD
:102A300008802D48007808B9012000E000202A49CC
:102A400008702A48007870B129480088401C28493D
:102A5000088008460088B0F5FA6F07DB0020088080
:102A60002249087002E000202149088021480078AE
:102A700050B1214801680068401E1F4A106051B9DA
:102A800000201C49087006E01C48407B4FF47A7116
:102A90004843194908603EBD7C01002078010020B0
:102AA0007401002070010020640100205C010020FE
:102AB000500100207F0100207E0100205B010020EA
:102AC00060010020C0D401001C01002040771B00E1
:102AD0005D010020800100204F0100206B010020DB
:102AE0006C010020840100204E0100206A010020BA
:102AF000680100205101002054010020701B0020BB
:102B00000EB500200290D04800780F2873D2DFE87D
:102B100000F008090A9293ACADAEFDFCFBFAF9F89F
:102B2000F70000BF00BF41F288300090C748B0F8FE
:102B300005100123C64A02A801F00AFBC349A1F807
:102B40000500C3484068502830DBC148406864280D
:102B50002CDC0846B0F90700BD49496888422AD0F4
:102B6000BA48B0F90900002816DDB9484068B749ED
:102B7000B1F90910884209DAB548808800B2B34932
:102B8000A1F8070001208DF8090014E0AF48B0F962
:102B90000700AF4948600EE0AD48808800B2AB49FD
:102BA000A1F8070001208DF8090004E0A748B0F95A
:102BB0000700A7494860A64880685A2822DBA44835
:102BC000806864281EDCA148B0F90900A049896822
:102BD00088422FD09E4880689C49B1F907108842EE
:102BE0000ADD9B48008900B29849A1F8090001203C
:102BF0008DF80A001EE019E19448B0F909009449E3
:102C0000886017E09248806800280EDA9048806853
:102C100010F13C0F09DA8E48008900B28B49A1F807
:102C2000090001208DF80A0004E08848B0F9090085
:102C300087498860FAE000BFFA2000908348417B12
:102C40000523834A02A801F083FA80494873FA20D9
:102C500000900846817B05237D4A121D0DF1090075
:102C600001F076FA79498873E0E000BF00BF784848
:102C7000006800EB8000400001904FF42F6000904E
:102C80007248B0F80F104FF4166301AA02A801F0C1
:102C90005FFA6E49A1F80F000A21019890FBF1F04C
:102CA0006B4908600846406800EB800040000190D6
:102CB00040F6282000906548B0F8111040F69803BF
:102CC00001AA501D01F044FA6049A1F811000A213F
:102CD000019890FBF1F05E4948600846806800EB7F
:102CE00080004000019040F6980000905748B0F8EE
:102CF000131040F2A46301AA901D01F029FA06E026
:102D000077E075E059E057E00DE00BE009E04F494E
:102D1000A1F813000A21019890FBF1F04C4988605A
:102D200084E000BF00BF4A4800684FF47A7148430E
:102D300001904648B0F80500019991FBF0F0019030
:102D40004FF4617000904148B0F81910322301AA85
:102D500002A801F0FDF93D49A1F819003C4840687E
:102D600000EB8000400001904FF416700090084680
:102D7000B0F81B10142301AA501D01F0E9F93349E2
:102D8000A1F81B000A21019890FBF1F0304948603E
:102D9000084680680190502000902C4890F821103F
:102DA000142301AA901D01F0D3F9284981F82100CC
:102DB00027490198886039E000BFFF200090234830
:102DC00001780023224A02A801F0C2F91F490870C5
:102DD0000A2000900846417800231D4A121D0DF17B
:102DE000090001F0B5F91949487004F0EDFC1DE047
:102DF00000BF322000901548B0F825100523144A72
:102E000002A801F0A5F91149A1F825000A200090B7
:102E10000846B0F8271000230D4A121D0DF10900D5
:102E200001F096F90949A1F8270000BF00BF9DF8FD
:102E3000080028B99DF8090010B99DF80A0008B1EA
:102E400002F040FD0EBD00001E010020701B00209E
:102E5000801600202DE9F041002400BF0AE0002088
:102E60006249085500216148001D0155001D0155AA
:102E7000601CC4B2042CF2DB5D4800780F282ED20F
:102E8000DFE800F008090A2E2F3E3F406263648F9E
:102E9000909FA00000BF00BF5648B0F805005649FB
:102EA00008600120554908705248B0F9070052499E
:102EB00048600220514988704E48B0F909004E49D7
:102EC000886001204D4908714B488068002803DA6A
:102ED0002D204649087202E02B204449087282E006
:102EE00000BF4448407B44490860022043490870C1
:102EF0004048807B4049486002204049887072E029
:102F000000BF00BF3B48B0F80F000A2190FBF1F072
:102F1000394908600220394908703648B0F8110074
:102F20000A2190FBF1F0344948600220334988704F
:102F30003048B0F813000A2190FBF1F02E49886068
:102F400002202E4908714EE000BF00BF2949B1F8A8
:102F50001910284AB2F8052001FB02F00BF093FA91
:102F60000746274A274B0BF0B9FA05460BF02EFA15
:102F7000214908600220214908701E48B0F81B0052
:102F80000A2190FBF1F01C49486004201B4988701D
:102F9000184890F8210018498860042017490871E2
:102FA00021E000BF1348007813490860022013494C
:102FB0000870104840781049486004200F49887014
:102FC00011E000BF0B48B0F825000B490860042051
:102FD0000A4908700748B0F82700074948600420EC
:102FE0000649887000BF00BFBDE8F081741600205C
:102FF0001E010020701B00208016002026010020EA
:10300000FCA9F1D24D62503F7047704710B50024C3
:103010001648007878B91648C07A16494968884237
:103020001CD014484068012818DC12480079104967
:10303000C872012412E00D48007801280ED10C4816
:10304000007B0C498968884208D00A4880680128BA
:1030500004DC0848007A0649087301240CB102F028
:1030600031FC0348007B0449087010BD200100209A
:10307000701B002080160020D30200200548C07A73
:10308000054948600348007B886008200349887030
:1030900070470000701B00208016002026010020D1
:1030A0003C2000E0401E0028FCD1704710B50024F1
:1030B0004FF480512448FEF7D5FF02212348FEF744
:1030C000D1FF01212148FEF7CDFF04211F48FEF763
:1030D000C9FF4FF480511C48FEF7C2FF012000F0E9
:1030E0003BF8012000F08EF8302000F06DF802204F
:1030F00000F06AF8062000F067F8802000F064F81D
:103100004FF480511048FEF7ADFFFFF7C9FF00BF35
:1031100006E000200E490855FF200E490855641CA2
:10312000562CF6DB012000F0A9FA0021012000F066
:10313000AFFB0121084600F0ABFB0221012000F0AB
:10314000A7FB05F0EFFD10BD001001400014014089
:10315000881A0020DE1A002010B504462CB14FF466
:1031600000610548FEF77EFF04E04FF4006102486D
:10317000FEF776FF10BD00000010014070B5044658
:103180000D4600261AE004F0800020B104210D480D
:10319000FEF768FF03E004210A48FEF761FF022101
:1031A0000848FEF75DFF6006040E052006F09CFE51
:1031B00002210448FEF756FF701CC6B2AE42E2DBA5
:1031C00070BD00000014014010B50446052006F053
:1031D0008BFE4FF480510A48FEF742FF0421802005
:1031E000FFF7CCFF08212046FFF7C8FF052006F0B7
:1031F0007BFE4FF480510248FEF734FF10BD000003
:103200000010014010B504462CB14FF40061054890
:10321000FEF728FF04E04FF400610248FEF720FFAC
:1032200010BD000000100140F0B50446084614B17E
:10323000012C00D0F0BD14B90F2800DBFAE7012CF7
:1032400002D1052800DBF5E7032A00DBF2E7012BBA
:1032500003D013B1022B00D0ECE7002C78D1012B66
:1032600046D1AAB9F84D2D5CF84E755DF84E365C26
:103270003543F54E365CF54FBD55F64D2D5C3E465B
:10328000755DF54E365CB543F24E365CBD55D8E102
:10329000012A15D1F14D2D5CEC4E755DF04E365C7A
:1032A0003543EE4E365CE94FBD55EE4D2D5C3E4646
:1032B000755DED4E365CB543EA4E365CBD55C0E1FA
:1032C000022AE4D1E94D2D5CE04E755DE44E365C9A
:1032D0003543E64E365CDD4FBD55E54D2D5C3E4633
:1032E000755DE14E365CB543E14E365CBD55A8E1F7
:1032F0007BBBAAB9D74D2D5CD44E755DD64E365CDE
:103300003543D44E365CD14FBD55CF4D2D5C3E4636
:10331000755DCF4E365CB543CB4E365CBD5590E106
:10332000012A17D1CF4D2D5CC84E755DCE4E365C4F
:103330003543CC4E365CC54FBD55C84D2D5C3E4621
:10334000755DC74E365CB543C44E365CBD5578E1FD
:103350005FE017E0022A9AD1C54D2D5CBB4E755D2A
:10336000C14E365C3543C24E365CB84FBD55BF4D7D
:103370002D5C3E46755DBA4E365CB543BB4E365C41
:10338000BD555EE1AAB9B34D2D5CB04E755DB24E30
:10339000365CB543AF4E365CAC4FBD55AA4D2D5C87
:1033A0003E46755DAA4E365CB543A74E365CBD55AC
:1033B00047E1012A15D1AB4D2D5CA44E755DAA4E97
:1033C000365CB543A74E365CA04FBD55A34D2D5C72
:1033D0003E46755DA24E365CB543A04E365CBD558B
:1033E0002FE1022A9BD1A24D2D5C984E755D9E4E19
:1033F000365CB5439E4E365C944FBD559B4D2D5C5F
:103400003E46755D964E365CB543984E365CBD556E
:1034100017E1A0F10A05E8B2012B5AD111282ADAE6
:103420009AB9944D2D5C894E755D45F08005914E9D
:10343000365C864FBD558F4D2D5C3E46755D25F043
:1034400040058C4E365CBD55FBE0012A99D1894D73
:103450002D5C7E4E755D45F02005864E365C7B4FBB
:10346000BD55844D2D5C3E46755D25F01005814EA1
:10347000365CBD55E5E0A0F11105E8B29AB97E4D84
:103480002D5C724E755D45F010057B4E365C6F4FBE
:10349000BD55794D2D5C3E46755D25F02005764E77
:1034A000365CBD55CDE0012A9AD1734D2D5C674E37
:1034B000755D45F04005704E365C644FBD556E4DF0
:1034C0002D5C3E46755D25F080056B4E365CBD5526
:1034D000B7E0EBBB11282ADA9AB9664D2D5C5B4E3A
:1034E000755D45F04005634E365C584FBD55614DE6
:1034F0002D5C3E46755D25F080055E4E365CBD5503
:103500009FE0012A12D15B4D2D5C504E755D45F058
:103510001005584E365C4D4FBD55564D2D5C3E4600
:10352000755D25F02005534E365CBD5589E0A0F150
:103530001105E8B2AAB9504D2D5C444E755D45F0B9
:1035400020054D4E365C414FBD554B4D2D5C00E086
:103550001DE03E46755D25F01005474E365CBD55B5
:103560006FE0012A6DD1444D2D5C384E755D45F0FC
:103570008005414E365C354FBD553F4D2D5C3E4676
:10358000755D25F040053C4E365CBD5559E011286F
:103590002ADA9AB9374D2D5C2C4E755D25F0400521
:1035A000344E365C294FBD55324D2D5C3E46755D1F
:1035B00025F080052F4E365CBD5542E0012A40D1F2
:1035C0002C4D2D5C214E755D25F01005294E365C85
:1035D0001E4FBD55274D2D5C3E46755D25F02005DF
:1035E000244E365CBD552CE0A0F11105E8B29AB925
:1035F000214D2D5C154E755D25F020051E4E365C67
:10360000124FBD551C4D2D5C3E46755D25F01005D5
:10361000194E365CBD5514E0012A12D1164D2D5CB1
:103620000A4E755D25F08005134E365C074FBD557B
:10363000114D2D5C3E46755D25F040050E4E365C05
:10364000BD5500BFF6E5000064F60008881A0020AA
:1036500050F6000896F6000882F600086EF600089C
:103660005AF60008A0F600088CF6000878F6000864
:10367000AAF60008BCF60008CDF6000830B10749EC
:10368000C97D41F01001054AD17505E00349C97DA6
:1036900021F01001014AD17570470000881A0020FE
:1036A00010B558B10B4A525C0B4B9A5C0B4B5B5CF0
:1036B0001A43084B5B5C084CE2540AE0054A525C32
:1036C000054B9A5C054B5B5C9A43024B5B5C024C7E
:1036D000E25410BD7EF70008881A00207AF700082F
:1036E00010B558B10B4A525C0B4B9A5C0B4B5B5CB0
:1036F0001A43084B5B5C084CE2540AE0054A525CF2
:10370000054B9A5C054B5B5C9A43024B5B5C024C3D
:10371000E25410BD69F70008881A002064F7000819
:1037200070B505460C464FF480510A48FEF798FCE8
:103730000321A020FFF722FD07212846FFF71EFDE9
:1037400004212046FFF71AFD4FF480510148FEF78F
:1037500089FC70BD0010014030B568BBFF2A15D14F
:10376000012907D1364B9B7C364C645CA343344C17
:10377000A37464E08B005B1D314CE35C314C645CF2
:10378000A3438C00641D2E4D2B5558E0012907D111
:103790002B4B9B7C2B4C645C2343294CA3744EE045
:1037A0008B005B1D264CE35C264C645C23438C0041
:1037B000641D234D2B5542E0012819D1FF2A0BD15E
:1037C0008B001B1D1E4CE35C1F4C645CA3438C00F0
:1037D000241D1B4D2B5532E08B001B1D184CE35C48
:1037E000194C645C23438C00241D154D2B5526E099
:1037F000022824D1FF2A11D101EB41035B00C3F160
:1038000048030F4CE35C114C645CA34301EB41049F
:103810006400C4F148040A4D2B5510E001EB41034C
:103820005B00C3F14803064CE35C084C645C234333
:1038300001EB41046400C4F14804014D2B5530BD37
:10384000881A002038F600083CF6000840F6000808
:1038500010B558B10B4A525C0B4B9A5C0B4B5B5C3E
:103860001A43084B5B5C084CE2540AE0054A525C80
:10387000054B9A5C054B5B5C9A43024B5B5C024CCC
:10388000E25410BD46F70008881A002028F7000807
:1038900030B5024600205AB1154B5B5C154CE35C19
:1038A000154C645C2343124C645C124D2B551EE096
:1038B000032911D100200CE00D4B1B5C0D4CE35C87
:1038C0000D4C245CA3430A4C245C0A4D2B55431C2D
:1038D000D8B20328F0DB0AE0054B5B5C054CE35CE7
:1038E000054C645CA343024C645C024D2B5530BD17
:1038F00025F70008881A002022F7000830B5024694
:103900000020EAB181B101200CE03C4B1B5C3C4C37
:10391000E35C3C4C245CA343384C245C384D2B5571
:10392000431CD8B20A28F0DD344B5B5C344CE35CBA
:10393000344C645C2343314C645C314D2B551EE0A8
:103940000B2911D101200CE02C4B1B5C2C4CE35CAF
:103950002C4C245CA343294C245C294D2B55431C3F
:10396000D8B20A28F0DD0AE0244B5B5C244CE35C0F
:10397000244C645CA343214C645C214D2B55EAB17B
:1039800081B101200CE01D4B1B5C1D4CE35C1D4C08
:10399000245CA343194C245C194D2B55431CD8B20D
:1039A0000A28F0DD154B5B5C154CE35C154C645C40
:1039B0002343124C645C124D2B551EE00B2911D190
:1039C00001200CE00D4B1B5C0D4CE35C0D4C245CAA
:1039D000A3430A4C245C0A4D2B55431CD8B20A2839
:1039E000F0DD0AE0054B5B5C054CE35C054C645C78
:1039F000A343024C645C024D2B5530BDDBF600083E
:103A0000881A0020D0F6000830B5024600205AB1CE
:103A1000154B5B5C154CE35C154C645C2343124C0A
:103A2000645C124D2B551EE0032911D100200CE0DF
:103A30000D4B1B5C0D4CE35C0D4C245CA3430A4C0A
:103A4000245C0A4D2B55431CD8B20328F0DB0AE056
:103A5000054B5B5C054CE35C054C645CA343024C8A
:103A6000645C024D2B5530BD1DF70008881A0020FC
:103A70001AF7000810B558B10B4A525C0B4B9A5C10
:103A80000B4B5B5C1A43084B5B5C084CE2540AE04E
:103A9000054A525C054B9A5C054B5B5C9A43024BB2
:103AA0005B5C024CE25410BD03F70008881A00204A
:103AB000F8F6000870B503460020092A24D18BB11E
:103AC00000BF0CE02E4CA45C2E4D2C5D2E4DAD5C49
:103AD0002C432B4DAD5C2B4E7455441CE0B2092891
:103AE000F0DB10E000200CE0254C245C254D2C5D23
:103AF000254D2D5CAC43224D2D5C224E7455441C4B
:103B0000E0B20928F0DB70BD63B3F9B100201AE020
:103B100082420BD01A4C245C1A4D2C5D184D2D5C42
:103B2000AC43174D2D5C174E74550AE0144CA45C41
:103B3000144D2C5D144DAD5C2C43114DAD5C114EFC
:103B40007455441CE0B20828E2DD16E00C4CA45C7D
:103B50000C4D2C5D0C4DAD5C2C43094DAD5C094EFC
:103B600074550AE0064CA45C064D2C5D064DAD5C18
:103B7000AC43034DAD5C034E745500BFC3E700007A
:103B8000EFF60008881A0020E6F6000830B588B184
:103B9000114B03EB41039B5C104CE35C104C04EBBA
:103BA0004104A45C23430C4C04EB4104A45C0B4D86
:103BB0002B5510E0084B03EB41039B5C074CE35C87
:103BC000074C04EB4104A45CA343034C04EB410405
:103BD000A45C024D2B5530BD74F70008881A0020F4
:103BE0006EF700082DE9F04106AC70CC00287CD0BF
:103BF000A1B1B44F3F78DFF8D0C21CF80770DFF8EE
:103C0000CCC29CF800C047EA0C07DFF8B8C29CF8A9
:103C100000C0DFF8B48208F80C7013E0A94F3F78B9
:103C2000DFF8A4C21CF80770DFF8A0C29CF800C03F
:103C300027EA0C07DFF88CC29CF800C0DFF8888206
:103C400008F80C70A2B19F4F7F78DFF87CC21CF897
:103C50000770DFF878C29CF801C047EA0C07DFF86C
:103C600064C29CF801C0DFF8608208F80C7013E0B1
:103C7000944F7F78DFF850C21CF80770DFF84CC211
:103C80009CF801C027EA0C07DFF838C29CF801C095
:103C9000DFF8348208F80C70A3B18A4FBF78DFF8E0
:103CA00028C21CF80770DFF824C29CF802C047EA5B
:103CB0000C07DFF810C29CF802C0DFF80C8208F88D
:103CC0000C7015E07F4FBF78DFF8FCC11CF807705F
:103CD000DFF8F8C19CF802C027EA0C07DFF8E4C15E
:103CE0009CF802C0DFF8E08100E080E008F80C708A
:103CF000A4B1744FFF78DFF8D0C11CF80770DFF86B
:103D0000CCC19CF803C047EA0C07DFF8B8C19CF8A7
:103D100003C0DFF8B48108F80C7013E0694FFF7836
:103D2000DFF8A4C11CF80770DFF8A0C19CF803C03D
:103D300027EA0C07DFF88CC19CF803C0DFF8888104
:103D400008F80C70A5B15F4F3F79DFF87CC11CF813
:103D50000770DFF878C19CF804C047EA0C07DFF869
:103D600064C19CF804C0DFF8608108F80C7013E0AF
:103D7000544F3F79DFF850C11CF80770DFF84CC191
:103D80009CF804C027EA0C07DFF838C19CF804C08F
:103D9000DFF8348108F80C70A6B14A4F7F79DFF85C
:103DA00028C11CF80770DFF824C19CF805C047EA59
:103DB0000C07DFF810C19CF805C0DFF80C8108F88B
:103DC0000C707DE03F4F7F79DFF8FCC01CF8077076
:103DD000DFF8F8C09CF805C027EA0C07DFF8E4C05C
:103DE0009CF805C0DFF8E08008F80C7068E0354FFB
:103DF0003F78DFF8D4C01CF80770DFF8D0C09CF81B
:103E000000C027EA0C07DFF8BCC09CF800C0DFF850
:103E1000B88008F80C702B4F7F78C4461CF80770E8
:103E2000DFF8A8C09CF801C027EA0C07DFF894C0AF
:103E30009CF801C008F80C70224FBF78C4461CF8EB
:103E40000770DFF888C09CF802C027EA0C07DFF88B
:103E500074C09CF802C008F80C701A4FFF78C44672
:103E60001CF80770DFF864C09CF803C027EA0C0751
:103E7000DFF850C09CF803C008F80C70114F3F7970
:103E8000C4461CF80770DFF844C09CF804C027EA59
:103E90000C07DFF830C09CF804C008F80C70094F1C
:103EA0007F79C4461CF80770DFF820C09CF805C075
:103EB00027EA0C07DFF80CC09CF805C008F80C7066
:103EC000BDE8F08114F70008881A00200EF70008FA
:103ED00030B5002846D1FF2A15D18B00DB1C984C49
:103EE000E35C984C247CA3438C00E41C944D2B553C
:103EF0008B005B1D2C46E35C924C647CA3438C00DE
:103F0000641D2B551BE10F2AFCDC8B00DB1C8C4C49
:103F1000E35C8C4C247CA3438C00E41C884D2B5523
:103F20008B005B1D2C46E35C864C647CA3438C00B9
:103F3000641D2B558B00DB1C2C46E35C814C14F874
:103F4000124023438C00E41C2B558B005B1D2C4638
:103F5000E35C7C4C04EB4204647823438C00641DD6
:103F60002B55ECE0012846D1FF2A15D18B009B1C74
:103F7000734CE35C734C247CA3438C00A41C704DF5
:103F80002B558B001B1D2C46E35C6E4C647CA343BD
:103F90008C00241D2B55D2E00F2AB3DC8B009B1C18
:103FA000674CE35C674C247CA3438C00A41C644DE9
:103FB0002B558B001B1D2C46E35C624C647CA34399
:103FC0008C00241D2B558B009B1C2C46E35C5D4C08
:103FD00014F8124023438C00A41C2B558B001B1D8E
:103FE0002C46E35C574C04EB4204647823438C007A
:103FF000241D2B55A3E0022832D1FF2A31D101EB39
:1040000041035B00C3F148034D4CE35C4E4C247EFE
:10401000A34301EB41046400C4F14804484D2B550F
:1040200001EB41035B00C3F14A032C46E35C464CC1
:10403000647EA34301EB41046400C4F14A042B55A0
:1040400001EB41035B00C3F14C032C46E35C3E4CA7
:10405000A47EA34301EB41046400C4F14C042B553E
:104060006DE00F2A6BDC01EB41035B00C3F14803F9
:10407000334CE35C344C247EA34301EB41046400E5
:10408000C4F148042E4D2B5501EB41035B00C3F1F5
:104090004A032C46E35C2C4C647EA34301EB4104B1
:1040A0006400C4F14A042B5501EB41035B00C3F1EA
:1040B0004C032C46E35C244CA47EA34301EB410457
:1040C0006400C4F14C042B5501EB41035B00C3F1C8
:1040D00048032C46E35C02EB42041B4D2C5D23435A
:1040E00001EB41046400C4F14804154D2B5501EB6C
:1040F00041035B00C3F14A032C46E35C02EB42043C
:10410000114D2C446478234301EB41046400C4F155
:104110004A040B4D2B5501EB41035B00C3F14C03EB
:104120002C46E35C02EB4204074D2C44A478234365
:1041300001EB41046400C4F14C04014D2B5530BD2A
:10414000881A0020E8F5000808F6000800BFFEE71E
:1041500030B50446039D1068984209DB1068A842F8
:1041600006DC1068884203D001202070106830BD42
:104170000020207011600846F9E7000038B50020E3
:1041800000900024694601F083FC044624B9694686
:10419000012001F07DFC044624B96946022001F0AB
:1041A00077FC044624B96946032001F071FC0446FB
:1041B0003C48007800F0040060B13A48007820F0F4
:1041C0000100384908700846007820F004000870A3
:1041D000052000903348407800F0040060B1314879
:1041E000407820F001002F4948700846407820F0C0
:1041F00004004870062000902A48807800F00400EF
:1042000060B12848807820F001002649887008466F
:10421000807820F004008870072000902148C07842
:1042200000F0040060B11F48C07820F001001D4973
:10423000C8700846C07820F00400C87008200090BC
:104240002CB9012018490870184908701DE0002099
:104250001549087015490870154908701549087006
:104260001549087015490860154908600120FEF7D6
:1042700073FF0120FEF7C6FF0120124908700020DD
:10428000114908600120FDF7EFFE9DF8000030B1F4
:104290000E48007818B100200C49087000909DF875
:1042A000000038BD3D0100205C0100205B010020C2
:1042B0005D010020500100204F010020640100201A
:1042C000600100206B0100206C0100207E010020B5
:1042D00010B520211948FDF7BAFE08B9012000E009
:1042E00000201749087080211448FDF7B0FE08B976
:1042F000012000E000201249487010210F48FDF70E
:10430000A6FE08B9012000E000200D498870402178
:104310000A48FDF79CFE08B9012000E0002008498A
:10432000C870002001F0E6FB012001F0E3FB022051
:1043300001F0E0FB032001F0DDFB10BD00140140A3
:10434000100100200EB5092201210020FFF7B2FB69
:104350000020009001900346024601460290FFF7BC
:1043600041FC0EBD2DE9F041002400250027002668
:10437000A04600BF2BE06D48005D30B3C4EBC40025
:1043800000EB44106A490844C07C00F01F0001287B
:1043900009D0C4EBC40000EB44100844C07C00F01A
:1043A0001F00052811D1C4EBC40000EB4410604984
:1043B0000844C07CC0F3401038B100232A4621468F
:1043C0001846FCF75BFE681CC5B2601CC4B2142C16
:1043D000D1DB00242BE05548005D30B3C4EBC400B2
:1043E00000EB441052490844C07C00F01F00012833
:1043F00009D0C4EBC40000EB44100844C07C00F0BA
:104400001F00052811D1C4EBC40000EB441048493B
:104410000844C07CC0F3401038B900232A46214626
:104420001846FCF72BFE681CC5B2601CC4B2142CE5
:10443000D1DB002449E03D48005DE8B3C4EBC40093
:1044400000EB44103A490844C07C00F01F000128EA
:1044500039D0C4EBC40000EB44100844C07C00F029
:104460001F0005282FD07819C6B20A2E02DA4FF0A5
:10447000000801E04FF00108002332462146404683
:10448000FCF7FCFDC4EBC40000EB441028490844D1
:10449000C07C00F01F00042803D02648C07A012801
:1044A00005D10223012231464046FEF7BDFE0A2E09
:1044B00007DA02231A4600E005E031464046FEF7DF
:1044C000B3FE781CC7B2601CC4B2142CB3DB7819DD
:1044D000C6B2344626E00A2C12DA02230022214614
:1044E0001046FEF7A1FE0223012221460020FEF71E
:1044F0009BFE02231A4621460020FEF795FE0BE0A4
:104500000223002221460120FEF78EFE0223012213
:1045100021461046FEF788FE21460020FFF798F955
:10452000601CC4B21E2CD6DBBDE8F081681F0020E1
:10453000A51B0020701B00201FB59CA000680390E5
:1045400003210020FFF760FA0B210020FFF7D6F9C6
:10455000092201210020FFF7ADFA954800780F28C5
:104560002DD2DFE800F008152209160A17230B18D0
:10457000240C190D1A0000BF00BF00BF00BF00BF10
:104580008C4800788DF80C0000208B49087016E0EC
:1045900000BF00BF00BF00BF00BF864800788DF895
:1045A0000D0001208449087009E000BF00BF814868
:1045B00000788DF80E0002207F49087000BF00BF10
:1045C0007B4800780F281DD2DFE800F008090A1D9B
:1045D0001E3E3F406F70718485A4A50000BF00BFE0
:1045E0009DF80C0000221146FFF764FA9DF80D00BB
:1045F00003220021FFF75EFA9DF80E00042200213D
:10460000FFF758FAAAE000BF0222002169480078AB
:10461000FFF750FA6648007803280BD100200121EB
:10462000CDE9000103460246014602900120FFF752
:10463000D9FA08E00120002100910B460A46CDE995
:104640000110FFF7CFFA89E000BF00BF052200216B
:1046500058480078FFF72EFA5548007805280AD107
:1046600000200121CDE900010B46024602900846D8
:10467000FFF7B8FA18E04E48007806280AD1012062
:104680000021009103460A46CDE901100146FFF7DB
:10469000A9FA09E000200121009103460246CDE974
:1046A00001100846FFF79EFA58E000BF00BF9DF8D2
:1046B0000C0006220021FFF7FDF99DF80D000722EE
:1046C0000021FFF7F7F99DF80E0008220021FFF7FF
:1046D000F1F943E000BF002136480078FEF7E0FF23
:1046E000334800780B280BD100200121CDE90001CF
:1046F00003460246014602900120FFF773FA08E0E4
:104700000120002100910B460A46CDE90110FFF778
:1047100069FA23E000BF00210846FEF7C1FF02212D
:1047200024480078FFF7A6F9214800780D280BD11E
:1047300000200121CDE90001034602460146029016
:104740000120FFF74FFA08E00120002100910B46FD
:104750000A46CDE90110FFF745FA00BF00BF144833
:104760000078032807DB12480078072811DD10487D
:1047700000780B280DDA00200090019003460246D5
:10478000014602900120FFF72DFA00210846FEF7AE
:1047900087FF074800780D2807D0054800780E28C5
:1047A00003D002210020FFF7A9F81FBD010101007D
:1047B0001E0100204E0100203401002010B52E48BB
:1047C0002E4A1278815C0120FFF798F82C48007877
:1047D00040B92C48007828B92A48407810B92948AF
:1047E000807850B32748007820B10021264800780F
:1047F000FFF70AF92348407820B1012122480078C8
:10480000FFF702F91F48807820B102211E48007886
:10481000FFF7FAF81A480078F8B100211A48007832
:10482000FFF7F2F8012118480078FFF7EDF80221B0
:1048300015480078FFF7E8F81CE0104800780628D3
:104840000CDC00210120FFF7DFF801210846FFF70B
:10485000DBF802210120FFF7D7F80BE00021084622
:10486000FFF7D2F801210020FFF7CEF80221002047
:10487000FFF7CAF810BD0000C8F500081D010020B0
:10488000D4020020D50200204E0100200848007804
:10489000012806D0022805D0042804D0052804D118
:1048A00002E003E002E001E000E000BF00BF70476B
:1048B0001F0100203EB50024E448007830B10128F3
:1048C0001AD002282ED0032850D13DE00020E04924
:1048D0000870E049087002210120FEF701FF012164
:1048E0000020FEF7FDFE04210020FEF7F9FE032163
:1048F0000020FEF7F5FE39E00120D54908700020C0
:10490000D44908700221FEF7EBFE01210846FEF7AC
:10491000E7FE04210020FEF7E3FE03210020FEF75E
:10492000DFFE23E00120CA490870CA49087002214D
:104930000020FEF7D5FE01210846FEF7D1FE042136
:104940000120FEF7CDFE11E00020C14908700120D2
:10495000C04908700221FEF7C3FE01210020FEF7C6
:10496000BFFE04210120FEF7BBFE00BF00BFBA4816
:10497000007820B100210120FEF7C0FF03E00021F4
:104980000846FEF7BBFF0120FEF778FEB34800782B
:10499000A0B1B3488078012807D10321FFF76AF856
:1049A00004210020FFF766F810E003210020FFF744
:1049B00061F804210120FFF75DF807E003210020E2
:1049C000FFF758F804210020FFF754F8A54890F8A5
:1049D0002100C0F3801058B9A24890F82300C0F31A
:1049E000801028B99F4890F82500C0F3801020B1AE
:1049F0000A210120FFF73EF803E00A210020FFF71B
:104A000039F89948007801284ED097480078022854
:104A10004AD095480078032846D093480078042867
:104A200042D0904890F82100C0F3800058B98D48DA
:104A300090F82300C0F3800028B98A4890F8250038
:104A4000C0F3800050B100200121CDE900010B46E8
:104A5000024602900846FFF7C5F825E0814890F825
:104A60002100C0F3001058B97E4890F82300C0F32D
:104A7000001028B97B4890F82500C0F3001050B111
:104A800001200021009103460A46CDE901100146AC
:104A9000FFF7A8F808E000200090019003460246C6
:104AA00001460290FFF79EF86E4890F82100C0F38F
:104AB000001058B96B4890F82300C0F3001028B9D3
:104AC000684890F82500C0F3001020B105210120AE
:104AD000FEF7D0FF03E005210020FEF7CBFF614881
:104AE00090F82100C0F3C00058B95E4890F8230048
:104AF000C0F3C00028B95B4890F82500C0F3C0009F
:104B000020B106210120FEF7B5FF03E006210020B9
:104B1000FEF7B0FF534890F82100C0F3401058B999
:104B2000504890F82300C0F3401028B94D4890F841
:104B30002500C0F3401020B108210120FEF79AFFA4
:104B400003E008210020FEF795FF464890F8220078
:104B500000F0010058B9434890F8240000F001002B
:104B600028B9404890F8260000F0010020B1092142
:104B70000120FEF77FFF03E009210020FEF77AFF06
:104B8000384890F82200C0F3800058B9354890F8B2
:104B90002400C0F3800028B9324890F82600C0F302
:104BA000800020B100210120FEF764FF03E0002116
:104BB0000846FEF75FFF002431E02A48213010F854
:104BC000140000F0030002280AD1012221461046F9
:104BD000FEF7DCFF002221461046FEF7D7FF1CE05F
:104BE0002048213010F8140000F0030001280AD1F9
:104BF000012221460020FEF7C9FF002221460120A4
:104C0000FEF7C4FF09E0012221460020FEF7BEFFA7
:104C1000002221461046FEF7B9FF601CC4B2032CE7
:104C2000CBDB1148007801280FD00F48007803280B
:104C30000BD00E48007820B102210120FEF71AFFA8
:104C400003E002210020FEF715FF3EBD7F0100209A
:104C5000CA020020C90200206A0100205101002080
:104C600058010020B11E00201C010020E20200209B
:104C70002DE9FC5F06460D4617469846DDE90DAB6B
:104C8000DDF830900020019000900024BBF1000F6F
:104C900029D1FF2200213046FFF71AF9FF22012116
:104CA0003046FFF715F9FF2202213046FFF710F9D1
:104CB000FF2203213046FFF70BF9FF220021304687
:104CC000FEF74AFDFF2201213046FEF745FDFF2297
:104CD00002213046FEF740FDFF2203213046FEF759
:104CE0003BFDBDE8FC9F281E01DB014600E0414280
:104CF0004FF47A7291FBF2F1C9B28DF80010281EC0
:104D000001DB014600E041424FF47A7291FBF2F37D
:104D100002FB1311642291FBF2F1C9B28DF801106C
:104D2000281E01DB014600E04142642291FBF2F3C0
:104D300002FB13110A2291FBF2F1C9B28DF80210A5
:104D4000281E01DB014600E041420A2291FBF2F3FA
:104D500002FB1311C9B28DF8031000241CE0944823
:104D600000EB8600005D2B280BD0914800EB8600FD
:104D7000005D2D2805D01DF804008D4901EB86014A
:104D800008551DF8040001A90855FF2221463046A8
:104D9000FEF7E2FC601CC4B2042CE0DB032F19D147
:104DA000102200213046FEF7D7FCB9F1000F07D0E2
:104DB000CAF3800020B1FF2200213046FEF7CCFC70
:104DC000002D06DA0B208DF804002D20784901F81B
:104DD00026008DE0022F21D1102201213046FEF75E
:104DE000BBFCB9F1000F07D0CAF3400020B1FF228D
:104DF00001213046FEF7B0FC002D07DA0B208DF8BC
:104E000004002D206A4901F8260071E09DF8000099
:104E100000286DD1FF208DF8040069E0012F3AD100
:104E2000102202213046FEF797FCB9F1000F07D09F
:104E30000AF0010020B1FF2202213046FEF78CFC6F
:104E4000002D1BDA9DF80000A0B99DF80100002894
:104E500007DD0B208DF804002D20554901F82600B0
:104E600046E00B208DF805002D20514901EB86010D
:104E700048703DE00B208DF8040039E09DF80000FB
:104E800030BBFF208DF804009DF8010000BBFF201F
:104E90008DF805002CE057BB002D0BDA15F10A0F39
:104EA00008DD0B208DF806002D20414901EB86011D
:104EB00088701DE015F10A0F0BDC15F1640F08DD99
:104EC0000B208DF805002D20394901EB8601487033
:104ED0000EE015F1640F0BDC15F57A7F08DD0B2071
:104EE0008DF804002D20324901F8260000E0F8E694
:104EF000B8F1010F07D1FF208DF804008DF80500EF
:104F00008DF806000EE0B8F1020F05D1FF208DF8F4
:104F100004008DF8050005E0B8F1030F02D1FF2071
:104F20008DF804000F98C0B1002414E0204800EB75
:104F30008600005D2B2803D10A2001A9085508E04E
:104F40001B4800EB8600005D2D2802D10B2001A933
:104F50000855601CC4B2042CE8DBB9F1000F0DD079
:104F6000002409E04AFA04F000F0010010B1FF202B
:104F700001A90855601CC4B2042CF3DB9DF8042081
:104F800000213046FEF7A4FF9DF8052001213046A0
:104F9000FEF79EFF9DF8062002213046FEF798FF9F
:104FA0009DF8072003213046FEF792FF00BF98E6E8
:104FB0007416002010B50446002C5DD03B480078E4
:104FC0003B49097888426FDD3A48007803286BDA5C
:104FD00037480078C0EBC00101EB40103649084467
:104FE00015303449097800EB81004078C0F3800027
:104FF000002859D12E480078C0EBC00101EB4010C9
:105000002D49084415302B49097800EB8100407880
:10501000C0F3C00078BB26480078C0EBC00101EBAC
:1050200040102549084421302249097800EB41000D
:105030004078C0F38000F0B91D480078C0EBC00193
:1050400001EB40101C49084421301A49097800EB53
:1050500041004078C0F3801068B915490978C1EB68
:10506000C10202EB4111144A505C01221149097836
:1050700006F0E2FA10BD17E00C4800780F490978F5
:10508000884211DD0E48007803280DDA0B490978B3
:10509000C1EBC10202EB4111074A505C00220849F2
:1050A000097806F0C9FAE5E70020E3E7900100205F
:1050B0002101002022010020A51B00202301002047
:1050C00024010020142006490870032005490870B7
:1050D0001420054908700320044908707047000037
:1050E00021010020220100202301002024010020B2
:1050F0002DE9F0478046894616461F46DDF820A078
:1051000000244D464446CCE06E48005D00287DD02A
:10511000012E5ED145B953463A462946204600F055
:10512000D9F800B1C2E00125012D3AD16648C07A14
:10513000012816D1C4EBC40000EB441063490844B5
:10514000C07C00F01F00022809D0C4EBC40000EBB3
:1051500044100844C07C00F01F00042818D100252A
:105160009DE0C4EBC40000EB441058490844C07CE7
:1051700000F01F00022809D0C4EBC40000EB44106B
:105180000844C07C00F01F00042801D1002586E0FF
:1051900053463A462946204600F09CF800B185E087
:1051A0000225022D77D1C4EBC40000EB441047491F
:1051B0000844C07C00F01F0008B900256FE053468A
:1051C0003A462946204600F085F800B16EE00025F9
:1051D00061E0002E5FD145B953463A462946204644
:1051E00000F0C0F800B161E00125012D3CD1364846
:1051F000C07A012818D1C4EBC40000EB4410334935
:105200000844C07C00F01F00022800E046E009D0FE
:10521000C4EBC40000EB44100844C07C00F01F0045
:10522000042818D100253AE0C4EBC40000EB441078
:1052300026490844C07C00F01F00022809D0C4EBB6
:10524000C40000EB44100844C07C00F01F00042898
:1052500001D1002523E053463A462946204600F076
:1052600081F800B122E00225022D14D1C4EBC40064
:1052700000EB441015490844C07C00F01F0008B939
:1052800000250CE053463A462946204600F06AF8CD
:1052900000B10BE00025022D00DD002500BF601CE1
:1052A000C4B20B480078A0423FF72EAF00BF0848B9
:1052B0000078A04203D1002038708AF80000BDE8D1
:1052C000F0870000681F0020701B0020A51B002035
:1052D0009001002030B50446C4EBC40000EB44103C
:1052E0001F4D2844153010F8210000F0010098BB34
:1052F000C4EBC40000EB44102844213000EB410013
:105300004078C0F3801038BBC4EBC40000EB4410FD
:105310002844213000EB41004078C0F38000D8B928
:10532000C4EBC40000EB44102844153000EB8100AE
:105330004078C0F3800078B9C4EBC40000EB44109F
:105340002844153000EB81004078C0F3C00018B944
:1053500014701970012030BDFFE70020FBE700004A
:10536000A51B002030B50446C4EBC40000EB44107C
:10537000064D2844153010F8210000F0010018B146
:1053800014701970012030BD0020FCE7A51B00201F
:105390001848B0F80F0000EB800040001649086084
:1053A0001448B0F8110000EB80004000486011483C
:1053B000B0F8130000EB8000400088600D48B0F8A2
:1053C000190088810B4890F8210088730948B0F8CB
:1053D0001B00A1F80F000948C07C20F01F00C01D71
:1053E0000649C87403480078087000204870887027
:1053F00070470000701B0020531F0020B11E0020CA
:10540000F0B58DB030222A4901A8FAF766FF0020D6
:105410001AE02849097801AA12F82020914212D1F5
:105420002449497801AA02EB8002527891420AD1BC
:105430002049897801AA02EB80029278914202D138
:10544000411C8FB202E0401C0C28E2DB00BF19486F
:105450004079303817490979303901EB810100EB87
:1054600041061448807A30381249497A303901EBC4
:10547000810100EB41040F48407B30380D49097B26
:10548000303901EB810100EB410504EBC40000EB76
:10549000041007EB80000849088006EBC60000EB0B
:1054A000061005EB8000054908800DB0F0BD000036
:1054B0009CF7000884F70008B8020020BA02002018
:1054C00000B50346184600F007F818B90121184640
:1054D00000F0AAF900BD000001468878012801DD2E
:1054E0000020704708783F2801DD0020F9E7524886
:1054F000C07A012801DD0020F3E7B1F90700502848
:1055000003DBB1F90700642801DD0020E9E7B1F908
:105510000900002805DBB1F909005A2801DA00204A
:10552000DFE7B1F90900002806DAB1F9090010F146
:105530003C0F01DD0020D4E7B1F8050028B1B1F837
:10554000050041F28832904201DD0020C9E7487B26
:10555000052802DB487BFA2801DD0020C1E7887BB3
:10556000052802DB887BFA2801DD0020B9E7B1F8C5
:105570000F00B0F5166F04DBB1F80F00B0F52F6F18
:1055800001DD0020ADE7B1F8110040F6980290422D
:1055900005DBB1F8110040F62822904201DD002021
:1055A0009FE7B1F8130040F2A462904205DBB1F826
:1055B000130040F69802904201DD002091E7B1F817
:1055C0001900322804DBB1F81900B0F5617F01DD64
:1055D000002086E7B1F817005A2803DBB1F817005E
:1055E0008C2801DD00207CE791F82100142803DBE2
:1055F00091F82100502801DD002072E7B1F81B006E
:10560000142804DBB1F81B00B0F5167F01DD002083
:1056100067E7B1F82500052803DBB1F8250032283B
:1056200001DD00205DE7B1F827000A2801DD002038
:1056300057E7012055E70000701B002002460020BC
:10564000002100BF04E0535C034498B24B1C99B2A4
:105650007E29F8DB7047000010B500F065F800F017
:1056600059F800F06FF800F01BF8FFF791FE2720C3
:10567000084908800848007B012804DD002006490D
:10568000087300F01FF90448007B04490870FFF715
:10569000B7FE10BDD0020020701B0020D3020020F6
:1056A000002000BF2CE045F2F05100EB8002184BC7
:1056B00003EB8202118041F2883100EB800203EBA0
:1056C0008202518042F6D20100EB800203EB82029B
:1056D000516040F6665100EB800203EB820291605C
:1056E00042F6F82100EB800203EB8202D16040F227
:1056F000B63100EB800203EB82021182411CC8B27A
:105700000328D0DB2D21024AA2F856107047000072
:10571000D81E002010B50121024800F085F800F0E5
:105720005BF810BD701B002004480549C1F82D002E
:1057300001460348C0F83110704700000100010A1B
:10574000701B002070B5002500244FF443711A48E7
:10575000FAF7FDFD00BF12E000250CE00021C4EBCC
:10576000C40000EB4410144A1044C01D00EB850037
:105770000160681CC5B2032DF0DB601CC4B2142CA0
:10578000EADB02200D494871FF2088710120C1F831
:10579000070001210948C0F80B10C0F80F102320A2
:1057A000064908710020C1F8150000210348C0F81F
:1057B0001910C0F81D1070BDA51B0020B11E0020DF
:1057C00070B505460C46224602492846FAF740FDC8
:1057D00070BD000000F8010830B5A1B0002400251C
:1057E00080220F4901A8FAF778FD01A8FFF726FFEC
:1057F00005469DF882109DF8830001EB0020A84229
:1058000009D12D24224601A90648FAF721FD0548B1
:10581000FFF756FE01E000F055F821B030BD000062
:1058200000FC0108701B002009B1002202700D224B
:10583000A0F825200522A0F8272021B10122A0F8F8
:105840000320A0F805200022401D00F8032C8271DF
:105850000A220272052242725F2242806322828003
:1058600040F62822428140F69212828140F2C262C2
:10587000C2814FF4F5620282642282821E22C282B9
:10588000028382224282372202770522C277DC22FB
:10589000A0F81D20072280F82420FF22A0F8252050
:1058A000002280F82720C271401F704770B504465F
:1058B0000D462A462146024800F02AF870BD000035
:1058C00000F8010830B5A1B0002500200090FF22AB
:1058D000802101A8FAF733FD2D252A460A4901A89F
:1058E000FAF7B6FC01AC2046FFF7A8FE00907E3424
:1058F000BDF800002080802201A9044800F008F8CB
:10590000FFF746FD21B030BD701B002000FC0108F0
:105910002DE9F04705460E4617460024A8464FF0ED
:105920000109802F20DCFCF715FA3520FCF78CF9F3
:105930004046FCF78FF900BF0EE056F824104046B1
:10594000FCF7D2F9042802D108F1040802E04FF074
:10595000000903E0601C84B2202CEEDB00BFFCF7E2
:10596000B9F94846BDE8F0870020FBE700BFFEE735
:10597000704708B500214FF0006000F07FF84FF449
:10598000806000F071F825208DF8000003208DF86C
:10599000010000208DF8020001208DF80300684608
:1059A00000F02AF826208DF8000003208DF8010071
:1059B00000208DF8020001208DF80300684600F0F9
:1059C0001BF81D208DF8000001208DF801008DF8D6
:1059D00002008DF80300684600F00EF80B208DF8E9
:1059E000000001208DF801008DF802008DF8030001
:1059F000684600F001F808BD70B5002100230F22B1
:105A0000C47804B3154C246804F4E064C4F5E0647D
:105A1000210AC1F10403CA40447804FA03F18478EE
:105A20001440214309010E4C0678A155047804F076
:105A30001F050124AC4005786D11AD0005F1E0258E
:105A4000C5F8004109E0047804F01F050124AC40CA
:105A5000044D0678761145F8264070BD0CED00E047
:105A600000E400E080E100E002490143024A1160E5
:105A7000704700000000FA050CED00E0024A0A4001
:105A80000243024B1A60704780FFFF1F08ED00E0E1
:105A900010B502460020154B9B5C03F00103CBB10F
:105AA000124B9B5C23F00103104CA354012012B94C
:105AB00001230B7019E0012A02D102230B7014E0BC
:105AC000022A02D103230B700FE0032A0DD1042315
:105AD0000B700AE0064B9B5C03F001032BB1044BF7
