:020000040800F2
:10000000E0290020C90100088D6F0008C9660008BA
:10001000D5010008D7010008D90100080000000040
:1000200000000000000000000000000079A70008A8
:10003000DD010008000000004982000825AA000830
:10004000E3010008E3010008E3010008E301000800
:10005000E3010008E3010008E3010008E3010008F0
:10006000E3010008E3010008E30100084D06000871
:10007000E3010008E3010008E3010008E3010008D0
:10008000E3010008E3010008E3010008E3010008C0
:10009000E3010008E3010008E3010008E3010008B0
:1000A000E3010008E3010008E3010008E3010008A0
:1000B00085AA000889AA0008E3010008E3010008F6
:1000C000E3010008E3010008E3010008E301000880
:1000D000E3010008A9B00008E3010008E3010008FB
:1000E000E3010008E3010008E301000800F002F862
:1000F00000F05AF80AA090E8000C82448344AAF168
:100100000107DA4501D100F04FF8AFF2090EBAE865
:100110000F0013F0010F18BFFB1A43F0010318473B
:1001200098EA0000B8EA00000A444FF0000C10F80A
:10013000013B13F0070408BF10F8014B1D1108BF65
:1001400010F8015B641E05D010F8016B641E01F805
:10015000016BF9D113F0080F1EBF10F8014BAD1C55
:100160000C1B09D16D1E58BF01F801CBFAD505E073
:1001700014F8016B01F8016B6D1EF9D59142D6D3CD
:10018000704700000023002400250026103A28BFF5
:1001900078C1FBD8520728BF30C148BF0B607047F9
:1001A0001FB51FBD10B510BD00F0A8F91146FFF72F
:1001B000F7FF0BF0CFFF00F0C6F903B4FFF7F2FF33
:1001C00003BC00F0C9F9000009488047094800470E
:1001D000FEE7FEE7FEE7FEE7FEE7FEE7FEE7FEE7F7
:1001E000FEE7FEE704480549054A064B7047000054
:1001F00035AA0008ED000008E0210020E0290020D9
:10020000E0250020E025002010B54C1084EA5304BE
:1002100004D54042C1F1000138BF491E1B4204D53C
:100220005242C3F1000338BF5B1E00F0DCF814F04B
:10023000804F04D04042C1F1000138BF491E14F084
:10024000004F04D05242C3F1000338BF5B1E10BD03
:10025000032A40F2308010F0030C00F0158011F8F2
:10026000013BBCF1020F624498BF11F801CB00F8CA
:10027000013B38BF11F8013BA2F1040298BF00F81E
:1002800001CB38BF00F8013B11F0030300F02580DB
:10029000083AC0F0088051F8043B083A51F804CB02
:1002A000A0E80810F5E7121D5CBF51F8043B40F8C8
:1002B000043BAFF30080D20724BF11F8013B11F8D3
:1002C00001CB48BF11F8012B24BF00F8013B00F817
:1002D00001CB48BF00F8012B704710B5203AC0F0A1
:1002E0000B80B1E81850203AA0E81850B1E8185037
:1002F000A0E81850BFF4F5AF5FEA027C24BFB1E874
:100300001850A0E8185044BF18C918C0BDE81040E4
:100310005FEA827C24BF51F8043B40F8043B08BFED
:100320007047D20728BF31F8023B48BF11F8012BB4
:1003300028BF20F8023B48BF00F8012B704702F0AD
:10034000FF0343EA032242EA024200F002B84FF000
:1003500000020429C0F0128010F0030C00F01B8092
:10036000CCF1040CBCF1020F18BF00F8012BA8BFA0
:1003700020F8022BA1EB0C0100F00DB85FEAC17C64
:1003800024BF00F8012B00F8012B48BF00F8012B17
:1003900070474FF0000200B5134694469646203948
:1003A00022BFA0E80C50A0E80C50B1F12001BFF42E
:1003B000F7AF090728BFA0E80C5048BF0CC05DF894
:1003C00004EB890028BF40F8042B08BF704748BFE2
:1003D00020F8022B11F0804F18BF00F8012B704756
:1003E00070477047704753EA020C00F069802DE9AE
:1003F000F04B4FF00006002B1FBFB3FA83F503FA52
:1004000005F424FA05F65E4012BF1643B2FA82F5EF
:1004100002FA05F4C5F120051EBF22FA05FC44EAE4
:100420000C04203556EA044C4FEA144418BF641CEF
:100430004FF000084FF00009904271EB030C39D3E4
:10044000002919BFB1FA81F701FA07F6B0FA80F76F
:1004500000FA07F6C7F120071EBF20FA07FC46EA9C
:100460000C062037B6FBF4FCA7EB0507103F07F09E
:100470001F0BCBF120060CFA0BFB2CFA06F644BF3F
:10048000B3460026202FA4BF5E464FF0000B5BEA68
:10049000060C08BF4FF0010B19EB0B09ABFB027CFC
:1004A00048EB0608C01B06FB02CC0BFB03CC71EB30
:1004B0000C01C1E70B46024641464846BDE8F08BB9
:1004C00013B54FF000004FF00001AFF30080BDE81E
:1004D0001C40704710B500F009F8006810BD10B559
:1004E000044600F003F8046010BD000000487047A7
:1004F0008021002000487047802100207546FFF7CA
:10050000F9FFAE4605006946534620F007008546D0
:1005100018B020B5FFF766FEBDE820404FF000069A
:100520004FF000074FF000084FF0000B21F00701DB
:10053000AC46ACE8C009ACE8C009ACE8C009ACE81E
:10054000C0098D46704710B50446AFF300802046C1
:10055000BDE81040FFF731BE01491820ABBEFEE7F1
:10056000260002007047014600201A2940D2DFE829
:1005700001F00E0D0F11131517191B1D1F21232537
:1005800027292B2D2F31333537393B3D012070473B
:1005900002207047032070470420704705207047F1
:1005A00006207047072070470820704709207047D1
:1005B0000A2070470B2070470C2070470D207047B1
:1005C0000E2070470F207047102070471120704791
:1005D0001220704713207047142070471520704771
:1005E0001620704717207047182070471920704751
:1005F000FF20704710B50AF01DFA08F0D5F804F096
:10060000B5FE06F0C4FCBDE810400AF0E9B90000F0
:1006100030B500200A4B0B4C01465A5C2D2A06D0FF
:100620002B2A04D034F8115002FB050080B2491C7B
:10063000C9B20429F1D30449A1F8400030BD00003B
:10064000AA090020CCE900082800002010B50220EB
:1006500000F092F8002804D0BDE81040022000F01D
:1006600001B810BDC10002D50249086070470249B7
:1006700048607047040402400000024000290168FD
:1006800002D041F0010102E04FF6FE72114001601C
:100690007047000001684FF6FE72114001600021B2
:1006A000016041608160C1603149314A083990423E
:1006B00003D1486840F00F0006E02D4A1432904202
:1006C00004D1486840F0F00048607047284A28325A
:1006D000904203D1486840F47060F5E7244A3C3208
:1006E000904203D1486840F47040EDE7204A503210
:1006F000904203D1486840F47020E5E71C4A643218
:10070000904203D1486840F47000DDE7184A78321F
:10071000904203D1486840F07060D5E7154A111F38
:10072000904203D1086840F00F0006E0114A1432ED
:10073000904204D1086840F0F000086070470D4A0C
:100740002832904203D1086840F47060F5E7094A06
:100750003C32904203D1086840F47040EDE7054A0E
:1007600050329042EAD1086840F47020E5E700007A
:10077000080002400804024002460020D10001D5D2
:10078000034900E003490968114200D00120704785
:10079000000402400000024030B5026847F6F073E2
:1007A0009A430C6A8B682343D1E904452C432343C5
:1007B0008C692343CC6923434C6A23438C6A2343CB
:1007C00013430360CA6842600A6882604968C16076
:1007D00030BD000070B50E46DDE904150F4C04EB8A
:1007E000C30458B1904214D230449042A0780ED243
:1007F0000128204607D00BF043FD0DE020460BF00A
:100800003FFD002070BD29460BF05CFD04E001288F
:1008100002D120460BF03BFDA07870BD8C05002076
:1008200070B50E46DDE904150F4C04EBC30458B156
:10083000904214D9801B9042A0780ED30128204604
:1008400007D00BF01DFD0DE020460BF019FD002038
:1008500070BD29460BF036FD04E0012802D1204688
:100860000BF015FDA07870BD8C05002070B5114D02
:100870004FF48051284604F0E3FE0F4C69142070B9
:10088000284604F0DDFE60700020A31ED91E225C05
:1008900062B11D5C0A78AA43401CC0B20A700228EB
:1008A000F5D30649D0B2A1F8780170BD1A5C0D7875
:1008B0002A43F1E7000C014019000020901C0020A1
:1008C00070B50F4C049D062808D2DFE800F003083D
:1008D0000D12141621706270A370E57070BD217145
:1008E0006271A371E57170BD21726272A372E572CB
:1008F00070BDE27370BDA27370BD627370BD000005
:10090000B70900202DE9FF47534B00250126534A24
:100910004FF0400803EB810401283CD05048914639
:100920001146407D0128D4F8780677D00DF084FA7E
:100930000DF060FB07464946D4F844070DF07CFAF9
:100940000DF058FB8046D4F8100849460DF074FAB3
:100950000DF050FB0095CDE90156044639460423BD
:1009600002220020039503F023FE0095CDE90156F5
:100970004146042302220120039503F019FE00954D
:10098000CDE901560222214604231046039503F0C7
:100990000FFEBDE8FF8733489146114600780028D6
:1009A000D4F8140429D00DF047FA0DF023FB0746C4
:1009B0004946D4F8AC050DF03FFA0DF01BFB00954D
:1009C000CDE901560446394604230222002003954E
:1009D00003F0EEFD0095CDE90156214604230222E5
:1009E0000120039503F0E4FD40231A461946022036
:1009F000CDF80080FFF764FFCBE70DF01DFA0DF096
:100A0000F9FA07464946D4F8E0040DF015FA0DF05E
:100A1000F1FA8046D4F8AC0597E7FFE70DF00CFA41
:100A20000DF0E8FA402307461A4619460120CDF892
:100A30000080FFF745FF4946D4F810080DF0FCF997
:100A40000DF0D8FA0095CDE90156044604230222A0
:100A500039460020039590E7900E00200000C84220
:100A600028000020EC1F00202DE9F04FFE4DFF482C
:100A700091B000242C87007820B9FC48417809B94E
:100A8000807828B1E87E18B1022028716C74EC7669
:100A9000DFF8E8C3F84BF448DCF89C9093F800B01A
:100AA00095F80480C07B89F000430293DCF8A070C5
:100AB000EF4987F000430193B3264A42DFF8B4E3DD
:100AC000DCF8A4304FF05B0A0093B8F1470F72D204
:100AD000DFE818F0470054018802B303CD05A507ED
:100AE0006E09EC09180A220A320A5A0A6F0AC40A65
:100AF000100B150B1E0B230B280B340B3B0B400B61
:100B0000460B4B0B570B5E0B630B680B6D0B7A0B95
:100B1000870B950BA20BAF0BBC0BC90BD70BE40BD0
:100B2000F20BFF0B0C0C1A0C270C350C470C710048
:100B300071007100690C780C710071007100710016
:100B4000710071007100710071007100710071001D
:100B500071007100BF00040223030505D406A30839
:100B6000C50900268B469246F1460DF1380806EB82
:100B7000860000EBC601C14800EB810007683846DB
:100B80000DF038FA48F826005F4503DA288F40F068
:100B90000100288707EB0A01494503D2288F40F05E
:100BA00002001AE0B6483918B648814204D2288FAC
:100BB00040F0040011E0C5E0B3483918B348814261
:100BC00003D2288F40F0080007E0B1483918B14837
:100BD000814203D2288F40F010002887761CF6B29D
:100BE000032EC4D30026DFF8B092DFF8B0A20127AD
:100BF00058F826000CF04DFD4A4653460CF0A2FD75
:100C00000CF082FC014695F838000094CDE90270A2
:100C1000042300220194304604F0EAF8761CF6B270
:100C2000032EE5D3288F012806D100231022FF21AF
:100C300003200094FFF744FE288F811E0E2901D265
:100C4000122202E0C0067DD5182200230094FF2165
:100C500092E08A4E56F8AC0F0DF0CCF90E90F06889
:100C60000DF0C8F98E4B00218E4F5E420EAA0F90F8
:100C700052F82100984205D2B5F838C04CF0010C6A
:100C8000A5F838C000EB060CBC4503D2288F40F015
:100C900002001FE0DFF810C2DFF810828444C44570
:100CA00003D2288F40F0040014E0DFF804C2DFF81C
:100CB00004828444C44503D2288F40F0080009E030
:100CC000DFF8F4C16044DFF8F4C1604503D2288F37
:100CD00040F010002887491CC9B20229C8D300235C
:100CE0001A46B32118460094FFF7EAFD0E980CF05F
:100CF000D0FC694FDFF8A4813A4643460CF022FD50
:100D00000CF002FC014695F838000126CDE902609E
:100D10000094042300220194304604F069F80F98EF
:100D20000CF0B7FC3A4643460CF00CFD0CF0ECFB23
:100D3000014695F838000423CDE9026000940022B2
:100D4000019400E08FE0022004F052F8288F01287F
:100D500006D100235122FF2103200094FFF7B0FDAC
:100D6000288F811E0E2901D2532202E0C0067AD5B7
:100D700059220023194600940320F6E300268B46EF
:100D80009246F1460DF1380806EB860000EBC601ED
:100D90003A4800EB8100876838460DF02BF948F897
:100DA00026005F4503DA288F40F00100288707EB13
:100DB0000A01494503D2288F40F0020019E030486B
:100DC00039183048814203D2288F40F0040010E0E7
:100DD0002D4839182D48814203D2288F40F0080051
:100DE00007E02B482B493844884203D2288F40F033
:100DF00010002887761CF6B2032EC5D30026DFF834
:100E00009890DFF898A0012758F826000CF041FCD4
:100E10004A4653460CF096FC0CF076FB014695F8DA
:100E200038000094CDE9027004230022019430467A
:100E300003F0DEFF761CF6B2032EE5D3288F0128DF
:100E400009D1A87B4FF000030094C8B30022002111
:100E50000320FFF735FD288F811E0E2936D2A87B8F
:100E600078B3022285E7B0E0280000201D000020B2
:100E70000050C34700D4B001EC1F0020DC0A002062
:100E800000DC8BB68072A4018069E7B4A025A601BE
:100E9000E04341B308AFAF019A9999999999B93F45
:100EA000A0860100A0BB0D00C0BDF0FF405489002A
:100EB000806967FF804A5D05001F0AFA00E9A435D2
:100EC00000E001E01022C2E7122252E7C0067CD502
:100ED000A87B08B108224CE718224AE7FE48D0F860
:100EE000B0000DF087F8DFF8F893FC4AFD4F0021C1
:100EF000C9F100060EAB0E9053F82100484505D20B
:100F0000B5F838C04CF0010CA5F838C000EB060C61
:100F1000BC4503D2288F40F002001FE0DFF8C8C3B1
:100F2000DFF8C8838444C44503D2288F40F004000E
:100F300014E0DFF8BC83DDF838C0C44505D3904227
:100F400003D2288F40F0080008E0944507D3DFF86B
:100F5000A4C3604503D2288F40F010002887491CA5
:100F600011F0FF01C8D00023B322322118460094AB
:100F7000FFF7A6FC0E980CF08CFBDF4ADF4B0CF061
:100F8000E1FB0CF0C1FA014695F838000122CDE9E9
:100F900002200094042301940022012003F028FF82
:100FA000288F012809D1A87B4FF00003009468B175
:100FB000402200210320FFF783FC288F811E0E2989
:100FC00008D2A87B20B14222D3E683E05022F0E78A
:100FD0005222CEE6C0067DD5A87B08B14822C8E6DD
:100FE0005822C6E600268B469246F1460DF1380897
:100FF00006EB860000EBC601B74800EB8100C7682E
:1010000038460CF0F7FF48F826005F4503DA288FD2
:1010100040F00100288707EB0A01494503D2288FD9
:1010200040F0020019E0B6483918B648814203D2B0
:10103000288F40F0040010E0B3483918B3488142CB
:1010400003D2288F40F0080007E0B148B149384486
:10105000884203D2288F40F010002887761CF6B211
:10106000032EC5D30026DFF89092DFF890A2012767
:1010700058F826000CF00DFB4A4653460CF062FB74
:101080000CF042FA014695F838000094CDE9027060
:10109000042300220194304603F0C8FB761CF6B20C
:1010A000032EE5D39C4E307858B19C48808A40B1DD
:1010B000A87B30B100231A46194618460094FFF762
:1010C000FFFB707868B19548808A50B1A87B40B129
:1010D000002300E066E21A46194601200094FFF75B
:1010E000EFFBB07858B18D48808A40B1A87B30B111
:1010F00000231A46194602200094FFF7E1FB288FCF
:1011000010F0300F01D1000703D500230222009414
:101110008EE0002310220094F7E36F4E56F8B40FD0
:101120000CF068FF0E90F0680CF064FF6C4B00212F
:101130006C4F5E420EAA0F9052F82100984205D2E1
:10114000B5F838C04CF0010CA5F838C000EB060C1F
:10115000BC4503D2288F40F0020023E0DFF888C1AD
:10116000DFF888818444C44503D2288F40F004000E
:1011700018E0DFF87CC1DFF8A881CCF1000C8444D2
:10118000C44503D2288F40F008000BE0DFF84CC1C3
:10119000CCF1000C6044DFF88CC1604503D2288F8D
:1011A00040F010002887491CC9B20229C4D300238B
:1011B0001A46812118460094FFF782FB0E980CF026
:1011C00068FA4D4FDFF834813A4643460CF0BAFADC
:1011D0000CF09AF9014615F8380F0126CDE90260A6
:1011E0000094042300220194304603F01FFB0F9863
:1011F0000CF04FFA3A4643460CF0A4FA0CF084F98E
:10120000014628780094CDE902600423002201946D
:10121000022003F00BFB288810F0300F01D10007EB
:1012200003D500234322009402E0002341220094CE
:1012300000210320FFF744FB6BE74FF0000A5646FE
:101240000DF11808BBF1000F05D0C6B1012E20D05A
:10125000022E29D02DE006EB860000EBC6011E48C9
:1012600000EB8100406910F1FF4F01D380F0004096
:101270000DF050F908EBC602C2E9000119E048463A
:1012800019F1FF4F00D302980DF044F9CDE90601A2
:101290000FE017F1FF4F01D3019800E038460DF041
:1012A00039F9CDE9080104E000980DF033F9CDE9F2
:1012B0000A0108EBC6000A4AD0E900108A1A70F148
:1012C000000203DA2A8F42F001022A8733DB064A42
:1012D00052428A1A28E00000DC0A002000E1F505ED
:1012E000A0860100A0BB0D00C0BDF0FF40548900E6
:1012F0008096980000CA9A3B9A9999999999B93F12
:1013000000DC8BB68072A4018069E7B4A025A60139
:10131000E04341B308AFAF011D000020EC1F0020E7
:10132000804A5D0500E9A43570F1000203DA288FD8
:1013300040F0020073E0F84A8A1A70F1000208DBFC
:10134000F64A8A1A70F1000203DA288F40F004008E
:1013500065E0F24A8A1A70F1000208DBF04A8A1A44
:1013600070F1000203DA288F40F0080057E0EC4AE1
:101370008A1A70F1000208DBEA4A8A1A70F1000248
:1013800003DA288F40F0100049E0E64A8A1A70F12B
:10139000000208DBE44A8A1A70F1020203DA288F9D
:1013A00040F020003BE0E04A8A1A70F1020208DBBC
:1013B000DE4A8A1A70F1170203DA288F40F04000E3
:1013C0002DE0DA4A8A1A70F1170208DBD84A8A1A25
:1013D00070F1E80203DA288F40F080001FE0D44A61
:1013E0008A1A70F1E8020ADBD24A40F618138A1A08
:1013F00070EB030203DA288F40F480700FE0CD4ACF
:1014000040F618138A1A70EB030209DBCA4A45F644
:10141000F323891A984103DA288F40F40070288753
:10142000761CF6B2032EFFF40DAF0026DFF80CB3E6
:1014300004274FF0010908EBC600D0E90012084666
:1014400011460CF0D5F85A46BD4B0CF07BF90CF068
:10145000FFFF2B8F05930294CDE90349CDE90047A7
:1014600002460B46304603F025FB761CF6B2032EEF
:10147000E1D3288F012808D0102808D206200023A5
:1014800082460246FF2100940EE00420F7E7FF2881
:1014900001D80C2003E010F4407F08D00E20002378
:1014A00082460246194600940320FFF709FAA54830
:1014B0000078012876D100230AF1010219460320A1
:1014C0000094FFF7FDF9002304221946104600940A
:1014D000FFF7F6F900230422194600948EE34846EC
:1014E00019F1FF4F00D302980DF014F8964B024605
:1014F000CDE90601C01A71F1000002DA4FF00100D7
:10150000288708DB8448101A71F1000003DA288F5D
:1015100040F0020075E08048101A71F1000008DB0D
:101520007E48101A71F1000003DA288F40F00400A1
:1015300067E07A48101A71F1000008DB7848101A49
:1015400071F1000003DA288F40F0080059E0744878
:10155000101A71F1000009DB7248101A71F10000D5
:1015600004DA288F40F010004BE048E36D48101A71
:1015700071F1000008DB6C48101A71F1020003DA07
:10158000288F40F020003CE06748101A71F10200FB
:1015900009DB6648101A71F1170004DA288F40F051
:1015A00040002EE0D6E06148101A71F1170008DB08
:1015B0005F48101A71F1E80003DA288F40F08000CC
:1015C0001FE05B48101A71F1E8000ADB594840F649
:1015D0001813101A71EB030003DA288F40F480709F
:1015E0000FE0544840F61813101A71EB030009DBA2
:1015F000514845F6F323101A994103DA288F40F435
:101600000070288700231A46EA2118460094FFF745
:1016100057F9DDE906010BF0EBFF484A484B0CF0A7
:1016200091F80CF015FF2A8F0123CDE90432042232
:10163000CDE900420246029403940B46012003F0D8
:1016400039FA288F012804D0102807D20722FFF783
:10165000FCBA002305220094FFF7F9BAFF2801D84D
:101660000D2232E410F4407F74D00F222DE4DFF815
:10167000DC90DFF8DC80002606AF06EB860000EB8E
:10168000C60108EB81008069484501D380F0004025
:101690000CF040FF07EBC6022B4BC2E900010246EB
:1016A000C01A71F1000003DA288F40F0010028878A
:1016B00008DB1948101A71F1000003DA288F40F096
:1016C000020092E01448101A71F1000008DB134880
:1016D000101A71F1000003DA288F40F0040084E052
:1016E0000E48101A71F1000008DB0D48101A71F154
:1016F000000003DA288F40F0080076E00848101A4E
:1017000071F1000027DB0748101A71F1000022DA9E
:10171000288F40F0100068E040420F00809698004B
:1017200000E1F50500CA9A3B00E40B5400E8764856
:101730000010A5D400A0724E00407A109A99999991
:101740009999B93FEC1F0020A0860100000080801D
:10175000DC0A002004E1F748101A71F1000008DBF0
:10176000F548101A71F1020003DA288F40F02000CA
:101770003BE0F148101A71F1020008DBEF48101A43
:1017800071F1170003DA288F40F040002DE0EB489C
:10179000101A71F1170008DBE948101A71F1E8001E
:1017A00003DA288F40F080001FE0E548101A71F13D
:1017B000E8000ADBE34840F61813101A71EB030047
:1017C00003DA288F40F480700FE0DE4840F61813EB
:1017D000101A71EB030009DBDB4845F6F323101AFE
:1017E000994103DA288F40F400702887761CF6B2FE
:1017F000032EFFF442AFDFF854A3DFF854B3002602
:101800004FF004094FF0010807EBC600D0E90012C1
:10181000084611460BF0ECFE52465B460BF092FF79
:101820000CF016FE2B8F05930294CDE90348CDE909
:10183000004902460B46304603F03CF9761CF6B2EE
:10184000032EE1D3288F012805D0102809D20023C8
:1018500002220094DEE00023042200946AE30420C4
:10186000A2E3FF2803D8002308220094D2E010F45A
:10187000407F75D000230A220094CBE017F1FF4F80
:1018800001D3019800E038460CF044FEB14B02460B
:10189000CDE90601C01A71F1000002DA4FF0010033
:1018A000288708DBAC48101A71F1000003DA288F92
:1018B00040F0020075E0A848101A71F1000008DB42
:1018C000A648101A71F1000003DA288F40F00400D6
:1018D00067E0A248101A71F1000008DBA048101A56
:1018E00071F1000003DA288F40F0080059E09C48AD
:1018F000101A71F1000009DB8E48101A71F1000016
:1019000004DA288F40F010004BE0A6E28948101A54
:1019100071F1000008DB8848101A71F1020003DA47
:10192000288F40F020003CE08348101A71F102003B
:1019300008DB8248101A71F1170003DA288F40F093
:1019400040002EE07D48101A71F1170009DB7C4839
:10195000101A71F1E80004DA288F40F0800020E0CE
:10196000C8E07748101A71F1E8000ADB754B40F6C1
:101970001810D31A71EB000003DA288F40F480703E
:101980000FE0704B40F61810D31A71EB000009DB22
:101990006D4B45F6F320D21A814103DA288F40F4CB
:1019A0000070288700231A46CB2118460094FEF7C2
:1019B00087FFDDE906010BF01BFE644A644B0BF068
:1019C000C1FE0CF045FD2A8F0123CDE9043204222B
:1019D000CDE900420246029403940B46012003F035
:1019E00069F8288F012805D0102807D20023032288
:1019F00000940FE00023012200940BE0FF2803D89D
:101A000000230922009405E010F4407F72D00023E7
:101A10000B220094FF210320FEF752FF1BE7DFF8A3
:101A20004481002606AF06EB860000EBC60108EBFA
:101A30008100C0690CF06EFD07EBC602454BC2E9A0
:101A400000010246C01A71F1000003DA288F40F04D
:101A50000100288708DB4048101A71F1000003DA02
:101A6000288F40F002008FE03B48101A71F100000F
:101A700008DB3A48101A71F1000003DA288F40F0B1
:101A8000040081E03548101A71F1000008DB344889
:101A9000101A71F1000003DA288F40F0080073E09B
:101AA0002F48101A71F1000008DB2248101A71F15A
:101AB000000003DA288F40F0100065E01D48101A7E
:101AC00071F1000008DB1C48101A71F1020003DA02
:101AD000288F40F0200057E01748101A71F10200DB
:101AE00009DB1648101A71F1170004DA288F40F04C
:101AF000400049E0FDE01148101A71F1170008DBC1
:101B00000F48101A71F1E80003DA288F40F08000C6
:101B10003AE00B48101A71F1E80025DB094840F65D
:101B20001813101A71EB03001EDA288F40F480702E
:101B30002AE0000000CA9A3B00E40B5400E8764813
:101B40000010A5D400A0724E00407A109A9999997D
:101B50009999B93FA086010040420F0080969800F5
:101B600000E1F505DC0A0020F84840F61813101AC9
:101B700071EB030009DBF64845F6F323101A99418F
:101B800003DA288F40F400702887761CF6B2032E03
:101B9000FFF449AFDFF8BCA3DFF8BCB300264FF079
:101BA00004084FF0010907EBC600D0E9001208460F
:101BB00011460BF01DFD52465B460BF0C3FD0CF0C9
:101BC00047FC2B8F05930294CDE90349CDE90048EA
:101BD00002460B46304602F06DFF761CF6B2032E2D
:101BE000E1D3288F012805D0102809D20023022232
:101BF0000094D8E0002304220094D3E10520D3E12F
:101C0000FF2803D8002308220094CCE010F4407F82
:101C10006FD000230A220094C5E000980CF07AFCF3
:101C2000CE4B0246CDE90601C01A71F1000002DA7E
:101C30004FF00100288708DBC948101A71F1000035
:101C400003DA288F40F0020074E0C548101A71F1E1
:101C5000000008DBC348101A71F1000003DA288F76
:101C600040F0040066E0BF48101A71F1000008DB84
:101C7000BD48101A71F1000003DA288F40F0080007
:101C800058E0B948101A71F1000008DBB748101A83
:101C900071F1000003DA288F40F010004AE0B348E9
:101CA000101A71F1000008DBB148101A71F102003E
:101CB00003DA288F40F020003CE0AD48101A71F1A3
:101CC000020008DBAB48101A71F1170003DA288F05
:101CD00040F040002EE0A748101A71F1170009DB10
:101CE000A548101A71F1E80004DA288F40F080004E
:101CF00020E0D3E0A048101A71F1E8000ADB934B12
:101D000040F61810D31A71EB000003DA288F40F464
:101D100080700FE08D4B40F61810D31A71EB000065
:101D200009DB8B4B45F6F320D21A814103DA288F69
:101D300040F40070288700231A465B21184600945F
:101D4000FEF7BEFDDDE906010BF052FC814A824B35
:101D50000BF0F8FC0CF07CFB2A8F0123CDE9043258
:101D60000422CDE900420246029403940B4601206E
:101D700002F0A0FE288F012805D0102807D20023EA
:101D8000032200940FE00023012200940BE0FF28BF
:101D900003D800230922009405E010F4407F7DD091
:101DA00000230B220094FF210320FEF789FD21E789
:101DB000BBF1000F21D07148D0F8A80010F1FF4FFF
:101DC00001D380F000400CF0A5FBCDE90601002313
:101DD0006A220094EA211846FEF772FDDDE9060149
:101DE000084330D001940094029403940423032206
:101DF0000120069902F0DCFB2CE0DFF884815F4FC4
:101E0000002506AE05EB850000EBC50007EB800062
:101E1000006A404501D380F000400CF07BFB06EBEC
:101E2000C5020423C2E900010094019402940394C2
:101E300056F835100322284602F0BAFB6D1CEDB2AD
:101E4000032DDFD306E04020034602460146009002
:101E5000012028E00023012200940021FFE4002358
:101E60006A22EA2118460094FEF72AFD4348D0F87A
:101E7000A80010F1FF4F01D380F000400CF04AFBA6
:101E800001940294CDE906010146009403940423D1
:101E90000322012002F08CFB002300E086E00122F7
:101EA000194603200094FEF70BFDD3E700231A46E2
:101EB0006A2118460094FEF703FD3048D0F8D4009C
:101EC00010F0FF4F15D00CF079F801460094019402
:101ED0000294042302220120039402F069FBF820FB
:101EE00000220090E32311460220FEF7E9FC1022B5
:101EF00056E0402003460246014600900120FEF7CE
:101F0000DFFCECE70023EA227A2118460094FEF772
:101F1000D7FC1C48006808E04023EA227A21002010
:101F20000094FEF7CDFC1748406802F041FD4022C6
:101F300000230094FF2192E40023CB227A2118464B
:101F40000094FEF7BDFC0F48806826E000A0724EAA
:101F500000407A109A9999999999B93FA086010001
:101F600040420F008096980000E1F50500CA9A3BB8
:101F700000E40B5400E876480010A5D4DC0A0020E9
:101F800000008080DC1F00204023CB227A2100202B
:101F90000094FEF795FCFE48C06802F009FD40225F
:101FA00000230094FF2129E6FEF78AFC11B0BDE86A
:101FB000F08F38B3F748F74DBBF1000FC06A2AD055
:101FC0000BF0FCFF01260094CDE9014601460423F5
:101FD00002220020039402F0EBFAD5F894000BF0F3
:101FE000EDFF0094CDE901460146042302220120C1
:101FF000039402F0DDFA40200346024601460090B9
:102000000220D1E7F1236322722100200094FEF721
:1020100057FC009656E00BF0D1FF01260094CDE965
:1020200001460146042302220020039402F0C0FA74
:10203000286E0BF0C3FF0094CDE90146014604234E
:1020400002220120039402F0B3FAD5F8940028E0AC
:1020500004230222022002F0ABFAA7E748B3CD48DE
:10206000697DCC4D006B01292ED00BF0A7FF012616
:102070000094CDE901460146042302220020039486
:1020800002F096FA686E0BF099FF0094CDE90146D4
:102090000146042302220120039402F089FAD5F8B4
:1020A00098000BF08BFF0094CDE9014601460394A4
:1020B000CEE7F1236322722100200094FEF700FC9A
:1020C00081200090402348E10BF078FF0126009426
:1020D000CDE901460146042302220020039402F0C8
:1020E00067FA402003460246014600900120FEF7B1
:1020F000E7FBD4E708B1032106E0009669E070BB76
:10210000009673E0002328E10120FEF7FBFB4DE77A
:1021100008B10721F8E7009676E008B10921F3E756
:1021200000967EE008B10B21EEE7F12363227221D5
:1021300000200096FEF7C4FB8120BBE008B10D2112
:10214000E2E7009687E0812307E108B10F21DBE792
:1021500000968DE008B11121D6E7009696E018E0D0
:1021600008B11321D0E700969DE008B11521CBE717
:10217000F1236322722100200096FEF7A1FB81204B
:10218000DBE008B11721BFE70096A7E0F823E4E001
:1021900008B10521B8E70096ADE008B11B21B3E70F
:1021A0000096B6E008B11D21AEE70096BEE008B18A
:1021B0001F21A9E7F1236322722100200096FEF778
:1021C0007FFB81200090C7E008B10321B9E08120A6
:1021D0000090F123632272210020FEF771FBD920C9
:1021E00015E108B10521ACE081200090F1236322C4
:1021F00072210020FEF764FBCDF800A082E708B151
:1022000007219EE081200090F123632272210020AB
:10221000FEF756FB8920FAE008B1092191E0812000
:102220000090F123632272210020FEF749FBDB209E
:10223000EDE008B10B2184E08124F12363227221B7
:1022400000200094FEF73CFB00947CE708B10D21D0
:1022500077E081200090F123632272210020FEF7B5
:102260002FFBD92026E008B10F216AE081200090E1
:10227000F123632272210020FEF722FBCDF800A09B
:1022800061E708B111215CE081200090F123632215
:1022900072210020FEF714FB89200BE008B1132106
:1022A0004FE081200090F123632272210020FEF78D
:1022B00007FBDB20009046E708B1152141E08124AF
:1022C000F1236322722100200094FEF7F9FA0094B2
:1022D0005CE708B1172134E081200090F1236322EC
:1022E00072210020FEF7ECFAD92026E008B119216E
:1022F00027E081200090F123632272210020FEF765
:10230000DFFACDF800A041E708B11B2119E08120D8
:102310000090F123632272210020FEF7D1FA892078
:102320000BE008B11D210CE081200090F123632215
:1023300072210020FEF7C4FADB20009026E710B1DE
:102340001F210020E1E68124F12363227221002075
:102350000094FEF7B5FA0094D9230022114601201B
:1023600022E673236922812100200094FEF7A8FA57
:1023700001250094084ECDE90145039456F8D41F79
:1023800004230222284602F013F9009406E000001C
:10239000DC1F0020DC0A0020B40B0020CDE9014541
:1023A0000394716854E6009420B101940294194D8D
:1023B00003940DE03B237A22F1210020FEF780FAFE
:1023C00000969FE60094D8B1134D019402940394B3
:1023D000042301220020296802F0EAF80094019405
:1023E00002940394012204231046696802F0E0F885
:1023F000009401940294039404230122A96829E61D
:102400003B237A22F1210020FEF75AFA8120009026
:1024100078E60000E80C0020F40C00200A4808B51B
:10242000407950B1012807D13B2071236022EA2175
:1024300000900020FEF744FA08BDF120EB237A2239
:1024400060210090F5E700002800002018B51E4824
:10245000F82481798120082934D2DFE801F0040AC8
:10246000102416181D1F7220EA236122812100907A
:1024700003E0692371223A210090002020E05B20D4
:10248000D323024600210090F7E7009000E000947B
:1024900040237122F121F0E7009000E000944023F6
:1024A0007122EB21E9E76020002100907A23B3221A
:1024B0000846FEF705FA8123FB2219460220009404
:1024C000FEF7FEF918BD0000280000202DE9FF5F8F
:1024D000DFF82C86E327404698F8011032268079F1
:1024E0004FF07209022913D0012972D1002541460B
:1024F0002C468D734FF0040B4FF0010A01F13A089E
:10250000082866D2DFE800F0F3F2F1AFF0EFEEED6D
:102510000828F6D2DFE800F0042A50A782A9CBED04
:10252000EA23612281210020CDF80090FEF7C8F94E
:1025300098F807000528E4D2DFE800F003080A1045
:1025400012007A236122CDF8009028E0812000E07B
:10255000F82000237622EA21009081E0812000E02B
:10256000F8200023762200903A2179E08120009023
:10257000692371223A210020FEF7A2F998F8080099
:1025800048B101280DD0022811D003286BD15B205F
:102590006923009040E0F1200346009032E00021E2
:1025A0005EE0F120B323EB227321009058E0EB2092
:1025B00072230246009020E05B200246002100903A
:1025C000D3230846FEF77CF998F8090006284AD27A
:1025D00000E048E0DFE800F003080D13181D3A2082
:1025E000D32302460090DAE73B2381223221009771
:1025F00036E0EA205B2381220090F12130E0602068
:1026000032230090EB22CAE77A2064233222009022
:10261000AAE77A20F12300907122A5E7812000909B
:1026200040237122F1210020FEF74AF998F80A00B0
:10263000062818D2DFE800F003090F2D31367A2082
:10264000F1237122692100900AE07A206923812216
:102650007221009004E069207A2372228121009087
:102660000120FEF72DF9BDE8FF9FF82000904023E0
:102670007122F1210020FEF723F998F80B000628BB
:10268000F1D2DFE800F0050403060A0FE3E7DCE718
:10269000D5E7EB23B322009681E75B20D323E32227
:1026A00000907CE7D32032237A220090A5E7812096
:1026B000009040237122EB210020FEF701F998F8E9
:1026C0000C0020E00128C6D0022805D00328CAD17A
:1026D0005B206A23009002E05B20F123009000223F
:1026E0005DE7DFE3DFE393E3E3E14FE1BBE00DE030
:1026F000FFE7F820009040237122EB210020FEF735
:10270000DFF898F80D000028DCD198E7EA23612271
:1027100081210020CDF80090FEF7D2F8F84EF94F55
:10272000F07905289FD2DFE800F0031E3C5C7E00B4
:102730007A23612200210120CDF80090FEF7C0F835
:10274000706C20B101288ED1B07B38B1CCE0B07B69
:102750000028FBD1C32002E0022082E7D920D92340
:1027600000906122EFE38120009000237622EA218D
:102770000120FEF7A5F8BA7988F801B098F80000B2
:10278000B57B0095CDE9010ACDF80CA05B4602208F
:10279000716C01F00DFFFDF73BFF00231222009446
:1027A0001CE0F820009000237622EA210120FEF7A9
:1027B00087F888F801B098F80010B27B0092CDE954
:1027C000011ACDF80CA05B462A460220716C01F07C
:1027D000EFFEFDF71DFF002310220094FF210320D0
:1027E0003FE781200090002376223A210120FEF766
:1027F00067F8FA7988F801B098F80010B57B009571
:10280000CDE9011ACDF80CA05B460220716C01F0F5
:10281000CFFEFDF7FDFE00230222FF2103200094DE
:10282000FEF74EF819E0F8200090002376223A21B6
:102830000120FEF745F888F801B098F80000B27B57
:102840000092CDE9010ACDF80CA05B462A46022091
:10285000716C01F0ADFEFDF7DBFE00231022FF21BD
:1028600004200094FDE68127692371223A2100208B
:102870000097FEF725F8A24D287AB0B1012829D09B
:10288000022858D003287FF4EEAE5B200090692325
:1028900071223A210120FEF713F8686C01286AD0F2
:1028A0000228F0D1A87B70B31EE0F120034600900F
:1028B000EB2200210120FEF703F888F801B0224640
:1028C00098F80000AC7B01A9009481E805045B4600
:1028D000696C5DE2F1200090B323EB2273210120AB
:1028E000FDF7EEFFA87B08B10094A9E0686C05280D
:1028F000BFF4B9AEDFE800F003080E141A00BB20E5
:1029000003460090FEE33DE0BB20C3220346F821CE
:10291000009021E7BB20FB220346C32100901BE768
:10292000BB207B220346DB21009015E7BB20F82368
:10293000DF220090E7E3EB20024600907223F121B2
:102940000120FDF7BDFFA87B0028CDD1686C48B100
:1029500001280CD0022807D0032894D1F820009039
:10296000FB23FEE60097FBE7FB230097C1E0FB2378
:102970007A220097E7E2A87B0028B5D1B320722322
:102980000090B4E0EB233A220096DCE24FF05B09C2
:102990000021D3234A460846CDF80090FDF790FF6A
:1029A000574E707A0628A3D2DFE800F0031831569C
:1029B0005F6E3A20D3230246002100905AE07A232A
:1029C000D322CDF80090BEE20228C6D1B07B002809
:1029D0008AD17120612300900022FBE33B238122F6
:1029E000322101200097FDF76BFFB07B0028ACD1AE
:1029F000706C012807D0022807D00328ADD1D92058
:102A000032230090E8E78120FAE7F820F8E7EA258A
:102A10005B238122F12101200095FDF751FFB07B5E
:102A2000002892D1706C0628BDD2DFE800F00305C3
:102A3000080B0D10B32000E08120009000E000950D
:102A40000023C9E76A20F8E77A230095C4E7F1205C
:102A5000E32372220090BDE3602000903223EB223A
:102A600000210120FDF72CFFE7E37A2064233222C6
:102A70003A2100900120FDF723FF706C0128A3D1BB
:102A8000B07B00289BD02FE77A200090F1237122A1
:102A90003A210120FDF714FF88F801B0224698F88A
:102AA0000000B47B01A9009481E805045B46716CC9
:102AB0006EE18120009040237122F1210020FDF77A
:102AC000FFFEDFF83C9099F80A000628ACD2DFE858
:102AD00000F0EDEC1BEBEAE9D9F84400002870D0D7
:102AE000012808D0022889D169207A230090602229
:102AF00070E371226EE360203223EB22009069E3E1
:102B000028000020EC1F0020692000907A23722208
:102B100081210120FDF7D4FE99F80E100029B2D1D1
:102B2000D9F844005028D1D2DFE800F0F0EFEEED04
:102B3000ECEB3234EAE9E8E7E6E5E4E3E2E1E0DFA2
:102B4000DEDD4F51DCDBDAD9D8D75F61D6D5D4D3FF
:102B5000D2D16F71D0CFCECDCCCB7F8186888C8EF9
:102B60009193CAC9999BC8C7C6C528282828282870
:102B70002828A0A2A7C4ABADB1C3C2C173E500238E
:102B8000EF2278E00023772275E000233E2272E0F6
:102B9000009700E0009600231A46B721DCE5772372
:102BA000EB2268E03E23732265E0EF233A2262E0E5
:102BB000002336225FE00023EF2237E30023772251
:102BC00034E32BE300233E2230E3009700E000963D
:102BD00000231A468521BFE50023EF2239E30023B5
:102BE000772236E300233E2233E3009700E000968D
:102BF00000231A46EE21AFE50023EF223AE300233B
:102C0000772237E300233E2234E3009700E000966A
:102C100000231A46CF219FE50023EF223BE3002348
:102C2000772238E300233E2235E3009700E0009648
:102C300000231A465F218FE5009700E00096EF23FE
:102C40006A2206E3009700E000967723F8E70097F2
:102C500000E000963E23F3E700236E22F9E200979E
:102C600000E0009600231A466E2175E5EB2005E092
:102C7000732003E07222B3216EE53A20E72300902F
:102C8000F8E7EB2004E0732002E07222CEE23A2063
:102C9000E7230090F9E7732369220090C6E24023FE
:102CA000812236E0B3E17AE035E0D3E0C4E097E199
:102CB00094E190E18CE19BE196E197E192E185E17D
:102CC00082E17FE17CE179E176E173E170E16DE140
:102CD0006AE167E164E161E15EE15BE158E155E1F0
:102CE00052E14FE14CE149E146E143E140E13DE1A0
:102CF0003AE137E134E131E12EE12BE128E125E150
:102D000022E11EE11BE118E115E112E10FE1402390
:102D1000F822F12120E5EB23B322002101200096C7
:102D2000FDF7CEFDF548407E50282AD2DFE800F0BE
:102D30002828282828282828282828282828282813
:102D40002A2A2A2A2A2A2A2A2929292929292929EB
:102D500029292929292929292929292929292929E3
:102D60002A2A2A2A2A2A2A2A2C2C292929292929C5
:102D70002929292929292C2C2C2C2C2C2C2C2C2CA5
:102D80000125ADE10325ABE10225A9E1D9F8441005
:102D9000022001F00DFCBDE8FF5FFDF739BC5B20B0
:102DA0000090D323E32200210120FDF789FDD348C1
:102DB000407E502875D2DFE800F02A2A2A2A2A2AE3
:102DC0002A2A2A2A2A2A2A2A2A2A29292929292969
:102DD0002929747474747474747474747474747449
:102DE0007474747474747474747429292929292965
:102DF00029292828747474747474747474747474C1
:102E000028282828282828282828BDE7BAE7B7E74F
:102E1000F820009040237122F1210020FDF750FDA1
:102E2000DFF8DC9299F80B000628BFF4A7AEDFE8C4
:102E300000F0031127E1EFEE7A200090F1237122D8
:102E400069210120FDF73CFD99F80E1000293FF49F
:102E500043AE49E57A200090692381227221012046
:102E6000FDF72EFD88F801B098F8004099F80E5053
:102E70000095CDE9014A02225B46CDF80CA085E71A
:102E8000692000907A23722281210120FDF718FD2C
:102E900099F80E100029DCD1D9F844005028C4D28A
:102EA00002E01DE11BE245E1DFE800F04143454758
:102EB000494B403F4E50525456585A5C5E606264D3
:102EC00066683E3D6A6C6E7072743C3B76787A7CC4
:102ED0007E803A39828486888A8C38373635343316
:102EE00032318E90302F9CA09EA22E2E2E2E2E2E72
:102EF0002E2E2D2C2B922A292895989AC7E6C2E6C9
:102F0000BFE6BAE6B4E6B1E638E6AAE6A7E6A0E68A
:102F10009DE699E696E691E68EE688E685E676E613
:102F200073E664E661E652E64FE633E630E6009784
:102F300025E6009623E6009724E6009622E6009711
:102F400023E6009621E645E1009728E6009626E66E
:102F5000009727E6009625E6009726E6009624E6E9
:102F6000009725E6009623E6009724E6009622E6E1
:102F7000009723E6009621E6009723E6009621E6D7
:102F8000009729E6009627E6009728E6009626E6B1
:102F9000009727E6009625E600972DE600962BE69B
:102FA00000972CE600962AE600972BE6009629E685
:102FB000009731E600962FE6009730E600962EE661
:102FC00000972FE600962DE6009745E6009643E62B
:102FD000E32300944EE6E323009456E6B3205AE63A
:102FE000812058E600975AE6009658E600978EE64C
:102FF00000968CE6EB23B322002101200096FDF71A
:103000005FFC3E4890F82300502869D201E07BE045
:103010002CE0DFE800F02A2A2A2A2A2A2A2A2A2A49
:103020002A2A2A2A2A2A2929292929292929656592
:103030006565656565656565656565656565656540
:10304000656565656565292929292929292928288A
:103050006565656565656565656565652828282814
:103060002828282828288FE68CE689E65B2000900F
:10307000D323E32200210120FDF722FC1F4890F812
:10308000230050282CD2DFE800F02A2A2A2A2A2AF4
:103090002A2A2A2A2A2A2A2A2A2A29292929292996
:1030A00029292B2B2B2B2B2B2B2B2B2B2B2B2B2B74
:1030B0002B2B2B2B2B2B2B2B2B2B2929292929296C
:1030C000292928282B2B2B2B2B2B2B2B2B2B2B2B5A
:1030D0002828282828282828282855E652E64FE6B8
:1030E00088F801B098F8002099F80E400094CDE9D6
:1030F000012A5B462A46CDF80CA047E6A020002016
:10310000280000205BE091E0D320009032237A2257
:10311000F1210120FDF7D4FB88F801B098F80040B8
:1031200099F80E500095CDE9014A02225B46CDF890
:103130000CA02BE68120009040237122EB2100207F
:10314000FDF7BEFBC64E307B10B3012844D00228E9
:1031500072D003287FF412AD5B20002200906A2316
:1031600011460120FDF7ACFBBE4890F841001A283B
:1031700063D2DFE800F0AEAEAEAEAEAEB0B0B062DD
:103180006262626262626262626262B0B0B0B0B297
:103190007A200090F123712269210120FDF790FB34
:1031A000B07B00287FF46FAC706CB8B3012808D0F6
:1031B00002280BD00328CDD1BB20F8230090F822A1
:1031C00034E0BB20F823C322009003E0BB20F823A7
:1031D000024600900021E1E4692000907A237222E7
:1031E00081210120FDF76CFBB07B0028DAD1706CE7
:1031F0001A28BFF4C3ACDFE800F0D8DCE0E4E7F164
:103200000D12161B2125292E32363A3F43474BF427
:10321000F7FAFDEA0023EB22009407E092E0002396
:103220007322009402E000233A2200948121B5E445
:103230000023EB2200940CE02FE04BE000237322EC
:10324000009406E000233A22009402E000231A468C
:103250000094EA21A2E40023EB2200940AE0002378
:103260007322009406E000233A22009402E0002337
:103270001A460094CB2191E40023EB2200940AE04B
:1032800000237322009406E000233A22009402E017
:1032900000231A4600945B2180E45B20002200900A
:1032A000F12311460120FDF70BFB6E4890F8410019
:1032B0001A280FD2DFE800F00D0D0D0D0D0D0F0FC8
:1032C0000FC6C6C6C6C6C6C6C6C6C6C6C60F0F0F7A
:1032D0000F110125B6E00325B4E00225B2E0F82085
:1032E000009040237122EB210020FDF7E9FA5C4EAB
:1032F000707B00283FF44CAF012828D002286CD006
:1033000003287FF43BAC5B20002200906A23114627
:103310000120FDF7D5FA534890F847001A2871D2DA
:10332000DFE800F00F0F0F0F0F0F0E0E0E909090B2
:103330009090909090909090900E0E0E0E0DCCE785
:10334000C9E7C6E76A2003460090FFF7D2BB6920B1
:1033500000907A23722281210120FDF7B1FAB07B1F
:1033600000287FF476AD706C1A28BFF407ACDFE854
:1033700000F01C2024282B351B1A191817161514B9
:10338000131211100F0E0D383B3E414480E77BE7CE
:1033900076E771E76BE766E761E75CE756E751E7D9
:1033A0004CE745E73FE73AE734E700230094FFF7AF
:1033B000F7BB00230094FFF7F6BB00230094FFF750
:1033C000F5BB73230094F2E73A230094F3E714E08B
:1033D00010E00CE008E004E000E014E0EB230094CF
:1033E000EDE7EB2300942BE47323009428E43A23C5
:1033F000009425E40023009422E400231A466A2165
:10340000009408E41EE05B2000220090F1231146A6
:103410000120FDF755FA134890F847001A2811D2F9
:10342000DFE800F00F0F0F0F0F0F0E0E0E10101031
:103430001010101010101010100E0E0E0E0D4CE784
:1034400049E746E788F801B098F80010B27B00928F
:10345000CDE9011A5B462A46CDF80CA0FFF727BB41
:1034600028000020A02000207FB53B2000240090F1
:1034700071236022EA212046FDF722FA7A2000908B
:10348000F12371223A210120FDF71AFA094A01219C
:10349000A2F13A001378857B0095CDE901310391C3
:1034A0005378416C2246022001F082F8BDE87F404B
:1034B000FDF7AEB86200002008B53B2000907123F4
:1034C0006022EA210020FDF7FBF97A200090F12329
:1034D00071223A210120FDF7F3F90848807B20B1E1
:1034E000602003467A22009003E000200346024653
:1034F000009000210220FDF7E3F908BD280000201C
:1035000018B57A200090B323EB225B210020FDF751
:10351000D7F9002423462246214601200094FDF7D6
:10352000CFF90D49486C012808D0022810D1887BBA
:1035300078B1712061230090002205E0887B40B1C2
:103540005B207A23D322009000210220FDF7B8F9F6
:1035500018BD00230094EFE7280000202DE9FF5F4D
:10356000DFF818B400252C469BF80100012801D192
:103570008BF80E409BF806004FF001094FF004084D
:10358000FE4F32263A374FF0BB0A082835D2DFE823
:1035900000F0049EF134F0EFEEED4FF0720AEA23F2
:1035A000612281210020CDF800A0FDF789F99BF868
:1035B00007005E46052820D2DFE800F003213453DF
:1035C0006A007A23612200210120CDF800A0FDF7D6
:1035D00077F9706C20B101280FD1B07B28B1D3E30B
:1035E000B07B0028FBD1C32000E0D920D923009074
:1035F000EFE0002114E2FDF763F9BDE8FF9F8120B1
:10360000009000237622EA210120FDF759F987F87E
:103610000180706C00F030FFFCF7FAFF00231222EB
:1036200000941BE0F820009000237622EA2101207C
:10363000FDF746F987F801803978B27B0092CDE931
:103640000119CDF80C9043462A460220716C00F017
:10365000AFFFFCF7DDFF002310220094FF210320C1
:10366000C9E781200090002376223A210120FDF74E
:1036700027F987F80180706C00F062FEFCF7C8FF44
:1036800000230222FF2103200094FDF719F918E01E
:10369000F8200090002376223A210120FDF710F94E
:1036A00087F801803978B27B0092CDE90119CDF815
:1036B0000C9043462A460220716C00F079FFFCF71B
:1036C000A7FF00231022FF210420009493E781200C
:1036D0000090692371223A210020FDF7F1F89BF850
:1036E00008005D46A8B1012827D002285BD0032836
:1036F00083D15B200090692371223A210120FDF7DC
:10370000DFF8686C012872D00228F1D1A87B60B381
:103710003AE3F12003460090EB2200210120FDF75F
:10372000CFF887F8018022463978AC7B01A8009455
:1037300080E806024346696C9EE2F1200090B323C4
:10374000EB2273210120FDF7BBF8A87B0028DFD115
:10375000686C0528BFF451AFDFE800F0030D1319C2
:103760001F00BB23CDF800A0BBE347E0BAE3BAE3F8
:10377000CCE2E0E046E0BB23C322F821CDF800A074
:103780004EE1BB23FB22C321CDF800A048E1BB23BF
:103790007B22DB21CDF800A042E1F823DF22CDF827
:1037A00000A081213CE1EB20024600907223F12130
:1037B0000120FDF785F8A87B0028A9D1686C50B1DD
:1037C00001280ED0022808D0032891D1F820FB232D
:1037D000009061220DE78120F9E78120FB23009012
:1037E000F9E38120FB237A22009002E7FFE7A87B20
:1037F00000288DD1B32072230090C7E0EB233A223A
:103800000096F6E64FF05B0A0021D32352460846A5
:10381000CDF800A0FDF754F89BF809005E464FF084
:10382000710B062896D2DFE800F003112B525B7271
:103830003A20D32302460021009056E07A23D32277
:10384000CDF800A0D5E6B07B78B39DE2E3200090F0
:103850003B23812232210120FDF732F8B07B002882
:10386000F3D1706C012805D0022805D00328ACD113
:10387000D92002E0812000E0F8203223009044E0CB
:10388000EA255B238122F12101200095FDF718F83C
:10389000B07B0028D9D1706C0628C3D2DFE800F0D5
:1038A00003080A0C0F12B32007E02BE000232CE0E2
:1038B000812002E00095F9E76A200090F6E77A237C
:1038C000009522E0F120E3237222009091E660202F
:1038D00000903223EB2200210120FCF7F1FFF7E3F7
:1038E0007A20642332223A2100900120FCF7E8FF7D
:1038F000706C012802D00228A5D07EE6B07B00289B
:103900009CD041E26123CDF800B0002271E67A201C
:103910000090F12371223A210120FCF7D1FF87F8B2
:10392000018022463978B47B01A8009480E8060221
:103930004346716CA0E18120009040237122F12167
:103940000020FCF7BDFF9BF80A000628D5D2DFE86F
:1039500000F0031F25EEEDEC7A200090F123712298
:1039600069210120FCF7ACFF9BF80E100029C8D19B
:10397000DBF8440000286FD0012801E02800002077
:103980006BD00228B9D169207A230090602230E6FA
:103990007A20692381227221009024E3692000901B
:1039A0007A23722281210120FCF78AFF9BF80E10F6
:1039B0000029A6D1DBF8440050289ED2DFE800F0B1
:1039C000292C3134383BEEEDECEBEAE9E8E7494EDF
:1039D0005255595C6063E6E56B6E73767A7DE4E37D
:1039E00085888D909497E2E19FA2A7AAAEB1E0DF0F
:1039F000DEDDDCDBDAD9C2C5D8D7D6D5D4D32828CA
:103A0000282828282828D2D1D0F6CECDCCFDCAC966
:103A1000F3E5E320009000E000960023EF22B321BD
:103A20007DE3E320009000E0009600237722F6E794
:103A3000E320009000E0009600233E22EFE7002301
:103A40001A46B7216BE377234CE33E234EE3EF2383
:103A500050E3E320009002E0C0E36AE10096002317
:103A60003622DCE7E320009000E000960023EF22FE
:103A700097E6E320009000E000960023772290E68E
:103A8000E320009000E0009600233E2289E6002318
:103A90001A46852143E3E320009000E000960023CE
:103AA000EF22EA213BE3E320009000E000960023B0
:103AB0007722F6E7E320009000E0009600233E2204
:103AC000EFE700231A46EE2129E3E320009000E00F
:103AD00000960023EF22CB2121E3E320009000E0B9
:103AE000009600237722F6E7E320009000E000969E
:103AF00000233E22EFE700231A46CF210FE3E32005
:103B0000009000E000960023EF225B2107E3E32012
:103B1000009000E0009600237722F6E7E320009073
:103B200000E0009600233E22EFE7E9E0ABE060E032
:103B300000231A465F21F2E2EF23EAE27723E8E26C
:103B40003E23E6E2E320009000E0009600236E2290
:103B5000A7E738E035E030E0B2E1AFE1ACE125E0E5
:103B6000A8E1A5E1A2E13FE035E03AE030E09BE1E9
:103B700097E194E190E18DE189E186E182E17FE1E5
:103B80007BE178E174E171E16DE16AE166E163E1B5
:103B90005FE15CE158E155E151E14EE14AE100238A
:103BA0001A466E21BBE2E723009001E0E323009474
:103BB000722234E7E723009001E0E32300947222AD
:103BC000EFE5B32000E08120732369220090E8E54F
:103BD0008120009001E0CDF800A040238122F12156
:103BE0009DE28120009001E0CDF800A04023F82262
:103BF000F5E7EB23B322002101200096FCF760FEDD
:103C0000F548407E502829D2DFE800F074747474BF
:103C1000747474747474747474747474767676765C
:103C200076767676282828282828282828282828DC
:103C300028282828282828282828282876767676CC
:103C4000767676767878282828282828282828281C
:103C500028287878787878787878787887F8018064
:103C60003A789BF80E400094CDE901294346CDF8FF
:103C70000C90AEE1DBF84410022000F099FCBDE8A6
:103C8000FF5FFCF7C5BC5B200090D323E32200213B
:103C90000120FCF715FED048407E5028DED2DFE838
:103CA00000F02929292929292929292929292929E6
:103CB00029292B2B2B2B2B2B2B2B2828282828286A
:103CC0002828282828282828282828282828282874
:103CD00028282B2B2B2B2B2B2B2B2D2D2828282842
:103CE00028282828282828282D2D2D2D2D2D2D2D2C
:103CF0002D2DB3E70125B1E70325AFE70225ADE799
:103D0000D32032237A22F12100901CE0F820009089
:103D100040237122F1210020FCF7D2FD9BF80B001B
:103D20000628BFF4EAADDFE800F003091ECDDBDAB8
:103D300012E660203223EB2200905AE47A206923B5
:103D40008122722100900120FCF7BAFD87F80180E2
:103D50003C789BF80E500095CDE90149022243467C
:103D6000CDF80C9086E7692000907A237222812199
:103D70000120FCF7A5FD9BF80E10002904D1DBF80B
:103D800044005028CDD200E0BCE1DFE800F0525101
:103D9000504F4E4D5356585B5D6062654C4B4A49DF
:103DA00048474645676A44434241403F6C6F3E3D49
:103DB0003C3B3A39717438373635343376797B7E0B
:103DC0008083858832318A8D302F2E2D2C2C2C2CFF
:103DD0002C2C2C2C8F91932B9597992A2928F2E63D
:103DE000EFE6EAE6E2E608E4FEE6F4E6F9E6EFE608
:103DF000ABE6A7E695E691E68CE688E682E67EE607
:103E000075E671E66CE668E662E65EE655E651E662
:103E10004CE648E642E63EE635E631E62CE628E6A4
:103E200023E61FE61AE614E605E601E6FCE5F8E5FA
:103E3000F2E5EEE5E320009001E60096FFE5E320E1
:103E4000009000E60096FEE5E3200090FDE5009678
:103E5000FBE5E3200090FAE50096F8E5E32000900A
:103E600015E6009613E6E32000902AE6009628E681
:103E7000E32000903FE600963DE6E320009057E601
:103E8000009655E6E320009056E6009654E6E320BF
:103E9000009053E6009651E6E320009050E600962D
:103EA0004EE6E32000907AE6009678E6EB207AE68C
:103EB000732078E63A2076E6EB207BE6732079E6FD
:103EC0003A2077E6EB23B322002101200096FCF78D
:103ED000F7FC414890F8230050286FD204E07DE0C1
:103EE00032E0D3E042E18EE0DFE800F02828282825
:103EF0002828282828282828282828282A2A2A2A3A
:103F00002A2A2A2A68686868686868686868686829
:103F10006868686868686868686868682A2A2A2A19
:103F20002A2A2A2A2C2C6868686868686868686881
:103F300068682C2C2C2C2C2C2C2C2C2C01253DE0B6
:103F400003253BE0022539E05B200090D323E322E8
:103F500000210120FCF7B4FC1F4890F823005028F2
:103F60002CD2DFE800F02A2A2A2A2A2A2A2A2A2AF8
:103F70002A2A2A2A2A2A29292929292929292B2BA7
:103F80002B2B2B2B2B2B2B2B2B2B2B2B2B2B2B2B81
:103F90002B2B2B2B2B2B2929292929292929282887
:103FA0002B2B2B2B2B2B2B2B2B2B2B2B282828286D
:103FB000282828282828C5E7C2E7BFE787F8018016
:103FC0003A789BF80E400094CDE901294346CDF89C
:103FD0000C902A464EE604E1A0200020D320322394
:103FE0007A22F12100900120FCF76AFC87F8018019
:103FF0003C789BF80E500095CDE9014902224346DA
:10400000CDF80C9036E68120009040237122EB2100
:104010000020FCF755FC9BF80C005E4610B301280D
:1040200036D002287ED003287FF467AC5B200022C4
:1040300000906A2311460120FCF742FCBF4890F82B
:1040400041001A2844D2DFE800F0898989898989EA
:104050008D8D8D4343434343434343434343438D08
:104060008D8D8D8F7A200090F1237122692101209E
:10407000FCF726FCB07B60B3BFE0012870D00228BB
:104080006FD00328D0D1F823CDF800A0F822EFE4B8
:10409000692000907A23722281210120FCF710FC14
:1040A000B07B78BB706C1A28BFF427ACDFE800F057
:1040B0000D1215181C20D1D5D9DDEEF2F6FAFEE767
:1040C000E6E5E4E3E224272C2F330023009409E003
:1040D00045E07FE00023009408E00023009409E01D
:1040E00073230094EB229AE43A230094732296E41B
:1040F000EB2300943A2292E4EB23009409E073232B
:10410000009406E079E00DE03A23009401E00023FA
:1041100000946A22C5E400231A466A210094022012
:10412000FFF769BA5B2000220090F12311460120BD
:10413000FCF7C6FB814890F841001A280FD2DFE84F
:1041400000F00D0D0D0D0D0D111111F0F0F0F0F04E
:10415000F0F0F0F0F0F0F011111111130125E0E092
:1041600041E045E00325DCE00225DAE0F82000909C
:1041700040237122EB210020FCF7A2FB9BF80D00ED
:104180005E4600283FF46EAF012839D0022870D077
:1041900003287FF43DAC5B20002200906A23114687
:1041A0000120FCF78DFB654890F847001A286CD277
:1041B000DFE800F00F0F0F0F0F0F0E0E0EB7B7B79F
:1041C000B7B7B7B7B7B7B7B7B70E0E0E0E0DCBE789
:1041D000C8E7C3E7706C00287FF44FAF6A2003463E
:1041E00000907122A9E5F823C322CDF800A0A4E530
:1041F000F823BB22CDF800A09FE50094FFF756BB43
:10420000692000907A23722281210120FCF758FB5B
:10421000B07B0028F1D1706C1A28BFF4E4ADDFE860
:1042200000F0171615141312181C202435393D41BF
:1042300045494D5155595D11100F0E0D6BE766E75D
:1042400062E75CE758E753E74EE749E745E741E7B0
:104250003BE70023EB2200940AE40023732200943E
:1042600006E400233A22009409E40023EB220094A0
:1042700017E437E032E02DE028E023E01EE019E00B
:1042800014E00FE00AE005E000E04AE000237322BA
:10429000009406E400233A22009402E400231A4624
:1042A000009406E40023EB22009414E4002373221C
:1042B000009410E400233A2200940CE400231A46F0
:1042C000009408E40023EB2200941EE400237322F0
:1042D00000941AE400233A22009416E400231A46BC
:1042E000009412E45B2000220090F123114601208B
:1042F000FCF7E6FA114890F847001A2811D2DFE8D7
:1043000000F00F0F0F0F0F0F0E0E0E1010101010E9
:10431000101010101010100E0E0E0E0D24E721E7D5
:104320001CE787F801803978B27B0092CDE901194A
:1043300043462A46CDF80C90FFF7FBBAA020002098
:104340002DE9FE434FF47A7190FBF1F200250295BE
:104350008DF8082090FBF1F201FB1202642192FB20
:10436000F1F28DF8092090FBF1F201FB12020A2113
:1043700092FBF1F28DF80A2090FBF1F201FB1200A2
:104380003A4F01952C468DF80B000DF1040802AE52
:10439000385D2B2803D02D2801D0305D3855305D95
:1043A00002F08CF908F80400641CE4B2042CEFD38A
:1043B0002F48C079D0B1012804D0022809D00328A1
:1043C00014D10DE09DF8060040F004008DF80600C1
:1043D0000CE09DF8050040F004008DF8050005E0B4
:1043E0009DF8040040F004008DF804002148807B13
:1043F00068B320483E300078052828D2DFE800F076
:104400000306090C0F008DF8075020E08DF80650C8
:104410001DE08DF805501AE08DF8045017E09DF866
:10442000040020F004008DF804009DF8050020F041
:1044300004008DF805009DF8060020F004008DF8BA
:1044400006009DF8070020F004008DF807009DF895
:10445000070000909DF806309DF805209DF8041097
:104460000220FCF72DFABDE8FE830000AA09002017
:10447000A0200020280000202DE9FE434FF47A718F
:1044800090FBF1F2002502958DF8082090FBF1F2E7
:1044900001FB1202642192FBF1F28DF8092090FBDE
:1044A000F1F201FB12020A2192FBF1F28DF80A20CF
:1044B00090FBF1F201FB12003A4F01952C468DF86A
:1044C0000B000DF1040802AE385D2B2803D02D2817
:1044D00001D0305D3855305D02F0F0F808F8040086
:1044E000641CE4B2042CEFD32F488079D0B10128AA
:1044F00004D0022809D0032814D10DE09DF806004D
:1045000040F004008DF806000CE09DF8050040F036
:1045100004008DF8050005E09DF8040040F004005B
:104520008DF804002148807B68B320483C30007837
:10453000052828D2DFE800F00306090C0F008DF8EB
:10454000075020E08DF806501DE08DF805501AE068
:104550008DF8045017E09DF8040020F004008DF859
:1045600004009DF8050020F004008DF805009DF87A
:10457000060020F004008DF806009DF8070020F0EA
:1045800004008DF807009DF8070000909DF80630A4
:104590009DF805209DF804100220FCF791F9BDE874
:1045A000FE830000AA090020A0200020280000208F
:1045B0002DE9FF4F83B00026DDF844B042F21070C1
:1045C00090460C46019635460296814209DB084624
:1045D00008F0F7FF924A934B09F0B4F808F094FF03
:1045E000044664230A224FF47A71002C02DAC4F1E3
:1045F000000000E0204690FBF1F08DF8080002DAA0
:10460000C4F1000000E0204690FBF1F701FB170029
:1046100090FBF3F08DF8090002DAC4F1000000E02D
:10462000204690FBF3F103FB110090FBF2F08DF8B4
:104630000A0002DAC4F1000000E0204690FBF2F12B
:1046400002FB1100784F8DF80B000DF1080A0DF1F7
:104650000409785D2B2804D02D2802D01AF8050013
:1046600078551AF8050002F029F809F805006D1CC4
:10467000EDB24B46042DECD34025B8F1030F0ED01C
:10468000B8F1020F18D0B8F1010F28D0B8F1000F1F
:1046900074D114F1090057D3991C02205BE0002C5F
:1046A00003DA01A9002000F065FC9DF8040040F049
:1046B00004008DF8040059E0002C04DA01A9002060
:1046C00000F058FC04E09DF8080008B98DF804607B
:1046D0009DF8050040F004008DF8050046E09DF8C7
:1046E0000800002C25DA70B19DF806008DF807004F
:1046F0009DF805008DF806009DF804008DF8050072
:104700008DF8045032E09DF8090020B101A9002085
:1047100000F030FC06E009F10101012000F02AFC64
:104720008DF804609DF8060040F004008DF8060046
:104730001CE00028F6D19DF809008DF804600028DF
:10474000F0D18DF80560EDE704F16300592805D834
:1047500009F10101012000F00DFC07E004F2E7344B
:10476000B4F5617F02D201A90020F4E70698012880
:1047700005D002280AD003280FD10CE04CE08DF8B8
:1047800004608DF805608DF8066006E08DF8046021
:104790008DF8056001E08DF804601298BB2298B195
:1047A0009DF8040008B98DF804209DF8050008B9AB
:1047B0008DF805209DF8060008B98DF806209DF8B3
:1047C000070008B98DF80720139868B10020395CFC
:1047D0002B2902D02D2902D002E01A5400E01D54EA
:1047E000401CC0B20428F2D3109848B100202BFA24
:1047F00000F1C90700D01E54401CC0B20428F6D3F3
:104800009DF8070000909DF806309DF805209DF862
:1048100004100398FCF754F807B0BDE8F08F0000CF
:104820009A9999999999B93FAA0900202DE9FF4FC2
:1048300085B042F210734B4C4B4DDFF830A1DFF8DE
:104840003091DFF830B14C4E4C4FDFF83481159881
:10485000994248DA830605D5084608F0B2FE22469A
:104860002B461BE0C30605D5084608F0AAFE5246B3
:10487000444B2DE003070AD5084608F0A2FE4A463D
:10488000414B08F05FFF08F03FFE014629E0430777
:1048900017D5084608F095FE5A46334608F052FFF1
:1048A00008F032FE01460122002001230090CDE9EC
:1048B0000103039004230598FFF77AFE09B0BDE8D1
:1048C000F08F83070BD5084608F07BFE3A46434637
:1048D00008F038FF08F018FE01460222E4E7C0079E
:1048E000E2D00322E0E7A1F51C53DFF8A0C0103BA3
:1048F00063450AD28306AFD4C306B5D40307BBD43D
:104900004307C6D48007DED4CEE7214B214F0B44AA
:10491000BB4208D283069FD4C306A5D40307ABD4F9
:104920004007B6D4C0E71C4B1C4E0B44B34206D222
:10493000830691D4C30697D400079DD4B4E7184BDF
:10494000184E0B44B34204D2830685D4C0068BD4E0
:10495000AAE7154B154E0B44B342A5D28006CAD424
:10496000A2E70000F168E388B5F8E43E2D431CEBB4
:10497000FCA9F1D27B14AE47E17A843F9A999999C8
:104980009999B93FE2361A3F4D62503F905F01005E
:104990006079FEFFA0BB0D00C0BDF0FF4054890050
:1049A000806967FF804A5D05001F0AFA00E9A435A7
:1049B0007FB53A490024012542F2107688421ADA7E
:1049C000374909F0C7FB09F015FBB0FBF6F1B0FB66
:1049D000F6F206FB12060094CDE9014504230022FD
:1049E00001200394FFF7E4FD0094CDE90145042381
:1049F000022203941FE029492A4A49420144914274
:104A00001ED2294909F0A6FB09F0F4FAB0FBF6F131
:104A1000B0FBF6F206FB12060094CDE90145042333
:104A2000002201200394FFF7C3FD0094CDE9014566
:104A300004230122039431460220FFF7B9FD7FBD14
:104A40001A491B4A0144914217D209F0D3FAB0FB2C
:104A5000F6F1B0FBF6F206FB12060094CDE9014533
:104A60000423002201200394FFF7A2FD0094CDE966
:104A70000145042300220394DDE740242346224617
:104A8000214601200094FBF71BFF40231A461946DC
:104A900002200094FBF714FF7FBD0000002474493E
:104AA0000000C8428072A401000020418069E7B480
:104AB000A025A6012DE9FF5F84B0944642F2107153
:104AC000DFF8C092DFF8C0A2B04CDFF8C482DFF894
:104AD000C4B2B14DB14EB24F129A1798BCEB01015E
:104AE00073F100017FDA810506D56046194608F0AA
:104AF0007FFD4A46AB4B34E0C10506D560461946FA
:104B000008F076FD5246234647E0010606D560468A
:104B1000194608F06DFD42465B465DE0410606D54C
:104B20006046194608F064FD9F4A2B4619E081064D
:104B300006D56046194608F05BFD32463B462CE040
:104B4000C10606D56046194608F052FD974A984BB3
:104B500032E0010719D56046194608F049FD954A2B
:104B6000954B08F0EFFD09F073FC8446012200200C
:104B700001210090CDE901010390042361460498CE
:104B8000FFF716FD08B0BDE8F09F41070CD5604661
:104B9000194608F02DFD894A894B08F0D3FD09F02C
:104BA00057FC84460222E2E781070DD5604619468C
:104BB00008F01EFD834A844B08F0C4FD09F048FC50
:104BC00084460322D3E70EE0C007D0D060461946E2
:104BD00008F00EFD7B4A7C4B08F0B4FD09F038FC70
:104BE00084460022C3E71ADB7849BCEB010173F16C
:104BF000000114DA81053FF578AFC1053FF57EAFBE
:104C0000010684D441068BD4810692D4C10699D47E
:104C10000107A0D44107BAD48007C7D4A7E76B49DE
:104C2000BCEB010173F1000116DB6949BCEB01012A
:104C300073F1000110DA8105DDD4C105DED401066F
:104C4000DFD44106DFD48106DFD4C106DFD40107FB
:104C500081D440079BD48AE75D49BCEB010173F125
:104C6000000114DB5B49BCEB010173F100010EDABA
:104C70008105C0D4C105C1D40106C2D44106C2D445
:104C80008106C2D4C106C2D40007C2D46FE751491D
:104C9000BCEB010173F1000112DB4F49BCEB0101D8
:104CA00073F100010CDA8105A5D4C105A6D4010673
:104CB000A7D44106A7D48106A7D4C006A7D456E737
:104CC0004549BCEB010173F1000110DB4349BCEB2A
:104CD000010173F100010ADA81058CD4C1058DD47C
:104CE00001068ED441068ED480068ED43FE73B4920
:104CF000BCEB010173F100010EDB3949BCEB010192
:104D000073F1020108DA810596D4C10596D4010633
:104D100096D4400696D42AE73149BCEB010173F1E1
:104D200002010CDB2F49BCEB010173F1170106DA1C
:104D300081059ED4C1059ED400069ED417E729495B
:104D4000BCEB010173F117010ADB2749BCEB010140
:104D500073F1E80104DA81058BD4C0058BD406E732
:104D60002149BCEB010173F1E8018FDB1F4940F6DB
:104D70001814BCEB010173EB040187DA800593D4AE
:104D8000F5E6000095D626E83A8C30E28E79453E6D
:104D900048AFBC9AF2D77A3EF7C6B03EF168E388D6
:104DA000B5F8E43E0B2E113E8DEDB5A02D431CEB66
:104DB000E2361A3FFCA9F1D24D62503F7B14AE4758
:104DC000E17A843F9A9999999999B93FA08601000F
:104DD00040420F008096980000E1F50500CA9A3B1A
:104DE00000E40B5400E876480010A5D400A0724EF1
:104DF0002DE9FF4F85B042F210734B4C4B4DDFF85D
:104E000030A1DFF83091DFF830B14C4E4C4FDFF875
:104E100034811598994248DA830605D5084608F08A
:104E2000D0FB22462B461BE0C30605D5084608F0FA
:104E3000C8FB5246444B2DE003070AD5084608F04C
:104E4000C0FB4A46414B08F07DFC08F05DFB014683
:104E500029E0430717D5084608F0B3FB5A46334606
:104E600008F070FC08F050FB0146022200200123EC
:104E70000090CDE90103039004230598FFF798FB08
:104E800009B0BDE8F08F83070BD5084608F099FB01
:104E90003A46434608F056FC08F036FB014603222A
:104EA000E4E7C007E2D00122E0E7A1F51C53DFF8F8
:104EB000A0C0103B63450AD28306AFD4C306B5D465
:104EC0000307BBD44307C6D48007DED4CEE7214B0B
:104ED000214F0B44BB4208D283069FD4C306A5D4FE
:104EE0000307ABD44007B6D4C0E71C4B1C4E0B44A1
:104EF000B34206D2830691D4C30697D400079DD44B
:104F0000B4E7184B184E0B44B34204D2830685D441
:104F1000C0068BD4AAE7154B154E0B44B342A5D25D
:104F20008006CAD4A2E70000F168E388B5F8E43E41
:104F30002D431CEBFCA9F1D27B14AE47E17A843FF0
:104F40009A9999999999B93FE2361A3F4D62503F23
:104F5000905F01006079FEFFA0BB0D00C0BDF0FFB7
:104F600040548900806967FF804A5D05001F0AFA86
:104F700000E9A43540220A70014A2D2111547047DE
:104F8000AA090020014600204C296FD2DFE801F079
:104F90002726282A2C2E30323436383A3C3E4042DE
:104FA0004446484A4C4E50525456585A5C5E6062D1
:104FB0006466686A6C6F71737577797B7D7F8183B6
:104FC0008587898B8D8F91939597999B9D9FA1A3A1
:104FD000A5A7A9ABB5B5ADAFB5B5B1B301207047C5
:104FE0000220704703207047042070470520704757
:104FF0000620704707207047082070470920704737
:105000000A2070470B2070470C2070470D20704716
:105010000E2070470F2070471020704711207047F6
:1050200012207047132070471420704715207047D6
:1050300016207047172070471820704719207047B6
:105040001A2070471B2070471C2070471D20704796
:105050001E2070471F207047202070472120704776
:1050600022207047232070472420704745E02520E8
:10507000FBE72620F9E72720F7E72820F5E7292096
:10508000F3E72A20F1E72B20EFE72C20EDE72D2096
:10509000EBE72E20E9E72F20E7E73020E5E7312096
:1050A000E3E73220E1E73320DFE73420DDE7352096
:1050B000DBE73620D9E73720D7E73820D5E7392096
:1050C000D3E74620D1E74720CFE74820CDE7492066
:1050D000CBE74A20C9E74B20C7E74C20C5E74D2066
:1050E000C3E74E20C1E74F20BFE73A20BDE73B2092
:1050F000BBE73C20B9E73D20B7E7FF20B5E700005C
:105100000149C860704700000020024070B50546A4
:105110004FF43026304600F067F8042811D1094CCE
:10512000206940F0020020616561206940F0400084
:105130002061304600F058F8216941F6FD721140B7
:10514000216170BD0020024008490420CA68D207CE
:1051500001D001207047CA68520701D5022070476C
:10516000C968C906FBD50320704700000020024033
:105170000248016941F0800101617047002002404E
:105180002DE9F841064600204FF4005700900D46E7
:10519000384600F029F8042816D10C4C206940F05C
:1051A000010020613580B846384600F01DF8BF1E6A
:1051B000042806D1B61C280C00963080404600F02A
:1051C00013F8216939402161BDE8F88100200240CF
:1051D0000348024941600349416070472301674524
:1051E00000200240AB89EFCD00B50346FFF7ACFFCE
:1051F00002E0FFF7A9FF5B1E012803D0002B00D1BE
:10520000052000BD002BF4D1FAE72DE9F041164648
:105210000D46074601F092FE0E2000EAD71444F036
:10522000A00001F057FE50B9F8B201F053FE30B9BA
:1052300001F084FE44F0A10001F04CFE20B101F029
:1052400093FE0120BDE8F0810024761E06E00020D8
:1052500001F006FE641C05F8010BE4B2B442F6DB73
:10526000012001F0FDFD287001F07EFE0020E9E73D
:1052700070B514460D46064601F060FE0E2000EAA9
:10528000D61040F0A00001F025FE10B101F06CFE38
:1052900009E0F0B201F01EFE0028F7D106E0287800
:1052A00001F018FE08B1012070BD6D1C641EA4B28F
:1052B000F5D201F059FE002070BD000000B589B0A4
:1052C000002001466A461154401CC0B22028FAD37F
:1052D00000BF202269460020FFF797FF684600F0D4
:1052E00039F89DF81E109DF81F2001EB0221814224
:1052F00004D1102269460248FAF7AAFF09B000BD9E
:10530000DC1F002010B5114C8AB00421204600F0AB
:105310009EF9FF2220216846FBF711F810220C4964
:105320006846FAF795FF684600F014F8ADF82000DB
:1053300080B2ADF81E00202269460020FFF798FFDA
:105340000421204600F085F90AB010BD000C014090
:10535000DC1F002000221146435C491C1A4489B21C
:1053600092B21E29F8D3D0B2704700002DE9F84F51
:105370000121724800F038F903278DF802704FF4CC
:105380008069ADF8009004248DF8034069466C48AC
:1053900000F0DCF84FF40078ADF8008018208DF8AC
:1053A00003006946664800F0D1F801258DF80250E7
:1053B0008DF803400826ADF800606946614800F0AA
:1053C000C5F8ADF8004069465E4800F0BFF84FF000
:1053D000020BADF800B069465A4800F0B7F8ADF8D6
:1053E00000606946574800F0B1F88DF80270102649
:1053F0008DF803606002ADF800006946524800F085
:10540000A5F8ADF8009069464F4800F09FF88DF878
:1054100002708DF803604FF0800AADF800A0694675
:10542000474800F093F84FF02009ADF80090694626
:10543000434800F08BF8ADF800606946404800F042
:1054400085F8ADF8009069463E4800F07FF81021DD
:105450003B4800F0FEF820213A4800F0FAF88DF8B9
:1054600002708DF80340ADF800606946354800F0E1
:105470006DF84027ADF800706946314800F066F8D5
:105480008DF802504FF014098DF80390ADF800B07C
:1054900069462D4800F05AF8ADF8005069462A4890
:1054A00000F054F8ADF800406946274800F04EF887
:1054B0008DF802508DF80360ADF8008069462248EF
:1054C00000F044F8A601ADF8006069461E4800F0FF
:1054D0003DF841461C4800F0BCF831461A4800F03F
:1054E000B8F88DF802508DF80390ADF80070694659
:1054F000144800F02BF8ADF800A06946114800F000
:1055000025F840210F4800F0A4F880210D4800F054
:10551000A0F88DF802508DF80340A002ADF800000D
:105520006946094800F012F8E002ADF8000069464B
:10553000054800F00BF8BDE8F88F000000023000CD
:105540000008014000100140000C0140F0B5CC788B
:10555000002204F00F03E40601D58C7823430C7875
:105560004FF00F0C14F0FF0F4FF0010E1BD0056829
:105570000E880EFA02F42640A64210D196000CFACC
:1055800006F725EA070703FA06F5CE783D43282EED
:1055900002D0482E02D002E0446100E00461521CB7
:1055A000082AE5D305600A88FF2A1CD9446800222E
:1055B00002F108060EFA06F50E882E40AE420ED114
:1055C00096000CFA06F7BC4303FA06F7CE783C4384
:1055D000282E00D14561CE78482E00D10561521C9D
:1055E000082AE5D34460F0BDF0B5144C002801DA78
:1055F000E36900E06368450D2E0185B2C0F30157F1
:10560000B540C0F30342032F05D0C6020AD50326D6
:105610009640B34307E023F07062636823F0706341
:10562000636002E0AB4343F0706201B12A4300289B
:1056300001DAE261F0BD6260F0BD000000000140EF
:105640000246002092680A4200D001207047416162
:10565000704701617047000010B5184908B9087C0F
:1056600010B9487C00281ED00020154A0874C87064
:105670005379062B09D2DFE803F00317191B1D1F0E
:10568000127812B1012A02D002E0087100E00A711A
:105690008871C871087248728872C872087348733A
:1056A00008488068C86610BD0222F0E70322EEE7D2
:1056B0000622ECE70822EAE70C22E8E728000020AF
:1056C000EC1F0020D4E900082DE9F04FAB4D002479
:1056D000284695F803C04178C67990F8089090F86C
:1056E0000AB090F80BA0027B437B477A80794FF099
:1056F000010EBCF1080F72D2DFE80CF0042129354D
:10570000ABE11AF09E4802789C480079A0F1400174
:10571000C9B21AB10B280CD003280DD0402800D3F1
:1057200029712879401C2871C0B20B2800D92C712E
:1057300019E185F804E016E10620287113E1687983
:10574000401CC0B268710128F2D96C710BE1401C99
:10575000C0B2A871012903D0022800D9AC7102E1BE
:105760000328FBD8FFE068B1012812D0022818D026
:10577000844E042822D0052839D0062851D0072885
:1057800059D061E0761CF0B2E87104285CD9EC7164
:105790005AE009F10100C0B22872032854D92C72D2
:1057A00052E07F1CF8B26872012903D0052800D9A5
:1057B0006C72D8E0032849D96C7247E0327E62B13E
:1057C0006E48807A401CC0B2022A09D0727EA8724C
:1057D0003A3A032A08D8022836D9AC7234E0C0E03D
:1057E000A8720128F9D82FE00528F6D82CE096F801
:1057F00022206AB16148C07A401CC0B2022A09D096
:1058000096F82320E8723A3A032A07D802281BD9CF
:10581000EC7219E0E8720128FAD815E00528F7D8EB
:1058200012E096F8400020B1521CD0B22873032831
:105830000AD92C7308E096F8460020B15B1CD8B258
:105840006873032800D96C73012901D100F074FE3C
:1058500089E002291AD1082818D2DFE800F00425CF
:105860004084525B6A72052E7DD2DFE806F00306A3
:10587000081015000021084627E0002108E000205C
:1058800005F072FE686CB0F52F7F0BDC6BE0012138
:10589000002004F075FF66E0002005F065FE686CEE
:1058A0000A2860DD6C645EE05FEA090007D0012829
:1058B00009D002280CD0B9F1030F54D10BE000201D
:1058C00005F052FE4FE00021012005F0C3FD4AE043
:1058D00000210220F9E700210320F6E73FE0062F30
:1058E00041D2DFE807F0040609030403E7E70021DB
:1058F00005E000210A20E8E700210520E5E7042073
:10590000E3E7BBF1060F2ED2DFE80BF00D03100327
:105910000303D4E7BAF1060F25D2DFE80AF0040347
:1059200007030303CBE700210620CEE70021082070
:10593000CBE772B1012A0FD0022AC0D0032A12D1BC
:10594000BDE733B1012B07D0022BB8D0032B0AD10E
:10595000B5E700210720B8E700210920B5E70121BC
:10596000CDE785F811E0E878074900EB400001EB4E
:1059700080008068E866BDE8F08F00002800002005
:10598000EC1F0020A0200020D4E9000830B52048FA
:1059900002230122C4780021082C05D2DFE804F09C
:1059A000040406191B1D282C427427E04478022C9D
:1059B0000CD0C170427041718171C171017241722C
:1059C0008172C17201734173436417E00722C27090
:1059D000F1E7C37004E003210CE0C27042718171F1
:1059E000C171017241728172C1720173417305E02C
:1059F00041760521C17001E0C3708171C178054A0B
:105A000001EB410102EB81018968C16630BD0000F4
:105A100028000020D4E900080649C87808B9012008
:105A2000C870C0B2044A00EB400002EB80008068FE
:105A3000C866704728000020D4E900082DE9F05F0F
:105A4000774C00252146E378487806220327012673
:105A5000496CDFF8D0B1DFF8D0914FF0040A4FF075
:105A60000208082B70D2DFE803F0043D586470810F
:105A7000D18C2079402814D009DC6B49072809789B
:105A800010D2DFE800F00C1014191F24290041384F
:105A90000628F5D2DFE800F0090D14181D24402077
:105AA00018E02571B2E0412014E02671AEE04220FA
:105AB00010E084F80480A9E0002902D1432009E025
:105AC0002771A3E0442005E084F804A09EE045206F
:105AD00000E00520207199E0002902D14620F9E775
