:020000040800F2
:10000000F82E0020C901000881BA0008F1AD0008EF
:10001000D5010008D7010008D90100080000000040
:1000200000000000000000000000000069FA000865
:10003000DD010008000000003DCE0008B9FD000809
:10004000E3010008E3010008E3010008E301000800
:10005000E3010008E3010008E3010008E3010008F0
:10006000E3010008E3010008E30100089D06000821
:10007000E3010008E3010008E3010008E3010008D0
:10008000E3010008E3010008E3010008E3010008C0
:10009000E3010008E3010008E3010008E3010008B0
:1000A000E3010008E3010008E3010008E3010008A0
:1000B000D5FF0008D9FF0008E3010008E3010008AC
:1000C000E3010008E3010008E3010008E301000880
:1000D000E3010008F5050108E3010008E301000859
:1000E000E3010008E3010008E301000800F002F862
:1000F00000F05AF80AA090E8000C82448344AAF168
:100100000107DA4501D100F04FF8AFF2090EBAE865
:100110000F0013F0010F18BFFB1A43F0010318473B
:10012000E8490100084A01000A444FF0000C10F8A9
:10013000013B13F0070408BF10F8014B1D1108BF65
:1001400010F8015B641E05D010F8016B641E01F805
:10015000016BF9D113F0080F1EBF10F8014BAD1C55
:100160000C1B09D16D1E58BF01F801CBFAD505E073
:1001700014F8016B01F8016B6D1EF9D59142D6D3CD
:10018000704700000023002400250026103A28BFF5
:1001900078C1FBD8520728BF30C148BF0B607047F9
:1001A0001FB51FBD10B510BD00F0A8F91146FFF72F
:1001B000F7FF11F0C1FB00F0C6F903B4FFF7F2FF3F
:1001C00003BC00F0C7F90000094880470948004710
:1001D000FEE7FEE7FEE7FEE7FEE7FEE7FEE7FEE7F7
:1001E000FEE7FEE704480549054A064B7047000054
:1001F000C9FD0008ED000008F8260020F82E0020B8
:10020000F82A0020F82A002010B54C1084EA530484
:1002100004D54042C1F1000138BF491E1B4204D53C
:100220005242C3F1000338BF5B1E00F0DCF814F04B
:10023000804F04D04042C1F1000138BF491E14F084
:10024000004F04D05242C3F1000338BF5B1E10BD03
:10025000032A40F2308010F0030C00F0158011F8F2
:10026000013BBCF1020F624498BF11F801CB00F8CA
:10027000013B38BF11F8013BA2F1040298BF00F81E
:1002800001CB38BF00F8013B11F0030300F02580DB
:10029000083AC0F0088051F8043B083A51F804CB02
:1002A000A0E80810F5E7121D5CBF51F8043B40F8C8
:1002B000043BAFF30080D20724BF11F8013B11F8D3
:1002C00001CB48BF11F8012B24BF00F8013B00F817
:1002D00001CB48BF00F8012B704710B5203AC0F0A1
:1002E0000B80B1E81850203AA0E81850B1E8185037
:1002F000A0E81850BFF4F5AF5FEA027C24BFB1E874
:100300001850A0E8185044BF18C918C0BDE81040E4
:100310005FEA827C24BF51F8043B40F8043B08BFED
:100320007047D20728BF31F8023B48BF11F8012BB4
:1003300028BF20F8023B48BF00F8012B704702F0AD
:10034000FF0343EA032242EA024200F002B84FF000
:1003500000020429C0F0128010F0030C00F01B8092
:10036000CCF1040CBCF1020F18BF00F8012BA8BFA0
:1003700020F8022BA1EB0C0100F00DB85FEAC17C64
:1003800024BF00F8012B00F8012B48BF00F8012B17
:1003900070474FF0000200B5134694469646203948
:1003A00022BFA0E80C50A0E80C50B1F12001BFF42E
:1003B000F7AF090728BFA0E80C5048BF0CC05DF894
:1003C00004EB890028BF40F8042B08BF704748BFE2
:1003D00020F8022B11F0804F18BF00F8012B704756
:1003E00070477047704753EA020C00F069802DE9AE
:1003F000F04B4FF00006002B1FBFB3FA83F503FA52
:1004000005F424FA05F65E4012BF1643B2FA82F5EF
:1004100002FA05F4C5F120051EBF22FA05FC44EAE4
:100420000C04203556EA044C4FEA144418BF641CEF
:100430004FF000084FF00009904271EB030C39D3E4
:10044000002919BFB1FA81F701FA07F6B0FA80F76F
:1004500000FA07F6C7F120071EBF20FA07FC46EA9C
:100460000C062037B6FBF4FCA7EB0507103F07F09E
:100470001F0BCBF120060CFA0BFB2CFA06F644BF3F
:10048000B3460026202FA4BF5E464FF0000B5BEA68
:10049000060C08BF4FF0010B19EB0B09ABFB027CFC
:1004A00048EB0608C01B06FB02CC0BFB03CC71EB30
:1004B0000C01C1E70B46024641464846BDE8F08BB9
:1004C00013B54FF000004FF00001AFF30080BDE81E
:1004D0001C40704710B500F009F8006810BD10B559
:1004E000044600F003F8046010BD000000487047A7
:1004F0009826002000487047982600207546FFF790
:10050000F9FFAE4605006946534620F007008546D0
:1005100018B020B5FFF766FEBDE820404FF000069A
:100520004FF000074FF000084FF0000B21F00701DB
:10053000AC46ACE8C009ACE8C009ACE8C009ACE81E
:10054000C0098D4670470446AFF300802046FFF790
:1005500034FE000001491820ABBEFEE72600020071
:100560007047014600201A2940D2DFE801F00E0D45
:100570000F11131517191B1D1F21232527292B2D9B
:100580002F31333537393B3D01207047022070470A
:1005900003207047042070470520704706207047ED
:1005A0000720704708207047092070470A207047CD
:1005B0000B2070470C2070470D2070470E207047AD
:1005C0000F2070471020704711207047122070478D
:1005D000132070471420704715207047162070476D
:1005E000172070471820704719207047FF20704768
:1005F00010B50FF0E9FB0DF00DF808F01DFC08F048
:10060000F5F90BF03EFABDE810400FF0AFBB00006B
:1006100070B5124A0124104D11784FF47A760028F3
:100620000DD0012816D1002914D0002010700FF031
:100630004DFA2C7030460CF0DBFB0BF08BFA0129E5
:1006400008D014700FF042FA2C7030460CF0D0FB3A
:100650000BF080FA70BD000015000020042500207A
:1006600030B5002000210A4B0A4C5A5C2D2A06D0D6
:100670002B2A04D034F8115002FB050080B2491C2B
:10068000C9B20429F1D30449A1F8420030BD0000E9
:100690008C050020204301081400002010B5022022
:1006A00000F09EF8002804D0BDE81040022000F0C1
:1006B00001B810BDC10002D5024908607047024967
:1006C000486070470404024000000240002904D042
:1006D000016841F001010160704701684FF6FE7248
:1006E000114001607047000001684FF6FE72114032
:1006F00001600021016041608160C1603649364A75
:100700000839904204D1486840F00F0048607047B3
:10071000314A1432904204D1486840F0F0004860F9
:1007200070472D4A2832904204D1486840F47060E6
:1007300048607047284A3C32904204D1486840F4EF
:10074000704048607047244A5032904204D1486853
:1007500040F47020486070471F4A6432904204D1D0
:10076000486840F47000486070471B4A78329042F5
:1007700004D1486840F0706048607047174A111F04
:10078000904204D1086840F00F0008607047134A97
:100790001432904204D1086840F0F00008607047BD
:1007A0000E4A2832904204D1086840F47060086014
:1007B00070470A4A3C32904204D1086840F47040C5
:1007C00008607047054A50329042FAD1086840F4F8
:1007D00070200860704700000800024008040240D2
:1007E00002460020D10002D50449096801E004490D
:1007F0000968114200D00120704700000004024047
:100800000000024030B5026847F6F0739A430C6A64
:100810008B682343D1E904452C4323438C6923434C
:10082000CC6923434C6A23438C6A234313430360FC
:10083000CA6842600A6882604968C16030BD0000D1
:1008400070B50E46DDE90415134C002804EBC30413
:1008500005D0904208D3204611F06BF919E02046EC
:1008600011F060F9002070BD304490420BD2A078A6
:10087000012803D0204611F055F90AE02046294608
:1008800011F073F905E0A078012802D1204611F09B
:1008900050F9A07870BD0000AC05002070B50E4680
:1008A000DDE90415134C002804EBC30405D0904285
:1008B00008D8204611F03DF919E0204611F032F930
:1008C000002070BD801B90420BD3A078012803D07C
:1008D000204611F027F90AE02046294611F045F993
:1008E00005E0A078012802D1204611F022F9A07875
:1008F00070BD0000AC05002070B5124D4FF4805162
:10090000284608F01BFC104C2070E914284608F01B
:1009100015FC60700020A31ED91E225C62B11D5C14
:100920000A78AA430A70401CC0B20228F5D308789E
:100930000649A1F8780170BD1A5C0D782A430A7047
:10094000F1E70000000C01409D000020D81E0020AF
:100950002DE9F04188B007460C460A21B4FBF1F5B9
:10096000B4FBF1F001FB10461D22002105200AF026
:10097000ABF81122012105200AF0A6F80D22022170
:1009800005200AF0A1F8012F19D03B48641E417DD3
:100990003A48012900EB840429D0D4F8E00813F088
:1009A000E3F80590D4F8600913F0DEF80690D4F867
:1009B000E00913F0D9F8079005A800F065F8FF22C8
:1009C000002104200AF080F8FF22012104200AF00F
:1009D0007BF8EDB32A46022104200AF075F832466E
:1009E000032104200AF070F808B0BDE8F081244F1C
:1009F000D4F87C06394612F0D9FFDFF88880D8F8A1
:100A0000141013F061F913F0AFF805903946D4F8DB
:100A1000140812F0CBFFD8F8841013F055F913F036
:100A2000A3F80790002400940194029403940423F3
:100A300002222046059906F031FF1E200346024699
:100A400001460090012009F027FE0094019400E087
:100A50000BE002940222039404231046079906F047
:100A60001DFF05A800F010F8A9E7FF2202210420CD
:100A70000AF02AF8B3E7000014000020580F002005
:100A80000000C842980B00202DE9FF4705460020D2
:100A90003A4A3B4C3B4E534255F82010914203D208
:100AA000718F41F00101718755F82010CF18A742CE
:100AB00004D2718F41F0020171871EE0324FDFF8DE
:100AC000CCC00F44674504D2718F41F00401718797
:100AD00013E02F4FDFF8BCC00F44674504D2718F7D
:100AE00041F00801718708E02B4F39442B4FB94280
:100AF00003D2718F41F010017187401CC0B20328EE
:100B0000CAD30024DFF89890DFF898A000274FF0B0
:100B1000010855F8240012F076FB4A46534612F0BD
:100B2000CBFB12F0ABFA014696F83A000097CDE9FC
:100B30000178039004230022204606F0CBFF641CBA
:100B4000E4B2032CE5D3708F00F0200100F0100216
:100B5000114301D1000705D510220321012009F01E
:100B6000CDFE04E00F220321012009F0C7FE04B0EE
:100B70000321BDE8F047012009F04CBEA08601002A
:100B8000A0BB0D0014000020C0BDF0FF4054890040
:100B9000806967FF804A5D05001F0AFA00E9A435F5
:100BA0009A9999999999B93F2DE9F04788B080466B
:100BB0000C460A21B4FBF1F7B4FBF1F001FB104A3B
:100BC0001D220021052009F07FFF112201210520AF
:100BD00009F07AFF0D220221052009F075FF9A48DD
:100BE000641E0025994E4FF01E0900EB8404B8F1F5
:100BF000010F5BD09648407D01287DD03146D4F866
:100C00007C0612F0D3FE12F0AFFF05903146D4F807
:100C1000480712F0CBFE12F0A7FF06903146D4F839
:100C2000140812F0C3FE12F09FFF07900095019583
:100C300002950395042302220020059906F02EFE5A
:100C4000019500950295039504230222012006993F
:100C500006F024FE029502220095019503950423D7
:100C60001046079906F01AFE13220321012009F00D
:100C700045FE0321012009F0CDFDFF2200210420C3
:100C800009F022FFFF220121042009F01DFF002F9F
:100C90007DD03A460221042009F016FF08B05246E2
:100CA000BDE8F0470321042009F00EBF6948007831
:100CB000F0B33146D4F8180412F078FE12F054FF65
:100CC00005903146D4F8B00512F070FE12F04CFFDA
:100CD00007900095019502950395042302220020B8
:100CE000059906F0DBFD029504230222009501958B
:100CF00003950120079900E060E006F0CFFD1E2378
:100D00001A4619460220CDF8009009F0C5FC1222BF
:100D10000021012009F0F2FD01211222084609F00C
:100D2000EDFD0021012009F0A5FD0121084600E0AC
:100D300002E009F09FFDA0E73146D4F8180412F054
:100D400035FE12F011FF05903146D4F8E40412F09C
:100D50002DFE12F009FF06903146D4F8B00512F0CE
:100D600025FE12F001FF079000950195029503956D
:100D7000042302220020059906F090FD019504232A
:100D800002220095029503950120069900E054E0A7
:100D900006F084FD02950222009501950395042337
:100DA0001046079906F07AFD12220321012009F06E
:100DB000A5FD0321012009F02DFD5EE73146D4F8A1
:100DC0007C0612F0F3FD12F0CFFE05903146D4F808
:100DD000140812F0EBFD12F0C7FE07900095019584
:100DE00002950395042302220020059906F056FD82
:100DF0001E231A4619460120CDF8009009F04CFC3C
:100E00000295022200950195039504231046079947
:100E100006F044FD13220021012009F06FFD13228A
:100E20000221012009F06AFD0021012009F0F2FCF5
:100E30000221012009F0EEFC1FE7FF22022104201D
:100E400009F042FE2AE70000580F00200000C842C7
:100E500014000020042500202DE9F04F91B0FE4C35
:100E600000276787FD480078002804D1FB484178B7
:100E700009B9807828B1E07E18B10220E07067746B
:100E8000E776F548E178F64D407FDFF8D8A3DFF844
:100E9000D8B3DFF8D893DFF8D883F64E12297DD285
:100EA000DFE811F01200E9009F01DC020405790679
:100EB000B10703088808CD08FF082B098609000A36
:100EC0005709440AD30A660B0E220021052009F0B7
:100ED000FBFD15220121052009F0F6FDFF2202216C
:100EE000052009F0F1FD0025DFF88C830DF13809AC
:100EF000032D09D2C5EBC50006EBC000006812F057
:100F000033FE49F8250007E0E07FC0B1D6F8C40001
:100F100012F02AFE49F8250059F82500D7498842E1
:100F200003D2618F41F001016187D44949420144F4
:100F300041450BD2608F40F00200608722E0D6F876
:100F4000B80012F011FE49F82500E5E700EB0A01B0
:100F5000594504D2608F40F00400608712E0C84910
:100F60004218C8498A4204D2608F40F00800608766
:100F700008E0C5490144C548814203D2608F40F072
:100F8000100060876D1CEDB2042DB1D300254FF029
:100F90000108DFF8FCA2DFF8FCB200E051E059F8EC
:100FA000250012F030F952465B4612F085F912F036
:100FB00065F8014694F83A000097CDE9017803906E
:100FC00004230022284607F0F7FA6D1CEDB2032D2A
:100FD000E3D3608F012803D10C22032109F08EFC9A
:100FE000608F811E0E2905D20D220321012009F0F8
:100FF00085FC06E0C00604D50E220321012009F07D
:101000007DFC0321012009F005FCE07FE0B1D6F86A
:10101000C40012F02BFC52465B4612F04DF912F060
:101020002DF8014694F83A000097CDE901780423A1
:1010300003900022184607F0BFFA0121032009F0AF
:1010400049FC11B0BDE8F08FD6F8B80012F00EFCE4
:1010500052465B4612F030F912F010F8014694F84F
:101060003A000097CDE90178042303900022184646
:1010700007F0A2FAE5E70E220021052009F024FD81
:1010800015220121052009F01FFDFF220221052064
:1010900009F01AFD0025DFF8E0810DF13809032D74
:1010A00009D2C5EBC50006EBC000806812F05CFDFC
:1010B00049F8250007E0E07FC0B1D6F8C80012F07B
:1010C00053FD49F8250059F825006C49884203D2A0
:1010D000618F41F0010161876849494201444145FE
:1010E0000BD2608F40F00200608722E0D6F8BC008F
:1010F00012F03AFD49F82500E5E700EB0A015945F1
:1011000004D2608F40F00400608712E05C4942180E
:101110005C498A4204D2608F40F00800608708E092
:10112000594901445948814203D2608F40F0100070
:1011300060876D1CEDB2042DB1D30025DFF850A1FE
:10114000DFF850B14FF0010859F8250012F05BF8B4
:1011500052465B4612F0B0F811F090FF014694F849
:101160003A000097CDE90178039004230022284635
:1011700007F022FA6D1CEDB2032DE5D3608F012834
:1011800003D10C22032109F0B9FB608F811E0E29C7
:1011900005D20D220321012009F0B0FB06E0C006B4
:1011A00004D50E220321012009F0A8FB0321012010
:1011B00009F060FBD6F8BC0012F058FB52465B46C3
:1011C00012F07AF811F05AFF014694F83A000097AD
:1011D000CDE90178042303900022184607F0ECF9CA
:1011E0002FE70E220021052009F06EFC15220121B7
:1011F000052009F069FCFF220221052009F064FCAA
:1012000000250DF13808032D09D2C5EBC50006EB0A
:10121000C000C06812F0A8FC48F8250007E0E07F95
:10122000C8B1D6F8CC0012F09FFC48F8250058F859
:1012300025001249884203D2618F41F00101618784
:101240000E49494242180C498A422CD2608F40F024
:101250000200608743E01FE014000020A10000208E
:10126000F4240020C0BDF0FF405489000425002074
:1012700000008080980B0020A0BB0D00A08601001C
:10128000806967FF804A5D05001F0AFA00E9A435FE
:101290009A9999999999B93FD6F8C00012F064FCCF
:1012A00048F82500C3E700EB0A01594504D2608FD6
:1012B00040F00400608712E0FE494218FE498A426D
:1012C00004D2608F40F00800608708E0FB490144C9
:1012D000FB48814203D2608F40F0100060876D1C94
:1012E000EDB2042D8FD300254FF0010A58F82500E8
:1012F00011F089FFF34AF44B11F0DEFF11F0BEFE4E
:10130000014694F83A000097CDE9017A039004234E
:101310000022284606F0DEFB6D1CEDB2032DE5D35E
:10132000DFF8A88398F80000B0B1B9F8140098B1BC
:10133000E07B88B12320034602460146009000204E
:1013400009F0AAF90025FF222946002009F0DCF95E
:101350006D1CEDB2042DF6D398F801004FF01F0B71
:10136000B0B1B9F8140098B1E07B88B11F231A46D8
:1013700019460120CDF800B009F08EF90025FF22B2
:101380002946012009F0C0F96D1CEDB2042DF6D3F9
:1013900098F80200B0B1B9F8140098B1E07B88B1B8
:1013A0001F231A4619460220CDF800B009F074F93F
:1013B0000025FF222946022009F0A6F96D1CEDB296
:1013C000042DF6D3608F00F0200100F010021143CD
:1013D00001D1000705D510220321012009F08EFA62
:1013E00004E00F220321012009F088FA03210120E3
:1013F00009F010FAE07FD0B1D6F8CC0012F036FA3E
:10140000B04AB14B11F058FF11F038FE014694F884
:101410003A000097CDE9017A042303900022184690
:1014200006F058FB0121032009F054FA09E6D6F82A
:10143000C00012F01BFAA34AA34B11F03DFF11F0BC
:101440001DFE014694F83A000097CDE9017A042385
:1014500003900022184606F03DFBF2E50E22002123
:10146000052009F031FB15220121052009F02CFB94
:10147000FF220221052009F027FB002594480DF1E9
:10148000180990F800A0BAF1000F07D01DB3012D84
:101490002CD0022D35D0032D3AD03CE0032D0ED2B6
:1014A000C5EBC50006EBC0008069404501D380F064
:1014B000004012F0E9FD09EBC50203C22BE0D6F8AB
:1014C000A800404501D380F0004012F0DDFD09EB9B
:1014D000C50203C21FE0D6F8A800404501D380F042
:1014E000004012F0D1FDCDE9060114E0D6F8AC00C1
:1014F000404501D380F0004012F0C6FDCDE908015F
:1015000009E0D6F8B00012F0BFFDCDE90A0102E013
:1015100000210C910D9109EBC5016E4A03C9821A95
:1015200071F1000203DA628F42F00102628709DB87
:10153000694A821A71F1000204DA608F40F00200F9
:1015400060877FE0644A821A71F100020ADB594A1F
:101550005242821A71F1000204DA608F40F00400F6
:1015600060876FE0534A5242821A71F100020ADB2F
:10157000524A5242821A71F1000204DA608F40F03E
:10158000080060875EE04D4A5242821A71F1000203
:1015900009DB524A821A71F1000204DA608F40F0CE
:1015A000100060874EE04D4A821A71F1000209DB9B
:1015B0004B4A821A71F1020204DA608F40F0200077
:1015C00060873FE0464A821A71F1020209DB454A10
:1015D000821A71F1170204DA608F40F040006087D0
:1015E00030E0404A821A71F1170209DB3E4A821A42
:1015F00071F1E80204DA608F40F08000608721E03A
:10160000394A821A71F1E8020BDB384A40F61813A6
:10161000821A71EB030204DA608F40F480706087F5
:1016200010E0324A40F61813821A71EB030209DB0C
:101630002F4A45F6F323801A994103DA608F40F46C
:10164000007060876D1CEDB2042DFFF41CAF002507
:101650004FF0040B4FF0010A09EBC50103C911F06B
:1016600081FD184A184B11F027FE12F0ABFC628F77
:101670000297CDE9037ACDE9007B059202460B463D
:10168000284606F025FC6D1CEDB2032DE4D310486E
:10169000007878B3608F01287AD0102879D201229F
:1016A0000021104609F02AF901210522084609F017
:1016B00025F920E0806967FF804A5D05001F0AFA6E
:1016C00000E9A4359A9999999999B93FA100002008
:1016D00004250020A086010040420F0000CA9A3B6A
:1016E00000E40B5400E876480010A5D400A0724E28
:1016F00000407A1005E009220221012009F0FEF8DD
:10170000ADE0DDE90C0111F02DFDFE4AFE4B11F0BC
:10171000D3FD12F057FC628F0297CDE9037ACDE931
:10172000007B059202460B46042006F0D1FB608F39
:10173000012807D010280BD201220321104609F0FE
:10174000DDF818E000220321012009F0D7F812E0AB
:10175000FF2805D802220321012009F0CFF80AE072
:1017600000F4807100F40070014304D0032211469C
:10177000012009F0C3F80024C4EBC40006EBC0004C
:101780008069404506D30121204609F02FF805E085
:101790002EE03DE0FF21204609F028F8641CE4B269
:1017A000032CE9D30321012009F034F8012103209F
:1017B00009F090F80E220021032009F085F9FF229C
:1017C0000121032009F080F9FF220221032009F002
:1017D0007BF90321FF22084609F076F9D6F8A80024
:1017E0004045FFF447AC0121032008F0FFFF28E447
:1017F00000221146012009F081F801210422084647
:1018000009F07CF808220221012009F077F826E08F
:10181000FF280FD802220021012009F06FF80121D2
:101820000622084609F06AF80A220221012009F07E
:1018300065F814E000F4807100F4007001430ED0EC
:1018400003220021012009F059F80121072208464E
:1018500009F054F80B220221012009F04FF8012170
:10186000002009F037F80121084609F033F801217A
:10187000022009F02FF8D6F8A800404504D3012132
:10188000002008F0B3FF03E0FF21002008F0AEFFC6
:10189000D6F8AC00404504D30121084608F0A6FF65
:1018A0009EE4FF21012008F0A1FF99E40E2200210F
:1018B000052009F009F915220121052009F004F994
:1018C000FF220221052009F0FFF800250DF1180B79
:1018D000032D0DD2C5EBC50006EBC000C069404525
:1018E00001D380F0004012F0CFFB0BEBC50203C226
:1018F000032D09D1D6F8AC00404501D380F000405B
:1019000012F0C2FBCDE90C010BEBC5017F4A03C904
:10191000821A71F1000203DA628F42F001026287DB
:1019200009DB7B4A821A71F1000204DA608F40F011
:10193000020060877BE0764A821A71F1000209DBBF
:10194000744A821A71F1000204DA608F40F00400D8
:1019500060876CE06F4A821A71F1000209DB6E4AFF
:10196000821A71F1000204DA608F40F0080060878B
:101970005DE0694A821A71F1000209DB674A821A46
:1019800071F1000204DA608F40F0100060874EE0D1
:10199000624A821A71F1000209DB614A821A71F10E
:1019A000020204DA608F40F0200060873FE05C4A6A
:1019B000821A71F1020209DB5A4A821A71F1170286
:1019C00004DA608F40F04000608730E0554A821AA8
:1019D00071F1170209DB544A821A71F1E80204DA44
:1019E000608F40F08000608721E04F4A821A71F1D9
:1019F000E8020BDB4D4A40F61813821A71EB030222
:101A000004DA608F40F48070608710E0474A40F647
:101A10001813821A71EB030209DB454A45F6F323DA
:101A2000801A994103DA608F40F4007060876D1C62
:101A3000EDB2042DFFF44CAF00254FF0040A4FF037
:101A400001090BEBC50103C911F08CFB2D4A2E4B8C
:101A500011F032FC12F0B6FA628F0297CDE90379E9
:101A6000CDE9007A059202460B46284606F030FA88
:101A70006D1CEDB2032DE4D3DDE90C0111F072FB16
:101A8000204A214B11F018FC12F09CFA628F029749
:101A9000CDE90379CDE9007A059202460B46042090
:101AA00006F016FA608F012807D010280BD2052205
:101AB0000321012008F022FF18E004220321012065
:101AC00008F01CFF12E0FF2805D8062203210120A0
:101AD00008F014FF0AE000F4807100F40070014384
:101AE00004D007220321012008F008FF0024C4EBE2
:101AF000C40006EBC000C06940451ED3012120464A
:101B000018E000009A9999999999B93FA086010027
:101B100040420F008096980000E1F50500CA9A3B0C
:101B200000E40B5400E876480010A5D400A0724EE3
:101B300000407A1008F05AFE03E0FF21204608F02A
:101B400055FE641CE4B2032CD1D30321012008F01C
:101B500061FE0121032008F0BDFE0F2200210320B9
:101B600008F0B2FFFF220121032008F0ADFFFF22A1
:101B70000221032008F0A8FF0321FF22084608F0F5
:101B8000A3FFD6F8AC004045FFF48AAE0121032044
:101B900008F02CFE4AE40E220021052008F094FFF4
:101BA00015220121052008F08FFFFF2202210520C8
:101BB00008F08AFF00250DF11809032D09D2C5EBA5
:101BC000C50006EBC000006A12F05EFA09EBC50220
:101BD00003C2032D05D1D6F8B00012F055FACDE9B5
:101BE0000C0109EBC501FF4A03C9821A71F1000219
:101BF00003DA628F42F00102628709DBFA4A821A35
:101C000071F1000204DA608F40F0020060877BE02F
:101C1000F54A821A71F1000209DBF44A821A71F165
:101C2000000204DA608F40F0040060876CE0EF4A45
:101C3000821A71F1000209DBED4A821A71F1000289
:101C400004DA608F40F0080060875DE0E84A821A9D
:101C500071F1000209DBE74A821A71F1000204DA2D
:101C6000608F40F0100060874EE0E24A821A71F106
:101C7000000209DBE04A821A71F1020204DA608F85
:101C800040F0200060873FE0DB4A821A71F10202D7
:101C900009DBDA4A821A71F1170204DA608F40F028
:101CA0004000608730E0D54A821A71F1170209DBE3
:101CB000D34A821A71F1E80204DA608F40F08000A2
:101CC000608721E0CE4A821A71F1E8020BDBCD4A2F
:101CD00040F61813821A71EB030204DA608F40F4A5
:101CE0008070608710E0C74A40F61813821A71EBC3
:101CF000030209DBC44A45F6F323801A994103DA4B
:101D0000608F40F4007060876D1CEDB2042DFFF40D
:101D100054AF0025DFF8F4A2DFF8F4B204264FF048
:101D2000010809EBC50103C911F01CFA52465B46D4
:101D300011F0C2FA12F046F9628F0297CDE90378EA
:101D4000CDE90076059202460B46284606F0C0F81B
:101D50006D1CEDB2032DE4D3DDE90C0111F002FAA4
:101D600052465B4611F0A8FA12F02CF9628F0297E6
:101D7000CDE90378CDE90076059202460B460420B2
:101D800006F0A6F8608F012807D010280BD2092290
:101D90000321012008F0B2FD18E0082203210120F0
:101DA00008F0ACFD12E0FF2805D80A22032101202B
:101DB00008F0A4FD0AE000F4807100F40070014313
:101DC00004D00B220321012008F098FD03210120FB
:101DD00008F020FD0121032008F07CFD10220021E5
:101DE000032008F071FEFF220121032008F06CFEA1
:101DF000FF220221032008F067FE0321FF2208468C
:101E000008F062FEF3E40E220021052008F05CFEDB
:101E100015220121052008F057FEFF22022105208E
:101E200008F052FE002406ADC4EBC40006EBC0006F
:101E3000406A404501D380F0004012F025F905EBDF
:101E4000C40203C2009701970297039755F8341014
:101E500004230322204605F021FD641CE4B2032C78
:101E6000E2D30024C4EBC40006EBC000406A404546
:101E700004D30121204608F0B9FC03E0FF212046ED
:101E800008F0B4FC641CE4B2032CEBD30321012062
:101E900008F0C0FC0E220221042008F015FE0C22DE
:101EA0000321042008F010FEA1E40E2200210520E9
:101EB00008F00AFE15220121052008F005FEFF2288
:101EC0000221052008F000FE19220121002008F05F
:101ED000FBFD0F220221002008F0F6FDD6F8B40029
:101EE00010F0FF4F07D040451AD380F0004011F0AA
:101EF0001FFE01B217E01E220021012008F0E4FDC0
:101F000001211E22084608F0DFFD1E2202210120C9
:101F100008F0DAFD1E220321012008F0D5FD0BE0B8
:101F200011F006FE01B200970197029704230322E5
:101F30000120039705F0B2FCD6F8B400404504D365
:101F40000121084608F052FC03E0FF21012008F0BF
:101F50004DFCD6F8E00010F0FF4F16D011F0E8FD70
:101F6000014604230097019702970222184603971F
:101F700005F094FC0C220021032008F0A5FDFF22AF
:101F80000121032008F0A0FD31E4122200210420E9
:101F900008F09AFD12220121042008F095FD12227A
:101FA0000221042008F090FD12220321042008F0F1
:101FB0008BFDDFE70E220021052008F085FD1722AA
:101FC0000121052008F080FDFF220221052008F0F4
:101FD0007BFD00210E22084608F076FD1922012122
:101FE000002017E0A086010040420F008096980074
:101FF00000E1F50500CA9A3B00E40B5400E876487E
:102000000010A5D400A0724E00407A109A999999B8
:102010009999B93F08F058FDFF220221002008F0ED
:1020200053FD21220321002008F04EFD286805F011
:10203000ABFE00220421012008F060FC30E40E22F7
:102040000021052008F040FD17220121052008F09D
:102050003BFDFF220221052008F036FD012008F09B
:102060002FFA012008F042FA00210E22084608F05B
:102070002BFD19220121002008F026FDFF2202215C
:10208000002008F021FD22220321002008F01CFD81
:10209000686805F079FE00220421012008F02EFC7A
:1020A00003E40E220021052008F00EFD1722012175
:1020B000052008F009FDFF220221052008F004FD9B
:1020C00000210E22084608F0FFFC1A220121002000
:1020D00008F0FAFCFF220221002008F0F5FC212282
:1020E0000321002008F0F0FCA86805F04DFE012255
:1020F0000421104608F002FC4CE50E2200210520C8
:1021000008F0E2FC17220121052008F0DDFCFF2287
:102110000221052008F0D8FC00210E22084608F014
:10212000D3FC1A220121002008F0CEFCFF2202215C
:10213000002008F0C9FC22220321002008F0C4FC82
:10214000E86805F021FE01220421104608F0D6FBC4
:1021500020E512220021052008F0B6FC16220121FC
:10216000052008F0B1FC0B220221052008F0ACFC90
:10217000FC4C0097019702970397216804230222E1
:10218000002005F08BFB12220021012008F0B6FB95
:102190000097019702970397022261680423104673
:1021A00005F07CFB13220221012008F0A7FBF1E4DB
:1021B0000DF05CFB0D220021052008F085FC0E22AD
:1021C0000121052008F080FC10220221052008F0E2
:1021D0007BFC99F80000E44CE8B300970197029764
:1021E0000397042301220020216805F057FB009784
:1021F000019702970397012204231046A16805F076
:102200004DFB1E220021022008F05EFC1E2201214F
:10221000022008F059FC02211E22084608F054FC56
:102220001E220321022008F04FFC0021012008F0AB
:1022300021FB0121084608F01DFB13220121042087
:1022400008F042FC14220221042008F03DFC152273
:102250000321042000E002E008F036FC9AE4009735
:10226000019702970397042301220020216805F0BB
:1022700015FB00970197029703970122042310464C
:10228000616805F00BFB0097019702970397042301
:1022900001220220A16805F001FB0321012008F0C2
:1022A000B9FACAE70DF0E2FA0D220021052008F084
:1022B0000BFC0E220121052008F006FC1022022151
:1022C000052008F001FCA94C00970197029703979D
:1022D000042301220020216805F0E0FA009701970D
:1022E00002970397012204231046616805F0D6FA8D
:1022F0000097019702970397042301220220A16807
:1023000005F0CCFA0321012008F084FA0A22012109
:10231000042008F0D9FB16220221042008F0D4FB87
:1023200017220321042008F0CFFB33E410B10DF095
:1023300003FE2FE41D220021052008F0C5FB112219
:102340000121052008F0C0FB0D220221052008F024
:10235000BBFB99F80000E8B3306B11F0E9FB0146D4
:10236000009701970297042302220020039705F0AB
:1023700095FAD6F8A00011F0DBFB01460097019713
:102380000297042302220120039705F087FA1E20FA
:102390000346024601460090022008F07DF9002124
:1023A000012008F067FA0121084608F063FA1222BA
:1023B0000021012008F0A2FA01211222084608F0AB
:1023C0009DFA11220121042008F07EFB0D2202213A
:1023D000042000E007E008F077FB0B220321042033
:1023E00008F072FB0EE5306B11F0A2FB014600977E
:1023F00001970297042302220020039705F04EFA6A
:10240000B06E11F095FB01460097019702970423E7
:1024100002220120039705F041FAD6F8A00011F03E
:1024200087FB01460222009701970297042310467A
:10243000039705F033FA0321012008F0EBF912228B
:102440000321012008F05AFABBE710B10DF0E4FCBB
:10245000D8E41D220021052008F036FB11220121BD
:10246000052008F031FB0D220221052008F02CFB8D
:10247000607D012840D0706B11F05AFB0146009737
:1024800001970297042302220020039705F006FA21
:10249000F06E11F04DFB014600970197029704235F
:1024A00002220120039705F0F9F9D6F8A40011F0F3
:1024B0003FFB014602220097019702970423104632
:1024C000039705F0EBF90321012008F0A3F913228B
:1024D0000321012008F012FA11220121042008F042
:1024E000F3FA0D220221042008F0EEFA0B22032158
:1024F000042008F0E9FA85E4706B11F019FB01463D
:10250000009701970297042302220020039705F009
:10251000C5F91E200346024601460090012008F03E
:10252000BBF8D6F8A40011F003FB01460222009785
:102530000197029704231046039705F0AFF9002195
:10254000012008F067F90221012008F063F9132245
:102550000021012008F0D2F913220221012008F005
:10256000CDF9B9E7500D0020B00D0020BC0D0020C2
:1025700010B108F03FFC45E41D220021052008F0C1
:10258000A3FA11220121052008F09EFA0D22022152
:10259000052008F099FA607D01281FD0306911F0FC
:1025A000E3FA0E90B06C11F0DFFA0F90D6F88000CD
:1025B00011F0DAFA10900EA8FEF766FA1122012146
:1025C000042008F081FA0D220221042008F07CFA90
:1025D0000B220321042008F077FA13E4306911F08C
:1025E000C3FA0E901E2003460246014600900120C9
:1025F00008F052F8D6F8800011F0B6FA10900EA844
:10260000FEF742FADAE7000008B50DF02FF91A4894
:102610008079C8B1012816D119220021052008F0BF
:1026200053FA1B220121052008F04EFAFF22022155
:10263000052008F049FA1020009018231B221921C8
:10264000002008F029F808BD1B220021052008F011
:102650003BFA0D220121052008F036FAFF22022163
:10266000052008F031FA0D2000900A230E221B21CC
:10267000002008F011F808BD1400002038B50DF056
:10268000F5F83D4C6078012802D0022810D01EE0F9
:102690001B220021052008F017FA0D220121052038
:1026A00008F012FAFF220221052008F00DFA0EE0D0
:1026B00019220021052008F007FA1B22012105201C
:1026C00008F002FAFF220221052008F0FDF9E17965
:1026D0000124022008290DD2DFE801F0040D153E87
:1026E0001E262E361D2000901923172212210020AD
:1026F00007F0D2FF38BD162318220C2100200094C9
:1027000007F0CAFF38BD1C20024600901F2323217A
:10271000002007F0C1FF38BD222318220D21002020
:10272000009407F0B9FF38BD0090222318220D2134
:10273000002007F0B1FF38BD222318220A21002013
:10274000009407F0A9FF38BD0090222318220A2127
:10275000002007F0A1FF38BD1B2000900E231E2291
:102760002321002007F098FF0023092201210220E5
:10277000009407F091FF38BD140000202DE9FF5FA1
:102780000DF074F8FE4C6078012802D0022810D0B9
:102790001EE01B220021052008F096F90D220121E0
:1027A000052008F091F9FF220221052008F08CF99C
:1027B0000EE019220021052008F086F91B220121D4
:1027C000052008F081F9FF220221052008F07CF99C
:1027D0006078112713264FF0010902281BD0012829
:1027E0003AD10025E6484FF0000880F80F80C07904
:1027F000DFF88CB31F244FF0040A0BF13C0B0828C0
:102800002AD2DFE810F0E301C302D1032900030557
:10281000AF0A57101912E07908281DD2DFE800F03E
:10282000045E921CDEF9F8F71D2000901923172290
:102830001221002007F030FF207A05280CD2DFE8B3
:1028400000F0030D1D2D3D001B2000900E231522CE
:102850001F21012007F020FFBDE8FF9F1F231B223F
:1028600017210120CDF8009007F016FF04B00122D7
:10287000BDE8F05F1146104607F046BF0220009009
:102880001F231B221721012007F006FF04B001229D
:10289000BDE8F05F1146104607F036BF1F231B222C
:1028A0000C210120CDF8009007F0F6FE04B00122C3
:1028B000BDE8F05F1146104607F026BF02200090E9
:1028C0001F231B220C21012007F0E6FE04B0012289
:1028D000BDE8F05F1146104607F016BF1623182218
:1028E0000C210020CDF8009007F0D6FE607A70B180
:1028F000012815D002281CD00328ADD11A20009041
:10290000142316220C21012007F0C6FEA4E719208B
:102910000D2300901A460A21012007F0BDFE9BE717
:102920000D2000901C230A220B21012007F0B4FE89
:1029300092E70A20024600901B230D21012007F098
:10294000ABFE89E71C20024600901F2323210020B4
:1029500007F0A2FEA07A0628D8D2DFE800F0030C28
:10296000141D26360C20024600901D231F21012035
:1029700007F092FE70E71023122213210120009726
:1029800007F08AFE68E7172000901A2312220D2113
:10299000012007F081FE5FE71920009013230A222F
:1029A0001F21012007F078FE56E70E200090192322
:1029B00013220C21012007F06FFE04B00122BDE8B4
:1029C000F05F0221104607F09FBE0E2000900D23FD
:1029D00016220C21012007F05FFE3DE7222318227A
:1029E0000D210020CDF8009007F056FEE07A062871
:1029F0008CD2DFE800F0030F182129320E2000905E
:102A00000D2316221421012007F046FE24E7A6E03C
:102A100071E02BE00E200090142312221B210120D4
:102A200007F03AFE18E7142000900E231B22122113
:102A3000012007F031FE0FE70A231C221F2101208D
:102A4000009607F029FE07E71A2000901D231122A7
:102A50001F21012007F020FEFEE61D200090132319
:102A60000E220D21012007F017FEF5E6022000904E
:102A7000222318220D21002007F00EFE207B0628BD
:102A800089D2DFE800F0030C151E262F0E200090DF
:102A90000D2316221421012007F0FEFDDCE60E2096
:102AA0000090142312221B21012007F0F5FDD3E62C
:102AB000142000900E231B221221012007F0ECFDB0
:102AC000CAE60A231C221F210120009607F0E4FD1C
:102AD000C2E61A2000901D2311221F21012007F0B9
:102AE000DBFDB9E61D20009013230E220D210120ED
:102AF00007F0D2FDB0E6222318220A210020CDF8EB
:102B0000009007F0C9FD607B70B1012815D0022844
:102B10001CD0032886D11A201F2200900F231146B3
:102B2000012007F0B9FD97E60E2000900D23162234
:102B30001421012007F0B0FD8EE6142000900E2332
:102B40001B221221012007F0A7FD85E61A201F2273
:102B500000900D231146012007F09EFD7CE6022027
:102B60000090222318220A21002007F095FDA07B67
:102B700088B1012818D002281FD003288ED101E087
:102B8000140000201A201F2200900F23114601205C
:102B900007F082FD60E60E2000900D23162214211E
:102BA000012007F079FD57E6142000900E231B2228
:102BB0001221012007F070FD4EE61A201F2200901E
:102BC0000D231146012007F067FD45E61D2000900A
:102BD000192317221221002007F05EFDF94EFA4F4B
:102BE000307A052886D2DFE800F003355C83AA003E
:102BF0001B2000900E2315221F21012007F04CFD01
:102C0000706C58B101288ED1F07BD0B11F231A46C9
:102C100019460220009407F03FFD1DE6F07B38B115
:102C20001F231A4619460220009407F035FD13E6CB
:102C3000032315221F210220CDF800A007F02CFD50
:102C40000AE603200346009015221F21022007F008
:102C500023FD01E61F231B2217210120CDF8009040
:102C600007F01AFD01221146104607F04DFDBA7912
:102C700053468BF801A09BF80000F17BCDE90109D8
:102C8000CDF80C9000910220716C04F007FEFDF766
:102C9000E7FC04B00D22BDE8F05F0021012007F041
:102CA0002DBE022000901F231B221721012007F0B8
:102CB000F3FC01221146104607F026FD53468BF81F
:102CC00001A09BF80000F17BCDE90109CDF80C9043
:102CD00000912A460220716C04F0E0FDFDF7C0FC73
:102CE00004B00C22BDE8F05F0021012007F006BE11
:102CF0001F231B220C210120CDF8009007F0CCFCF3
:102D000001221146104607F0FFFCFA7953468BF872
:102D100001A09BF80000F17BCDE90109CDF80C90F2
:102D200000910220716C04F0B9FDFDF799FC04B02C
:102D30001022BDE8F05F0021012007F0DFBD022076
:102D400000901F231B220C21012007F0A5FC01226B
:102D50001146104607F0D8FC53468BF801A09BF8AB
:102D60000000F17BCDE90109CDF80C9000912A46D5
:102D70000220716C04F092FDFDF772FC04B00F228A
:102D8000BDE8F05F0021012007F0B8BD162318222E
:102D90000C210020CDF8009007F07EFC894D687A68
:102DA000F0B1012837D0022873D003287FF4AEADEC
:102DB0001A200090142316220C21012007F06CFC2D
:102DC000686C01287DD00228F0D1E87B002879D0FA
:102DD0001F231A4619460220009407F05DFC3BE5CC
:102DE00019200D2300901A460A21012007F054FCF7
:102DF00053468BF801A09BF80000E97BCDE9001059
:102E0000CDE9028942460220696C04F047FDBDE825
:102E1000FF5FFDF725BC0D2000901C230A220B212B
:102E2000012007F039FCE87B38B11F231A46194608
:102E30000220009407F030FC0EE5686C0528CED225
:102E4000DFE800F0030C151E2800022200230121F8
:102E50001046CDF8008007F01FFCFDE4022100239E
:102E600004220846CDF8008007F016FCF4E40023A5
:102E7000082204210220CDF8008007F00DFCEBE4CD
:102E80000023062209210220CDF8008007F004FC6F
:102E9000E2E40FE00223092201211846CDF8008068
:102EA00007F0FAFB04B00122BDE8F05F11460220F2
:102EB00007F02ABC0A201B2302460D2100900120A6
:102EC00001E056E068E007F0E7FB686C78B10228A3
:102ED00020D0012831D00328AED1E87BB8B31F231E
:102EE0001A4619460220009407F0D6FBB4E4E87BAA
:102EF00038B11F231A4619460220009407F0CCFB74
:102F0000AAE4082315221F210220CDF8009007F023
:102F1000C3FBA1E4E87B38B11F231A4619460220FF
:102F2000009407F0B9FB97E4082316221F21022022
:102F3000CDF8009007F0B0FB8EE4E87B40B11F2392
:102F40001A4619460220009407F0A6FB84E408E024
:102F500008230E221F210220CDF8009007F09CFBD1
:102F60007AE40220082315221F21009007F094FB29
:102F700072E4E87B38B11F231A46194602200094F8
:102F800007F08AFB68E41C2000901B2319221F21F4
:102F9000022007F081FB5FE40A230C221F2102209C
:102FA000009607F079FB57E41C20024600901F238F
:102FB0002321002007F070FB024EB07A062895D23C
:102FC00004E000001400002004250020DFE800F0E9
:102FD000033651AECAF00C20024600901D231F217B
:102FE000012007F059FB706C01280BD0022887D113
:102FF000F07BD0B11F231A4619460220009407F037
:103000004BFB29E4F07B38B11F231A4619460220F6
:10301000009407F041FB1FE41A2000900E231D22AC
:103020001F21022007F038FB16E416201F22009013
:1030300015231146022007F02FFB0DE41023122266
:1030400013210120009707F027FB53468BF801A0BE
:103050009BF80000F17BCDE90109CDF80C900091BF
:103060002A460220716C04F019FCBDE8FF5FFDF7F1
:10307000F7BA17251A2312220D210120009507F017
:103080000BFBF07B38B11F231A461946022000942F
:1030900007F002FB3AE4706CA0B101281BD00228B3
:1030A00022D0032828D004282FD0052835D0062880
:1030B000F0D1142000900E230D221F21022007F0D2
:1030C000EBFA23E41C201F2300901A461946022025
:1030D00007F0E2FA1AE412201F2300901A4619465C
:1030E000022007F0D9FA11E41F231A4619460220DC
:1030F000009507F0D1FA09E40F201F220090172352
:103100001146022007F0C8FA09E41F220E231146D7
:103110000220009507F0C0FA0AE40D200090112368
:103120001B221F21022007F0B7FA0AE419200090A1
:1031300013230A221F21012007F0AEFA53468BF811
:1031400001A09BF80000F17BCDE90109CDF80C90BE
:1031500000912A460220716C04F0A0FBBDE8FF5FDD
:10316000FDF77EBA0E200090192313220C210120B6
:1031700007F092FA01220221104607F0C5FA706C9E
:1031800001280BD00228D0D1F07BD8B11F231A46DA
:1031900019460220009407F07FFA05E4F07B40B165
:1031A0001F231A4619460220009407F075FA14E40A
:1031B00011E01A2000900E231D221F21022007F08B
:1031C0006BFA0AE416201F220090152311460220F4
:1031D00007F062FA1AE40E2000900D2316220C214B
:1031E000012007F059FA53468BF801A09BF8000024
:1031F000F17BCDE90010CDE9028942460220716CD5
:1032000004F04CFBBDE8FF5FFDF72ABA01200090F7
:10321000222318220D21002007F03EFADFF8B09D8E
:1032200099F80B000628D5D2DFE800F0033856FDE8
:10323000FCFB0E2000900D2316221421012007F024
:103240002BFA99F80F0038B11F231A4619460220AD
:10325000009407F021FA08E4D9F8440060B101288D
:1032600013D00228F7D1142000900E2319221F2119
:10327000022007F011FA11E40F20034600901622F5
:103280001F21022007F008FA08E4192000901323F8
:103290000A221F21022007F0FFF908E40E20009007
:1032A000142312221B21012007F0F6F902225346B3
:1032B0008BF801A09BF8000099F80F400121CDE99F
:1032C0000040CDE902810220D9F8441004F0E6FA6A
:1032D000BDE8FF5FFDF7C4B9142000900E231B2248
:1032E0001221012007F0D8F999F80F0038B11F23F7
:1032F0001A4619460220009407F0CEF913E4D9F8D3
:1033000044004828FAD2DFE800F024334251606FCD
:103310007E91A0AFBEFDFCFBFAF9F8F7F6F5F4F3E9
:10332000F2F1F0EFEEEDECEBEAE9E8E7E6E5E4E3F5
:10333000E2E1E0DFDEDDDCDBDAD9D8D7D6D5D4D3E5
:10334000D2D1D0CFCECDCCCBCAC9C8C7C6C5C4C3D5
:10335000C2C11F230A221C210220009707F09CF9FA
:1033600004B00122BDE8F05F1146022007F0CCB99D
:103370001F230A221C210220009607F08DF904B0B9
:103380000122BDE8F05F1146022007F0BDB91F23FE
:103390000B221C210220009707F07EF904B00122C5
:1033A000BDE8F05F1146022007F0AEB91F230B22E3
:1033B0001C210220009607F06FF904B00122BDE83D
:1033C000F05F1146022007F09FB91F230C221C2139
:1033D0000220009707F060F904B00122BDE8F05F19
:1033E0001146022007F090B91F230C221C21022055
:1033F000009607F051F904B00122BDE8F05F1146D4
:10340000022007F081B91F231A461C2102200097D1
:1034100007F042F904B00122BDE8F05F002102206C
:1034200002E0F1E3F1E3E3E307F06EB91F231A468C
:103430001C210220009607F02FF904B00122BDE8FC
:10344000F05F0021022007F05FB90B230A221C2144
:103450000220009707F020F904B00122BDE8F05FD8
:103460000221084607F050B90B230A221C21022032
:10347000009607F011F904B00122BDE8F05F0221C7
:10348000084607F041B90C230B223CE0A7E394E384
:103490009CE389E37FE375E36CE35BE34AE339E3B1
:1034A0002FE31EE30DE3FCE2ECE2DCE2CCE2BCE263
:1034B000ACE29CE28CE27CE26CE25CE24CE23CE25C
:1034C0002CE21CE20CE2FCE1ECE1DCE1CCE1BCE151
:1034D000ACE19CE18CE17CE16CE15CE14CE13CE144
:1034E0002CE11CE10CE1FCE0ECE0DCE0CCE0BCE039
:1034F000ACE09CE08CE07CE06CE05CE04CE03CE02C
:103500002CE01CE00CE01C210220009707F0C4F81E
:1035100004B00122BDE8F05F0221084607F0F4B8CC
:103520000C230B221C210220009607F0B5F804B0F2
:103530000122BDE8F05F0221084607F0E5B80A2342
:103540000C221C210220009707F0A6F804B00122EB
:10355000BDE8F05F0221084607F0D6B80A230C2226
:103560001C210220009607F097F804B00122BDE864
:10357000F05F0221084607F0C7B81F2313221C2161
:103580000220009707F088F804B00122BDE8F05F40
:103590001146022007F0B8B81F2313221C21022075
:1035A000009607F079F804B00122BDE8F05F1146FB
:1035B000022007F0A9B81F230A2212210220009737
:1035C00007F06AF804B00122BDE8F05F114602205E
:1035D00007F09AB81F230A2212210220009607F052
:1035E0005BF804B00122BDE8F05F1146022007F04D
:1035F0008BB81F230B2212210220009707F04CF8F2
:1036000004B00122BDE8F05F1146022007F07CB84B
:103610001F230B2212210220009607F03DF804B070
:103620000122BDE8F05F1146022007F06DB81F23AC
:103630000C2212210220009707F02EF804B001227C
:10364000BDE8F05F1146022007F05EB81F230C2290
:1036500012210220009607F01FF804B00122BDE8F5
:10366000F05F1146022007F04FB81F231A461221BF
:103670000220009707F010F804B00122BDE8F05FC7
:103680000021022007F040B81F231A461221022011
:10369000009607F001F804B00122BDE8F05F0021B8
:1036A000022007F031B81F230A22172102200097B9
:1036B00006F0F2FF04B00122BDE8F05F11460220DF
:1036C00007F022B81F230A2217210220009606F0D5
:1036D000E3FF04B00122BDE8F05F1146022007F0CD
:1036E00013B81F230B2217210220009706F0D4FFE6
:1036F00004B00122BDE8F05F1146022007F004B8D3
:103700001F230B2217210220009606F0C5FF04B0EC
:103710000122BDE8F05F1146022006F0F5BF1F232D
:103720000C2217210220009706F0B6FF04B00122F8
:10373000BDE8F05F1146022006F0E6BF1F230C2211
:1037400017210220009606F0A7FF04B00122BDE871
:10375000F05F1146022006F0D7BF1F231A4617213B
:103760000220009706F098FF04B00122BDE8F05F48
:103770000021022006F0C8BF1F231A46172102208D
:10378000009606F089FF04B00122BDE8F05F002139
:10379000022006F0B9BF1F230A2218210220009739
:1037A00006F07AFF04B00122BDE8F05F1146022066
:1037B00006F0AABF1F230A2218210220009606F055
:1037C0006BFF04B00122BDE8F05F1146022006F055
:1037D0009BBF1F230B2218210220009706F05CFFDD
:1037E00004B00122BDE8F05F1146022006F08CBF54
:1037F0001F230B2218210220009606F04DFF04B073
:103800000122BDE8F05F1146022006F07DBF1F23B4
:103810000C2218210220009706F03EFF04B001227E
:10382000BDE8F05F1146022006F06EBF1F230C2298
:1038300018210220009606F02FFF04B00122BDE8F7
:10384000F05F1146022006F05FBF1F231A461821C1
:103850000220009706F020FF04B00122BDE8F05FCF
:103860000021022006F050BF1F231A461821022013
:10387000009606F011FF04B00122BDE8F05F0021C0
:10388000022006F041BF1F230A221A2102200097BE
:1038900006F002FF04B00122BDE8F05F11460220ED
:1038A00006F032BF1F230A221A210220009606F0DA
:1038B000F3FE04B00122BDE8F05F1146022006F0DD
:1038C00023BF1F230B221A210220009706F0E4FEDB
:1038D00004B00122BDE8F05F1146022006F014BFDB
:1038E0001F230B221A210220009606F0D5FE04B0F9
:1038F0000122BDE8F05F1146022006F005BF1F233C
:103900000C221A210220009706F0C6FE04B0012204
:10391000BDE8F05F1146022006F0F6BE1F230C2220
:103920001A210220009606F0B7FE04B00122BDE87D
:10393000F05F1146022006F0E7BE1F231A461A2147
:103940000220009706F0A8FE04B00122BDE8F05F57
:103950000021022006F0D8BE1F231A461A21022099
:10396000009606F099FE04B00122BDE8F05F002148
:10397000022006F0C9BE0A230F2217210220009759
:1039800006F08AFE04B00122BDE8F05F022108467D
:1039900006F0BABE0A230F2217210220009606F075
:1039A0007BFE04B00122BDE8F05F0221084606F06C
:1039B000ABBE0B230F2217210220009706F06CFEEE
:1039C00004B00122BDE8F05F0221084606F09CBE6B
:1039D0000B230F2217210220009606F05DFE04B093
:1039E0000122BDE8F05F0221084606F08DBE0C23DF
:1039F0000F2217210220009706F04EFE04B001228C
:103A0000BDE8F05F0221084606F07EBE0C230F22BF
:103A100017210220009606F03FFE04B00122BDE807
:103A2000F05F0221084606F06FBE1F230F22172108
:103A30000220009706F030FE04B00122BDE8F05FDE
:103A40001146022006F060BE1F230F22172102201C
:103A5000009606F021FE04B00122BDE8F05F114699
:103A6000022006F051BE1F231A460F2102200097A4
:103A700006F012FE04B00122BDE8F05F0021022032
:103A800006F042BE1F231A460F210220009606F0C0
:103A900003FE04B00122BDE8F05F0021022006F021
:103AA00033BE0A20009011231B221C21022006F0A5
:103AB000F3FD04B00122BDE8F05F0221084606F0E4
:103AC00023BE0B20009011231B221C21022006F094
:103AD000E3FD04B00122BDE8F05F0221084606F0D4
:103AE00013BE0C20009011231B221C21022006F083
:103AF000D3FD04B00122BDE8F05F0221084606F0C4
:103B000003BE11231B221C210220009406F0C4FDD9
:103B1000BDE8FF9F0A20009011231B2212210220E2
:103B200006F0BAFD04B00122BDE8F05F02210846AC
:103B300006F0EABD0B20009011231B221221022067
:103B400006F0AAFD04B00122BDE8F05F022108469C
:103B500006F0DABD0C20009011231B221221022056
:103B600006F09AFD04B00122BDE8F05F022108468C
:103B700006F0CABD11231B2212210220009406F078
:103B80008BFDC5E71C2000900B231422122102207C
:103B900006F082FDBCE71220014600900B231422A0
:103BA000022006F079FDB3E70120024600901E23B3
:103BB0000D21022006F070FDAAE71E2301220D212F
:103BC0000220CDF8008006F067FDA1E70120022267
:103BD00000901E230D21104606F05EFD98E702229C
:103BE0001E230D211046CDF8008006F055FD8FE70D
:103BF0000A231C221F210120009606F04DFDF548E6
:103C0000407E44282DD201E08EE040E0DFE800F065
:103C10002222222222222222222222222222222284
:103C2000242424242424242429292929292929292C
:103C300029292929292929292929292929292929F4
:103C40002626262626262626282828282828282804
:103C500028282828012504E0032502E0032500E0A8
:103C6000022553468BF801A09BF8001099F80F200D
:103C7000CDE901180120009203902A460220D9F8CC
:103C8000441003F00BFEBDE8FF5FFCF7E9BC1A200F
:103C900000901D2311221F21012006F0FDFCCD48BC
:103CA000407E44282AD2DFE800F02222222222226B
:103CB00022222222222222222222242424242424D8
:103CC000242429292929292929292929292929296E
:103CD0002929292929292929292926262626262666
:103CE0002626282828282828282828282828012582
:103CF00004E0032502E0032500E0022553468BF88B
:103D000001A09BF8001099F80F20CDE901180120BF
:103D1000009203902A460220D9F8441003F0BEFD19
:103D2000BDE8FF5FFCF79CBC1D20009013230E2212
:103D30000D21012006F0B0FC022253468BF801A0B1
:103D40009BF8001099F80F40CDE90118012003906D
:103D500000940220D9F8441003F0A0FDBDE8FF5FF5
:103D6000FCF77EBC02200090222318220D210020A7
:103D700006F092FC9648007B0628BFF402AFDFE80D
:103D800000F0033753FDFCFB0E2000900D2316229C
:103D90001421012006F080FC8D48C17B39B11F231E
:103DA0001A4619460220009406F076FCB0E6406CF4
:103DB00060B1012813D00228F8D1142000900E23FE
:103DC00019221F21022006F067FCA1E60F200346FE
:103DD000009016221F21022006F05EFC98E61920B2
:103DE000009013230A221F21022006F055FC8FE6C3
:103DF0000E200090142312221B21012006F04CFCFF
:103E0000022253468BF801A071489BF80010C47B36
:103E1000CDE90041CDE90289416C022003F03EFD6D
:103E2000BDE8FF5FFCF71CBC142000900E231B2292
:103E30001221012006F030FC6548C17B39B11F23F7
:103E40001A4619460220009406F026FC60E6406CF3
:103E50004828ABD2DFE800F024334251606F7E8DFA
:103E6000A0AFFCFBFAF9F8F7F6F5F4F3F2F1F0EF96
:103E7000EEEDECEBEAE9E8E7E6E5E4E3E2E1E0DFDA
:103E8000DEDDDCDBDAD9D8D7D6D5D4D3D2D1D0CFCA
:103E9000CECDCCCBCAC9C8C7C6C5C4C3C2C1C0BBBE
:103EA0001F230A221C210220009706F0F5FB04B014
:103EB0000122BDE8F05F1146022006F025BC1F2359
:103EC0000A221C210220009606F0E6FB04B0012223
:103ED000BDE8F05F1146022006F016BC1F230B223E
:103EE0001C210220009706F0D7FB04B00122BDE898
:103EF000F05F1146022006F007BC1F230B221C2195
:103F00000220009606F0C8FB04B00122BDE8F05F75
:103F10001146022006F0F8BB1F230C221C210220B0
:103F2000009706F0B9FB04B00122BDE8F05F11462E
:103F3000022006F0E9BB1F230C221C210220009660
:103F400006F0AAFB04B00122BDE8F05F1146022092
:103F500006F0DABB1F231A461C210220009706F048
:103F60009BFB04B00122BDE8F05F0021022006F0B7
:103F7000CBBB1F231A4602E0F3E3F3E3E4E31C2187
:103F80000220009606F088FB04B00122BDE8F05F35
:103F90000021022006F0B8BB0B230A221C210220BC
:103FA000009706F079FB04B00122BDE8F05F022122
:103FB000084606F0A9BB0B230A221C21022000960A
:103FC00006F06AFB01220221084604B041E0B2E398
:103FD00014000020B82500209BE3A3E390E386E3D0
:103FE0007CE373E362E351E340E336E325E314E368
:103FF00003E3F3E2E3E2D3E2C3E2B3E2A3E293E258
:1040000083E273E263E253E243E233E223E213E248
:1040100003E2F3E1E3E1D3E1C3E1B3E1A3E193E13F
:1040200083E173E163E153E143E133E123E113E130
:1040300003E1F3E0E3E0D3E0C3E0B3E0A3E093E027
:1040400083E073E063E053E043E033E023E013E018
:1040500003E0BDE8F05F06F057BB0C230B221C21E8
:104060000220009706F018FB04B00122BDE8F05FC3
:104070000221084606F048BB0C230B221C2102201B
:10408000009606F009FB04B00122BDE8F05F0221B2
:10409000084606F039BB0A230C221C210220009797
:1040A00006F0FAFA04B00122BDE8F05F02210846EA
:1040B00006F02ABB0A230C221C210220009606F0DF
:1040C000EBFA04B00122BDE8F05F0221084606F0D9
:1040D0001BBB1F2313221C210220009706F0DCFAD1
:1040E00004B00122BDE8F05F1146022006F00CBBCF
:1040F0001F2313221C210220009606F0CDFA04B0E3
:104100000122BDE8F05F1146022006F0FDBA1F2330
:104110000A2212210220009706F0BEFA04B0012202
:10412000BDE8F05F1146022006F0EEBA1F230A2216
:1041300012210220009606F0AFFA04B00122BDE879
:10414000F05F1146022006F0DFBA1F230B22122176
:104150000220009706F0A0FA04B00122BDE8F05F4B
:104160001146022006F0D0BA1F230B221221022092
:10417000009606F091FA04B00122BDE8F05F114606
:10418000022006F0C1BA1F230C2212210220009740
:1041900006F082FA04B00122BDE8F05F1146022069
:1041A00006F0B2BA1F230C2212210220009606F05C
:1041B00073FA04B00122BDE8F05F1146022006F058
:1041C000A3BA1F231A4612210220009706F064FAB0
:1041D00004B00122BDE8F05F0021022006F094BA8D
:1041E0001F231A4612210220009606F055FA04B049
:1041F0000122BDE8F05F0021022006F085BA1F23EE
:104200000A2217210220009706F046FA04B0012284
:10421000BDE8F05F1146022006F076BA1F230A229D
:1042200017210220009606F037FA04B00122BDE8FB
:10423000F05F1146022006F067BA1F230B221721F8
:104240000220009706F028FA04B00122BDE8F05FD2
:104250001146022006F058BA1F230B221721022014
:10426000009606F019FA04B00122BDE8F05F11468D
:10427000022006F049BA1F230C22172102200097C2
:1042800006F00AFA04B00122BDE8F05F11460220F0
:1042900006F03ABA1F230C2217210220009606F0DE
:1042A000FBF904B00122BDE8F05F1146022006F0E0
:1042B0002BBA1F231A4617210220009706F0ECF9AB
:1042C00004B00122BDE8F05F0021022006F01CBA14
:1042D0001F231A4617210220009606F0DDF904B0CC
:1042E0000122BDE8F05F0021022006F00DBA1F2375
:1042F0000A2218210220009706F0CEF904B001220C
:10430000BDE8F05F1146022006F0FEB91F230A2225
:1043100018210220009606F0BFF904B00122BDE882
:10432000F05F1146022006F0EFB91F230B2218217F
:104330000220009706F0B0F904B00122BDE8F05F5A
:104340001146022006F0E0B91F230B22182102209B
:10435000009606F0A1F904B00122BDE8F05F114615
:10436000022006F0D1B91F230C2218210220009749
:1043700006F092F904B00122BDE8F05F1146022078
:1043800006F0C2B91F230C2218210220009606F065
:1043900083F904B00122BDE8F05F1146022006F067
:1043A000B3B91F231A4618210220009706F074F9AA
:1043B00004B00122BDE8F05F0021022006F0A4B99C
:1043C0001F231A4618210220009606F065F904B052
:1043D0000122BDE8F05F0021022006F095B91F23FD
:1043E0000A221A210220009706F056F904B0012291
:1043F000BDE8F05F1146022006F086B91F230A22AD
:104400001A210220009606F047F904B00122BDE807
:10441000F05F1146022006F077B91F230B221A2104
:104420000220009706F038F904B00122BDE8F05FE1
:104430001146022006F068B91F230B221A21022020
:10444000009606F029F904B00122BDE8F05F11469C
:10445000022006F059B91F230C221A2102200097CE
:1044600006F01AF904B00122BDE8F05F11460220FF
:1044700006F04AB91F230C221A210220009606F0EA
:104480000BF904B00122BDE8F05F1146022006F0EE
:104490003BB91F231A461A210220009706F0FCF8A8
:1044A00004B00122BDE8F05F0021022006F02CB923
:1044B0001F231A461A210220009606F0EDF804B0D8
:1044C0000122BDE8F05F0021022006F01DB90A2399
:1044D0000F2217210220009706F0DEF804B0012217
:1044E000BDE8F05F0221084606F00EB90A230F224C
:1044F00017210220009606F0CFF804B00122BDE893
:10450000F05F0221084606F0FFB80B230F221721A7
:104510000220009706F0C0F804B00122BDE8F05F69
:104520000221084606F0F0B80B230F2217210220C3
:10453000009606F0B1F804B00122BDE8F05F022158
:10454000084606F0E1B80C230F221721022000973D
:1045500006F0A2F804B00122BDE8F05F022108468F
:1045600006F0D2B80C230F2217210220009606F085
:1045700093F804B00122BDE8F05F0221084606F07E
:10458000C3B81F230F2217210220009706F084F8DA
:1045900004B00122BDE8F05F1146022006F0B4B875
:1045A0001F230F2217210220009606F075F804B091
:1045B0000122BDE8F05F1146022006F0A5B81F23D6
:1045C0001A460F210220009706F066F804B0012277
:1045D000BDE8F05F0021022006F096B81F231A46BE
:1045E0000F210220009606F057F804B00122BDE822
:1045F000F05F0021022006F087B80A200090112306
:104600001B221C21022006F047F804B00122BDE85D
:10461000F05F0221084606F077B80B2000901123C6
:104620001B221C21022006F037F804B00122BDE84D
:10463000F05F0221084606F067B80C2000901123B5
:104640001B221C21022006F027F804B00122BDE83D
:10465000F05F0221084606F057B811231B221C21E7
:104660000220009406F018F8BDE8FF9F0A20009091
:1046700011231B221221022006F00EF804B00122A1
:10468000BDE8F05F0221084606F03EB80B2000901E
:1046900011231B221221022005F0FEFF04B001228B
:1046A000BDE8F05F0221084606F02EB80C2000900D
:1046B00011231B221221022005F0EEFF04B001227B
:1046C000BDE8F05F0221084606F01EB811231B2248
:1046D00012210220009405F0DFFFC5E71C200090A6
:1046E0000B2314221221022005F0D6FFBCE7122072
:1046F000014600900B231422022005F0CDFFB3E702
:104700001E2301220D210220CDF8009005F0C4FFE8
:10471000AAE71E2301220D210220CDF8008005F01A
:10472000BBFFA1E702221E230D211046CDF8009009
:1047300005F0B2FF98E702221E230D211046CDF8A6
:10474000008005F0A9FF8FE70A231C221F2101200A
:10475000009605F0A1FFFA4890F8230044282DD2D6
:1047600001E08BE03EE0DFE800F02222222222225C
:10477000222222222222222222222424242424240D
:1047800024242929292929292929292929292929A3
:10479000292929292929292929292626262626269B
:1047A00026262828282828282828282828280125B7
:1047B00004E0032502E0032500E0022553468BF8C0
:1047C00001A0E0489BF80010C27BCDE90021CDE9B3
:1047D0000289416C2A46022003F060F8BDE8FF5FC1
:1047E000FBF73EBF1A2000901D2311221F2101203C
:1047F00005F052FFD24890F8230044282AD2DFE87F
:1048000000F02222222222222222222222222222DC
:10481000222224242424242424242929292929293E
:1048200029292929292929292929292929292929F8
:104830002929262626262626262628282828282806
:10484000282828282828012504E0032502E003253C
:1048500000E0022553468BF801A0BA489BF80010EF
:10486000C27BCDE90021CDE90289416C2A460220B4
:1048700003F014F8BDE8FF5FFBF7F2BE1D200090C7
:1048800013230E220D21012005F006FF02225346BC
:104890008BF801A0AB489BF80010C47BCDE9004128
:1048A000CDE90289416C022002F0F8FFBDE8FF5F0C
:1048B000FBF7D6BE222318220A210020CDF8009053
:1048C00005F0EAFE9F4E707B10B3012865D00228E8
:1048D00075D003287FF401AF1A201F2200900F2308
:1048E0001146012005F0D8FE954890F841001A289D
:1048F0006AD2DFE800F0F4F4F4F4F4F4F3F3F369CB
:104900006969696969696969696969F2F2F2F2F16B
:104910000E2000900D2316221421012005F0BCFE6C
:10492000F07B38B11F231A4619460220009405F087
:10493000B3FE99E6706CA8B101281CD0022823D0E0
:104940000328F6D102231A4601211846CDF800802B
:1049500005F0A2FE04B00122BDE8F05F114602207E
:1049600005F0D2BE0F200346009016221F21022020
:1049700005F092FE78E602231E2204211846CDF8A7
:10498000008005F089FE6FE602231E2200211846F2
:10499000CDF8008005F080FE66E6142000900E231E
:1049A0001B221221012005F077FEF07B40B11F236E
:1049B0001A4619460220009405F06EFE54E6EBE01C
:1049C000706C1A28B5D200E023E1DFE800F00D1585
:1049D0001D252D353D454D555D656D757D8991993B
:1049E000A1A9B1BDC5CDD5DD1F230A221C210220FE
:1049F000009405F051FE37E61F230B221C210220F4
:104A0000009405F049FE2FE61F230C221C210220F2
:104A1000009405F041FE27E60B230A221C21022008
:104A2000009405F039FE1FE60C230B221C21022006
:104A3000009405F031FE17E60A230C221C21022007
:104A4000009405F029FE0FE61F230A2212210220FE
:104A5000009405F021FE07E61F230B2212210220FD
:104A6000009405F019FEFFE51F230C2212210220FD
:104A7000009405F011FEF7E51F230A2217210220FA
:104A8000009405F009FEEFE51F230B2217210220F9
:104A9000009405F001FEE7E51F230C2217210220F8
:104AA000009405F0F9FDDFE51F230C2217210220F9
:104AB000009405F0F1FDD7E51F230A2218210220FA
:104AC000009405F0E9FDCFE51F230B2218210220F9
:104AD000009405F0E1FDC7E59AE097E094E091E0ED
:104AE0001F230C2218210220009405F0D5FDBBE500
:104AF0001F230C2218210220009405F0CDFDB3E500
:104B00001F230A221A210220009405F0C5FDABE5FF
:104B10001F230B221A210220009405F0BDFDA3E5FE
:104B20001F230C221A210220009405F0B5FD9BE5FD
:104B30001F230C221A210220009405F0ADFD93E5FD
:104B4000B8250020140000200A230F22172102207C
:104B5000009405F0A1FD87E50B230F221721022009
:104B6000009405F099FD7FE50C230F221721022008
:104B7000009405F091FD77E51F230F2217210220F5
:104B8000009405F089FD6FE51F231A460F210220CE
:104B9000009405F081FD67E51A201F2200900D2387
:104BA0001146012005F078FDF74890F841001A28D9
:104BB00015D2DFE800F00D0D0D0D0D0D0F0F0F14C8
:104BC00014141414141414141414141111111113B2
:104BD000012504E0032502E0032500E002255346F9
:104BE0008BF801A09BF80000F17BCDE90010CDE926
:104BF00002892A460220716C02F050FEBDE8FF5F78
:104C0000FBF72EBD012504E0032502E0032500E0AB
:104C1000022553468BF801A09BF80000F17BCDE9FB
:104C20000010CDE902892A460220716C02F036FE9E
:104C3000BDE8FF5FFBF714BD02200090222318227D
:104C40000A21002005F028FDD04EB07B08B30128D2
:104C500064D0022874D0032885D11A201F22009026
:104C60000F231146012005F017FDC74890F84700B3
:104C70001A286AD2DFE800F0F4F4F4F4F4F4F3F361
:104C8000F3696969696969696969696969F2F2F26F
:104C9000F2F10E2000900D2316221421012005F0C0
:104CA000FBFCF07B38B11F231A4619460220009402
:104CB00005F0F2FCD8E4706CA8B101281CD00228E1
:104CC00023D00328F6D102231A4601211846CDF835
:104CD000008005F0E1FC04B00122BDE8F05F114660
:104CE000022005F011BD0F200346009016221F215F
:104CF000022005F0D1FCB7E402231E22042118464D
:104D0000CDF8008005F0C8FCAEE402231E2200218D
:104D10001846CDF8008005F0BFFCA5E414200090F3
:104D20000E231B221221012005F0B6FCF07B40B1BE
:104D30001F231A4619460220009405F0ADFC93E4A7
:104D4000E7E0706C1A28B5D200E024E1DFE800F05B
:104D50000D151D252D353D454D555D656D757D89BF
:104D60009199A1A9B1B9C1C9D1D91F230A221C2186
:104D70000220009405F090FC76E41F230B221C21F6
:104D80000220009405F088FC6EE41F230C221C21F5
:104D90000220009405F080FC66E40B230A221C210B
:104DA0000220009405F078FC5EE40C230B221C2109
:104DB0000220009405F070FC56E40A230C221C210A
:104DC0000220009405F068FC4EE41F230A22122101
:104DD0000220009405F060FC46E41F230B22122100
:104DE0000220009405F058FC3EE41F230C221221FF
:104DF0000220009405F050FC36E41F230A221721FC
:104E00000220009405F048FC2EE41F230B221721FA
:104E10000220009405F040FC26E41F230C221721F9
:104E20000220009405F038FC1EE41F230C221721F9
:104E30000220009405F030FC16E41F230A221821FA
:104E40000220009405F028FC0EE41F230B221821F9
:104E50000220009405F020FC06E49BE098E090E03E
:104E60008DE01F230C2218210220009405F014FC71
:104E700033E41F230C2218210220009405F00CFCBF
:104E80002BE41F230A221A210220009405F004FCBF
:104E900023E41F230B221A210220009405F0FCFBBF
:104EA0001BE41F230C221A210220009405F0F4FBBE
:104EB00013E41F230C221A210220009405F0ECFBBE
:104EC0000BE40A230F2217210220009405F0E4FBD3
:104ED00003E40B230F2217210220009405F0DCFBD2
:104EE00004E40C230F2217210220009405F0D4FBC8
:104EF00005E41F230F2217210220009405F0CCFBAC
:104F000006E41F231A460F210220009405F0C4FB7B
:104F100007E41A201F2200900D231146012005F0FE
:104F2000BBFB194890F847001A2815D2DFE800F0BB
:104F30000D0D0D0D0D0D0F0F0F141414141414146A
:104F400014141414141111111113012504E0032574
:104F500002E0032500E0022553468BF801A09BF8F0
:104F60000000F17BCDE90010CDE902892A4602203C
:104F7000716C02F093FCBDE8FF5FFBF771BB01258C
:104F800009E0032507E00000B825002014000020F8
:104F9000032500E0022553468BF801A09BF8000092
:104FA000F17BCDE90010CDE902892A460220716C1F
:104FB00002F074FCBDE8FF5FFBF752BB7FB519221E
:104FC0000021052005F080FD1B220121052005F0B0
:104FD0007BFDFF220221052005F076FD0024102034
:104FE000009018231B221921002005F055FB0E20EC
:104FF00000900D2316220C21012005F04DFB0A4ADA
:105000000121A2F13C001378C57BCDE90131009567
:1050100003915378416C2246022002F03FFCBDE828
:105020007F40FBF71DBB00005000002008B510209A
:10503000009018231B221921002005F02DFB0E20C3
:1050400000900D2316220C21012005F025FB0A48B3
:10505000C07B40B11920034600900E221F21022080
:1050600005F01AFB08BD1F200346024601460090CA
:10507000022005F011FB08BD1400002038B50E20F9
:1050800000901E230A221C21002005F005FB1F248E
:105090002346224621460120009405F0FDFA1649D8
:1050A000486C01280CD0022809D1C87BD8B1162041
:1050B0001F22009015231146022005F0EDFA38BD9D
:1050C000C87B40B11A2000900E231D221F21022010
:1050D00005F0E2FA38BD1F231A4619460220009453
:1050E00005F0DAFA38BD1F231A461946022000944B
:1050F00005F0D2FA38BD0000140000202DE9FF5F52
:1051000000250AF0B3FBDFF8F8AF9AF80100012898
:1051100002D0022810D01EE01B220021052005F03D
:10512000D3FC0D220121052005F0CEFCFF22022137
:10513000052005F0C9FC0EE019220021052005F02C
:10514000C3FC1B220121052005F0BEFCFF22022129
:10515000052005F0B9FC9AF801000027012801D1CB
:105160008AF80F709AF80700DFF8949F1F2413261F
:105170004FF0040809F13C094FF01A0B082831D20E
:10518000DFE810F00800D500E70130002203EB084B
:10519000B60E7C101D20009019231722122100202A
:1051A00005F07AFA9AF8080005281BD2DFE800F02B
:1051B0000339537C96001B2000900E2315221F21DB
:1051C000012005F069FADAF8440068B1012809D134
:1051D0009AF80F00E0B11F231A46194602200094E6
:1051E00005F05AFABDE8FF9F9AF80F0038B11F2367
:1051F0001A4619460220009405F04EFAF2E70323FE
:1052000015221F210220CDF8008005F045FAE9E7BC
:1052100003200346009015221F21022005F03CFACE
:10522000E0E701201F231B221721009005F034FA2C
:1052300001221146104605F067FADAF8440002F040
:1052400089FAFBF70DFA04B00D22BDE8F05F0021EA
:10525000012005F053BB022000901F231B221721C1
:10526000012005F019FA01221146104605F04CFA0A
:10527000434689F80180012099F800109AF80F2020
:10528000CDE90110009203902A460220DAF844107A
:1052900002F004FBFBF7E4F904B00C22BDE8F05F78
:1052A0000021012005F02ABB01201F231B220C2115
:1052B000009005F0F1F901221146104605F024FA9C
:1052C000DAF8440002F0A2F9FBF7CAF904B01022A0
:1052D000BDE8F05F0021012005F010BB0220009026
:1052E0001F231B220C21012005F0D6F901221146B3
:1052F000104605F009FA434689F80180012099F823
:1053000000109AF80F20CDE90110009203902A4670
:105310000220DAF8441002F0C1FAFBF7A1F904B058
:105320000F22BDE8F05F0021012005F0E7BA01255A
:10533000162318220C210020009505F0ADF99AF8EB
:10534000090000B301283BD0022875D003287FF460
:1053500055AF142316220C210120CDF800B005F022
:105360009BF9DAF84400012867D00228EFD19AF8B7
:105370000F0000287ED01F231A46194602200094F1
:1053800005F08AF92EE719200D2300901A460A210C
:10539000012005F081F9434689F8018099F8000061
:1053A0009AF80F10CDE90010CDE902753A460220B7
:1053B000DAF8441002F072FABDE8FF5FFBF750B96B
:1053C0000D2000901C230A220B21012005F064F916
:1053D0009AF80F0038B11F231A461946022000948C
:1053E00005F05AF9FEE6DAF844000528CAD2DFE8EB
:1053F00000F0030B131B250002220023012110469D
:10540000009705F049F9EDE6022100230422084641
:10541000009705F041F9E5E6002308220421022067
:10542000009705F039F9DDE6002306220921022064
:10543000009705F031F9D5E60FE06EE0022309226E
:1054400001211846009705F027F904B00122BDE8B4
:10545000F05F1146022005F057B90A20024600907D
:105460001B230D21012005F017F9DAF8440090B153
:10547000022800E065E021D0012832D00328B1D114
:105480009AF80F00C0B31F231A4619460220009451
:1054900005F002F9A6E69AF80F0038B11F231A4664
:1054A00019460220009405F0F7F89BE60823152220
:1054B0001F210220009505F0EFF893E69AF80F00FF
:1054C00038B11F231A4619460220009405F0E4F86B
:1054D00088E6082316221F210220009505F0DCF83B
:1054E00080E69AF80F0040B11F231A4619460220A1
:1054F000009405F0D1F875E607E008230E221F217D
:105500000220009505F0C8F86CE602200823152259
:105510001F21009005F0C0F864E69AF80F0038B13A
:105520001F231A4619460220009405F0B5F859E6E3
:105530001C2000901B2319221F21022005F0ACF82B
:1055400050E60A230C221F210220009605F0A4F841
:1055500048E61C261F23324623210020009605F032
:105560009BF89AF80A00062894D2DFE800F0033985
:1055700057B5D3F10C20024600901D231F210120B6
:1055800005F08AF8DAF8440001280CD002288CD102
:105590009AF80F00D8B11F231A461946022000942A
:1055A00005F07AF81EE69AF80F0038B11F231A4664
:1055B00019460220009405F06FF813E60E231D2211
:1055C0001F210220CDF800B005F066F80AE616208B
:1055D0001F22009015231146022005F05DF801E618
:1055E00011200090102312221321012005F054F8FD
:1055F000434689F80180012099F800109AF80F209D
:10560000CDE90110009203902A460220DAF84410F6
:1056100002F044F9BDE8FF5FFBF722B817251A2313
:1056200012220D210120009505F036F89AF80F009E
:1056300038B11F231A4619460220009405F02CF8B1
:10564000D0E5DAF84400A0B101281AD0022821D010
:10565000032827D004282ED0052834D00628A1D12D
:10566000142000900E230D221F21022005F014F8B3
:10567000B8E51F231A4619460220009605F00CF8DB
:10568000B0E512201F2300901A461946022005F0AB
:1056900003F8A7E51F231A4619460220009504F0D7
:1056A000FBFF9FE50F201F220090172311460220C9
:1056B00004F0F2FF96E51F220E231146022000950A
:1056C00004F0EAFF8EE50D20009011231B221F211C
:1056D000022004F0E1FF85E51920009013230A223F
:1056E0001F21012004F0D8FF434689F801800120E2
:1056F00099F800109AF80F20CDE90110009203905C
:105700002A460220DAF8441002F0C8F8BDE8FF5F2C
:10571000FAF7A6BF0E200090192313220C210120B6
:1057200004F0BAFF01220221104604F0EDFFDAF87E
:10573000440001280DD002289AD19AF80F00E0B158
:105740001F231A4619460220009404F0A5FF49E5DC
:105750001CE09AF80F0038B11F231A4619460220A0
:10576000009404F099FF3DE50E231D221F21022025
:10577000CDF800B004F090FF34E516201F22009011
:1057800015231146022004F087FF2BE50E20009020
:105790000D2316220C21012004F07EFF434689F8D8
:1057A000018099F800009AF80F400121CDE90040EE
:1057B000CDE902713A460220DAF8441002F06EF8A0
:1057C000BDE8FF5FFAF74CBF0120009022231822AA
:1057D0000D21002004F060FF9AF80B000628B6D2D5
:1057E000DFE800F0033856FEFDFC0E2000900D238C
:1057F00016221421012004F04FFF9AF80F0038B14F
:105800001F231A4619460220009404F045FFE9E4DC
:10581000DAF8440060B1012813D0022897D114208F
:1058200000900E2319221F21022004F035FFD9E435
:105830000F200346009016221F21022004F02CFFA7
:10584000D0E41920009013230A221F21022004F023
:1058500023FFC7E40E200090142312221B210120F5
:1058600004F01AFF0222434689F8018099F80010DB
:105870009AF80F40CDE9011701200390009402200F
:10588000DAF8441002F00AF8BDE8FF5FFAF7E8BE64
:10589000142000900E231B221221012004F0FCFE94
:1058A0009AF80F0038B11F231A46194602200094B7
:1058B00004F0F2FE96E4DAF844004828A7D2DFE8C4
:1058C00000F02434435362728195A4B4FDFCFBFACA
:1058D000F9F8F7F6F5F4F3F2F1F0EFEEEDECEBEAB0
:1058E000E9E8E7E6E5E4E3E2E1E0DFDEDDDCDBDAA0
:1058F000D9D8D7D6D5D4D3D2D1D0CFCECDCCCBCA90
:10590000C9C8C7C6C5C4C3C2C1C0112000901F23E7
:105910000A221C21022004F0BFFE04B00122BDE8CF
:10592000F05F1146022004F0EFBE1F230A221C2163
:105930000220009604F0B0FE04B00122BDE8F05F42
:105940001146022004F0E0BE112000901F230B221C
:105950001C21022004F0A0FE04B00122BDE8F05F8B
:105960001146022004F0D0BE1F230B221C2102206E
:10597000009604F091FE04B00122BDE8F05F1146EC
:10598000022004F0C1BE112000901F230C221C2114
:10599000022004F081FE04B00122BDE8F05F114650
:1059A000022004F0B1BE1F230C221C21022000960D
:1059B00004F072FE04B00122BDE8F05F114602203F
:1059C00004F0A2BE11201F2300901A461C210220C1
:1059D00004F062FE01220021022002E0F2E3F2E381
:1059E000F2E304B0BDE8F05F04F08EBE1F231A4658
:1059F0001C210220009604F04FFE04B00122BDE8F5
:105A0000F05F0021022004F07FBE112000900B23E4
:105A10000A221C21022004F03FFE04B00122BDE84E
:105A2000F05F0221084604F06FBE0B230A221C21FE
:105A30000220009604F030FE01220221084604B044
:105A40003DE0CBE3B6E3C0E3ABE3A1E397E38EE352
:105A50007DE36CE35BE34EE33DE32CE31BE30BE30D
:105A6000FAE2EAE2D9E2C9E2B8E2A8E297E287E222
:105A700076E266E255E245E234E224E213E203E232
:105A8000F2E1E2E1D1E1C1E1B0E1A0E18FE17FE14A
:105A90006EE15EE14DE13DE12CE11CE10BE1FBE05B
:105AA000EAE0DAE0C9E0B9E0A8E098E087E077E072
:105AB00066E056E045E035E024E014E003E0BDE8B0
:105AC000F05F04F021BE112000900C230B221C215A
:105AD000022004F0E1FD04B00122BDE8F05F0221E4
