:020000040800F2
:10000000F82E0020C90100081DBA00088DAD0008B7
:10001000D5010008D7010008D90100080000000040
:1000200000000000000000000000000005FA0008C9
:10003000DD01000800000000D9CD000855FD0008D2
:10004000E3010008E3010008E3010008E301000800
:10005000E3010008E3010008E3010008E3010008F0
:10006000E3010008E3010008E30100089D06000821
:10007000E3010008E3010008E3010008E3010008D0
:10008000E3010008E3010008E3010008E3010008C0
:10009000E3010008E3010008E3010008E3010008B0
:1000A000E3010008E3010008E3010008E3010008A0
:1000B00071FF000875FF0008E3010008E301000874
:1000C000E3010008E3010008E3010008E301000880
:1000D000E301000891050108E3010008E3010008BD
:1000E000E3010008E3010008E301000800F002F862
:1000F00000F05AF80AA090E8000C82448344AAF168
:100100000107DA4501D100F04FF8AFF2090EBAE865
:100110000F0013F0010F18BFFB1A43F0010318473B
:1001200088490100A84901000A444FF0000C10F86A
:10013000013B13F0070408BF10F8014B1D1108BF65
:1001400010F8015B641E05D010F8016B641E01F805
:10015000016BF9D113F0080F1EBF10F8014BAD1C55
:100160000C1B09D16D1E58BF01F801CBFAD505E073
:1001700014F8016B01F8016B6D1EF9D59142D6D3CD
:10018000704700000023002400250026103A28BFF5
:1001900078C1FBD8520728BF30C148BF0B607047F9
:1001A0001FB51FBD10B510BD00F0A8F91146FFF72F
:1001B000F7FF11F08FFB00F0C6F903B4FFF7F2FF71
:1001C00003BC00F0C7F90000094880470948004710
:1001D000FEE7FEE7FEE7FEE7FEE7FEE7FEE7FEE7F7
:1001E000FEE7FEE704480549054A064B7047000054
:1001F00065FD0008ED000008F8260020F82E00201C
:10020000F82A0020F82A002010B54C1084EA530484
:1002100004D54042C1F1000138BF491E1B4204D53C
:100220005242C3F1000338BF5B1E00F0DCF814F04B
:10023000804F04D04042C1F1000138BF491E14F084
:10024000004F04D05242C3F1000338BF5B1E10BD03
:10025000032A40F2308010F0030C00F0158011F8F2
:10026000013BBCF1020F624498BF11F801CB00F8CA
:10027000013B38BF11F8013BA2F1040298BF00F81E
:1002800001CB38BF00F8013B11F0030300F02580DB
:10029000083AC0F0088051F8043B083A51F804CB02
:1002A000A0E80810F5E7121D5CBF51F8043B40F8C8
:1002B000043BAFF30080D20724BF11F8013B11F8D3
:1002C00001CB48BF11F8012B24BF00F8013B00F817
:1002D00001CB48BF00F8012B704710B5203AC0F0A1
:1002E0000B80B1E81850203AA0E81850B1E8185037
:1002F000A0E81850BFF4F5AF5FEA027C24BFB1E874
:100300001850A0E8185044BF18C918C0BDE81040E4
:100310005FEA827C24BF51F8043B40F8043B08BFED
:100320007047D20728BF31F8023B48BF11F8012BB4
:1003300028BF20F8023B48BF00F8012B704702F0AD
:10034000FF0343EA032242EA024200F002B84FF000
:1003500000020429C0F0128010F0030C00F01B8092
:10036000CCF1040CBCF1020F18BF00F8012BA8BFA0
:1003700020F8022BA1EB0C0100F00DB85FEAC17C64
:1003800024BF00F8012B00F8012B48BF00F8012B17
:1003900070474FF0000200B5134694469646203948
:1003A00022BFA0E80C50A0E80C50B1F12001BFF42E
:1003B000F7AF090728BFA0E80C5048BF0CC05DF894
:1003C00004EB890028BF40F8042B08BF704748BFE2
:1003D00020F8022B11F0804F18BF00F8012B704756
:1003E00070477047704753EA020C00F069802DE9AE
:1003F000F04B4FF00006002B1FBFB3FA83F503FA52
:1004000005F424FA05F65E4012BF1643B2FA82F5EF
:1004100002FA05F4C5F120051EBF22FA05FC44EAE4
:100420000C04203556EA044C4FEA144418BF641CEF
:100430004FF000084FF00009904271EB030C39D3E4
:10044000002919BFB1FA81F701FA07F6B0FA80F76F
:1004500000FA07F6C7F120071EBF20FA07FC46EA9C
:100460000C062037B6FBF4FCA7EB0507103F07F09E
:100470001F0BCBF120060CFA0BFB2CFA06F644BF3F
:10048000B3460026202FA4BF5E464FF0000B5BEA68
:10049000060C08BF4FF0010B19EB0B09ABFB027CFC
:1004A00048EB0608C01B06FB02CC0BFB03CC71EB30
:1004B0000C01C1E70B46024641464846BDE8F08BB9
:1004C00013B54FF000004FF00001AFF30080BDE81E
:1004D0001C40704710B500F009F8006810BD10B559
:1004E000044600F003F8046010BD000000487047A7
:1004F0009826002000487047982600207546FFF790
:10050000F9FFAE4605006946534620F007008546D0
:1005100018B020B5FFF766FEBDE820404FF000069A
:100520004FF000074FF000084FF0000B21F00701DB
:10053000AC46ACE8C009ACE8C009ACE8C009ACE81E
:10054000C0098D4670470446AFF300802046FFF790
:1005500034FE000001491820ABBEFEE72600020071
:100560007047014600201A2940D2DFE801F00E0D45
:100570000F11131517191B1D1F21232527292B2D9B
:100580002F31333537393B3D01207047022070470A
:1005900003207047042070470520704706207047ED
:1005A0000720704708207047092070470A207047CD
:1005B0000B2070470C2070470D2070470E207047AD
:1005C0000F2070471020704711207047122070478D
:1005D000132070471420704715207047162070476D
:1005E000172070471820704719207047FF20704768
:1005F00010B50FF0B7FB0CF0DBFF08F01DFC08F0A6
:10060000F5F90BF00CFABDE810400FF07DBB0000CF
:1006100070B5124A0124104D11784FF47A760028F3
:100620000DD0012816D1002914D0002010700FF031
:100630001BFA2C7030460CF0A9FB0BF059FA01297B
:1006400008D014700FF010FA2C7030460CF09EFB9E
:100650000BF04EFA70BD00001500002004250020AC
:1006600030B5002000210A4B0A4C5A5C2D2A06D0D6
:100670002B2A04D034F8115002FB050080B2491C2B
:10068000C9B20429F1D30449A1F8420030BD0000E9
:100690008C050020BC4201081400002010B5022087
:1006A00000F09EF8002804D0BDE81040022000F0C1
:1006B00001B810BDC10002D5024908607047024967
:1006C000486070470404024000000240002904D042
:1006D000016841F001010160704701684FF6FE7248
:1006E000114001607047000001684FF6FE72114032
:1006F00001600021016041608160C1603649364A75
:100700000839904204D1486840F00F0048607047B3
:10071000314A1432904204D1486840F0F0004860F9
:1007200070472D4A2832904204D1486840F47060E6
:1007300048607047284A3C32904204D1486840F4EF
:10074000704048607047244A5032904204D1486853
:1007500040F47020486070471F4A6432904204D1D0
:10076000486840F47000486070471B4A78329042F5
:1007700004D1486840F0706048607047174A111F04
:10078000904204D1086840F00F0008607047134A97
:100790001432904204D1086840F0F00008607047BD
:1007A0000E4A2832904204D1086840F47060086014
:1007B00070470A4A3C32904204D1086840F47040C5
:1007C00008607047054A50329042FAD1086840F4F8
:1007D00070200860704700000800024008040240D2
:1007E00002460020D10002D50449096801E004490D
:1007F0000968114200D00120704700000004024047
:100800000000024030B5026847F6F0739A430C6A64
:100810008B682343D1E904452C4323438C6923434C
:10082000CC6923434C6A23438C6A234313430360FC
:10083000CA6842600A6882604968C16030BD0000D1
:1008400070B50E46DDE90415134C002804EBC30413
:1008500005D0904208D3204611F039F919E020461E
:1008600011F02EF9002070BD304490420BD2A078D8
:10087000012803D0204611F023F90AE0204629463A
:1008800011F041F905E0A078012802D1204611F0CD
:100890001EF9A07870BD0000AC05002070B50E46B2
:1008A000DDE90415134C002804EBC30405D0904285
:1008B00008D8204611F00BF919E0204611F000F994
:1008C000002070BD801B90420BD3A078012803D07C
:1008D000204611F0F5F80AE02046294611F013F9F8
:1008E00005E0A078012802D1204611F0F0F8A078A8
:1008F00070BD0000AC05002070B5124D4FF4805162
:10090000284608F01BFC104C2070E914284608F01B
:1009100015FC60700020A31ED91E225C62B11D5C14
:100920000A78AA430A70401CC0B20228F5D308789E
:100930000649A1F8780170BD1A5C0D782A430A7047
:10094000F1E70000000C01409D000020D81E0020AF
:100950002DE9F04188B007460C460A21B4FBF1F5B9
:10096000B4FBF1F001FB10461D22002105200AF026
:1009700079F81122012105200AF074F80D220221D4
:1009800005200AF06FF8012F19D03B48641E417D05
:100990003A48012900EB840429D0D4F8E00813F088
:1009A000B1F80590D4F8600913F0ACF80690D4F8CB
:1009B000E00913F0A7F8079005A800F065F8FF22FA
:1009C000002104200AF04EF8FF22012104200AF041
:1009D00049F8EDB32A46022104200AF043F83246D2
:1009E000032104200AF03EF808B0BDE8F081244F4E
:1009F000D4F87C06394612F0A7FFDFF88880D8F8D3
:100A0000141013F02FF913F07DF805903946D4F83F
:100A1000140812F099FFD8F8841013F023F913F09A
:100A200071F8079000240094019402940394042325
:100A300002222046059906F031FF1E200346024699
:100A400001460090012009F0F5FD0094019400E0BA
:100A50000BE002940222039404231046079906F047
:100A60001DFF05A800F010F8A9E7FF2202210420CD
:100A700009F0F8FFB3E7000014000020580F002031
:100A80000000C842980B00202DE9FF4705460020D2
:100A90003A4A3B4C3B4E534255F82010914203D208
:100AA000718F41F00101718755F82010CF18A742CE
:100AB00004D2718F41F0020171871EE0324FDFF8DE
:100AC000CCC00F44674504D2718F41F00401718797
:100AD00013E02F4FDFF8BCC00F44674504D2718F7D
:100AE00041F00801718708E02B4F39442B4FB94280
:100AF00003D2718F41F010017187401CC0B20328EE
:100B0000CAD30024DFF89890DFF898A000274FF0B0
:100B1000010855F8240012F044FB4A46534612F0EF
:100B200099FB12F079FA014696F83A000097CDE960
:100B30000178039004230022204606F0CBFF641CBA
:100B4000E4B2032CE5D3708F00F0200100F0100216
:100B5000114301D1000705D510220321012009F01E
:100B60009BFE04E00F220321012009F095FE04B052
:100B70000321BDE8F047012009F01ABEA08601005C
:100B8000A0BB0D0014000020C0BDF0FF4054890040
:100B9000806967FF804A5D05001F0AFA00E9A435F5
:100BA0009A9999999999B93F2DE9F04788B080466B
:100BB0000C460A21B4FBF1F7B4FBF1F001FB104A3B
:100BC0001D220021052009F04DFF112201210520E1
:100BD00009F048FF0D220221052009F043FF9A4841
:100BE000641E0025994E4FF01E0900EB8404B8F1F5
:100BF000010F5BD09648407D01287DD03146D4F866
:100C00007C0612F0A1FE12F07DFF05903146D4F86B
:100C1000480712F099FE12F075FF06903146D4F89D
:100C2000140812F091FE12F06DFF079000950195E7
:100C300002950395042302220020059906F02EFE5A
:100C4000019500950295039504230222012006993F
:100C500006F024FE029502220095019503950423D7
:100C60001046079906F01AFE13220321012009F00D
:100C700013FE0321012009F09BFDFF220021042027
:100C800009F0F0FEFF220121042009F0EBFE002F05
:100C90007DD03A460221042009F0E4FE08B0524615
:100CA000BDE8F0470321042009F0DCBE6948007864
:100CB000F0B33146D4F8180412F046FE12F022FFC9
:100CC00005903146D4F8B00512F03EFE12F01AFF3E
:100CD00007900095019502950395042302220020B8
:100CE000059906F0DBFD029504230222009501958B
:100CF00003950120079900E060E006F0CFFD1E2378
:100D00001A4619460220CDF8009009F093FC1222F1
:100D10000021012009F0C0FD01211222084609F03E
:100D2000BBFD0021012009F073FD0121084600E010
:100D300002E009F06DFDA0E73146D4F8180412F086
:100D400003FE12F0DFFE05903146D4F8E40412F001
:100D5000FBFD12F0D7FE06903146D4F8B00512F034
:100D6000F3FD12F0CFFE07900095019502950395D3
:100D7000042302220020059906F090FD019504232A
:100D800002220095029503950120069900E054E0A7
:100D900006F084FD02950222009501950395042337
:100DA0001046079906F07AFD12220321012009F06E
:100DB00073FD0321012009F0FBFC5EE73146D4F806
:100DC0007C0612F0C1FD12F09DFE05903146D4F86C
:100DD000140812F0B9FD12F095FE079000950195E8
:100DE00002950395042302220020059906F056FD82
:100DF0001E231A4619460120CDF8009009F01AFC6E
:100E00000295022200950195039504231046079947
:100E100006F044FD13220021012009F03DFD1322BC
:100E20000221012009F038FD0021012009F0C0FC59
:100E30000221012009F0BCFC1FE7FF22022104204F
:100E400009F010FE2AE70000580F00200000C842F9
:100E500014000020042500202DE9F04F91B0FE4C35
:100E600000276787FD480078002804D1FB484178B7
:100E700009B9807828B1E07E18B10220E07067746B
:100E8000E776F548E178F64D407FDFF8D8A3DFF844
:100E9000D8B3DFF8D893DFF8D883F64E12297DD285
:100EA000DFE811F01200E9009F01DC020405790679
:100EB000B10703088808CD08FF082B098609000A36
:100EC0005709440AD30A660B0E220021052009F0B7
:100ED000C9FD15220121052009F0C4FDFF220221D0
:100EE000052009F0BFFD0025DFF88C830DF13809DE
:100EF000032D09D2C5EBC50006EBC000006812F057
:100F000001FE49F8250007E0E07FC0B1D6F8C40033
:100F100012F0F8FD49F8250059F82500D749884214
:100F200003D2618F41F001016187D44949420144F4
:100F300041450BD2608F40F00200608722E0D6F876
:100F4000B80012F0DFFD49F82500E5E700EB0A01E3
:100F5000594504D2608F40F00400608712E0C84910
:100F60004218C8498A4204D2608F40F00800608766
:100F700008E0C5490144C548814203D2608F40F072
:100F8000100060876D1CEDB2042DB1D300254FF029
:100F90000108DFF8FCA2DFF8FCB200E051E059F8EC
:100FA000250012F0FEF852465B4612F053F912F09B
:100FB00033F8014694F83A000097CDE901780390A0
:100FC00004230022284607F0F7FA6D1CEDB2032D2A
:100FD000E3D3608F012803D10C22032109F05CFCCC
:100FE000608F811E0E2905D20D220321012009F0F8
:100FF00053FC06E0C00604D50E220321012009F0AF
:101000004BFC0321012009F0D3FBE07FE0B1D6F8CF
:10101000C40012F0F9FB52465B4612F01BF911F0C6
:10102000FBFF014694F83A000097CDE901780423CC
:1010300003900022184607F0BFFA0121032009F0AF
:1010400017FC11B0BDE8F08FD6F8B80012F0DCFB49
:1010500052465B4612F0FEF811F0DEFF014694F8AE
:101060003A000097CDE90178042303900022184646
:1010700007F0A2FAE5E70E220021052009F0F2FCB4
:1010800015220121052009F0EDFCFF220221052097
:1010900009F0E8FC0025DFF8E0810DF13809032DA7
:1010A00009D2C5EBC50006EBC000806812F02AFD2E
:1010B00049F8250007E0E07FC0B1D6F8C80012F07B
:1010C00021FD49F8250059F825006C49884203D2D2
:1010D000618F41F0010161876849494201444145FE
:1010E0000BD2608F40F00200608722E0D6F8BC008F
:1010F00012F008FD49F82500E5E700EB0A01594523
:1011000004D2608F40F00400608712E05C4942180E
:101110005C498A4204D2608F40F00800608708E092
:10112000594901445948814203D2608F40F0100070
:1011300060876D1CEDB2042DB1D30025DFF850A1FE
:10114000DFF850B14FF0010859F8250012F029F8E6
:1011500052465B4612F07EF811F05EFF014694F8AD
:101160003A000097CDE90178039004230022284635
:1011700007F022FA6D1CEDB2032DE5D3608F012834
:1011800003D10C22032109F087FB608F811E0E29F9
:1011900005D20D220321012009F07EFB06E0C006E6
:1011A00004D50E220321012009F076FB0321012042
:1011B00009F02EFBD6F8BC0012F026FB52465B4627
:1011C00012F048F811F028FF014694F83A00009711
:1011D000CDE90178042303900022184607F0ECF9CA
:1011E0002FE70E220021052009F03CFC15220121E9
:1011F000052009F037FCFF220221052009F032FC0E
:1012000000250DF13808032D09D2C5EBC50006EB0A
:10121000C000C06812F076FC48F8250007E0E07FC7
:10122000C8B1D6F8CC0012F06DFC48F8250058F88B
:1012300025001249884203D2618F41F00101618784
:101240000E49494242180C498A422CD2608F40F024
:101250000200608743E01FE014000020A10000208E
:10126000F4240020C0BDF0FF405489000425002074
:1012700000008080980B0020A0BB0D00A08601001C
:10128000806967FF804A5D05001F0AFA00E9A435FE
:101290009A9999999999B93FD6F8C00012F032FC01
:1012A00048F82500C3E700EB0A01594504D2608FD6
:1012B00040F00400608712E0FE494218FE498A426D
:1012C00004D2608F40F00800608708E0FB490144C9
:1012D000FB48814203D2608F40F0100060876D1C94
:1012E000EDB2042D8FD300254FF0010A58F82500E8
:1012F00011F057FFF34AF44B11F0ACFF11F08CFEE4
:10130000014694F83A000097CDE9017A039004234E
:101310000022284606F0DEFB6D1CEDB2032DE5D35E
:10132000DFF8A88398F80000B0B1B9F8140098B1BC
:10133000E07B88B12320034602460146009000204E
:1013400009F078F90025FF222946002009F0AAF9C2
:101350006D1CEDB2042DF6D398F801004FF01F0B71
:10136000B0B1B9F8140098B1E07B88B11F231A46D8
:1013700019460120CDF800B009F05CF90025FF22E4
:101380002946012009F08EF96D1CEDB2042DF6D32B
:1013900098F80200B0B1B9F8140098B1E07B88B1B8
:1013A0001F231A4619460220CDF800B009F042F971
:1013B0000025FF222946022009F074F96D1CEDB2C8
:1013C000042DF6D3608F00F0200100F010021143CD
:1013D00001D1000705D510220321012009F05CFA94
:1013E00004E00F220321012009F056FA0321012015
:1013F00009F0DEF9E07FD0B1D6F8CC0012F004FAA3
:10140000B04AB14B11F026FF11F006FE014694F8E8
:101410003A000097CDE9017A042303900022184690
:1014200006F058FB0121032009F022FA09E6D6F85C
:10143000C00012F0E9F9A34AA34B11F00BFF11F021
:10144000EBFD014694F83A000097CDE9017A0423B8
:1014500003900022184606F03DFBF2E50E22002123
:10146000052009F0FFFA15220121052009F0FAFAFA
:10147000FF220221052009F0F5FA002594480DF11C
:10148000180990F800A0BAF1000F07D01DB3012D84
:101490002CD0022D35D0032D3AD03CE0032D0ED2B6
:1014A000C5EBC50006EBC0008069404501D380F064
:1014B000004012F0B7FD09EBC50203C22BE0D6F8DD
:1014C000A800404501D380F0004012F0ABFD09EBCD
:1014D000C50203C21FE0D6F8A800404501D380F042
:1014E000004012F09FFDCDE9060114E0D6F8AC00F3
:1014F000404501D380F0004012F094FDCDE9080191
:1015000009E0D6F8B00012F08DFDCDE90A0102E045
:1015100000210C910D9109EBC5016E4A03C9821A95
:1015200071F1000203DA628F42F00102628709DB87
:10153000694A821A71F1000204DA608F40F00200F9
:1015400060877FE0644A821A71F100020ADB594A1F
:101550005242821A71F1000204DA608F40F00400F6
:1015600060876FE0534A5242821A71F100020ADB2F
:10157000524A5242821A71F1000204DA608F40F03E
:10158000080060875EE04D4A5242821A71F1000203
:1015900009DB524A821A71F1000204DA608F40F0CE
:1015A000100060874EE04D4A821A71F1000209DB9B
:1015B0004B4A821A71F1020204DA608F40F0200077
:1015C00060873FE0464A821A71F1020209DB454A10
:1015D000821A71F1170204DA608F40F040006087D0
:1015E00030E0404A821A71F1170209DB3E4A821A42
:1015F00071F1E80204DA608F40F08000608721E03A
:10160000394A821A71F1E8020BDB384A40F61813A6
:10161000821A71EB030204DA608F40F480706087F5
:1016200010E0324A40F61813821A71EB030209DB0C
:101630002F4A45F6F323801A994103DA608F40F46C
:10164000007060876D1CEDB2042DFFF41CAF002507
:101650004FF0040B4FF0010A09EBC50103C911F06B
:101660004FFD184A184B11F0F5FD12F079FC628F0E
:101670000297CDE9037ACDE9007B059202460B463D
:10168000284606F025FC6D1CEDB2032DE4D310486E
:10169000007878B3608F01287AD0102879D201229F
:1016A0000021104609F0F8F801210522084609F04A
:1016B000F3F820E0806967FF804A5D05001F0AFAA1
:1016C00000E9A4359A9999999999B93FA100002008
:1016D00004250020A086010040420F0000CA9A3B6A
:1016E00000E40B5400E876480010A5D400A0724E28
:1016F00000407A1005E009220221012009F0CCF80F
:10170000ADE0DDE90C0111F0FBFCFE4AFE4B11F0EF
:10171000A1FD12F025FC628F0297CDE9037ACDE995
:10172000007B059202460B46042006F0D1FB608F39
:10173000012807D010280BD201220321104609F0FE
:10174000ABF818E000220321012009F0A5F812E00F
:10175000FF2805D802220321012009F09DF80AE0A4
:1017600000F4807100F40070014304D0032211469C
:10177000012009F091F80024C4EBC40006EBC0007E
:101780008069404506D30121204608F0FDFF05E0B1
:101790002EE03DE0FF21204608F0F6FF641CE4B295
:1017A000032CE9D30321012009F002F801210320D1
:1017B00009F05EF80E220021032009F053F9FF2200
:1017C0000121032009F04EF9FF220221032009F034
:1017D00049F90321FF22084609F044F9D6F8A80088
:1017E0004045FFF447AC0121032008F0CDFF28E479
:1017F00000221146012009F04FF801210422084679
:1018000009F04AF808220221012009F045F826E0F3
:10181000FF280FD802220021012009F03DF8012104
:101820000622084609F038F80A220221012009F0B0
:1018300033F814E000F4807100F4007001430ED01E
:1018400003220021012009F027F801210722084680
:1018500009F022F80B220221012009F01DF80121D4
:10186000002009F005F80121084609F001F80121DE
:10187000022008F0FDFFD6F8A800404504D301215E
:10188000002008F081FF03E0FF21002008F07CFF2A
:10189000D6F8AC00404504D30121084608F074FF97
:1018A0009EE4FF21012008F06FFF99E40E22002141
:1018B000052009F0D7F815220121052009F0D2F8FA
:1018C000FF220221052009F0CDF800250DF1180BAB
:1018D000032D0DD2C5EBC50006EBC000C069404525
:1018E00001D380F0004012F09DFB0BEBC50203C258
:1018F000032D09D1D6F8AC00404501D380F000405B
:1019000012F090FBCDE90C010BEBC5017F4A03C936
:10191000821A71F1000203DA628F42F001026287DB
:1019200009DB7B4A821A71F1000204DA608F40F011
:10193000020060877BE0764A821A71F1000209DBBF
:10194000744A821A71F1000204DA608F40F00400D8
:1019500060876CE06F4A821A71F1000209DB6E4AFF
:10196000821A71F1000204DA608F40F0080060878B
:101970005DE0694A821A71F1000209DB674A821A46
:1019800071F1000204DA608F40F0100060874EE0D1
:10199000624A821A71F1000209DB614A821A71F10E
:1019A000020204DA608F40F0200060873FE05C4A6A
:1019B000821A71F1020209DB5A4A821A71F1170286
:1019C00004DA608F40F04000608730E0554A821AA8
:1019D00071F1170209DB544A821A71F1E80204DA44
:1019E000608F40F08000608721E04F4A821A71F1D9
:1019F000E8020BDB4D4A40F61813821A71EB030222
:101A000004DA608F40F48070608710E0474A40F647
:101A10001813821A71EB030209DB454A45F6F323DA
:101A2000801A994103DA608F40F4007060876D1C62
:101A3000EDB2042DFFF44CAF00254FF0040A4FF037
:101A400001090BEBC50103C911F05AFB2D4A2E4BBE
:101A500011F000FC12F084FA628F0297CDE903794D
:101A6000CDE9007A059202460B46284606F030FA88
:101A70006D1CEDB2032DE4D3DDE90C0111F040FB48
:101A8000204A214B11F0E6FB12F06AFA628F0297AE
:101A9000CDE90379CDE9007A059202460B46042090
:101AA00006F016FA608F012807D010280BD2052205
:101AB0000321012008F0F0FE18E004220321012098
:101AC00008F0EAFE12E0FF2805D8062203210120D3
:101AD00008F0E2FE0AE000F4807100F400700143B7
:101AE00004D007220321012008F0D6FE0024C4EB15
:101AF000C40006EBC000C06940451ED3012120464A
:101B000018E000009A9999999999B93FA086010027
:101B100040420F008096980000E1F50500CA9A3B0C
:101B200000E40B5400E876480010A5D400A0724EE3
:101B300000407A1008F028FE03E0FF21204608F05C
:101B400023FE641CE4B2032CD1D30321012008F04E
:101B50002FFE0121032008F08BFE0F22002103201D
:101B600008F080FFFF220121032008F07BFFFF2205
:101B70000221032008F076FF0321FF22084608F027
:101B800071FFD6F8AC004045FFF48AAE0121032076
:101B900008F0FAFD4AE40E220021052008F062FF59
:101BA00015220121052008F05DFFFF2202210520FA
:101BB00008F058FF00250DF11809032D09D2C5EBD7
:101BC000C50006EBC000006A12F02CFA09EBC50252
:101BD00003C2032D05D1D6F8B00012F023FACDE9E7
:101BE0000C0109EBC501FF4A03C9821A71F1000219
:101BF00003DA628F42F00102628709DBFA4A821A35
:101C000071F1000204DA608F40F0020060877BE02F
:101C1000F54A821A71F1000209DBF44A821A71F165
:101C2000000204DA608F40F0040060876CE0EF4A45
:101C3000821A71F1000209DBED4A821A71F1000289
:101C400004DA608F40F0080060875DE0E84A821A9D
:101C500071F1000209DBE74A821A71F1000204DA2D
:101C6000608F40F0100060874EE0E24A821A71F106
:101C7000000209DBE04A821A71F1020204DA608F85
:101C800040F0200060873FE0DB4A821A71F10202D7
:101C900009DBDA4A821A71F1170204DA608F40F028
:101CA0004000608730E0D54A821A71F1170209DBE3
:101CB000D34A821A71F1E80204DA608F40F08000A2
:101CC000608721E0CE4A821A71F1E8020BDBCD4A2F
:101CD00040F61813821A71EB030204DA608F40F4A5
:101CE0008070608710E0C74A40F61813821A71EBC3
:101CF000030209DBC44A45F6F323801A994103DA4B
:101D0000608F40F4007060876D1CEDB2042DFFF40D
:101D100054AF0025DFF8F4A2DFF8F4B204264FF048
:101D2000010809EBC50103C911F0EAF952465B4607
:101D300011F090FA12F014F9628F0297CDE903784E
:101D4000CDE90076059202460B46284606F0C0F81B
:101D50006D1CEDB2032DE4D3DDE90C0111F0D0F9D7
:101D600052465B4611F076FA12F0FAF8628F02974B
:101D7000CDE90378CDE90076059202460B460420B2
:101D800006F0A6F8608F012807D010280BD2092290
:101D90000321012008F080FD18E008220321012022
:101DA00008F07AFD12E0FF2805D80A22032101205D
:101DB00008F072FD0AE000F4807100F40070014345
:101DC00004D00B220321012008F066FD032101202D
:101DD00008F0EEFC0121032008F04AFD102200214A
:101DE000032008F03FFEFF220121032008F03AFE05
:101DF000FF220221032008F035FE0321FF220846BE
:101E000008F030FEF3E40E220021052008F02AFE3F
:101E100015220121052008F025FEFF2202210520C0
:101E200008F020FE002406ADC4EBC40006EBC000A1
:101E3000406A404501D380F0004012F0F3F805EB12
:101E4000C40203C2009701970297039755F8341014
:101E500004230322204605F021FD641CE4B2032C78
:101E6000E2D30024C4EBC40006EBC000406A404546
:101E700004D30121204608F087FC03E0FF2120461F
:101E800008F082FC641CE4B2032CEBD30321012094
:101E900008F08EFC0E220221042008F0E3FD0C2243
:101EA0000321042008F0DEFDA1E40E22002105201C
:101EB00008F0D8FD15220121052008F0D3FDFF22EE
:101EC0000221052008F0CEFD19220121002008F092
:101ED000C9FD0F220221002008F0C4FDD6F8B4008D
:101EE00010F0FF4F07D040451AD380F0004011F0AA
:101EF000EDFD01B217E01E220021012008F0B2FD25
:101F000001211E22084608F0ADFD1E2202210120FB
:101F100008F0A8FD1E220321012008F0A3FD0BE01C
:101F200011F0D4FD01B20097019702970423032218
:101F30000120039705F0B2FCD6F8B400404504D365
:101F40000121084608F020FC03E0FF21012008F0F1
:101F50001BFCD6F8E00010F0FF4F16D011F0B6FDD4
:101F6000014604230097019702970222184603971F
:101F700005F094FC0C220021032008F073FDFF22E1
:101F80000121032008F06EFD31E41222002104201B
:101F900008F068FD12220121042008F063FD1222DE
:101FA0000221042008F05EFD12220321042008F023
:101FB00059FDDFE70E220021052008F053FD17220E
:101FC0000121052008F04EFDFF220221052008F026
:101FD00049FD00210E22084608F044FD1922012186
:101FE000002017E0A086010040420F008096980074
:101FF00000E1F50500CA9A3B00E40B5400E876487E
:102000000010A5D400A0724E00407A109A999999B8
:102010009999B93F08F026FDFF220221002008F01F
:1020200021FD21220321002008F01CFD286805F075
:10203000ABFE00220421012008F02EFC30E40E2229
:102040000021052008F00EFD17220121052008F0CF
:1020500009FDFF220221052008F004FD012008F0FF
:10206000FDF9012008F010FA00210E22084608F0C0
:10207000F9FC19220121002008F0F4FCFF220221C2
:10208000002008F0EFFC22220321002008F0EAFCE7
:10209000686805F079FE00220421012008F0FCFBAD
:1020A00003E40E220021052008F0DCFC17220121A8
:1020B000052008F0D7FCFF220221052008F0D2FC01
:1020C00000210E22084608F0CDFC1A220121002032
:1020D00008F0C8FCFF220221002008F0C3FC2122E6
:1020E0000321002008F0BEFCA86805F04DFE012287
:1020F0000421104608F0D0FB4CE50E2200210520FB
:1021000008F0B0FC17220121052008F0ABFCFF22EB
:102110000221052008F0A6FC00210E22084608F046
:10212000A1FC1A220121002008F09CFCFF220221C0
:10213000002008F097FC22220321002008F092FCE6
:10214000E86805F021FE01220421104608F0A4FBF6
:1021500020E512220021052008F084FC162201212E
:10216000052008F07FFC0B220221052008F07AFCF4
:10217000FC4C0097019702970397216804230222E1
:10218000002005F08BFB12220021012008F084FBC7
:102190000097019702970397022261680423104673
:1021A00005F07CFB13220221012008F075FBF1E40D
:1021B0000DF02AFB0D220021052008F053FC0E2211
:1021C0000121052008F04EFC10220221052008F014
:1021D00049FC99F80000E44CE8B300970197029796
:1021E0000397042301220020216805F057FB009784
:1021F000019702970397012204231046A16805F076
:102200004DFB1E220021022008F02CFC1E22012181
:10221000022008F027FC02211E22084608F022FCBA
:102220001E220321022008F01DFC0021012008F0DD
:10223000EFFA0121084608F0EBFA132201210420ED
:1022400008F010FC14220221042008F00BFC1522D7
:102250000321042000E002E008F004FC9AE4009767
:10226000019702970397042301220020216805F0BB
:1022700015FB00970197029703970122042310464C
:10228000616805F00BFB0097019702970397042301
:1022900001220220A16805F001FB0321012008F0C2
:1022A00087FACAE70DF0B0FA0D220021052008F0E8
:1022B000D9FB0E220121052008F0D4FB10220221B7
:1022C000052008F0CFFBA94C0097019702970397D0
:1022D000042301220020216805F0E0FA009701970D
:1022E00002970397012204231046616805F0D6FA8D
:1022F0000097019702970397042301220220A16807
:1023000005F0CCFA0321012008F052FA0A2201213B
:10231000042008F0A7FB16220221042008F0A2FBEB
:1023200017220321042008F09DFB33E410B10DF0C7
:10233000D1FD2FE41D220021052008F093FB11227E
:102340000121052008F08EFB0D220221052008F056
:1023500089FB99F80000E8B3306B11F0B7FB014638
:10236000009701970297042302220020039705F0AB
:1023700095FAD6F8A00011F0A9FB01460097019745
:102380000297042302220120039705F087FA1E20FA
:102390000346024601460090022008F04BF9002156
:1023A000012008F035FA0121084608F031FA12221E
:1023B0000021012008F070FA01211222084608F0DD
:1023C0006BFA11220121042008F04CFB0D2202219E
:1023D000042000E007E008F045FB0B220321042065
:1023E00008F040FB0EE5306B11F070FB01460097E2
:1023F00001970297042302220020039705F04EFA6A
:10240000B06E11F063FB0146009701970297042319
:1024100002220120039705F041FAD6F8A00011F03E
:1024200055FB0146022200970197029704231046AC
:10243000039705F033FA0321012008F0B9F91222BD
:102440000321012008F028FABBE710B10DF0B2FC1F
:10245000D8E41D220021052008F004FB11220121EF
:10246000052008F0FFFA0D220221052008F0FAFAF3
:10247000607D012840D0706B11F028FB0146009769
:1024800001970297042302220020039705F006FA21
:10249000F06E11F01BFB0146009701970297042391
:1024A00002220120039705F0F9F9D6F8A40011F0F3
:1024B0000DFB014602220097019702970423104664
:1024C000039705F0EBF90321012008F071F91322BD
:1024D0000321012008F0E0F911220121042008F075
:1024E000C1FA0D220221042008F0BCFA0B220321BC
:1024F000042008F0B7FA85E4706B11F0E7FA0146A2
:10250000009701970297042302220020039705F009
:10251000C5F91E200346024601460090012008F03E
:1025200089F8D6F8A40011F0D1FA014602220097EA
:102530000197029704231046039705F0AFF9002195
:10254000012008F035F90221012008F031F91322A9
:102550000021012008F0A0F913220221012008F037
:102560009BF9B9E7500D0020B00D0020BC0D0020F4
:1025700010B108F00DFC45E41D220021052008F0F3
:1025800071FA11220121052008F06CFA0D220221B6
:10259000052008F067FA607D01281FD0306911F02E
:1025A000B1FA0E90B06C11F0ADFA0F90D6F8800031
:1025B00011F0A8FA10900EA8FEF766FA1122012178
:1025C000042008F04FFA0D220221042008F04AFAF4
:1025D0000B220321042008F045FA13E4306911F0BE
:1025E00091FA0E901E2003460246014600900120FB
:1025F00008F020F8D6F8800011F084FA10900EA8A8
:10260000FEF742FADAE7000008B50DF0FDF81A48C7
:102610008079C8B1012816D119220021052008F0BF
:1026200021FA1B220121052008F01CFAFF220221B9
:10263000052008F017FA1020009018231B221921FA
:10264000002007F0F7FF08BD1B220021052008F03D
:1026500009FA0D220121052008F004FAFF220221C7
:10266000052008F0FFF90D2000900A230E221B21FF
:10267000002007F0DFFF08BD1400002038B50DF082
:10268000C3F83D4C6078012802D0022810D01EE02B
:102690001B220021052008F0E5F90D22012105206B
:1026A00008F0E0F9FF220221052008F0DBF90EE036
:1026B00019220021052008F0D5F91B22012105204F
:1026C00008F0D0F9FF220221052008F0CBF9E179CA
:1026D0000124022008290DD2DFE801F0040D153E87
:1026E0001E262E361D2000901923172212210020AD
:1026F00007F0A0FF38BD162318220C2100200094FB
:1027000007F098FF38BD1C20024600901F232321AC
:10271000002007F08FFF38BD222318220D21002052
:10272000009407F087FF38BD0090222318220D2166
:10273000002007F07FFF38BD222318220A21002045
:10274000009407F077FF38BD0090222318220A2159
:10275000002007F06FFF38BD1B2000900E231E22C3
:102760002321002007F066FF002309220121022017
:10277000009407F05FFF38BD140000202DE9FF5FD3
:102780000DF042F8FE4C6078012802D0022810D0EB
:102790001EE01B220021052008F064F90D22012112
:1027A000052008F05FF9FF220221052008F05AF900
:1027B0000EE019220021052008F054F91B22012106
:1027C000052008F04FF9FF220221052008F04AF900
:1027D0006078112713264FF0010902281BD0012829
:1027E0003AD10025E6484FF0000880F80F80C07904
:1027F000DFF88CB31F244FF0040A0BF13C0B0828C0
:102800002AD2DFE810F0E301C302D1032900030557
:10281000AF0A57101912E07908281DD2DFE800F03E
:10282000045E921CDEF9F8F71D2000901923172290
:102830001221002007F0FEFE207A05280CD2DFE8E6
:1028400000F0030D1D2D3D001B2000900E231522CE
:102850001F21012007F0EEFEBDE8FF9F1F231B2272
:1028600017210120CDF8009007F0E4FE04B001220A
:10287000BDE8F05F1146104607F014BF022000903B
:102880001F231B221721012007F0D4FE04B00122D0
:10289000BDE8F05F1146104607F004BF1F231B225E
:1028A0000C210120CDF8009007F0C4FE04B00122F5
:1028B000BDE8F05F1146104607F0F4BE022000901C
:1028C0001F231B220C21012007F0B4FE04B00122BB
:1028D000BDE8F05F1146104607F0E4BE162318224B
:1028E0000C210020CDF8009007F0A4FE607A70B1B2
:1028F000012815D002281CD00328ADD11A20009041
:10290000142316220C21012007F094FEA4E71920BD
:102910000D2300901A460A21012007F08BFE9BE749
:102920000D2000901C230A220B21012007F082FEBB
:1029300092E70A20024600901B230D21012007F098
:1029400079FE89E71C20024600901F2323210020E6
:1029500007F070FEA07A0628D8D2DFE800F0030C5A
:10296000141D26360C20024600901D231F21012035
:1029700007F060FE70E71023122213210120009758
:1029800007F058FE68E7172000901A2312220D2145
:10299000012007F04FFE5FE71920009013230A2261
:1029A0001F21012007F046FE56E70E200090192354
:1029B00013220C21012007F03DFE04B00122BDE8E6
:1029C000F05F0221104607F06DBE0E2000900D232F
:1029D00016220C21012007F02DFE3DE722231822AC
:1029E0000D210020CDF8009007F024FEE07A0628A3
:1029F0008CD2DFE800F0030F182129320E2000905E
:102A00000D2316221421012007F014FE24E7A6E06E
:102A100071E02BE00E200090142312221B210120D4
:102A200007F008FE18E7142000900E231B22122145
:102A3000012007F0FFFD0FE70A231C221F210120C0
:102A4000009607F0F7FD07E71A2000901D231122DA
:102A50001F21012007F0EEFDFEE61D20009013234C
:102A60000E220D21012007F0E5FDF5E60220009081
:102A7000222318220D21002007F0DCFD207B0628F0
:102A800089D2DFE800F0030C151E262F0E200090DF
:102A90000D2316221421012007F0CCFDDCE60E20C8
:102AA0000090142312221B21012007F0C3FDD3E65E
:102AB000142000900E231B221221012007F0BAFDE2
:102AC000CAE60A231C221F210120009607F0B2FD4E
:102AD000C2E61A2000901D2311221F21012007F0B9
:102AE000A9FDB9E61D20009013230E220D2101201F
:102AF00007F0A0FDB0E6222318220A210020CDF81D
:102B0000009007F097FD607B70B1012815D0022876
:102B10001CD0032886D11A201F2200900F231146B3
:102B2000012007F087FD97E60E2000900D23162266
:102B30001421012007F07EFD8EE6142000900E2364
:102B40001B221221012007F075FD85E61A201F22A5
:102B500000900D231146012007F06CFD7CE6022059
:102B60000090222318220A21002007F063FDA07B99
:102B700088B1012818D002281FD003288ED101E087
:102B8000140000201A201F2200900F23114601205C
:102B900007F050FD60E60E2000900D231622142150
:102BA000012007F047FD57E6142000900E231B225A
:102BB0001221012007F03EFD4EE61A201F22009050
:102BC0000D231146012007F035FD45E61D2000903C
:102BD000192317221221002007F02CFDF94EFA4F7D
:102BE000307A052886D2DFE800F003355C83AA003E
:102BF0001B2000900E2315221F21012007F01AFD33
:102C0000706C58B101288ED1F07BD0B11F231A46C9
:102C100019460220009407F00DFD1DE6F07B38B147
:102C20001F231A4619460220009407F003FD13E6FD
:102C3000032315221F210220CDF800A007F0FAFC83
:102C40000AE603200346009015221F21022007F008
:102C5000F1FC01E61F231B2217210120CDF8009073
:102C600007F0E8FC01221146104607F01BFDBA7977
:102C700053468BF801A09BF80000F17BCDE90109D8
:102C8000CDF80C9000910220716C04F007FEFDF766
:102C9000E7FC04B00D22BDE8F05F0021012007F041
:102CA000FBBD022000901F231B221721012007F0EB
:102CB000C1FC01221146104607F0F4FC53468BF884
:102CC00001A09BF80000F17BCDE90109CDF80C9043
:102CD00000912A460220716C04F0E0FDFDF7C0FC73
:102CE00004B00C22BDE8F05F0021012007F0D4BD44
:102CF0001F231B220C210120CDF8009007F09AFC25
:102D000001221146104607F0CDFCFA7953468BF8A4
:102D100001A09BF80000F17BCDE90109CDF80C90F2
:102D200000910220716C04F0B9FDFDF799FC04B02C
:102D30001022BDE8F05F0021012007F0ADBD0220A8
:102D400000901F231B220C21012007F073FC01229D
:102D50001146104607F0A6FC53468BF801A09BF8DD
:102D60000000F17BCDE90109CDF80C9000912A46D5
:102D70000220716C04F092FDFDF772FC04B00F228A
:102D8000BDE8F05F0021012007F086BD1623182260
:102D90000C210020CDF8009007F04CFC894D687A9A
:102DA000F0B1012837D0022873D003287FF4AEADEC
:102DB0001A200090142316220C21012007F03AFC5F
:102DC000686C01287DD00228F0D1E87B002879D0FA
:102DD0001F231A4619460220009407F02BFC3BE5FE
:102DE00019200D2300901A460A21012007F022FC29
:102DF00053468BF801A09BF80000E97BCDE9001059
:102E0000CDE9028942460220696C04F047FDBDE825
:102E1000FF5FFDF725BC0D2000901C230A220B212B
:102E2000012007F007FCE87B38B11F231A4619463A
:102E30000220009407F0FEFB0EE5686C0528CED258
:102E4000DFE800F0030C151E2800022200230121F8
:102E50001046CDF8008007F0EDFBFDE402210023D1
:102E600004220846CDF8008007F0E4FBF4E40023D8
:102E7000082204210220CDF8008007F0DBFBEBE400
:102E80000023062209210220CDF8008007F0D2FBA2
:102E9000E2E40FE00223092201211846CDF8008068
:102EA00007F0C8FB04B00122BDE8F05F1146022024
:102EB00007F0F8BB0A201B2302460D2100900120D9
:102EC00001E056E068E007F0B5FB686C78B10228D5
:102ED00020D0012831D00328AED1E87BB8B31F231E
:102EE0001A4619460220009407F0A4FBB4E4E87BDC
:102EF00038B11F231A4619460220009407F09AFBA6
:102F0000AAE4082315221F210220CDF8009007F023
:102F100091FBA1E4E87B38B11F231A461946022031
:102F2000009407F087FB97E4082316221F21022054
:102F3000CDF8009007F07EFB8EE4E87B40B11F23C4
:102F40001A4619460220009407F074FB84E408E056
:102F500008230E221F210220CDF8009007F06AFB03
:102F60007AE40220082315221F21009007F062FB5B
:102F700072E4E87B38B11F231A46194602200094F8
:102F800007F058FB68E41C2000901B2319221F2126
:102F9000022007F04FFB5FE40A230C221F210220CE
:102FA000009607F047FB57E41C20024600901F23C1
:102FB0002321002007F03EFB024EB07A062895D26E
:102FC00004E000001400002004250020DFE800F0E9
:102FD000033651AECAF00C20024600901D231F217B
:102FE000012007F027FB706C01280BD0022887D145
:102FF000F07BD0B11F231A4619460220009407F037
:1030000019FB29E4F07B38B11F231A461946022028
:10301000009407F00FFB1FE41A2000900E231D22DE
:103020001F21022007F006FB16E416201F22009045
:1030300015231146022007F0FDFA0DE41023122299
:1030400013210120009707F0F5FA53468BF801A0F1
:103050009BF80000F17BCDE90109CDF80C900091BF
:103060002A460220716C04F019FCBDE8FF5FFDF7F1
:10307000F7BA17251A2312220D210120009507F017
:10308000D9FAF07B38B11F231A4619460220009462
:1030900007F0D0FA3AE4706CA0B101281BD00228E6
:1030A00022D0032828D004282FD0052835D0062880
:1030B000F0D1142000900E230D221F21022007F0D2
:1030C000B9FA23E41C201F2300901A461946022057
:1030D00007F0B0FA1AE412201F2300901A4619468E
:1030E000022007F0A7FA11E41F231A46194602200E
:1030F000009507F09FFA09E40F201F220090172384
:103100001146022007F096FA09E41F220E23114609
:103110000220009507F08EFA0AE40D20009011239A
:103120001B221F21022007F085FA0AE419200090D3
:1031300013230A221F21012007F07CFA53468BF843
:1031400001A09BF80000F17BCDE90109CDF80C90BE
:1031500000912A460220716C04F0A0FBBDE8FF5FDD
:10316000FDF77EBA0E200090192313220C210120B6
:1031700007F060FA01220221104607F093FA706C02
:1031800001280BD00228D0D1F07BD8B11F231A46DA
:1031900019460220009407F04DFA05E4F07B40B197
:1031A0001F231A4619460220009407F043FA14E43C
:1031B00011E01A2000900E231D221F21022007F08B
:1031C00039FA0AE416201F22009015231146022026
:1031D00007F030FA1AE40E2000900D2316220C217D
:1031E000012007F027FA53468BF801A09BF8000056
:1031F000F17BCDE90010CDE9028942460220716CD5
:1032000004F04CFBBDE8FF5FFDF72ABA01200090F7
:10321000222318220D21002007F00CFADFF8B09DC0
:1032200099F80B000628D5D2DFE800F0033856FDE8
:10323000FCFB0E2000900D2316221421012007F024
:10324000F9F999F80F0038B11F231A4619460220E0
:10325000009407F0EFF908E4D9F8440060B10128C0
:1032600013D00228F7D1142000900E2319221F2119
:10327000022007F0DFF911E40F2003460090162228
:103280001F21022007F0D6F908E41920009013232B
:103290000A221F21022007F0CDF908E40E20009039
:1032A000142312221B21012007F0C4F902225346E5
:1032B0008BF801A09BF8000099F80F400121CDE99F
:1032C0000040CDE902810220D9F8441004F0E6FA6A
:1032D000BDE8FF5FFDF7C4B9142000900E231B2248
:1032E0001221012007F0A6F999F80F0038B11F2329
:1032F0001A4619460220009407F09CF913E4D9F805
:1033000044004828FAD2DFE800F024334251606FCD
:103310007E91A0AFBEFDFCFBFAF9F8F7F6F5F4F3E9
:10332000F2F1F0EFEEEDECEBEAE9E8E7E6E5E4E3F5
:10333000E2E1E0DFDEDDDCDBDAD9D8D7D6D5D4D3E5
:10334000D2D1D0CFCECDCCCBCAC9C8C7C6C5C4C3D5
:10335000C2C11F230A221C210220009707F06AF92C
:1033600004B00122BDE8F05F1146022007F09AB9CF
:103370001F230A221C210220009607F05BF904B0EB
:103380000122BDE8F05F1146022007F08BB91F2330
:103390000B221C210220009707F04CF904B00122F7
:1033A000BDE8F05F1146022007F07CB91F230B2215
:1033B0001C210220009607F03DF904B00122BDE86F
:1033C000F05F1146022007F06DB91F230C221C216B
:1033D0000220009707F02EF904B00122BDE8F05F4B
:1033E0001146022007F05EB91F230C221C21022087
:1033F000009607F01FF904B00122BDE8F05F114606
:10340000022007F04FB91F231A461C210220009703
:1034100007F010F904B00122BDE8F05F002102209E
:1034200002E0F1E3F1E3E3E307F03CB91F231A46BE
:103430001C210220009607F0FDF804B00122BDE82F
:10344000F05F0021022007F02DB90B230A221C2176
:103450000220009707F0EEF804B00122BDE8F05F0B
:103460000221084607F01EB90B230A221C21022064
:10347000009607F0DFF804B00122BDE8F05F0221FA
:10348000084607F00FB90C230B223CE0A7E394E3B6
:103490009CE389E37FE375E36CE35BE34AE339E3B1
:1034A0002FE31EE30DE3FCE2ECE2DCE2CCE2BCE263
:1034B000ACE29CE28CE27CE26CE25CE24CE23CE25C
:1034C0002CE21CE20CE2FCE1ECE1DCE1CCE1BCE151
:1034D000ACE19CE18CE17CE16CE15CE14CE13CE144
:1034E0002CE11CE10CE1FCE0ECE0DCE0CCE0BCE039
:1034F000ACE09CE08CE07CE06CE05CE04CE03CE02C
:103500002CE01CE00CE01C210220009707F092F850
:1035100004B00122BDE8F05F0221084607F0C2B8FE
:103520000C230B221C210220009607F083F804B024
:103530000122BDE8F05F0221084607F0B3B80A2374
:103540000C221C210220009707F074F804B001221D
:10355000BDE8F05F0221084607F0A4B80A230C2258
:103560001C210220009607F065F804B00122BDE896
:10357000F05F0221084607F095B81F2313221C2193
:103580000220009707F056F804B00122BDE8F05F72
:103590001146022007F086B81F2313221C210220A7
:1035A000009607F047F804B00122BDE8F05F11462D
:1035B000022007F077B81F230A2212210220009769
:1035C00007F038F804B00122BDE8F05F1146022090
:1035D00007F068B81F230A2212210220009607F084
:1035E00029F804B00122BDE8F05F1146022007F07F
:1035F00059B81F230B2212210220009707F01AF856
:1036000004B00122BDE8F05F1146022007F04AB87D
:103610001F230B2212210220009607F00BF804B0A2
:103620000122BDE8F05F1146022007F03BB81F23DE
:103630000C2212210220009706F0FCFF04B00122A8
:10364000BDE8F05F1146022007F02CB81F230C22C2
:1036500012210220009606F0EDFF04B00122BDE821
:10366000F05F1146022007F01DB81F231A461221F1
:103670000220009706F0DEFF04B00122BDE8F05FF3
:103680000021022007F00EB81F231A461221022043
:10369000009606F0CFFF04B00122BDE8F05F0021E4
:1036A000022006F0FFBF1F230A22172102200097E5
:1036B00006F0C0FF04B00122BDE8F05F1146022011
:1036C00006F0F0BF1F230A2217210220009606F001
:1036D000B1FF04B00122BDE8F05F1146022006F000
:1036E000E1BF1F230B2217210220009706F0A2FF43
:1036F00004B00122BDE8F05F1146022006F0D2BFFF
:103700001F230B2217210220009606F093FF04B01E
:103710000122BDE8F05F1146022006F0C3BF1F235F
:103720000C2217210220009706F084FF04B001222A
:10373000BDE8F05F1146022006F0B4BF1F230C2243
:1037400017210220009606F075FF04B00122BDE8A3
:10375000F05F1146022006F0A5BF1F231A4617216D
:103760000220009706F066FF04B00122BDE8F05F7A
:103770000021022006F096BF1F231A4617210220BF
:10378000009606F057FF04B00122BDE8F05F00216B
:10379000022006F087BF1F230A221821022000976B
:1037A00006F048FF04B00122BDE8F05F1146022098
:1037B00006F078BF1F230A2218210220009606F087
:1037C00039FF04B00122BDE8F05F1146022006F087
:1037D00069BF1F230B2218210220009706F02AFF41
:1037E00004B00122BDE8F05F1146022006F05ABF86
:1037F0001F230B2218210220009606F01BFF04B0A5
:103800000122BDE8F05F1146022006F04BBF1F23E6
:103810000C2218210220009706F00CFF04B00122B0
:10382000BDE8F05F1146022006F03CBF1F230C22CA
:1038300018210220009606F0FDFE04B00122BDE82A
:10384000F05F1146022006F02DBF1F231A461821F3
:103850000220009706F0EEFE04B00122BDE8F05F02
:103860000021022006F01EBF1F231A461821022045
:10387000009606F0DFFE04B00122BDE8F05F0021F3
:10388000022006F00FBF1F230A221A2102200097F0
:1038900006F0D0FE04B00122BDE8F05F1146022020
:1038A00006F000BF1F230A221A210220009606F00C
:1038B000C1FE04B00122BDE8F05F1146022006F00F
:1038C000F1BE1F230B221A210220009706F0B2FE40
:1038D00004B00122BDE8F05F1146022006F0E2BE0E
:1038E0001F230B221A210220009606F0A3FE04B02B
:1038F0000122BDE8F05F1146022006F0D3BE1F236F
:103900000C221A210220009706F094FE04B0012236
:10391000BDE8F05F1146022006F0C4BE1F230C2252
:103920001A210220009606F085FE04B00122BDE8AF
:10393000F05F1146022006F0B5BE1F231A461A2179
:103940000220009706F076FE04B00122BDE8F05F89
:103950000021022006F0A6BE1F231A461A210220CB
:10396000009606F067FE04B00122BDE8F05F00217A
:10397000022006F097BE0A230F221721022000978B
:1039800006F058FE04B00122BDE8F05F02210846AF
:1039900006F088BE0A230F2217210220009606F0A7
:1039A00049FE04B00122BDE8F05F0221084606F09E
:1039B00079BE0B230F2217210220009706F03AFE52
:1039C00004B00122BDE8F05F0221084606F06ABE9D
:1039D0000B230F2217210220009606F02BFE04B0C5
:1039E0000122BDE8F05F0221084606F05BBE0C2311
:1039F0000F2217210220009706F01CFE04B00122BE
:103A0000BDE8F05F0221084606F04CBE0C230F22F1
:103A100017210220009606F00DFE04B00122BDE839
:103A2000F05F0221084606F03DBE1F230F2217213A
:103A30000220009706F0FEFD04B00122BDE8F05F11
:103A40001146022006F02EBE1F230F22172102204E
:103A5000009606F0EFFD04B00122BDE8F05F1146CC
:103A6000022006F01FBE1F231A460F2102200097D6
:103A700006F0E0FD04B00122BDE8F05F0021022065
:103A800006F010BE1F231A460F210220009606F0F2
:103A9000D1FD04B00122BDE8F05F0021022006F054
:103AA00001BE0A20009011231B221C21022006F0D7
:103AB000C1FD04B00122BDE8F05F0221084606F016
:103AC000F1BD0B20009011231B221C21022006F0C7
:103AD000B1FD04B00122BDE8F05F0221084606F006
:103AE000E1BD0C20009011231B221C21022006F0B6
:103AF000A1FD04B00122BDE8F05F0221084606F0F6
:103B0000D1BD11231B221C210220009406F092FD3E
:103B1000BDE8FF9F0A20009011231B2212210220E2
:103B200006F088FD04B00122BDE8F05F02210846DE
:103B300006F0B8BD0B20009011231B221221022099
:103B400006F078FD04B00122BDE8F05F02210846CE
:103B500006F0A8BD0C20009011231B221221022088
:103B600006F068FD04B00122BDE8F05F02210846BE
:103B700006F098BD11231B2212210220009406F0AA
:103B800059FDC5E71C2000900B23142212210220AE
:103B900006F050FDBCE71220014600900B231422D2
:103BA000022006F047FDB3E70120024600901E23E5
:103BB0000D21022006F03EFDAAE71E2301220D2161
:103BC0000220CDF8008006F035FDA1E70120022299
:103BD00000901E230D21104606F02CFD98E70222CE
:103BE0001E230D211046CDF8008006F023FD8FE73F
:103BF0000A231C221F210120009606F01BFDF54818
:103C0000407E44282DD201E08EE040E0DFE800F065
:103C10002222222222222222222222222222222284
:103C2000242424242424242429292929292929292C
:103C300029292929292929292929292929292929F4
:103C40002626262626262626282828282828282804
:103C500028282828012504E0032502E0032500E0A8
:103C6000022553468BF801A09BF8001099F80F200D
:103C7000CDE901180120009203902A460220D9F8CC
:103C8000441003F00BFEBDE8FF5FFCF7E9BC1A200F
:103C900000901D2311221F21012006F0CBFCCD48EE
:103CA000407E44282AD2DFE800F02222222222226B
:103CB00022222222222222222222242424242424D8
:103CC000242429292929292929292929292929296E
:103CD0002929292929292929292926262626262666
:103CE0002626282828282828282828282828012582
:103CF00004E0032502E0032500E0022553468BF88B
:103D000001A09BF8001099F80F20CDE901180120BF
:103D1000009203902A460220D9F8441003F0BEFD19
:103D2000BDE8FF5FFCF79CBC1D20009013230E2212
:103D30000D21012006F07EFC022253468BF801A0E3
:103D40009BF8001099F80F40CDE90118012003906D
:103D500000940220D9F8441003F0A0FDBDE8FF5FF5
:103D6000FCF77EBC02200090222318220D210020A7
:103D700006F060FC9648007B0628BFF402AFDFE83F
:103D800000F0033753FDFCFB0E2000900D2316229C
:103D90001421012006F04EFC8D48C17B39B11F2350
:103DA0001A4619460220009406F044FCB0E6406C26
:103DB00060B1012813D00228F8D1142000900E23FE
:103DC00019221F21022006F035FCA1E60F20034630
:103DD000009016221F21022006F02CFC98E61920E4
:103DE000009013230A221F21022006F023FC8FE6F5
:103DF0000E200090142312221B21012006F01AFC31
:103E0000022253468BF801A071489BF80010C47B36
:103E1000CDE90041CDE90289416C022003F03EFD6D
:103E2000BDE8FF5FFCF71CBC142000900E231B2292
:103E30001221012006F0FEFB6548C17B39B11F232A
:103E40001A4619460220009406F0F4FB60E6406C26
:103E50004828ABD2DFE800F024334251606F7E8DFA
:103E6000A0AFFCFBFAF9F8F7F6F5F4F3F2F1F0EF96
:103E7000EEEDECEBEAE9E8E7E6E5E4E3E2E1E0DFDA
:103E8000DEDDDCDBDAD9D8D7D6D5D4D3D2D1D0CFCA
:103E9000CECDCCCBCAC9C8C7C6C5C4C3C2C1C0BBBE
:103EA0001F230A221C210220009706F0C3FB04B046
:103EB0000122BDE8F05F1146022006F0F3BB1F238C
:103EC0000A221C210220009606F0B4FB04B0012255
:103ED000BDE8F05F1146022006F0E4BB1F230B2271
:103EE0001C210220009706F0A5FB04B00122BDE8CA
:103EF000F05F1146022006F0D5BB1F230B221C21C8
:103F00000220009606F096FB04B00122BDE8F05FA7
:103F10001146022006F0C6BB1F230C221C210220E2
:103F2000009706F087FB04B00122BDE8F05F114660
:103F3000022006F0B7BB1F230C221C210220009692
:103F400006F078FB04B00122BDE8F05F11460220C4
:103F500006F0A8BB1F231A461C210220009706F07A
:103F600069FB04B00122BDE8F05F0021022006F0E9
:103F700099BB1F231A4602E0F3E3F3E3E4E31C21B9
:103F80000220009606F056FB04B00122BDE8F05F67
:103F90000021022006F086BB0B230A221C210220EE
:103FA000009706F047FB04B00122BDE8F05F022154
:103FB000084606F077BB0B230A221C21022000963C
:103FC00006F038FB01220221084604B041E0B2E3CA
:103FD00014000020B82500209BE3A3E390E386E3D0
:103FE0007CE373E362E351E340E336E325E314E368
:103FF00003E3F3E2E3E2D3E2C3E2B3E2A3E293E258
:1040000083E273E263E253E243E233E223E213E248
:1040100003E2F3E1E3E1D3E1C3E1B3E1A3E193E13F
:1040200083E173E163E153E143E133E123E113E130
:1040300003E1F3E0E3E0D3E0C3E0B3E0A3E093E027
:1040400083E073E063E053E043E033E023E013E018
:1040500003E0BDE8F05F06F025BB0C230B221C211A
:104060000220009706F0E6FA04B00122BDE8F05FF6
:104070000221084606F016BB0C230B221C2102204D
:10408000009606F0D7FA04B00122BDE8F05F0221E5
:10409000084606F007BB0A230C221C2102200097C9
:1040A00006F0C8FA04B00122BDE8F05F022108461C
:1040B00006F0F8BA0A230C221C210220009606F012
:1040C000B9FA04B00122BDE8F05F0221084606F00B
:1040D000E9BA1F2313221C210220009706F0AAFA36
:1040E00004B00122BDE8F05F1146022006F0DABA02
:1040F0001F2313221C210220009606F09BFA04B015
:104100000122BDE8F05F1146022006F0CBBA1F2362
:104110000A2212210220009706F08CFA04B0012234
:10412000BDE8F05F1146022006F0BCBA1F230A2248
:1041300012210220009606F07DFA04B00122BDE8AB
:10414000F05F1146022006F0ADBA1F230B221221A8
:104150000220009706F06EFA04B00122BDE8F05F7D
:104160001146022006F09EBA1F230B2212210220C4
:10417000009606F05FFA04B00122BDE8F05F114638
:10418000022006F08FBA1F230C2212210220009772
:1041900006F050FA04B00122BDE8F05F114602209B
:1041A00006F080BA1F230C2212210220009606F08E
:1041B00041FA04B00122BDE8F05F1146022006F08A
:1041C00071BA1F231A4612210220009706F032FA14
:1041D00004B00122BDE8F05F0021022006F062BABF
:1041E0001F231A4612210220009606F023FA04B07B
:1041F0000122BDE8F05F0021022006F053BA1F2320
:104200000A2217210220009706F014FA04B00122B6
:10421000BDE8F05F1146022006F044BA1F230A22CF
:1042200017210220009606F005FA04B00122BDE82D
:10423000F05F1146022006F035BA1F230B2217212A
:104240000220009706F0F6F904B00122BDE8F05F05
:104250001146022006F026BA1F230B221721022046
:10426000009606F0E7F904B00122BDE8F05F1146C0
:10427000022006F017BA1F230C22172102200097F4
:1042800006F0D8F904B00122BDE8F05F1146022023
:1042900006F008BA1F230C2217210220009606F010
:1042A000C9F904B00122BDE8F05F1146022006F012
:1042B000F9B91F231A4617210220009706F0BAF910
:1042C00004B00122BDE8F05F0021022006F0EAB947
:1042D0001F231A4617210220009606F0ABF904B0FE
:1042E0000122BDE8F05F0021022006F0DBB91F23A8
:1042F0000A2218210220009706F09CF904B001223E
:10430000BDE8F05F1146022006F0CCB91F230A2257
:1043100018210220009606F08DF904B00122BDE8B4
:10432000F05F1146022006F0BDB91F230B221821B1
:104330000220009706F07EF904B00122BDE8F05F8C
:104340001146022006F0AEB91F230B2218210220CD
:10435000009606F06FF904B00122BDE8F05F114647
:10436000022006F09FB91F230C221821022000977B
:1043700006F060F904B00122BDE8F05F11460220AA
:1043800006F090B91F230C2218210220009606F097
:1043900051F904B00122BDE8F05F1146022006F099
:1043A00081B91F231A4618210220009706F042F90E
:1043B00004B00122BDE8F05F0021022006F072B9CE
:1043C0001F231A4618210220009606F033F904B084
:1043D0000122BDE8F05F0021022006F063B91F232F
:1043E0000A221A210220009706F024F904B00122C3
:1043F000BDE8F05F1146022006F054B91F230A22DF
:104400001A210220009606F015F904B00122BDE839
:10441000F05F1146022006F045B91F230B221A2136
:104420000220009706F006F904B00122BDE8F05F13
:104430001146022006F036B91F230B221A21022052
:10444000009606F0F7F804B00122BDE8F05F1146CF
:10445000022006F027B91F230C221A210220009700
:1044600006F0E8F804B00122BDE8F05F1146022032
:1044700006F018B91F230C221A210220009606F01C
:10448000D9F804B00122BDE8F05F1146022006F021
:1044900009B91F231A461A210220009706F0CAF80C
:1044A00004B00122BDE8F05F0021022006F0FAB856
:1044B0001F231A461A210220009606F0BBF804B00A
:1044C0000122BDE8F05F0021022006F0EBB80A23CC
:1044D0000F2217210220009706F0ACF804B0012249
:1044E000BDE8F05F0221084606F0DCB80A230F227F
:1044F00017210220009606F09DF804B00122BDE8C5
:10450000F05F0221084606F0CDB80B230F221721D9
:104510000220009706F08EF804B00122BDE8F05F9B
:104520000221084606F0BEB80B230F2217210220F5
:10453000009606F07FF804B00122BDE8F05F02218A
:10454000084606F0AFB80C230F221721022000976F
:1045500006F070F804B00122BDE8F05F02210846C1
:1045600006F0A0B80C230F2217210220009606F0B7
:1045700061F804B00122BDE8F05F0221084606F0B0
:1045800091B81F230F2217210220009706F052F83E
:1045900004B00122BDE8F05F1146022006F082B8A7
:1045A0001F230F2217210220009606F043F804B0C3
:1045B0000122BDE8F05F1146022006F073B81F2308
:1045C0001A460F210220009706F034F804B00122A9
:1045D000BDE8F05F0021022006F064B81F231A46F0
:1045E0000F210220009606F025F804B00122BDE854
:1045F000F05F0021022006F055B80A200090112338
:104600001B221C21022006F015F804B00122BDE88F
:10461000F05F0221084606F045B80B2000901123F8
:104620001B221C21022006F005F804B00122BDE87F
:10463000F05F0221084606F035B80C2000901123E7
:104640001B221C21022005F0F5FF04B00122BDE869
:10465000F05F0221084606F025B811231B221C2119
:104660000220009405F0E6FFBDE8FF9F0A200090BD
:1046700011231B221221022005F0DCFF04B00122CD
:10468000BDE8F05F0221084606F00CB80B20009050
:1046900011231B221221022005F0CCFF04B00122BD
:1046A000BDE8F05F0221084605F0FCBF0C20009039
:1046B00011231B221221022005F0BCFF04B00122AD
:1046C000BDE8F05F0221084605F0ECBF11231B2274
:1046D00012210220009405F0ADFFC5E71C200090D8
:1046E0000B2314221221022005F0A4FFBCE71220A4
:1046F000014600900B231422022005F09BFFB3E734
:104700001E2301220D210220CDF8009005F092FF1A
:10471000AAE71E2301220D210220CDF8008005F01A
:1047200089FFA1E702221E230D211046CDF800903B
:1047300005F080FF98E702221E230D211046CDF8D8
:10474000008005F077FF8FE70A231C221F2101203C
:10475000009605F06FFFFA4890F8230044282DD208
:1047600001E08BE03EE0DFE800F02222222222225C
:10477000222222222222222222222424242424240D
:1047800024242929292929292929292929292929A3
:10479000292929292929292929292626262626269B
:1047A00026262828282828282828282828280125B7
:1047B00004E0032502E0032500E0022553468BF8C0
:1047C00001A0E0489BF80010C27BCDE90021CDE9B3
:1047D0000289416C2A46022003F060F8BDE8FF5FC1
:1047E000FBF73EBF1A2000901D2311221F2101203C
:1047F00005F020FFD24890F8230044282AD2DFE8B1
:1048000000F02222222222222222222222222222DC
:10481000222224242424242424242929292929293E
:1048200029292929292929292929292929292929F8
:104830002929262626262626262628282828282806
:10484000282828282828012504E0032502E003253C
:1048500000E0022553468BF801A0BA489BF80010EF
:10486000C27BCDE90021CDE90289416C2A460220B4
:1048700003F014F8BDE8FF5FFBF7F2BE1D200090C7
:1048800013230E220D21012005F0D4FE02225346EF
:104890008BF801A0AB489BF80010C47BCDE9004128
:1048A000CDE90289416C022002F0F8FFBDE8FF5F0C
:1048B000FBF7D6BE222318220A210020CDF8009053
:1048C00005F0B8FE9F4E707B10B3012865D002281A
:1048D00075D003287FF401AF1A201F2200900F2308
:1048E0001146012005F0A6FE954890F841001A28CF
:1048F0006AD2DFE800F0F4F4F4F4F4F4F3F3F369CB
:104900006969696969696969696969F2F2F2F2F16B
:104910000E2000900D2316221421012005F08AFE9E
:10492000F07B38B11F231A4619460220009405F087
:1049300081FE99E6706CA8B101281CD0022823D012
:104940000328F6D102231A4601211846CDF800802B
:1049500005F070FE04B00122BDE8F05F11460220B0
:1049600005F0A0BE0F200346009016221F21022052
:1049700005F060FE78E602231E2204211846CDF8D9
:10498000008005F057FE6FE602231E220021184624
:10499000CDF8008005F04EFE66E6142000900E2350
:1049A0001B221221012005F045FEF07B40B11F23A0
:1049B0001A4619460220009405F03CFE54E6EBE04E
:1049C000706C1A28B5D200E023E1DFE800F00D1585
:1049D0001D252D353D454D555D656D757D8991993B
:1049E000A1A9B1BDC5CDD5DD1F230A221C210220FE
:1049F000009405F01FFE37E61F230B221C21022026
:104A0000009405F017FE2FE61F230C221C21022024
:104A1000009405F00FFE27E60B230A221C2102203A
:104A2000009405F007FE1FE60C230B221C21022038
:104A3000009405F0FFFD17E60A230C221C2102203A
:104A4000009405F0F7FD0FE61F230A221221022031
:104A5000009405F0EFFD07E61F230B221221022030
:104A6000009405F0E7FDFFE51F230C221221022030
:104A7000009405F0DFFDF7E51F230A22172102202D
:104A8000009405F0D7FDEFE51F230B22172102202C
:104A9000009405F0CFFDE7E51F230C22172102202B
:104AA000009405F0C7FDDFE51F230C22172102202B
:104AB000009405F0BFFDD7E51F230A22182102202C
:104AC000009405F0B7FDCFE51F230B22182102202B
:104AD000009405F0AFFDC7E59AE097E094E091E01F
:104AE0001F230C2218210220009405F0A3FDBBE532
:104AF0001F230C2218210220009405F09BFDB3E532
:104B00001F230A221A210220009405F093FDABE531
:104B10001F230B221A210220009405F08BFDA3E530
:104B20001F230C221A210220009405F083FD9BE52F
:104B30001F230C221A210220009405F07BFD93E52F
:104B4000B8250020140000200A230F22172102207C
:104B5000009405F06FFD87E50B230F22172102203B
:104B6000009405F067FD7FE50C230F22172102203A
:104B7000009405F05FFD77E51F230F221721022027
:104B8000009405F057FD6FE51F231A460F21022000
:104B9000009405F04FFD67E51A201F2200900D23B9
:104BA0001146012005F046FDF74890F841001A280B
:104BB00015D2DFE800F00D0D0D0D0D0D0F0F0F14C8
:104BC00014141414141414141414141111111113B2
:104BD000012504E0032502E0032500E002255346F9
:104BE0008BF801A09BF80000F17BCDE90010CDE926
:104BF00002892A460220716C02F050FEBDE8FF5F78
:104C0000FBF72EBD012504E0032502E0032500E0AB
:104C1000022553468BF801A09BF80000F17BCDE9FB
:104C20000010CDE902892A460220716C02F036FE9E
:104C3000BDE8FF5FFBF714BD02200090222318227D
:104C40000A21002005F0F6FCD04EB07B08B3012805
:104C500064D0022874D0032885D11A201F22009026
:104C60000F231146012005F0E5FCC74890F84700E6
:104C70001A286AD2DFE800F0F4F4F4F4F4F4F3F361
:104C8000F3696969696969696969696969F2F2F26F
:104C9000F2F10E2000900D2316221421012005F0C0
:104CA000C9FCF07B38B11F231A4619460220009434
:104CB00005F0C0FCD8E4706CA8B101281CD0022813
:104CC00023D00328F6D102231A4601211846CDF835
:104CD000008005F0AFFC04B00122BDE8F05F114692
:104CE000022005F0DFBC0F200346009016221F2192
:104CF000022005F09FFCB7E402231E22042118467F
:104D0000CDF8008005F096FCAEE402231E220021BF
:104D10001846CDF8008005F08DFCA5E41420009025
:104D20000E231B221221012005F084FCF07B40B1F0
:104D30001F231A4619460220009405F07BFC93E4D9
:104D4000E7E0706C1A28B5D200E024E1DFE800F05B
:104D50000D151D252D353D454D555D656D757D89BF
:104D60009199A1A9B1B9C1C9D1D91F230A221C2186
:104D70000220009405F05EFC76E41F230B221C2128
:104D80000220009405F056FC6EE41F230C221C2127
:104D90000220009405F04EFC66E40B230A221C213D
:104DA0000220009405F046FC5EE40C230B221C213B
:104DB0000220009405F03EFC56E40A230C221C213C
:104DC0000220009405F036FC4EE41F230A22122133
:104DD0000220009405F02EFC46E41F230B22122132
:104DE0000220009405F026FC3EE41F230C22122131
:104DF0000220009405F01EFC36E41F230A2217212E
:104E00000220009405F016FC2EE41F230B2217212C
:104E10000220009405F00EFC26E41F230C2217212B
:104E20000220009405F006FC1EE41F230C2217212B
:104E30000220009405F0FEFB16E41F230A2218212D
:104E40000220009405F0F6FB0EE41F230B2218212C
:104E50000220009405F0EEFB06E49BE098E090E071
:104E60008DE01F230C2218210220009405F0E2FBA4
:104E700033E41F230C2218210220009405F0DAFBF2
:104E80002BE41F230A221A210220009405F0D2FBF2
:104E900023E41F230B221A210220009405F0CAFBF1
:104EA0001BE41F230C221A210220009405F0C2FBF0
:104EB00013E41F230C221A210220009405F0BAFBF0
:104EC0000BE40A230F2217210220009405F0B2FB05
:104ED00003E40B230F2217210220009405F0AAFB04
:104EE00004E40C230F2217210220009405F0A2FBFA
:104EF00005E41F230F2217210220009405F09AFBDE
:104F000006E41F231A460F210220009405F092FBAD
:104F100007E41A201F2200900D231146012005F0FE
:104F200089FB194890F847001A2815D2DFE800F0ED
:104F30000D0D0D0D0D0D0F0F0F141414141414146A
:104F400014141414141111111113012504E0032574
:104F500002E0032500E0022553468BF801A09BF8F0
:104F60000000F17BCDE90010CDE902892A4602203C
:104F7000716C02F093FCBDE8FF5FFBF771BB01258C
:104F800009E0032507E00000B825002014000020F8
:104F9000032500E0022553468BF801A09BF8000092
:104FA000F17BCDE90010CDE902892A460220716C1F
:104FB00002F074FCBDE8FF5FFBF752BB7FB519221E
:104FC0000021052005F04EFD1B220121052005F0E2
:104FD00049FDFF220221052005F044FD0024102098
:104FE000009018231B221921002005F023FB0E201E
:104FF00000900D2316220C21012005F01BFB0A4A0C
:105000000121A2F13C001378C57BCDE90131009567
:1050100003915378416C2246022002F03FFCBDE828
:105020007F40FBF71DBB00005000002008B510209A
:10503000009018231B221921002005F0FBFA0E20F6
:1050400000900D2316220C21012005F0F3FA0A48E6
:10505000C07B40B11920034600900E221F21022080
:1050600005F0E8FA08BD1F200346024601460090FD
:10507000022005F0DFFA08BD1400002038B50E202C
:1050800000901E230A221C21002005F0D3FA1F24C1
:105090002346224621460120009405F0CBFA16490A
:1050A000486C01280CD0022809D1C87BD8B1162041
:1050B0001F22009015231146022005F0BBFA38BDCF
:1050C000C87B40B11A2000900E231D221F21022010
:1050D00005F0B0FA38BD1F231A4619460220009485
:1050E00005F0A8FA38BD1F231A461946022000947D
:1050F00005F0A0FA38BD0000140000202DE9FF5F84
:1051000000250AF081FBDFF8F8AF9AF801000128CA
:1051100002D0022810D01EE01B220021052005F03D
:10512000A1FC0D220121052005F09CFCFF2202219B
:10513000052005F097FC0EE019220021052005F05E
:1051400091FC1B220121052005F08CFCFF2202218D
:10515000052005F087FC9AF801000027012801D1FD
:105160008AF80F709AF80700DFF8949F1F2413261F
:105170004FF0040809F13C094FF01A0B082831D20E
:10518000DFE810F00800D500E70130002203EB084B
:10519000B60E7C101D20009019231722122100202A
:1051A00005F048FA9AF8080005281BD2DFE800F05D
:1051B0000339537C96001B2000900E2315221F21DB
:1051C000012005F037FADAF8440068B1012809D166
:1051D0009AF80F00E0B11F231A46194602200094E6
:1051E00005F028FABDE8FF9F9AF80F0038B11F2399
:1051F0001A4619460220009405F01CFAF2E7032330
:1052000015221F210220CDF8008005F013FAE9E7EE
:1052100003200346009015221F21022005F00AFA00
:10522000E0E701201F231B221721009005F002FA5E
:1052300001221146104605F035FADAF8440002F072
:1052400089FAFBF70DFA04B00D22BDE8F05F0021EA
:10525000012005F021BB022000901F231B221721F3
:10526000012005F0E7F901221146104605F01AFA6F
:10527000434689F80180012099F800109AF80F2020
:10528000CDE90110009203902A460220DAF844107A
:1052900002F004FBFBF7E4F904B00C22BDE8F05F78
:1052A0000021012005F0F8BA01201F231B220C2148
:1052B000009005F0BFF901221146104605F0F2F901
:1052C000DAF8440002F0A2F9FBF7CAF904B01022A0
:1052D000BDE8F05F0021012005F0DEBA0220009059
:1052E0001F231B220C21012005F0A4F901221146E5
:1052F000104605F0D7F9434689F80180012099F856
:1053000000109AF80F20CDE90110009203902A4670
:105310000220DAF8441002F0C1FAFBF7A1F904B058
:105320000F22BDE8F05F0021012005F0B5BA01258C
:10533000162318220C210020009505F07BF99AF81D
:10534000090000B301283BD0022875D003287FF460
:1053500055AF142316220C210120CDF800B005F022
:1053600069F9DAF84400012867D00228EFD19AF8E9
:105370000F0000287ED01F231A46194602200094F1
:1053800005F058F92EE719200D2300901A460A213E
:10539000012005F04FF9434689F8018099F8000093
:1053A0009AF80F10CDE90010CDE902753A460220B7
:1053B000DAF8441002F072FABDE8FF5FFBF750B96B
:1053C0000D2000901C230A220B21012005F032F948
:1053D0009AF80F0038B11F231A461946022000948C
:1053E00005F028F9FEE6DAF844000528CAD2DFE81D
:1053F00000F0030B131B250002220023012110469D
:10540000009705F017F9EDE6022100230422084673
:10541000009705F00FF9E5E6002308220421022099
:10542000009705F007F9DDE6002306220921022096
:10543000009705F0FFF8D5E60FE06EE002230922A1
:1054400001211846009705F0F5F804B00122BDE8E7
:10545000F05F1146022005F025B90A2002460090AF
:105460001B230D21012005F0E5F8DAF8440090B186
:10547000022800E065E021D0012832D00328B1D114
:105480009AF80F00C0B31F231A4619460220009451
:1054900005F0D0F8A6E69AF80F0038B11F231A4697
:1054A00019460220009405F0C5F89BE60823152252
:1054B0001F210220009505F0BDF893E69AF80F0031
:1054C00038B11F231A4619460220009405F0B2F89D
:1054D00088E6082316221F210220009505F0AAF86D
:1054E00080E69AF80F0040B11F231A4619460220A1
:1054F000009405F09FF875E607E008230E221F21AF
:105500000220009505F096F86CE60220082315228B
:105510001F21009005F08EF864E69AF80F0038B16C
:105520001F231A4619460220009405F083F859E615
:105530001C2000901B2319221F21022005F07AF85D
:1055400050E60A230C221F210220009605F072F873
:1055500048E61C261F23324623210020009605F032
:1055600069F89AF80A00062894D2DFE800F00339B7
:1055700057B5D3F10C20024600901D231F210120B6
:1055800005F058F8DAF8440001280CD002288CD134
:105590009AF80F00D8B11F231A461946022000942A
:1055A00005F048F81EE69AF80F0038B11F231A4696
:1055B00019460220009405F03DF813E60E231D2243
:1055C0001F210220CDF800B005F034F80AE61620BD
:1055D0001F22009015231146022005F02BF801E64A
:1055E00011200090102312221321012005F022F82F
:1055F000434689F80180012099F800109AF80F209D
:10560000CDE90110009203902A460220DAF84410F6
:1056100002F044F9BDE8FF5FFBF722B817251A2313
:1056200012220D210120009505F004F89AF80F00D0
:1056300038B11F231A4619460220009404F0FAFFDD
:10564000D0E5DAF84400A0B101281AD0022821D010
:10565000032827D004282ED0052834D00628A1D12D
:10566000142000900E230D221F21022004F0E2FFDF
:10567000B8E51F231A4619460220009604F0DAFF07
:10568000B0E512201F2300901A461946022004F0AC
:10569000D1FFA7E51F231A4619460220009504F002
:1056A000C9FF9FE50F201F220090172311460220FB
:1056B00004F0C0FF96E51F220E231146022000953C
:1056C00004F0B8FF8EE50D20009011231B221F214E
:1056D000022004F0AFFF85E51920009013230A2271
:1056E0001F21012004F0A6FF434689F80180012014
:1056F00099F800109AF80F20CDE90110009203905C
:105700002A460220DAF8441002F0C8F8BDE8FF5F2C
:10571000FAF7A6BF0E200090192313220C210120B6
:1057200004F088FF01220221104604F0BBFFDAF8E2
:10573000440001280DD002289AD19AF80F00E0B158
:105740001F231A4619460220009404F073FF49E50E
:105750001CE09AF80F0038B11F231A4619460220A0
:10576000009404F067FF3DE50E231D221F21022057
:10577000CDF800B004F05EFF34E516201F22009043
:1057800015231146022004F055FF2BE50E20009052
:105790000D2316220C21012004F04CFF434689F80A
:1057A000018099F800009AF80F400121CDE90040EE
:1057B000CDE902713A460220DAF8441002F06EF8A0
:1057C000BDE8FF5FFAF74CBF0120009022231822AA
:1057D0000D21002004F02EFF9AF80B000628B6D207
:1057E000DFE800F0033856FEFDFC0E2000900D238C
:1057F00016221421012004F01DFF9AF80F0038B181
:105800001F231A4619460220009404F013FFE9E40E
:10581000DAF8440060B1012813D0022897D114208F
:1058200000900E2319221F21022004F003FFD9E467
:105830000F200346009016221F21022004F0FAFEDA
:10584000D0E41920009013230A221F21022004F023
:10585000F1FEC7E40E200090142312221B21012028
:1058600004F0E8FE0222434689F8018099F800100E
:105870009AF80F40CDE9011701200390009402200F
:10588000DAF8441002F00AF8BDE8FF5FFAF7E8BE64
:10589000142000900E231B221221012004F0CAFEC6
:1058A0009AF80F0038B11F231A46194602200094B7
:1058B00004F0C0FE96E4DAF844004828A7D2DFE8F6
:1058C00000F02434435362728195A4B4FDFCFBFACA
:1058D000F9F8F7F6F5F4F3F2F1F0EFEEEDECEBEAB0
:1058E000E9E8E7E6E5E4E3E2E1E0DFDEDDDCDBDAA0
:1058F000D9D8D7D6D5D4D3D2D1D0CFCECDCCCBCA90
:10590000C9C8C7C6C5C4C3C2C1C0112000901F23E7
:105910000A221C21022004F08DFE04B00122BDE801
:10592000F05F1146022004F0BDBE1F230A221C2195
:105930000220009604F07EFE04B00122BDE8F05F74
:105940001146022004F0AEBE112000901F230B224E
:105950001C21022004F06EFE04B00122BDE8F05FBD
:105960001146022004F09EBE1F230B221C210220A0
:10597000009604F05FFE04B00122BDE8F05F11461E
:10598000022004F08FBE112000901F230C221C2146
:10599000022004F04FFE04B00122BDE8F05F114682
:1059A000022004F07FBE1F230C221C21022000963F
:1059B00004F040FE04B00122BDE8F05F1146022071
:1059C00004F070BE11201F2300901A461C210220F3
:1059D00004F030FE01220021022002E0F2E3F2E3B3
:1059E000F2E304B0BDE8F05F04F05CBE1F231A468A
:1059F0001C210220009604F01DFE04B00122BDE827
:105A0000F05F0021022004F04DBE112000900B2316
:105A10000A221C21022004F00DFE04B00122BDE880
:105A2000F05F0221084604F03DBE0B230A221C2130
:105A30000220009604F0FEFD01220221084604B077
:105A40003DE0CBE3B6E3C0E3ABE3A1E397E38EE352
:105A50007DE36CE35BE34EE33DE32CE31BE30BE30D
:105A6000FAE2EAE2D9E2C9E2B8E2A8E297E287E222
:105A700076E266E255E245E234E224E213E203E232
:105A8000F2E1E2E1D1E1C1E1B0E1A0E18FE17FE14A
:105A90006EE15EE14DE13DE12CE11CE10BE1FBE05B
:105AA000EAE0DAE0C9E0B9E0A8E098E087E077E072
:105AB00066E056E045E035E024E014E003E0BDE8B0
:105AC000F05F04F0EFBD112000900C230B221C218D
:105AD000022004F0AFFD04B00122BDE8F05F022116
