:020000040800F2
:10000000982A0020C90100086DB70008C1AC00089B
:10001000D5010008D7010008D90100080000000040
:10002000000000000000000000000000C5F800080B
:10003000DD010008000000000DCB000815FC0008E1
:10004000E3010008E3010008E3010008E301000800
:10005000E3010008E3010008E3010008E3010008F0
:10006000E3010008E3010008E30100084D06000871
:10007000E3010008E3010008E3010008E3010008D0
:10008000E3010008E3010008E3010008E3010008C0
:10009000E3010008E3010008E3010008E3010008B0
:1000A000E3010008E3010008E3010008E3010008A0
:1000B00075FC000879FC0008E3010008E301000872
:1000C000E3010008E3010008E3010008E301000880
:1000D000E301000895020108E3010008E3010008BC
:1000E000E3010008E3010008E301000800F002F862
:1000F00000F05AF80AA090E8000C82448344AAF168
:100100000107DA4501D100F04FF8AFF2090EBAE865
:100110000F0013F0010F18BFFB1A43F0010318473B
:10012000E8450100084601000A444FF0000C10F8B1
:10013000013B13F0070408BF10F8014B1D1108BF65
:1001400010F8015B641E05D010F8016B641E01F805
:10015000016BF9D113F0080F1EBF10F8014BAD1C55
:100160000C1B09D16D1E58BF01F801CBFAD505E073
:1001700014F8016B01F8016B6D1EF9D59142D6D3CD
:10018000704700000023002400250026103A28BFF5
:1001900078C1FBD8520728BF30C148BF0B607047F9
:1001A0001FB51FBD10B510BD00F0A8F91146FFF72F
:1001B000F7FF11F009FA00F0C6F903B4FFF7F2FFF8
:1001C00003BC00F0C9F9000009488047094800470E
:1001D000FEE7FEE7FEE7FEE7FEE7FEE7FEE7FEE7F7
:1001E000FEE7FEE704480549054A064B7047000054
:1001F00025FC0008ED00000898220020982A002025
:10020000982600209826002010B54C1084EA53044C
:1002100004D54042C1F1000138BF491E1B4204D53C
:100220005242C3F1000338BF5B1E00F0DCF814F04B
:10023000804F04D04042C1F1000138BF491E14F084
:10024000004F04D05242C3F1000338BF5B1E10BD03
:10025000032A40F2308010F0030C00F0158011F8F2
:10026000013BBCF1020F624498BF11F801CB00F8CA
:10027000013B38BF11F8013BA2F1040298BF00F81E
:1002800001CB38BF00F8013B11F0030300F02580DB
:10029000083AC0F0088051F8043B083A51F804CB02
:1002A000A0E80810F5E7121D5CBF51F8043B40F8C8
:1002B000043BAFF30080D20724BF11F8013B11F8D3
:1002C00001CB48BF11F8012B24BF00F8013B00F817
:1002D00001CB48BF00F8012B704710B5203AC0F0A1
:1002E0000B80B1E81850203AA0E81850B1E8185037
:1002F000A0E81850BFF4F5AF5FEA027C24BFB1E874
:100300001850A0E8185044BF18C918C0BDE81040E4
:100310005FEA827C24BF51F8043B40F8043B08BFED
:100320007047D20728BF31F8023B48BF11F8012BB4
:1003300028BF20F8023B48BF00F8012B704702F0AD
:10034000FF0343EA032242EA024200F002B84FF000
:1003500000020429C0F0128010F0030C00F01B8092
:10036000CCF1040CBCF1020F18BF00F8012BA8BFA0
:1003700020F8022BA1EB0C0100F00DB85FEAC17C64
:1003800024BF00F8012B00F8012B48BF00F8012B17
:1003900070474FF0000200B5134694469646203948
:1003A00022BFA0E80C50A0E80C50B1F12001BFF42E
:1003B000F7AF090728BFA0E80C5048BF0CC05DF894
:1003C00004EB890028BF40F8042B08BF704748BFE2
:1003D00020F8022B11F0804F18BF00F8012B704756
:1003E00070477047704753EA020C00F069802DE9AE
:1003F000F04B4FF00006002B1FBFB3FA83F503FA52
:1004000005F424FA05F65E4012BF1643B2FA82F5EF
:1004100002FA05F4C5F120051EBF22FA05FC44EAE4
:100420000C04203556EA044C4FEA144418BF641CEF
:100430004FF000084FF00009904271EB030C39D3E4
:10044000002919BFB1FA81F701FA07F6B0FA80F76F
:1004500000FA07F6C7F120071EBF20FA07FC46EA9C
:100460000C062037B6FBF4FCA7EB0507103F07F09E
:100470001F0BCBF120060CFA0BFB2CFA06F644BF3F
:10048000B3460026202FA4BF5E464FF0000B5BEA68
:10049000060C08BF4FF0010B19EB0B09ABFB027CFC
:1004A00048EB0608C01B06FB02CC0BFB03CC71EB30
:1004B0000C01C1E70B46024641464846BDE8F08BB9
:1004C00013B54FF000004FF00001AFF30080BDE81E
:1004D0001C40704710B500F009F8006810BD10B559
:1004E000044600F003F8046010BD000000487047A7
:1004F0003422002000487047342200207546FFF760
:10050000F9FFAE4605006946534620F007008546D0
:1005100018B020B5FFF766FEBDE820404FF000069A
:100520004FF000074FF000084FF0000B21F00701DB
:10053000AC46ACE8C009ACE8C009ACE8C009ACE81E
:10054000C0098D46704710B50446AFF300802046C1
:10055000BDE81040FFF731BE01491820ABBEFEE7F1
:10056000260002007047014600201A2940D2DFE829
:1005700001F00E0D0F11131517191B1D1F21232537
:1005800027292B2D2F31333537393B3D012070473B
:1005900002207047032070470420704705207047F1
:1005A00006207047072070470820704709207047D1
:1005B0000A2070470B2070470C2070470D207047B1
:1005C0000E2070470F207047102070471120704791
:1005D0001220704713207047142070471520704771
:1005E0001620704717207047182070471920704751
:1005F000FF20704710B50FF015FB0CF073FE08F0EC
:10060000BDFB08F095F90BF0B2F8BDE810400FF013
:10061000DBBA000030B500200021094B094C5A5CC0
:100620002D2A06D02B2A04D034F8115002FB0500E5
:1006300080B2491CC9B20429F1D30349C88730BD2F
:10064000840500201C3F01081400002010B5022082
:1006500000F09EF8002804D0BDE81040022000F011
:1006600001B810BDC10002D50249086070470249B7
:10067000486070470404024000000240002904D092
:10068000016841F001010160704701684FF6FE7298
:10069000114001607047000001684FF6FE72114082
:1006A00001600021016041608160C1603649364AC5
:1006B0000839904204D1486840F00F004860704704
:1006C000314A1432904204D1486840F0F00048604A
:1006D00070472D4A2832904204D1486840F4706037
:1006E00048607047284A3C32904204D1486840F440
:1006F000704048607047244A5032904204D14868A4
:1007000040F47020486070471F4A6432904204D120
:10071000486840F47000486070471B4A7832904245
:1007200004D1486840F0706048607047174A111F54
:10073000904204D1086840F00F0008607047134AE7
:100740001432904204D1086840F0F000086070470D
:100750000E4A2832904204D1086840F47060086064
:1007600070470A4A3C32904204D1086840F4704015
:1007700008607047054A50329042FAD1086840F448
:100780007020086070470000080002400804024022
:1007900002460020D10002D50449096801E004495D
:1007A0000968114200D00120704700000004024097
:1007B0000000024030B5026847F6F0739A430C6AB5
:1007C0008B682343D1E904452C4323438C6923439D
:1007D000CC6923434C6A23438C6A2343134303604D
:1007E000CA6842600A6882604968C16030BD000022
:1007F00070B50E46DDE90415134C002804EBC30464
:1008000005D0904208D3204610F0DBFF19E02046C7
:1008100010F0D0FF002070BD304490420BD2A07881
:10082000012803D0204610F0C5FF0AE020462946E3
:1008300010F0E3FF05E0A078012802D1204610F077
:10084000C0FFA07870BD0000A405002070B50E4662
:10085000DDE90415134C002804EBC30405D09042D5
:1008600008D8204610F0ADFF19E0204610F0A2FF96
:10087000002070BD801B90420BD3A078012803D0CC
:10088000204610F097FF0AE02046294610F0B5FFF9
:1008900005E0A078012802D1204610F092FFA07850
:1008A00070BD0000A405002070B5124D4FF48051BA
:1008B000284608F0E5FB104C2070E914284608F0A3
:1008C000DFFB60700020A31ED91E225C62B11D5C9C
:1008D0000A78AA430A70401CC0B20228F5D30878EF
:1008E0000649A1F8780170BD1A5C0D782A430A7098
:1008F000F1E70000000C014099000020441D002099
:100900002DE9F04788B080460C460A21B4FBF1F788
:10091000B4FBF1F001FB104A1D22002105200AF072
:100920003BF81122012105200AF036F80D220221A0
:1009300005200AF031F89A48641E0025994E4FF0C0
:100940001E0900EB8404B8F1010F5BD09648C07C0F
:1009500001287DD03146D4F87C0612F025FE12F035
:1009600001FF05903146D4F8480712F01DFE12F041
:10097000F9FE06903146D4F8140812F015FE12F074
:10098000F1FE07900095019502950395042302223C
:100990000020059906F024FF019500950295039526
:1009A000042302220120069906F01AFF0295022272
:1009B00000950195039504231046079906F010FF52
:1009C00013220321012009F001FF0321012009F076
:1009D00089FEFF220021042009F0DEFFFF22012111
:1009E000042009F0D9FF002F7DD03A4602210420CF
:1009F00009F0D2FF08B05246BDE8F04703210420B9
:100A000009F0CABF69480078F0B33146D4F8180439
:100A100012F0CAFD12F0A6FE05903146D4F8B005DA
:100A200012F0C2FD12F09EFE07900095019502950E
:100A30000395042302220020059906F0D1FE0295B9
:100A4000042302220095019503950120079900E0F7
:100A500060E006F0C5FE1E231A4619460220CDF8B6
:100A6000009009F081FD12220021012009F0AEFE64
:100A700001211222084609F0A9FE0021012009F0F7
:100A800061FE0121084600E002E009F05BFEA0E7FC
:100A90003146D4F8180412F087FD12F063FE059079
:100AA0003146D4F8E40412F07FFD12F05BFE0690AC
:100AB0003146D4F8B00512F077FD12F053FE0790DE
:100AC00000950195029503950423022200200599C3
:100AD00006F086FE019504230222009502950395F7
:100AE0000120069900E054E006F07AFE0295022209
:100AF00000950195039504231046079906F070FEB2
:100B000012220321012009F061FE0321012009F0D6
:100B1000E9FD5EE73146D4F87C0612F045FD12F09F
:100B200021FE05903146D4F8140812F03DFD12F074
:100B300019FE079000950195029503950423022262
:100B40000020059906F04CFE1E231A461946012086
:100B5000CDF8009009F008FD02950222009501955C
:100B6000039504231046079906F03AFE132200214C
:100B7000012009F02BFE13220221012009F026FE9C
:100B80000021012009F0AEFD0221012009F0AAFD9B
:100B90001FE7FF220221042009F0FEFE2AE70000E1
:100BA000440F00200000C84214000020A0200020B4
:100BB0002DE9F04F91B0FF4C0027E786FE48007802
:100BC000002804D1FC48417809B9807828B1607EBA
:100BD00018B10220E070E7736776E078F74DDFF830
:100BE000E0A3DFF8E0B3DFF8E093DFF8E083F84E4E
:100BF0002F2874D2DFE810F02F000901C101030390
:100C00003705B306EF074708E608140948097609CF
:100C1000E30B5F0CA409D509620AED0AF40AFB0A8A
:100C2000020B090B100B170B1E0B250B2C0B330B98
:100C30003A0B410B480B4F0B560B5D0B640B6B0BC8
:100C4000720B790B800B870B8E0B950B9C0BA30BF8
:100C5000AA0BB10BBB0B0E220021052009F09CFE54
:100C600015220121052009F097FEFF22022105200F
:100C700009F092FE0025DFF85C830DF13809032DA1
:100C80000BD205EB850000EBC50006EB8000006889
:100C900012F068FD49F8250007E0207FC0B1D6F8C2
:100CA000B80012F05FFD49F8250059F82500CA493F
:100CB000884203D2E18E41F00101E186C6494942F2
:100CC000014441450CD2E08E40F00200E08623E072
:100CD000D6F8AC0012F046FD49F82500E5E791E0B2
:100CE00000EB0A01594504D2E08E40F00400E08692
:100CF00012E0BA494218BA498A4204D2E08E40F062
:100D00000800E08608E0B7490144B748814203D2B1
:100D1000E08E40F01000E0866D1CEDB2042DAED3E5
:100D20000025DFF8C8A2DFF8C8B24FF0010859F873
:100D3000250012F066F852465B4612F0BBF811F03F
:100D40009BFF014694F836000097CDE901780390A7
:100D500004230022284607F0D1FB6D1CEDB2032DC1
:100D6000E5D3E08E012803D10C22032109F02EFDEA
:100D7000E08E811E0E2905D20D220321012009F0EB
:100D800025FD06E0C00604D50E220321012009F04E
:100D90001DFD0321012009F0A5FC207FE0B1D6F85C
:100DA000B80012F061FB52465B4612F083F811F076
:100DB00063FF014694F836000097CDE901780423DB
:100DC00003900022184607F099FB11B00121BDE8FD
:100DD000F04F032009F0E6BCD6F8AC0012F044FB5B
:100DE00052465B4612F066F811F046FF014694F851
:100DF00036000097CDE901780423039000221846BD
:100E000007F07CFB11B0BDE8F08F0E220021052019
:100E100009F0C2FD15220121052009F0BDFDFF22C8
:100E20000221052009F0B8FD0025DFF8A8810DF1A9
:100E30003809032D0BD205EB850000EBC50006EB4E
:100E40008000806812F08EFC49F8250007E0207FC2
:100E5000C0B1D6F8BC0012F085FC49F8250059F85D
:100E600025005D49884203D2E18E41F00101E1860F
:100E700059494942014441450BD2E08E40F00200FD
:100E8000E08622E0D6F8B00012F06CFC49F82500AC
:100E9000E5E700EB0A01594504D2E08E40F004007A
:100EA000E08612E04D4942184D498A4204D2E08E54
:100EB00040F00800E08608E04A4901444A4881427F
:100EC00003D2E08E40F01000E0866D1CEDB2042DE0
:100ED000AFD30025DFF814A1DFF814B14FF00108FB
:100EE00059F8250011F08DFF52465B4611F0E2FFE4
:100EF00011F0C2FE014694F836000097CDE9017862
:100F0000039004230022284607F0F8FA6D1CEDB286
:100F1000032DE5D3E08E012803D10C22032109F033
:100F200055FCE08E811E0E2905D20D2203210120E1
:100F300009F04CFC06E0C00604D50E220321012076
:100F400009F044FC0321012009F0FCFBD6F8B000B5
:100F500012F08AFA52465B4611F0ACFF11F08CFE9B
:100F6000014694F836000097CDE9017804230390F8
:100F70000022184607F0C2FA44E70E22002105209D
:100F800009F00AFD15220121052009F005FDFF22C7
:100F90000221052009F000FD00250DF13808032D80
:100FA0002DD205EB850000EBC50006EB8000C06884
:100FB00020E00000140000209D0000209020002070
:100FC000C0BDF0FF40548900A020002000008080B8
:100FD000900B0020A0BB0D00A0860100806967FF78
:100FE000804A5D05001F0AFA00E9A4359A9999998B
:100FF0009999B93F12F0B6FB48F8250007E0207F29
:10100000C8B1D6F8C00012F0ADFB48F8250058F87A
:101010002500FE49884203D2E18E41F00101E186BC
:10102000FA4949424218FA498A420BD2E08E40F00E
:101030000200E08622E0D6F8B40012F093FB48F8F4
:101040002500E4E700EB0A01594504D2E08E40F0A8
:101050000400E08612E0EF494218EF498A4204D2C8
:10106000E08E40F00800E08608E0EC490144EC48DE
:10107000814203D2E08E40F01000E0866D1CEDB29C
:10108000042D8CD300254FF0010A58F8250011F0EB
:10109000B8FEE44AE44B11F00DFF11F0EDFD0146FE
:1010A00094F836000097CDE9017A039004230022DA
:1010B000284606F0B1FC6D1CEDB2032DE5D3DFF838
:1010C0006C8398F80000B0B1B9F8140098B1607B57
:1010D00088B123200346024601460090002009F013
:1010E00043FA0025FF222946002009F075FA6D1CFD
:1010F000EDB2042DF6D398F801004FF01F0BB0B1FC
:10110000B9F8140098B1607B88B11F231A461946BC
:101110000120CDF800B009F027FA0025FF2229466A
:10112000012009F059FA6D1CEDB2042DF6D398F8A0
:101130000200B0B1B9F8140098B1607B88B11F23E8
:101140001A4619460220CDF800B009F00DFA002524
:10115000FF222946022009F03FFA6D1CEDB2042D52
:10116000F6D3E08E00F0200100F01002114301D10F
:10117000000705D510220321012009F027FB04E018
:101180000F220321012009F021FB0321012009F096
:10119000A9FA207FE0B1D6F8C00012F065F9A14AA3
:1011A000A14B11F087FE11F067FD014694F836005F
:1011B0000097CDE9017A042303900022184606F037
:1011C0002BFC11B00121BDE8F04F032009F0EABA71
:1011D000D6F8B40012F048F9924A934B11F06AFE27
:1011E00011F04AFD014694F836000097CDE9017AE6
:1011F000042303900022184606F00EFC02E60E229D
:101200000021052009F0C8FB15220121052009F065
:10121000C3FBFF220221052009F0BEFB0025844804
:101220000DF1180990F800A0BAF1000F07D02DB306
:10123000012D2ED0022D37D0032D3CD03EE0032DC2
:1012400010D205EB850000EBC50006EB800040697D
:10125000404501D380F0004012F014FD09EBC502B7
:1012600003C22BE0D6F89C00404501D380F000403B
:1012700012F008FD09EBC50203C21FE0D6F89C007E
:10128000404501D380F0004012F0FCFCCDE906019E
:1012900014E0D6F8A000404501D380F0004012F0E1
:1012A000F1FCCDE9080109E0D6F8A40012F0EAFC4F
:1012B000CDE90A0102E000200C900D9009EBC50178
:1012C000524A03C9821A71F1000203DAE28E42F037
:1012D0000102E28609DB574A821A71F1000204DA40
:1012E000E08E40F00200E0867FE0524A821A71F1FF
:1012F00000020ADB474A5242821A71F1000204DA04
:10130000E08E40F00400E0866FE0424A5242821ACA
:1013100071F100020ADB414A5242821A71F1000265
:1013200004DAE08E40F00800E0865EE03B4A52427C
:10133000821A71F1000209DB3F4A821A71F1000240
:1013400004DAE08E40F01000E0864EE03A4A821A5D
:1013500071F1000209DB394A821A71F1020204DAE2
:10136000E08E40F02000E0863FE0344A821A71F1BE
:10137000020209DB324A821A71F1170204DAE08EA6
:1013800040F04000E08630E02D4A821A71F11702E9
:1013900009DB2C4A821A71F1E80204DAE08E40F08F
:1013A0008000E08621E0274A821A71F1E8020BDB17
:1013B000254A40F61813821A71EB030204DAE08E14
:1013C00040F48070E08610E01F4A40F61813821A3D
:1013D00071EB030209DB1D4A45F6F323801A99419C
:1013E00003DAE08E40F40070E0866D1CEDB2042D4F
:1013F000FFF41AAF00254FF0040B4FF0010A09EB80
:10140000C50103C911F0ACFC064A21E0A086010029
:10141000A0BB0D00806967FF804A5D05001F0AFAC6
:1014200000E9A4359A9999999999B93F9D000020AE
:10143000A020002040420F0000CA9A3B00E40B5459
:1014400000E876480010A5D400A0724E00407A1043
:10145000FE4B11F02FFD12F0B3FBE28E0297CDE9A7
:10146000037ACDE9007B059202460B46284606F03A
:10147000D1FC6D1CEDB2032DC1D3F5480078A0B1AD
:10148000E08E01287DD010287CD201220021104658
:1014900009F09CF901210522084609F097F9092273
:1014A0000221012009F092F9B2E0DDE90C0111F00E
:1014B00057FCE84AE54B11F0FDFC12F081FBE28E8F
:1014C0000297CDE9037ACDE9007B059202460B46EF
:1014D000042006F09FFCE08E012807D010280BD2D4
:1014E00001220321104609F071F918E000220321BE
:1014F000012009F06BF912E0FF2805D80222032130
:10150000012009F063F90AE000F4807100F4007032
:10151000014304D003221146012009F057F90024A9
:1015200004EB840000EBC40006EB800040694045FA
:1015300004D30121204609F0C1F803E0FF21204631
:1015400009F0BCF8641CE4B2032CE9D303210120A8
:1015500009F0C8F80121032009F024F90E22002126
:10156000032009F019FAFF220121032009F014FADF
:10157000FF220221032009F00FFAFF22032108466F
:1015800001E00EE01DE009F007FAD6F89C004045A6
:10159000FFF4F2AC11B00121BDE8F04F032009F0D7
:1015A0008DB800221146012009F010F90121042212
:1015B000084609F00BF908220221012009F006F97A
:1015C00026E0FF280FD802220021012009F0FEF8B2
:1015D00001210622084609F0F9F80A220221012019
:1015E00009F0F4F814E000F4807100F40070014395
:1015F0000ED003220021012009F0E8F80121072282
:10160000084609F0E3F80B220221012009F0DEF878
:101610000121002009F0C6F80121084609F0C2F8AE
:101620000121022009F0BEF8D6F89C00404504D301
:101630000121002009F042F803E0FF21002009F019
:101640003DF8D6F8A000404506D311B00121BDE811
:10165000F04F084609F032B811B0FF21BDE8F04F55
:10166000012009F02BB80E220021052009F094F981
:1016700015220121052009F08FF9FF220221052002
:1016800009F08AF900250DF1180B032D0FD205EB97
:10169000850000EBC50006EB80008069404501D362
:1016A00080F0004012F0EEFA0BEBC50203C2032DEE
:1016B00009D1D6F8A000404501D380F0004012F0D7
:1016C000E1FACDE90C010BEBC501634A03C9821AAB
:1016D00071F1000203DAE28E42F00102E28609DBD8
:1016E0005E4A821A71F1000204DAE08E40F00200D4
:1016F000E0867BE0594A821A71F1000209DB584A00
:10170000821A71F1000204DAE08E40F00400E086F3
:101710006CE0534A821A71F1000209DB514A821AC5
:1017200071F1000204DAE08E40F00800E0865DE02E
:101730004C4A821A71F1000209DB4B4A821A71F19C
:10174000000204DAE08E40F01000E0864EE0464AE7
:10175000821A71F1000209DB444A821A71F1020215
:1017600004DAE08E40F02000E0863FE03F4A821A33
:1017700071F1020209DB3E4A821A71F1170204DAA2
:10178000E08E40F04000E08630E0394A821A71F184
:10179000170209DB374A821A71F1E80204DAE08E97
:1017A00040F08000E08621E0324A821A71F1E802BE
:1017B0000BDB314B40F61812C31A71EB020204DA4C
:1017C000E08E40F48070E08610E02B4A40F618135B
:1017D000821A71EB030209DB284B45F6F322C01A8B
:1017E000914103DAE08E40F40070E0866D1CEDB2AA
:1017F000042DFFF44AAF00254FF004094FF0010A11
:101800000BEBC50103C911F0ABFA124A0F4B11F0F3
:1018100051FB12F0D5F9E28E0297CDE9037ACDE9BA
:101820000079059202460B46284606F0F3FA6D1C35
:10183000EDB2032DE4D3DDE90C0111F091FA054A74
:10184000024B11F037FB12F0BBF919E09999B93F3F
:10185000A02000209A999999A086010040420F008B
:101860008096980000E1F50500CA9A3B00E40B540D
:1018700000E876480010A5D400A0724E00407A100F
:10188000E28E0297CDE9037ACDE90079059202460E
:101890000B46042006F0BEFAE08E012807D010287F
:1018A0000BD205220321012008F090FF18E004224A
:1018B0000321012008F08AFF12E0FF2805D8062244
:1018C0000321012008F082FF0AE000F4807100F497
:1018D0000070014304D007220321012008F076FFA5
:1018E000002404EB840000EBC40006EB8000806958
:1018F000404504D30121204608F0E0FE03E0FF212B
:10190000204608F0DBFE641CE4B2032CE9D303217B
:10191000012008F0E7FE0121032008F043FF0F2219
:101920000021032009F038F8FF220121032009F0EB
:1019300033F8FF220221032009F02EF80321FF22B1
:10194000084609F029F8D6F8A0004045FFF456AC47
:1019500011B00121BDE8F04F032008F0AFBE0E2208
:101960000021052009F018F815220121052009F0B1
:1019700013F8FF220221052009F00EF800250DF1D1
:101980001809032D0BD205EB850000EBC50006EB13
:101990008000C06912F076F909EBC50203C2032D7D
:1019A00005D1D6F8A40012F06DF9CDE90C0109EBD0
:1019B000C501F84A03C9821A71F1000203DAE28E06
:1019C00042F00102E28609DBF34A821A71F1000259
:1019D00004DAE08E40F00200E0867BE0EE4A821AF4
:1019E00071F1000209DBED4A821A71F1000204DA9A
:1019F000E08E40F00400E0866CE0E84A821A71F163
:101A0000000209DBE64A821A71F1000204DAE08E74
:101A100040F00800E0865DE0E14A821A71F10002C0
:101A200009DBE04A821A71F1000204DAE08E40F02C
:101A30001000E0864EE0DB4A821A71F1000209DBF9
:101A4000D94A821A71F1020204DAE08E40F02000D5
:101A5000E0863FE0D44A821A71F1020209DBD34AE0
:101A6000821A71F1170204DAE08E40F04000E0863D
:101A700030E0CE4A821A71F1170209DBCC4A821A91
:101A800071F1E80204DAE08E40F08000E08621E0A7
:101A9000C74A821A71F1E8020BDBC64A40F61813F6
:101AA000821A71EB030204DAE08E40F48070E08663
:101AB00010E0C04A40F61813821A71EB030209DBEA
:101AC000BD4A45F6F323801A994103DAE08E40F4CB
:101AD0000070E0866D1CEDB2042DFFF452AF0025BE
:101AE000DFF8D8A2DFF8D8B204264FF0010809EBDE
:101AF000C50103C911F034F952465B4611F0DAF919
:101B000012F05EF8E28E0297CDE90378CDE9007617
:101B1000059202460B46284606F07CF96D1CEDB294
:101B2000032DE4D3DDE90C0111F01AF952465B46AE
:101B300011F0C0F912F044F8E28E0297CDE9037873
:101B4000CDE90076059202460B46042006F062F9C4
:101B5000E08E012807D010280BD209220321012092
:101B600008F034FE18E008220321012008F02EFEC0
:101B700012E0FF2805D80A220321012008F026FEE2
:101B80000AE000F4807100F40070014304D00B22DD
:101B90000321012008F01AFE0321012008F0A2FD14
:101BA0000121032008F0FEFD10220021032008F08F
:101BB000F3FEFF220121032008F0EEFEFF220221A6
:101BC000032008F0E9FE11B0FF22BDE8F04F032129
:101BD000084608F0E1BE0E220021052008F0DCFED8
:101BE00015220121052008F0D7FEFF220221052041
:101BF00008F0D2FE002406AD04EB840000EBC40024
:101C000006EB8000006A404501D380F0004012F0EE
:101C100039F805EBC40203C20097019702970397B6
:101C200055F8341004230322204605F0D9FD641C26
:101C3000E4B2032CE0D3002404EB840000EBC400E6
:101C400006EB8000006A404504D30121204608F0DD
:101C500035FD03E0FF21204608F030FD641CE4B2AE
:101C6000032CE9D30321012008F03CFD0E220221C0
:101C7000042008F091FE11B00C22BDE8F04F0321C2
:101C8000042008F089BE0E220021052008F084FE01
:101C900015220121052008F07FFEFF2202210520E8
:101CA00008F07AFE19220121002008F075FE0F22AB
:101CB0000221002008F070FED6F8A80010F0FF4FB7
:101CC00007D040451AD380F0004011F02FFD01B23B
:101CD00017E01E220021012008F05EFE01211E22D5
:101CE000084608F059FE1E220221012008F054FE89
:101CF0001E220321012008F04FFE0BE011F016FD1B
:101D000001B2009701970297042303220120039751
:101D100005F066FDD6F8A800404504D30121084629
:101D200008F0CCFC03E0FF21012008F0C7FCD6F846
:101D3000D40010F0FF4F18D011F0F8FC0146042336
:101D400000970197029702221846039705F048FD75
:101D50000C220021032008F01FFE11B0FF22BDE875
:101D6000F04F0121032008F017BE122200210420A9
:101D700008F012FE12220121042008F00DFE1222AA
:101D80000221042008F008FE12220321042008F09A
:101D900003FEDDE7A086010040420F008096980018
:101DA00000E1F50500CA9A3B00E40B5400E87648D0
:101DB0000010A5D400A0724E00407A109A9999990B
:101DC0009999B93F0E220021052008F0E5FD172260
:101DD0000121052008F0E0FDFF220221052008F086
:101DE000DBFD00210E22084608F0D6FD1922012154
:101DF000002008F0D1FDFF220221002008F0CCFDD8
:101E000021220321002008F0C7FD286805F05EFFAD
:101E100011B00022BDE8F04F0421012008F0D6BC2B
:101E20000E220021052008F0B7FD17220121052010
:101E300008F0B2FDFF220221052008F0ADFD0120CF
:101E400008F0A6FA012008F0B9FA00210E2208468F
:101E500008F0A2FD19220121002008F09DFDFF22BB
:101E60000221002008F098FD22220321002008F022
:101E700093FD686805F02AFF11B00022BDE8F04F1D
:101E80000421012008F0A2BC0E220021052008F048
:101E900083FD17220121052008F07EFDFF2202218B
:101EA000052008F079FD00210E22084608F074FD97
:101EB0001A220121002008F06FFDFF2202210020DC
:101EC00008F06AFD21220321002008F065FDA868C2
:101ED00005F0FCFE11B00122BDE8F04F04211046D0
:101EE00008F074BC0E220021052008F055FD1722D1
:101EF0000121052008F050FDFF220221052008F0F5
:101F00004BFD00210E22084608F046FD1A22012151
:101F1000002008F041FDFF220221002008F03CFDD6
:101F200022220321002008F037FDE86805F0CEFEEC
:101F300011B00122BDE8F04F0421104608F046BC64
:101F400012220021052008F027FD1622012105207C
:101F500008F022FD0B220221052008F01DFD00974C
:101F600001970297FE4C0397042321680222002068
:101F700005F036FC12220021012008F027FC009712
:101F8000019702970397022261680423104605F027
:101F900027FC11B01322BDE8F04F0221012008F008
:101FA00015BC1D220021052008F0F6FC112201219C
:101FB000052008F0F1FC0D220221052008F0ECFCC0
:101FC00099F80000E8B3F06A11F0B0FB0146009701
:101FD00001970297042302220020039705F000FCDA
:101FE000D6F8940011F0A2FB0146009701970297E2
:101FF000042302220120039705F0F2FB1E20034672
:10200000024601460090022008F0AEFA00210120AD
:1020100008F098FB0121084608F094FB12220021E9
:10202000012008F0D3FB01211222084608F0CEFB64
:1020300011220121042008F0AFFC0D22022104200E
:1020400000E009E008F0A8FC11B00B22BDE8F04F59
:102050000321042008F0A0BCF06A11F067FB0146E0
:10206000009701970297042302220020039705F0AE
:10207000B7FB306E11F05AFB0146009701970297AB
:10208000042302220120039705F0AAFBD6F894004E
:1020900011F04CFB0146022200970197029704239E
:1020A0001046039705F09CFB0321012008F01AFB62
:1020B00012220321012008F089FBB9E71D2200212B
:1020C000052008F069FC11220121052008F064FCBC
:1020D0000D220221052008F05FFCE07C012842D09F
:1020E000306B11F023FB0146009701970297042300
:1020F00002220020039705F073FB706E11F016FBAF
:1021000001460097019702970423022201200397BA
:1021100005F066FBD6F8980011F008FB0146022294
:1021200000970197029704231046039705F058FB88
:102130000321012008F0D6FA13220321012008F020
:1021400045FB11220121042008F026FC0D2202216A
:10215000042008F021FC11B00B22BDE8F04F032150
:10216000042008F019BC306B11F0E0FA014600972A
:1021700001970297042302220020039705F030FB09
:102180001E200346024601460090012008F0ECF9AB
:10219000D6F8980011F0CAFA01460222009701977A
:1021A000029704231046039705F01AFB0021012033
:1021B00008F098FA0221012008F094FA1322002175
:1021C000012008F003FB13220221012008F0FEFA8F
:1021D000B7E711B00321BDE8F04F0120FEF790BB37
:1021E00011B00521BDE8F04F0120FEF789BB11B009
:1021F0000721BDE8F04F0120FEF782BB11B0092195
:10220000BDE8F04F0120FEF77BBB11B00B21BDE80C
:10221000F04F0120FEF774BB11B00D21BDE8F04F67
:102220000120FEF76DBB11B00F21BDE8F04F01207A
:10223000FEF766BB11B01121BDE8F04F0120FEF79B
:102240005FBB11B01321BDE8F04F0120FEF758BB72
:1022500011B01521BDE8F04F0120FEF751BB11B0C0
:102260001721BDE8F04F0120FEF74ABB11B019213C
:10227000BDE8F04F0120FEF743BB11B01B21BDE8C4
:10228000F04F0120FEF73CBB11B01D21BDE8F04F1F
:102290000120FEF735BB11B01F21BDE8F04F012032
:1022A000FEF72EBB11B00321BDE8F04F0020FEF772
:1022B00027BB11B00521BDE8F04F0020FEF720BB81
:1022C00011B00721BDE8F04F0020FEF719BB11B097
:1022D0000921BDE8F04F0020FEF712BB11B00B2121
:1022E000BDE8F04F0020FEF70BBB11B00D21BDE89B
:1022F000F04F0020FEF704BB11B00F21BDE8F04FF6
:102300000020FEF7FDBA11B01121BDE8F04F00200A
:10231000FEF7F6BA11B01321BDE8F04F0020FEF72A
:10232000EFBA11B01521BDE8F04F0020FEF7E8BA72
:1023300011B01721BDE8F04F0020FEF7E1BA11B04F
:102340001921BDE8F04F0020FEF7DABA11B01B21C9
:10235000BDE8F04F0020FEF7D3BA1D21002001E0B8
:102360003C0D002011B0BDE8F04FFEF7C9BA0120C6
:1023700008F00EF81D220021052008F00DFB1122A7
:102380000121052008F008FB0D220221052008F09C
:1023900003FB1F210020FEF7B3FAFF2200210320D8
:1023A00008F0FAFAFF220121032008F0F5FA11B033
:1023B000FF22BDE8F04F0221032008F0EDBA0DF036
:1023C00083F90D220021052008F0E6FA0E220121F2
:1023D000052008F0E1FA10220221052008F0DCFABD
:1023E00099F80000574CE8B30097019702970397BC
:1023F000042301220020216805F0F2F900970197DB
:1024000002970397012204231046A16805F0E8F91A
:102410001E220021022008F0BFFA1E220121022004
:1024200008F0BAFA02211E22084608F0B5FA1E2268
:102430000321022008F0B0FA0021012008F082F9FF
:102440000121084608F07EF913220121042008F03A
:10245000A3FA14220221042008F09EFA1522032177
:10246000042000E004E011B0BDE8F04F08F094BA99
:102470000097019702970397042301220020216807
:1024800005F0AEF900970197029703970122042304
:102490001046616805F0A4F9009701970297039729
:1024A000042301220220A16805F09AF903210120EA
:1024B00008F018F9C8E70DF007F90D2200210520F2
:1024C00008F06AFA0E220121052008F065FA1022B0
:1024D0000221052008F060FA1B4C00970197029733
:1024E0000397042301220020216805F079F9009761
:1024F000019702970397012204231046616805F0B3
:102500006FF9009701970297039704230122022095
:10251000A16805F065F90321012008F0E3F80A221B
:102520000121042008F038FA16220221042008F0C4
:1025300033FA11B01722BDE8F04F0321042008F050
:102540002BBA00009C0D0020A80D002008B50DF04E
:10255000BBF81A480079C8B1012816D11922002108
:10256000052008F019FA1B220121052008F014FAB1
:10257000FF220221052008F00FFA102000901823F6
:102580001B221921002007F0EFFF08BD1B220021AC
:10259000052008F001FA0D220121052008F0FCF9C0
:1025A000FF220221052008F0F7F90D2000900A23F0
:1025B0000E221B21002007F0D7FF08BD14000020C9
:1025C00038B50DF081F83D4C6078012802D0022822
:1025D00010D01EE01B220021052008F0DDF90D229D
:1025E0000121052008F0D8F9FF220221052008F07A
:1025F000D3F90EE019220021052008F0CDF91B22A5
:102600000121052008F0C8F9FF220221052008F069
:10261000C3F961790124022008290DD2DFE801F015
:10262000040D153E1E262E361D200090192317225C
:102630001221002007F098FF38BD162318220C2124
:102640000020009407F090FF38BD1C200246009047
:102650001F232321002007F087FF38BD22231822E3
:102660000D210020009407F07FFF38BD0090222349
:1026700018220D21002007F077FF38BD22231822F1
:102680000A210020009407F06FFF38BD009022233C
:1026900018220A21002007F067FF38BD1B20009098
:1026A0000E231E222321002007F05EFF00230922B3
:1026B00001210220009407F057FF38BD14000020CC
:1026C0002DE9FF5F0DF000F8FE4C6078012802D084
:1026D000022810D01EE01B220021052008F05CF922
:1026E0000D220121052008F057F9FF2202210520C3
:1026F00008F052F90EE019220021052008F04CF9EB
:102700001B220121052008F047F9FF2202210520A4
:1027100008F042F96078112713264FF001090228CA
:102720001BD001283AD10025E6484FF0000880F878
:102730000D804079DFF88CB31F244FF0040A0BF1B1
:10274000380B08282AD2DFE810F0E301C302D103D6
:1027500029000305AF0A57101912607908281DD205
:10276000DFE800F0045E921CDEF9F8F71D2000900F
:10277000192317221221002007F0F6FEA079052860
:102780000CD2DFE800F0030D1D2D3D001B20009052
:102790000E2315221F21012007F0E6FEBDE8FF9F52
:1027A0001F231B2217210120CDF8009007F0DCFE2B
:1027B00004B00122BDE8F05F1146104607F00CBFDF
:1027C000022000901F231B221721012007F0CCFEBE
:1027D00004B00122BDE8F05F1146104607F0FCBED0
:1027E0001F231B220C210120CDF8009007F0BCFE16
:1027F00004B00122BDE8F05F1146104607F0ECBEC0
:10280000022000901F231B220C21012007F0ACFEA8
:1028100004B00122BDE8F05F1146104607F0DCBEAF
:10282000162318220C210020CDF8009007F09CFE02
:10283000E07970B1012815D002281CD00328ADD151
:102840001A200090142316220C21012007F08CFE80
:10285000A4E719200D2300901A460A21012007F051
:1028600083FE9BE70D2000901C230A220B210120F0
:1028700007F07AFE92E70A20024600901B230D2102
:10288000012007F071FE89E71C20024600901F23FB
:102890002321002007F068FE207A0628D8D2DFE83E
:1028A00000F0030C141D26360C20024600901D2358
:1028B0001F21012007F058FE70E710231222132178
:1028C0000120009707F050FE68E7172000901A23B8
:1028D00012220D21012007F047FE5FE7192000902A
:1028E00013230A221F21012007F03EFE56E70E2087
:1028F0000090192313220C21012007F035FE04B0AB
:102900000122BDE8F05F0221104607F065BE0E20EF
:1029100000900D2316220C21012007F025FE3DE733
:10292000222318220D210020CDF8009007F01CFE74
:10293000607A06288CD2DFE800F0030F18212932D4
:102940000E2000900D2316221421012007F00CFE0A
:1029500024E7A6E071E02BE00E2000901423122261
:102960001B21012007F000FE18E7142000900E2321
:102970001B221221012007F0F7FD0FE70A231C227A
:102980001F210120009607F0EFFD07E71A200090B5
:102990001D2311221F21012007F0E6FDFEE61D2068
:1029A000009013230E220D21012007F0DDFDF5E636
:1029B00002200090222318220D21002007F0D4FDD0
:1029C000A07A062889D2DFE800F0030C151E262F16
:1029D0000E2000900D2316221421012007F0C4FDC3
:1029E000DCE60E200090142312221B21012007F0A8
:1029F000BBFDD3E6142000900E231B2212210120E0
:102A000007F0B2FDCAE60A231C221F21012000960E
:102A100007F0AAFDC2E61A2000901D2311221F21F3
:102A2000012007F0A1FDB9E61D20009013230E221E
:102A30000D21012007F098FDB0E6222318220A217B
:102A40000020CDF8009007F08FFDE07A70B10128EA
:102A500015D002281CD0032886D11A201F220090EE
:102A60000F231146012007F07FFD97E60E2000900E
:102A70000D2316221421012007F076FD8EE6142086
:102A800000900E231B221221012007F06DFD85E628
:102A90001A201F2200900D231146012007F064FD2B
:102AA0007CE602200090222318220A21002007F051
:102AB0005BFD207B88B1012818D002281FD0032895
:102AC0008ED101E0140000201A201F2200900F2355
:102AD0001146012007F048FD60E60E2000900D230E
:102AE00016221421012007F03FFD57E61420009024
:102AF0000E231B221221012007F036FD4EE61A207C
:102B00001F2200900D231146012007F02DFD45E600
:102B10001D200090192317221221002007F024FD08
:102B2000F94EFA4FB079052886D2DFE800F0033578
:102B30005C83AA001B2000900E2315221F21012078
:102B400007F012FD306C58B101288ED1707BD0B1E6
:102B50001F231A4619460220009407F005FD1DE6C2
:102B6000707B38B11F231A4619460220009407F0E3
:102B7000FBFC13E6032315221F210220CDF800A041
:102B800007F0F2FC0AE603200346009015221F21FD
:102B9000022007F0E9FC01E61F231B221721012078
:102BA000CDF8009007F0E0FC01221146104607F036
:102BB00013FDBA7953468BF801A09BF80000717B96
:102BC000CDE90109CDF80C9000910220316C04F0A0
:102BD00007FEFDF71FFD04B00D22BDE8F05F0021E8
:102BE000012007F0F3BD022000901F231B221721B4
:102BF000012007F0B9FC01221146104607F0ECFC59
:102C000053468BF801A09BF80000717BCDE90109C8
:102C1000CDF80C9000912A460220316C04F0E0FDC2
:102C2000FDF7F8FC04B00C22BDE8F05F00210120A4
:102C300007F0CCBD1F231B220C210120CDF80090F2
:102C400007F092FC01221146104607F0C5FCFA7904
:102C500053468BF801A09BF80000717BCDE9010978
:102C6000CDF80C9000910220316C04F0B9FDFDF715
:102C7000D1FC04B01022BDE8F05F0021012007F074
:102C8000A5BD022000901F231B220C21012007F06C
:102C90006BFC01221146104607F09EFC53468BF850
:102CA00001A09BF80000717BCDE90109CDF80C90E3
:102CB00000912A460220316C04F092FDFDF7AAFC37
:102CC00004B00F22BDE8F05F0021012007F07EBDB7
:102CD000162318220C210020CDF8009007F044FCA8
:102CE000894DE879F0B1012837D0022873D0032844
:102CF0007FF4AEAD1A200090142316220C2101207F
:102D000007F032FC286C01287DD00228F0D1687BC6
:102D1000002879D01F231A4619460220009407F094
:102D200023FC3BE519200D2300901A460A210120BF
:102D300007F01AFC53468BF801A09BF80000697B52
:102D4000CDE90010CDE9028942460220296C04F049
:102D500047FDBDE8FF5FFDF75DBC0D2000901C2323
:102D60000A220B21012007F0FFFB687B38B11F23EB
:102D70001A4619460220009407F0F6FB0EE5286C6F
:102D80000528CED2DFE800F0030C151E2800022231
:102D9000002301211046CDF8008007F0E5FBFDE49B
:102DA0000221002304220846CDF8008007F0DCFB56
:102DB000F4E40023082204210220CDF8008007F06B
:102DC000D3FBEBE40023062209210220CDF800808A
:102DD00007F0CAFBE2E40FE00223092201211846B2
:102DE000CDF8008007F0C0FB04B00122BDE8F05F21
:102DF0001146022007F0F0BB0A201B2302460D21DA
:102E00000090012001E056E068E007F0ADFB286C7F
:102E100078B1022820D0012831D00328AED1687BB8
:102E2000B8B31F231A4619460220009407F09CFBF2
:102E3000B4E4687B38B11F231A4619460220009477
:102E400007F092FBAAE4082315221F210220CDF8E7
:102E5000009007F089FBA1E4687B38B11F231A4674
:102E600019460220009407F07FFB97E408231622FE
:102E70001F210220CDF8009007F076FB8EE4687BDE
:102E800040B11F231A4619460220009407F06CFB3C
:102E900084E408E008230E221F210220CDF80090D0
:102EA00007F062FB7AE40220082315221F2100901C
:102EB00007F05AFB72E4687B38B11F231A461946A3
:102EC0000220009407F050FB68E41C2000901B23B4
:102ED00019221F21022007F047FB5FE40A230C227E
:102EE0001F210220009607F03FFB57E41C200246FA
:102EF00000901F232321002007F036FB024E307A7A
:102F0000062895D204E0000014000020A020002034
:102F1000DFE800F0033651AECAF00C200246009004
:102F20001D231F21012007F01FFB306C01280BD04F
:102F3000022887D1707BD0B11F231A461946022080
:102F4000009407F011FB29E4707B38B11F231A4667
:102F500019460220009407F007FB1FE41A20009096
:102F60000E231D221F21022007F0FEFA16E4162070
:102F70001F22009015231146022007F0F5FA0DE4F8
:102F80001023122213210120009707F0EDFA534677
:102F90008BF801A09BF80000717BCDE90109CDF809
:102FA0000C9000912A460220316C04F019FCBDE817
:102FB000FF5FFDF72FBB17251A2312220D210120D9
:102FC000009507F0D1FA707B38B11F231A461946D5
:102FD0000220009407F0C8FA3AE4306CA0B101284E
:102FE0001BD0022822D0032828D004282FD005285F
:102FF00035D00628F0D1142000900E230D221F2179
:10300000022007F0B1FA23E41C201F2300901A4687
:103010001946022007F0A8FA1AE412201F23009094
:103020001A461946022007F09FFA11E41F231A4698
:1030300019460220009507F097FA09E40F201F2295
:10304000009017231146022007F08EFA09E41F2290
:103050000E2311460220009507F086FA0AE40D209F
:10306000009011231B221F21022007F07DFA0AE4A1
:103070001920009013230A221F21012007F074FA5F
:1030800053468BF801A09BF80000717BCDE9010944
:10309000CDF80C9000912A460220316C04F0A0FB80
:1030A000BDE8FF5FFDF7B6BA0E200090192313228A
:1030B0000C21012007F058FA01220221104607F0E6
:1030C0008BFA306C01280BD00228D0D1707BD8B19C
:1030D0001F231A4619460220009407F045FA05E41A
:1030E000707B40B11F231A4619460220009407F056
:1030F0003BFA14E411E01A2000900E231D221F2138
:10310000022007F031FA0AE416201F22009015234E
:103110001146022007F028FA1AE40E2000900D2331
:1031200016220C21012007F01FFA53468BF801A04C
:103130009BF80000717BCDE90010CDE90289424681
:103140000220316C04F04CFBBDE8FF5FFDF762BA72
:1031500001200090222318220D21002007F004FAFC
:10316000DFF8B09D99F809000628D5D2DFE800F015
:10317000033856FDFCFB0E2000900D23162214216F
:10318000012007F0F1F999F80D0038B11F231A4614
:1031900019460220009407F0E7F908E4D9F8400046
:1031A00060B1012813D00228F7D1142000900E231B
:1031B00019221F21022007F0D7F911E40F2003463E
:1031C000009016221F21022007F0CEF908E41920F2
:1031D000009013230A221F21022007F0C5F908E4FA
:1031E0000E200090142312221B21012007F0BCF9AD
:1031F000022253468BF801A09BF8000099F80D407D
:103200000121CDE90040CDE902810220D9F840102A
:1032100004F0E6FABDE8FF5FFDF7FCB9142000906A
:103220000E231B221221012007F09EF999F80D00B0
:1032300038B11F231A4619460220009407F094F96A
:1032400013E4D9F840004828FAD2DFE800F024332C
:103250004251606F7E91A0AFBEFDFCFBFAF9F8F71A
:10326000F6F5F4F3F2F1F0EFEEEDECEBEAE9E8E776
:10327000E6E5E4E3E2E1E0DFDEDDDCDBDAD9D8D766
:10328000D6D5D4D3D2D1D0CFCECDCCCBCAC9C8C756
:10329000C6C5C4C3C2C11F230A221C210220009735
:1032A00007F062F904B00122BDE8F05F1146022088
:1032B00007F092B91F230A221C210220009607F072
:1032C00053F904B00122BDE8F05F1146022007F077
:1032D00083B91F230B221C210220009707F044F919
:1032E00004B00122BDE8F05F1146022007F074B976
:1032F0001F230B221C210220009607F035F904B091
:103300000122BDE8F05F1146022007F065B91F23D6
:103310000C221C210220009707F026F904B001229C
:10332000BDE8F05F1146022007F056B91F230C22BA
:103330001C210220009607F017F904B00122BDE815
:10334000F05F1146022007F047B91F231A461C21DF
:103350000220009707F008F904B00122BDE8F05FF1
:103360000021022002E0F1E3F1E3E3E307F034B9E6
:103370001F231A461C210220009607F0F5F804B01E
:103380000122BDE8F05F0021022007F025B90B23E0
:103390000A221C210220009707F0E6F804B001225F
:1033A000BDE8F05F0221084607F016B90B230A2298
:1033B0001C210220009607F0D7F804B00122BDE8D6
:1033C000F05F0221084607F007B90C230B223CE00E
:1033D000A7E394E39CE389E37FE375E36CE35BE3BA
:1033E0004AE339E32FE31EE30DE3FCE2ECE2DCE227
:1033F000CCE2BCE2ACE29CE28CE27CE26CE25CE21D
:103400004CE23CE22CE21CE20CE2FCE1ECE1DCE10F
:10341000CCE1BCE1ACE19CE18CE17CE16CE15CE104
:103420004CE13CE12CE11CE10CE1FCE0ECE0DCE0F7
:10343000CCE0BCE0ACE09CE08CE07CE06CE05CE0EC
:103440004CE03CE02CE01CE00CE01C21022000974A
:1034500007F08AF804B00122BDE8F05F02210846B7
:1034600007F0BAB80C230B221C210220009607F0AB
:103470007BF804B00122BDE8F05F0221084607F0A6
:10348000ABB80A230C221C210220009707F06CF82D
:1034900004B00122BDE8F05F0221084607F09CB8A5
:1034A0000A230C221C210220009607F05DF804B0CC
:1034B0000122BDE8F05F0221084607F08DB81F2306
:1034C00013221C210220009707F04EF804B00122BD
:1034D000BDE8F05F1146022007F07EB81F231322DB
:1034E0001C210220009607F03FF804B00122BDE83D
:1034F000F05F1146022007F06FB81F230A22122145
:103500000220009707F030F804B00122BDE8F05F18
:103510001146022007F060B81F230A221221022060
:10352000009607F021F804B00122BDE8F05F1146D3
:10353000022007F051B81F230B221221022000970E
:1035400007F012F804B00122BDE8F05F1146022036
:1035500007F042B81F230B2212210220009607F029
:1035600003F804B00122BDE8F05F1146022007F025
:1035700033B81F230C2212210220009706F0F4FF1B
:1035800004B00122BDE8F05F1146022007F024B824
:103590001F230C2212210220009606F0E5FF04B042
:1035A0000122BDE8F05F1146022007F015B81F2385
:1035B0001A4612210220009706F0D6FF04B001221D
:1035C000BDE8F05F0021022007F006B81F231A466D
:1035D00012210220009606F0C7FF04B00122BDE8C8
:1035E000F05F0021022006F0F7BF1F230A221721F7
:1035F0000220009706F0B8FF04B00122BDE8F05F9A
:103600001146022006F0E8BF1F230A2217210220DC
:10361000009606F0A9FF04B00122BDE8F05F114654
:10362000022006F0D9BF1F230B221721022000978A
:1036300006F09AFF04B00122BDE8F05F11460220B7
:1036400006F0CABF1F230B2217210220009606F0A6
:103650008BFF04B00122BDE8F05F1146022006F0A6
:10366000BBBF1F230C2217210220009706F07CFF0E
:1036700004B00122BDE8F05F1146022006F0ACBFA5
:103680001F230C2217210220009606F06DFF04B0C4
:103690000122BDE8F05F1146022006F09DBF1F2306
:1036A0001A4617210220009706F05EFF04B001229F
:1036B000BDE8F05F0021022006F08EBF1F231A46EE
:1036C00017210220009606F04FFF04B00122BDE84A
:1036D000F05F0021022006F07FBF1F230A2218217D
:1036E0000220009706F040FF04B00122BDE8F05F21
:1036F0001146022006F070BF1F230A221821022063
:10370000009606F031FF04B00122BDE8F05F1146DB
:10371000022006F061BF1F230B2218210220009710
:1037200006F022FF04B00122BDE8F05F114602203E
:1037300006F052BF1F230B2218210220009606F02C
:1037400013FF04B00122BDE8F05F1146022006F02D
:1037500043BF1F230C2218210220009706F004FF0C
:1037600004B00122BDE8F05F1146022006F034BF2C
:103770001F230C2218210220009606F0F5FE04B04B
:103780000122BDE8F05F1146022006F025BF1F238D
:103790001A4618210220009706F0E6FE04B0012226
:1037A000BDE8F05F0021022006F016BF1F231A4675
:1037B00018210220009606F0D7FE04B00122BDE8D1
:1037C000F05F0021022006F007BF1F230A221A2102
:1037D0000220009706F0C8FE04B00122BDE8F05FA9
:1037E0001146022006F0F8BE1F230A221A210220E9
:1037F000009606F0B9FE04B00122BDE8F05F114664
:10380000022006F0E9BE1F230B221A210220009796
:1038100006F0AAFE04B00122BDE8F05F11460220C6
:1038200006F0DABE1F230B221A210220009606F0B2
:103830009BFE04B00122BDE8F05F1146022006F0B5
:10384000CBBE1F230C221A210220009706F08CFE0B
:1038500004B00122BDE8F05F1146022006F0BCBEB4
:103860001F230C221A210220009606F07DFE04B0D0
:103870000122BDE8F05F1146022006F0ADBE1F2315
:103880001A461A210220009706F06EFE04B00122AB
:10389000BDE8F05F0021022006F09EBE1F231A46FD
:1038A0001A210220009606F05FFE04B00122BDE856
:1038B000F05F0021022006F08FBE0A230F2217219D
:1038C0000220009706F050FE04B00122BDE8F05F30
:1038D0000221084606F080BE0A230F22172102208B
:1038E000009606F041FE04B00122BDE8F05F02211F
:1038F000084606F071BE0B230F2217210220009705
:1039000006F032FE04B00122BDE8F05F0221084655
:1039100006F062BE0B230F2217210220009606F04C
:1039200023FE04B00122BDE8F05F0221084606F044
:1039300053BE0C230F2217210220009706F014FE1D
:1039400004B00122BDE8F05F0221084606F044BE43
:103950000C230F2217210220009606F005FE04B06A
:103960000122BDE8F05F0221084606F035BE1F23A4
:103970000F2217210220009706F0F6FD04B0012265
:10398000BDE8F05F1146022006F026BE1F230F227D
:1039900017210220009606F0E7FD04B00122BDE8E1
:1039A000F05F1146022006F017BE1F231A460F21B2
:1039B0000220009706F0D8FD04B00122BDE8F05FB8
:1039C0000021022006F008BE1F231A460F21022004
:1039D000009606F0C9FD04B00122BDE8F05F0021A9
:1039E000022006F0F9BD0A20009011231B221C21A1
:1039F000022006F0B9FD04B00122BDE8F05F02210B
:103A0000084606F0E9BD0B20009011231B221C2163
:103A1000022006F0A9FD04B00122BDE8F05F0221FA
:103A2000084606F0D9BD0C20009011231B221C2152
:103A3000022006F099FD04B00122BDE8F05F0221EA
:103A4000084606F0C9BD11231B221C210220009448
:103A500006F08AFDBDE8FF9F0A20009011231B227B
:103A60001221022006F080FD04B00122BDE8F05FC3
:103A70000221084606F0B0BD0B20009011231B2246
:103A80001221022006F070FD04B00122BDE8F05FB3
:103A90000221084606F0A0BD0C20009011231B2235
:103AA0001221022006F060FD04B00122BDE8F05FA3
:103AB0000221084606F090BD11231B22122102208C
:103AC000009406F051FDC5E71C2000900B23142242
:103AD0001221022006F048FDBCE7122001460090AA
:103AE0000B231422022006F03FFDB3E7012002461B
:103AF00000901E230D21022006F036FDAAE71E23AA
:103B000001220D210220CDF8008006F02DFDA1E755
:103B10000120022200901E230D21104606F024FDF4
:103B200098E702221E230D211046CDF8008006F0F2
:103B30001BFD8FE70A231C221F210120009606F09F
:103B400013FDF548407E44282DD201E08EE040E090
:103B5000DFE800F022222222222222222222222216
:103B60002222222224242424242424242929292909
:103B700029292929292929292929292929292929B5
:103B800029292929262626262626262628282828C1
:103B90002828282828282828012504E0032502E0D1
:103BA000032500E0022553468BF801A09BF8001086
:103BB00099F80D20CDE901180120009203902A46C2
:103BC0000220D9F8401003F00BFEBDE8FF5FFCF7C0
:103BD00021BD1A2000901D2311221F21012006F073
:103BE000C3FCCD48407E44282AD2DFE800F02222E0
:103BF00022222222222222222222222222222424A1
:103C00002424242424242929292929292929292942
:103C1000292929292929292929292929292926261A
:103C20002626262626262828282828282828282820
:103C30002828012504E0032502E0032500E00225F1
:103C400053468BF801A09BF8001099F80D20CDE9A0
:103C500001180120009203902A460220D9F8401052
:103C600003F0BEFDBDE8FF5FFCF7D4BC1D20009053
:103C700013230E220D21012006F076FC022253466A
:103C80008BF801A09BF8001099F80D40CDE90118C0
:103C90000120039000940220D9F8401003F0A0FD09
:103CA000BDE8FF5FFCF7B6BC02200090222318227B
:103CB0000D21002006F058FC9648807A0628BFF4B3
:103CC00002AFDFE800F0033753FDFCFB0E2000904D
:103CD0000D2316221421012006F046FC8D48417B5D
:103CE00039B11F231A4619460220009406F03CFC05
:103CF000B0E6006C60B1012813D00228F8D114207E
:103D000000900E2319221F21022006F02DFCA1E6AF
:103D10000F200346009016221F21022006F024FCEB
:103D200098E61920009013230A221F21022006F092
:103D30001BFC8FE60E200090142312221B21012071
:103D400006F012FC022253468BF801A071489BF842
:103D50000010447BCDE90041CDE90289016C0220CD
:103D600003F03EFDBDE8FF5FFCF754BC142000905B
:103D70000E231B221221012006F0F6FB6548417B31
:103D800039B11F231A4619460220009406F0ECFBB5
:103D900060E6006C4828ABD2DFE800F024334251E3
:103DA000606F7E8DA0AFFCFBFAF9F8F7F6F5F4F33F
:103DB000F2F1F0EFEEEDECEBEAE9E8E7E6E5E4E35B
:103DC000E2E1E0DFDEDDDCDBDAD9D8D7D6D5D4D34B
:103DD000D2D1D0CFCECDCCCBCAC9C8C7C6C5C4C33B
:103DE000C2C1C0BB1F230A221C210220009706F07B
:103DF000BBFB04B00122BDE8F05F1146022006F0D3
:103E0000EBBB1F230A221C210220009606F0ACFB0C
:103E100004B00122BDE8F05F1146022006F0DCBBD1
:103E20001F230B221C210220009706F09DFB04B0EB
:103E30000122BDE8F05F1146022006F0CDBB1F2332
:103E40000B221C210220009606F08EFB04B00122FA
:103E5000BDE8F05F1146022006F0BEBB1F230C2216
:103E60001C210220009706F07FFB04B00122BDE870
:103E7000F05F1146022006F0AFBB1F230C221C216D
:103E80000220009606F070FB04B00122BDE8F05F4E
:103E90001146022006F0A0BB1F231A461C21022057
:103EA000009706F061FB04B00122BDE8F05F00213D
:103EB000022006F091BB1F231A4602E0F3E3F3E36E
:103EC000E4E31C210220009606F04EFB04B0012220
:103ED000BDE8F05F0021022006F07EBB0B230A2222
:103EE0001C210220009706F03FFB04B00122BDE830
:103EF000F05F0221084606F06FBB0B230A221C214B
:103F00000220009606F030FB01220221084604B090
:103F100041E0B2E314000020542100209BE3A3E31E
:103F200090E386E37CE373E362E351E340E336E34B
:103F300025E314E303E3F3E2E3E2D3E2C3E2B3E213
:103F4000A3E293E283E273E263E253E243E233E209
:103F500023E213E203E2F3E1E3E1D3E1C3E1B3E1FE
:103F6000A3E193E183E173E163E153E143E133E1F1
:103F700023E113E103E1F3E0E3E0D3E0C3E0B3E0E6
:103F8000A3E093E083E073E063E053E043E033E0D9
:103F900023E013E003E0BDE8F05F06F01DBB0C2357
:103FA0000B221C210220009706F0DEFA04B0012249
:103FB000BDE8F05F0221084606F00EBB0C230B2281
:103FC0001C210220009606F0CFFA04B00122BDE8C1
:103FD000F05F0221084606F0FFBA0A230C221C21DA
:103FE0000220009706F0C0FA04B00122BDE8F05F9D
:103FF0000221084606F0F0BA0A230C221C210220F6
:10400000009606F0B1FA04B00122BDE8F05F02218B
:10401000084606F0E1BA1F2313221C210220009754
:1040200006F0A2FA04B00122BDE8F05F11460220BA
:1040300006F0D2BA1F2313221C210220009606F09C
:1040400093FA04B00122BDE8F05F1146022006F0A9
:10405000C3BA1F230A2212210220009706F084FA15
:1040600004B00122BDE8F05F1146022006F0B4BAA8
:104070001F230A2212210220009606F075FA04B0CE
:104080000122BDE8F05F1146022006F0A5BA1F2309
:104090000B2212210220009706F066FA04B00122DA
:1040A000BDE8F05F1146022006F096BA1F230B22EE
:1040B00012210220009606F057FA04B00122BDE852
:1040C000F05F1146022006F087BA1F230C2212214E
:1040D0000220009706F048FA04B00122BDE8F05F24
:1040E0001146022006F078BA1F230C22122102206A
:1040F000009606F039FA04B00122BDE8F05F1146DF
:10410000022006F069BA1F231A46122102200097E6
:1041100006F02AFA04B00122BDE8F05F0021022077
:1041200006F05ABA1F231A4612210220009606F002
:104130001BFA04B00122BDE8F05F0021022006F066
:104140004BBA1F230A2217210220009706F00CFA0F
:1041500004B00122BDE8F05F1146022006F03CBA2F
:104160001F230A2217210220009606F0FDF904B051
:104170000122BDE8F05F1146022006F02DBA1F2390
:104180000B2217210220009706F0EEF904B001225D
:10419000BDE8F05F1146022006F01EBA1F230B2275
:1041A00017210220009606F0DFF904B00122BDE8D5
:1041B000F05F1146022006F00FBA1F230C221721D0
:1041C0000220009706F0D0F904B00122BDE8F05FAC
:1041D0001146022006F000BA1F230C2217210220EC
:1041E000009606F0C1F904B00122BDE8F05F114667
:1041F000022006F0F1B91F231A461721022000976A
:1042000006F0B2F904B00122BDE8F05F00210220FF
:1042100006F0E2B91F231A4617210220009606F085
:10422000A3F904B00122BDE8F05F0021022006F0EE
:10423000D3B91F230A2218210220009706F094F90F
:1042400004B00122BDE8F05F1146022006F0C4B9B7
:104250001F230A2218210220009606F085F904B0D7
:104260000122BDE8F05F1146022006F0B5B91F2318
:104270000B2218210220009706F076F904B00122E3
:10428000BDE8F05F1146022006F0A6B91F230B22FD
:1042900018210220009606F067F904B00122BDE85B
:1042A000F05F1146022006F097B91F230C22182157
:1042B0000220009706F058F904B00122BDE8F05F33
:1042C0001146022006F088B91F230C221821022073
:1042D000009606F049F904B00122BDE8F05F1146EE
:1042E000022006F079B91F231A46182102200097F0
:1042F00006F03AF904B00122BDE8F05F0021022087
:1043000006F06AB91F231A4618210220009606F00B
:104310002BF904B00122BDE8F05F0021022006F075
:104320005BB91F230A221A210220009706F01CF90C
:1043300004B00122BDE8F05F1146022006F04CB93E
:104340001F230A221A210220009606F00DF904B05C
:104350000122BDE8F05F1146022006F03DB91F239F
:104360000B221A210220009706F0FEF804B0012269
:10437000BDE8F05F1146022006F02EB91F230B2284
:104380001A210220009606F0EFF804B00122BDE8E1
:10439000F05F1146022006F01FB91F230C221A21DC
:1043A0000220009706F0E0F804B00122BDE8F05FBB
:1043B0001146022006F010B91F230C221A210220F8
:1043C000009606F0D1F804B00122BDE8F05F114676
:1043D000022006F001B91F231A461A210220009775
:1043E00006F0C2F804B00122BDE8F05F002102200F
:1043F00006F0F2B81F231A461A210220009606F092
:10440000B3F804B00122BDE8F05F0021022006F0FD
:10441000E3B80A230F2217210220009706F0A4F820
:1044200004B00122BDE8F05F0221084606F0D4B8CE
:104430000A230F2217210220009606F095F804B0F7
:104440000122BDE8F05F0221084606F0C5B80B2343
:104450000F2217210220009706F086F804B00122EF
:10446000BDE8F05F0221084606F0B6B80B230F2224
:1044700017210220009606F077F804B00122BDE86B
:10448000F05F0221084606F0A7B80C230F2217217F
:104490000220009706F068F804B00122BDE8F05F42
:1044A0000221084606F098B80C230F22172102209B
:1044B000009606F059F804B00122BDE8F05F022131
:1044C000084606F089B81F230F2217210220009703
:1044D00006F04AF804B00122BDE8F05F1146022060
:1044E00006F07AB81F230F2217210220009606F04B
:1044F0003BF804B00122BDE8F05F1146022006F04F
:104500006BB81F231A460F210220009706F02CF8E3
:1045100004B00122BDE8F05F0021022006F05CB883
:104520001F231A460F210220009606F01DF804B042
:104530000122BDE8F05F0021022006F04DB80A20FC
:10454000009011231B221C21022006F00DF804B05C
:104550000122BDE8F05F0221084606F03DB80B20BD
:10456000009011231B221C21022005F0FDFF04B046
:104570000122BDE8F05F0221084606F02DB80C20AC
:10458000009011231B221C21022005F0EDFF04B036
:104590000122BDE8F05F0221084606F01DB8112394
:1045A0001B221C210220009405F0DEFFBDE8FF9FC6
:1045B0000A20009011231B221221022005F0D4FFB3
:1045C00004B00122BDE8F05F0221084606F004B8FD
:1045D0000B20009011231B221221022005F0C4FFA2
:1045E00004B00122BDE8F05F0221084605F0F4BFE7
:1045F0000C20009011231B221221022005F0B4FF91
:1046000004B00122BDE8F05F0221084605F0E4BFD6
:1046100011231B2212210220009405F0A5FFC5E7FB
:104620001C2000900B2314221221022005F09CFF75
:10463000BCE71220014600900B231422022005F053
:1046400093FFB3E71E2301220D210220CDF8009035
:1046500005F08AFFAAE71E2301220D210220CDF8D2
:10466000008005F081FFA1E702221E230D211046E4
:10467000CDF8009005F078FF98E702221E230D2167
:104680001046CDF8008005F06FFF8FE70A231C224B
:104690001F210120009605F067FFFA4890F82300DB
:1046A00044282DD201E08BE03EE0DFE800F022223A
:1046B00022222222222222222222222222222424D6
:1046C0002424242424242929292929292929292978
:1046D0002929292929292929292929292929262650
:1046E0002626262626262828282828282828282856
:1046F0002828012504E0032502E0032500E0022527
:1047000053468BF801A0E0489BF80010427BCDE9AE
:104710000021CDE90289016C2A46022003F060F8ED
:10472000BDE8FF5FFBF776BF1A2000901D23112222
:104730001F21012005F018FFD24890F823004428DB
:104740002AD2DFE800F02222222222222222222262
:10475000222222222222242424242424242429291B
:1047600029292929292929292929292929292929B9
:1047700029292929292926262626262626262828C3
:1047800028282828282828282828012504E0032567
:1047900002E0032500E0022553468BF801A0BA4849
:1047A0009BF80010427BCDE90021CDE90289016C24
:1047B0002A46022003F014F8BDE8FF5FFBF72ABF8A
:1047C0001D20009013230E220D21012005F0CCFEA8
:1047D000022253468BF801A0AB489BF80010447BA3
:1047E000CDE90041CDE90289016C022002F0F8FF19
:1047F000BDE8FF5FFBF70EBF222318220A2100202D
:10480000CDF8009005F0B0FE9F4EF07A10B301286D
:1048100065D0022875D003287FF401AF1A201F222B
:1048200000900F231146012005F09EFE954890F858
:1048300041001A286AD2DFE800F0F4F4F4F4F4F44A
:10484000F3F3F3696969696969696969696969F2B1
:10485000F2F2F2F10E2000900D2316221421012015
:1048600005F082FE707B38B11F231A4619460220DC
:10487000009405F079FE99E6306CA8B101281CD0AF
:10488000022823D00328F6D102231A460121184614
:10489000CDF8008005F068FE04B00122BDE8F05FAD
:1048A0001146022005F098BE0F2003460090162204
:1048B0001F21022005F058FE78E602231E22042163
:1048C0001846CDF8008005F04FFE6FE602231E2249
:1048D00000211846CDF8008005F046FE66E614205B
:1048E00000900E231B221221012005F03DFE707B5B
:1048F00040B11F231A4619460220009405F034FEE9
:1049000054E6EBE0306C1A28B5D200E023E1DFE892
:1049100000F00D151D252D353D454D555D656D7519
:104920007D899199A1A9B1BDC5CDD5DD1F230A22ED
:104930001C210220009405F017FE37E61F230B22EE
:104940001C210220009405F00FFE2FE61F230C22ED
:104950001C210220009405F007FE27E60B230A2203
:104960001C210220009405F0FFFD1FE60C230B2202
:104970001C210220009405F0F7FD17E60A230C2203
:104980001C210220009405F0EFFD0FE61F230A22F0
:1049900012210220009405F0E7FD07E61F230B22F9
:1049A00012210220009405F0DFFDFFE51F230C22F9
:1049B00012210220009405F0D7FDF7E51F230A22FB
:1049C00017210220009405F0CFFDEFE51F230B22F5
:1049D00017210220009405F0C7FDE7E51F230C22F4
:1049E00017210220009405F0BFFDDFE51F230C22F4
:1049F00017210220009405F0B7FDD7E51F230A22F6
:104A000018210220009405F0AFFDCFE51F230B22F3
:104A100018210220009405F0A7FDC7E59AE097E071
:104A200094E091E01F230C2218210220009405F04D
:104A30009BFDBBE51F230C2218210220009405F0EA
:104A400093FDB3E51F230A221A210220009405F0EA
:104A50008BFDABE51F230B221A210220009405F0E9
:104A600083FDA3E51F230C221A210220009405F0E8
:104A70007BFD9BE51F230C221A210220009405F0E8
:104A800073FD93E554210020140000200A230F2217
:104A900017210220009405F067FD87E50B230F2204
:104AA00017210220009405F05FFD7FE50C230F2203
:104AB00017210220009405F057FD77E51F230F22F0
:104AC00017210220009405F04FFD6FE51F231A46C1
:104AD0000F210220009405F047FD67E51A201F22F0
:104AE00000900D231146012005F03EFDF74890F897
:104AF00041001A2815D2DFE800F00D0D0D0D0D0D47
:104B00000F0F0F1414141414141414141414141177
:104B100011111113012504E0032502E0032500E033
:104B2000022553468BF801A09BF80000717BCDE96C
:104B30000010CDE902892A460220316C02F050FEB5
:104B4000BDE8FF5FFBF766BD012504E0032502E039
:104B5000032500E0022553468BF801A09BF80000D6
:104B6000717BCDE90010CDE902892A460220316C23
:104B700002F036FEBDE8FF5FFBF74CBD022000905F
:104B8000222318220A21002005F0EEFCD04E307BB3
:104B900008B3012864D0022874D0032885D11A20D4
:104BA0001F2200900F231146012005F0DDFCC748AD
:104BB00090F847001A286AD2DFE800F0F4F4F4F421
:104BC000F4F4F3F3F36969696969696969696969A1
:104BD00069F2F2F2F2F10E2000900D231622142158
:104BE000012005F0C1FC707B38B11F231A4619461D
:104BF0000220009405F0B8FCD8E4306CA8B101287C
:104C00001CD0022823D00328F6D102231A46012102
:104C10001846CDF8008005F0A7FC04B00122BDE8DD
:104C2000F05F1146022005F0D7BC0F20034600902C
:104C300016221F21022005F097FCB7E402231E2252
:104C400004211846CDF8008005F08EFCAEE4022366
:104C50001E2200211846CDF8008005F085FCA5E451
:104C6000142000900E231B221221012005F07CFC51
:104C7000707B40B11F231A4619460220009405F0AC
:104C800073FC93E4E7E0306C1A28B5D200E024E12D
:104C9000DFE800F00D151D252D353D454D555D65B1
:104CA0006D757D899199A1A9B1B9C1C9D1D91F23C8
:104CB0000A221C210220009405F056FC76E41F23F2
:104CC0000B221C210220009405F04EFC6EE41F23F1
:104CD0000C221C210220009405F046FC66E40B2304
:104CE0000A221C210220009405F03EFC5EE40C2305
:104CF0000B221C210220009405F036FC56E40A2306
:104D00000C221C210220009405F02EFC4EE41F23EF
:104D10000A2212210220009405F026FC46E41F23FB
:104D20000B2212210220009405F01EFC3EE41F23FA
:104D30000C2212210220009405F016FC36E41F23F9
:104D40000A2217210220009405F00EFC2EE41F23F6
:104D50000B2217210220009405F006FC26E41F23F5
:104D60000C2217210220009405F0FEFB1EE41F23F5
:104D70000C2217210220009405F0F6FB16E41F23F5
:104D80000A2218210220009405F0EEFB0EE41F23F6
:104D90000B2218210220009405F0E6FB06E49BE0BC
:104DA00098E090E08DE01F230C221821022000944F
:104DB00005F0DAFB33E41F230C22182102200094B3
:104DC00005F0D2FB2BE41F230A221A2102200094B3
:104DD00005F0CAFB23E41F230B221A2102200094B2
:104DE00005F0C2FB1BE41F230C221A2102200094B1
:104DF00005F0BAFB13E41F230C221A2102200094B1
:104E000005F0B2FB0BE40A230F22172102200094C5
:104E100005F0AAFB03E40B230F22172102200094C4
:104E200005F0A2FB04E40C230F22172102200094BA
:104E300005F09AFB05E41F230F221721022000949E
:104E400005F092FB06E41F231A460F21022000946E
:104E500005F08AFB07E41A201F2200900D2311465B
:104E6000012005F081FB194890F847001A2815D257
:104E7000DFE800F00D0D0D0D0D0D0F0F0F141414C4
:104E800014141414141414141411111111130125F1
:104E900004E0032502E0032500E0022553468BF8D9
:104EA00001A09BF80000717BCDE90010CDE90289DB
:104EB0002A460220316C02F093FCBDE8FF5FFBF74D
:104EC000A9BB012509E0032507E0000054210020CB
:104ED00014000020032500E0022553468BF801A0B2
:104EE0009BF80000717BCDE90010CDE902892A46CC
:104EF0000220316C02F074FCBDE8FF5FFBF78ABB57
:104F00007FB519220021052005F046FD1B22012155
:104F1000052005F041FDFF220221052005F03CFDA2
:104F200000241020009018231B221921002005F0D6
:104F30001BFB0E2000900D2316220C21012005F0F2
:104F400013FB0A4A0121A2F138001378457BCDE911
:104F50000131009503915378016C2246022002F042
:104F60003FFCBDE87F40FBF755BB00004C00002034
:104F700008B51020009018231B221921002005F0ED
:104F8000F3FA0E2000900D2316220C21012005F0CB
:104F9000EBFA0A48407B40B11920034600900E22EC
:104FA0001F21022005F0E0FA08BD1F20034602463B
:104FB00001460090022005F0D7FA08BD1400002039
:104FC00038B50E2000901E230A221C21002005F077
:104FD000CBFA1F242346224621460120009405F0E7
:104FE000C3FA1649086C01280CD0022809D1487B65
:104FF000D8B116201F22009015231146022005F07B
:10500000B3FA38BD487B40B11A2000900E231D2210
:105010001F21022005F0A8FA38BD1F231A461946A1
:105020000220009405F0A0FA38BD1F231A46194645
:105030000220009405F098FA38BD0000140000200A
:105040002DE9FF5F00250AF03FFBDFF8F8AF9AF883
:105050000100012802D0022810D01EE01B220021EE
:10506000052005F099FC0D220121052005F094FC96
:10507000FF220221052005F08FFC0EE019220021FD
:10508000052005F089FC1B220121052005F084FC88
:10509000FF220221052005F07FFC9AF8010000277D
:1050A000012801D18AF80D709AF80500DFF8949F65
:1050B0001F2413264FF0040809F138094FF01A0B8A
:1050C000082831D2DFE810F00800D500E7013000F1
:1050D0002203EB08B60E7C101D2000901923172226
:1050E0001221002005F040FA9AF8060005281BD28C
:1050F000DFE800F00339537C96001B2000900E235C
:1051000015221F21012005F02FFADAF8400068B1BE
:10511000012809D19AF80D00E0B11F231A4619465B
:105120000220009405F020FABDE8FF9F9AF80D00D8
:1051300038B11F231A4619460220009405F014FACC
:10514000F2E7032315221F210220CDF8008005F08D
:105150000BFAE9E703200346009015221F210220E5
:1051600005F002FAE0E701201F231B22172100901F
:1051700005F0FAF901221146104605F02DFADAF889
:10518000400002F089FAFBF745FA04B00D22BDE8B1
:10519000F05F0021012005F019BB022000901F23C1
:1051A0001B221721012005F0DFF9012211461046CC
:1051B00005F012FA434689F80180012099F80010A1
:1051C0009AF80D20CDE90110009203902A460220A2
:1051D000DAF8401002F004FBFBF71CFA04B00C22D2
:1051E000BDE8F05F0021012005F0F0BA01201F2387
:1051F0001B220C21009005F0B7F901221146104640
:1052000005F0EAF9DAF8400002F0A2F9FBF702FA39
:1052100004B01022BDE8F05F0021012005F0D6BAED
:10522000022000901F231B220C21012005F09CF975
:1052300001221146104605F0CFF9434689F8018056
:10524000012099F800109AF80D20CDE90110009284
:1052500003902A460220DAF8401002F0C1FAFBF768
:10526000D9F904B00F22BDE8F05F0021012005F05C
:10527000ADBA0125162318220C210020009505F057
:1052800073F99AF8070000B301283BD0022875D0C3
:1052900003287FF455AF142316220C210120CDF8EA
:1052A00000B005F061F9DAF84000012867D0022863
:1052B000EFD19AF80D0000287ED01F231A46194618
:1052C0000220009405F050F92EE719200D230090DC
:1052D0001A460A21012005F047F9434689F8018062
:1052E00099F800009AF80D10CDE90010CDE902758B
:1052F0003A460220DAF8401002F072FABDE8FF5F89
:10530000FBF788B90D2000901C230A220B210120F5
:1053100005F02AF99AF80D0038B11F231A461946EC
:105320000220009405F020F9FEE6DAF84000052896
:10533000CAD2DFE800F0030B131B25000222002372
:1053400001211046009705F00FF9EDE60221002338
:1053500004220846009705F007F9E5E60023082235
:1053600004210220009705F0FFF8DDE60023062265
:1053700009210220009705F0F7F8D5E60FE06EE06E
:105380000223092201211846009705F0EDF804B028
:105390000122BDE8F05F1146022005F01DB90A2088
:1053A000024600901B230D21012005F0DDF8DAF8FC
:1053B000400090B1022800E065E021D0012832D001
:1053C0000328B1D19AF80D00C0B31F231A4619461D
:1053D0000220009405F0C8F8A6E69AF80D0038B14E
:1053E0001F231A4619460220009405F0BDF89BE6DB
:1053F000082315221F210220009505F0B5F893E639
:105400009AF80D0038B11F231A461946022000945D
:1054100005F0AAF888E6082316221F21022000952D
:1054200005F0A2F880E69AF80D0040B11F231A4655
:1054300019460220009405F097F875E607E0082366
:105440000E221F210220009505F08EF86CE6022046
:10545000082315221F21009005F086F864E69AF8CB
:105460000D0038B11F231A4619460220009405F09A
:105470007BF859E61C2000901B2319221F210220D3
:1054800005F072F850E60A230C221F210220009634
:1054900005F06AF848E61C261F2332462321002027
:1054A000009605F061F89AF80800062894D2DFE823
:1054B00000F0033957B5D3F10C20024600901D23AC
:1054C0001F21012005F050F8DAF8400001280CD027
:1054D00002288CD19AF80D00D8B11F231A4619461C
:1054E0000220009405F040F81EE69AF80D0038B14D
:1054F0001F231A4619460220009405F035F813E6DA
:105500000E231D221F210220CDF800B005F02CF83B
:105510000AE616201F22009015231146022005F0EE
:1055200023F801E6112000901023122213210120FC
:1055300005F01AF8434689F80180012099F8001017
:105540009AF80D20CDE90110009203902A4602201E
:10555000DAF8401002F044F9BDE8FF5FFBF75AB8F3
:1055600017251A2312220D210120009504F0FCFFBB
:105570009AF80D0038B11F231A46194602200094EC
:1055800004F0F2FFD0E5DAF84000A0B101281AD00B
:10559000022821D0032827D004282ED0052834D073
:1055A0000628A1D1142000900E230D221F210220D5
:1055B00004F0DAFFB8E51F231A46194602200096C8
:1055C00004F0D2FFB0E512201F2300901A461946BE
:1055D000022004F0C9FFA7E51F231A46194602203E
:1055E000009504F0C1FF9FE50F201F2200901723B4
:1055F0001146022004F0B8FF96E51F220E23114643
:105600000220009504F0B0FF8EE50D2000901123DC
:105610001B221F21022004F0A7FF85E5192000901E
:1056200013230A221F21012004F09EFF434689F81C
:105630000180012099F800109AF80D20CDE90110A1
:10564000009203902A460220DAF8401002F0C8F8CF
:10565000BDE8FF5FFAF7DEBF0E200090192313228A
:105660000C21012004F080FF01220221104604F0E9
:10567000B3FFDAF8400001280DD002289AD19AF839
:105680000D00E0B11F231A4619460220009404F0D1
:105690006BFF49E51CE09AF80D0038B11F231A464C
:1056A00019460220009404F05FFF3DE50E231D2201
:1056B0001F210220CDF800B004F056FF34E516207B
:1056C0001F22009015231146022004F04DFF2BE508
:1056D0000E2000900D2316220C21012004F044FF1F
:1056E000434689F8018099F800009AF80D4001219D
:1056F000CDE90040CDE902713A460220DAF84010C7
:1057000002F06EF8BDE8FF5FFAF784BF0120009059
:10571000222318220D21002004F026FF9AF8090008
:105720000628B6D2DFE800F0033856FEFDFC0E2056
:1057300000900D2316221421012004F015FF9AF881
:105740000D0038B11F231A4619460220009404F0B8
:105750000BFFE9E4DAF8400060B1012813D0022819
:1057600097D1142000900E2319221F21022004F04B
:10577000FBFED9E40F200346009016221F210220D1
:1057800004F0F2FED0E41920009013230A221F2116
:10579000022004F0E9FEC7E40E2000901423122238
:1057A0001B21012004F0E0FE0222434689F801801B
:1057B00099F800109AF80D40CDE9011701200390E7
:1057C00000940220DAF8401002F00AF8BDE8FF5F0A
:1057D000FAF720BF142000900E231B221221012073
:1057E00004F0C2FE9AF80D0038B11F231A4619467C
:1057F0000220009404F0B8FE96E4DAF8400048284D
:10580000A7D2DFE800F02434435362728195A4B438
:10581000FDFCFBFAF9F8F7F6F5F4F3F2F1F0EFEE30
:10582000EDECEBEAE9E8E7E6E5E4E3E2E1E0DFDE20
:10583000DDDCDBDAD9D8D7D6D5D4D3D2D1D0CFCE10
:10584000CDCCCBCAC9C8C7C6C5C4C3C2C1C011204C
:1058500000901F230A221C21022004F085FE04B0C0
:105860000122BDE8F05F1146022004F0B5BE1F23FF
:105870000A221C210220009604F076FE04B00122C8
:10588000BDE8F05F1146022004F0A6BE1120009092
:105890001F230B221C21022004F066FE04B001220B
:1058A000BDE8F05F1146022004F096BE1F230B22D4
:1058B0001C210220009604F057FE04B00122BDE82E
:1058C000F05F1146022004F087BE112000901F23D4
:1058D0000C221C21022004F047FE04B00122BDE886
:1058E000F05F1146022004F077BE1F230C221C211A
:1058F0000220009604F038FE04B00122BDE8F05FFB
:105900001146022004F068BE11201F2300901A46A1
:105910001C21022004F028FE01220021022002E0C6
:10592000F2E3F2E3F2E304B0BDE8F05F04F054BE4A
:105930001F231A461C210220009604F015FE04B015
:105940000122BDE8F05F0021022004F045BE1120D5
:1059500000900B230A221C21022004F005FE04B053
:105960000122BDE8F05F0221084604F035BE0B239A
:105970000A221C210220009604F0F6FD01220221D9
:10598000084604B03DE0CBE3B6E3C0E3ABE3A1E3FC
:1059900097E38EE37DE36CE35BE34EE33DE32CE3CF
:1059A0001BE30BE3FAE2EAE2D9E2C9E2B8E2A8E2D9
:1059B00097E287E276E266E255E245E234E224E2EB
:1059C00013E203E2F2E1E2E1D1E1C1E1B0E1A0E101
:1059D0008FE17FE16EE15EE14DE13DE12CE11CE113
:1059E0000BE1FBE0EAE0DAE0C9E0B9E0A8E098E02A
:1059F00087E077E066E056E045E035E024E014E03B
:105A000003E0BDE8F05F04F0E7BD112000900C2337
:105A10000B221C21022004F0A7FD04B00122BDE8E6
:105A2000F05F0221084604F0D7BD0C230B221C2195
:105A30000220009604F098FD04B00122BDE8F05F5A
:105A40000221084604F0C8BD112000900A230C2250
:105A50001C21022004F088FD04B00122BDE8F05FA3
:105A60000221084604F0B8BD0A230C221C210220A2
:105A7000009604F079FD04B00122BDE8F05F022138
:105A8000084604F0A9BD112000901F2313221C21F9
:105A9000022004F069FD04B00122BDE8F05F114668
:105AA000022004F099BD1F2313221C21022000961E
:105AB00004F05AFD04B00122BDE8F05F1146022057
:105AC00004F08ABD112000901F230A221221022017
:105AD00004F04AFD04B00122BDE8F05F1146022047
